{
  "address": "0x0583ce2dc21d4d6b7cdcf599ca6cc03043652ef3",
  "abi": [
    {
      "inputs": [
        {
          "internalType": "address",
          "name": "_manager",
          "type": "address"
        },
        {
          "internalType": "address payable",
          "name": "_feesReceiver",
          "type": "address"
        }
      ],
      "stateMutability": "nonpayable",
      "type": "constructor"
    },
    {
      "anonymous": false,
      "inputs": [
        {
          "indexed": true,
          "internalType": "address",
          "name": "owner",
          "type": "address"
        },
        {
          "indexed": true,
          "internalType": "address",
          "name": "approved",
          "type": "address"
        },
        {
          "indexed": true,
          "internalType": "uint256",
          "name": "tokenId",
          "type": "uint256"
        }
      ],
      "name": "Approval",
      "type": "event"
    },
    {
      "anonymous": false,
      "inputs": [
        {
          "indexed": true,
          "internalType": "address",
          "name": "owner",
          "type": "address"
        },
        {
          "indexed": true,
          "internalType": "address",
          "name": "operator",
          "type": "address"
        },
        {
          "indexed": false,
          "internalType": "bool",
          "name": "approved",
          "type": "bool"
        }
      ],
      "name": "ApprovalForAll",
      "type": "event"
    },
    {
      "anonymous": false,
      "inputs": [
        {
          "indexed": true,
          "internalType": "uint256",
          "name": "tokenId",
          "type": "uint256"
        },
        {
          "indexed": true,
          "internalType": "uint256",
          "name": "burnPrice",
          "type": "uint256"
        }
      ],
      "name": "Burned",
      "type": "event"
    },
    {
      "anonymous": false,
      "inputs": [
        {
          "indexed": true,
          "internalType": "uint256",
          "name": "tokenId",
          "type": "uint256"
        },
        {
          "indexed": true,
          "internalType": "uint256",
          "name": "mintPrice",
          "type": "uint256"
        }
      ],
      "name": "Minted",
      "type": "event"
    },
    {
      "anonymous": false,
      "inputs": [
        {
          "indexed": true,
          "internalType": "address",
          "name": "from",
          "type": "address"
        },
        {
          "indexed": true,
          "internalType": "address",
          "name": "to",
          "type": "address"
        },
        {
          "indexed": true,
          "internalType": "uint256",
          "name": "tokenId",
          "type": "uint256"
        }
      ],
      "name": "Transfer",
      "type": "event"
    },
    {
      "inputs": [
        {
          "internalType": "address",
          "name": "to",
          "type": "address"
        },
        {
          "internalType": "uint256",
          "name": "tokenId",
          "type": "uint256"
        }
      ],
      "name": "approve",
      "outputs": [],
      "stateMutability": "nonpayable",
      "type": "function"
    },
    {
      "inputs": [
        {
          "internalType": "address",
          "name": "owner",
          "type": "address"
        }
      ],
      "name": "balanceOf",
      "outputs": [
        {
          "internalType": "uint256",
          "name": "",
          "type": "uint256"
        }
      ],
      "stateMutability": "view",
      "type": "function"
    },
    {
      "inputs": [
        {
          "internalType": "uint256",
          "name": "_tokenId",
          "type": "uint256"
        },
        {
          "internalType": "uint256",
          "name": "_minBurnPrice",
          "type": "uint256"
        }
      ],
      "name": "burn",
      "outputs": [
        {
          "internalType": "bool",
          "name": "",
          "type": "bool"
        }
      ],
      "stateMutability": "nonpayable",
      "type": "function"
    },
    {
      "inputs": [
        {
          "internalType": "address",
          "name": "_newFeesReceiver",
          "type": "address"
        }
      ],
      "name": "changeFeesReceiver",
      "outputs": [
        {
          "internalType": "bool",
          "name": "",
          "type": "bool"
        }
      ],
      "stateMutability": "nonpayable",
      "type": "function"
    },
    {
      "inputs": [
        {
          "internalType": "address",
          "name": "_newManager",
          "type": "address"
        }
      ],
      "name": "changeManager",
      "outputs": [
        {
          "internalType": "bool",
          "name": "",
          "type": "bool"
        }
      ],
      "stateMutability": "nonpayable",
      "type": "function"
    },
    {
      "inputs": [],
      "name": "currentBurnPrice",
      "outputs": [
        {
          "internalType": "uint256",
          "name": "",
          "type": "uint256"
        }
      ],
      "stateMutability": "view",
      "type": "function"
    },
    {
      "inputs": [],
      "name": "currentMintPrice",
      "outputs": [
        {
          "internalType": "uint256",
          "name": "",
          "type": "uint256"
        },
        {
          "internalType": "uint256",
          "name": "",
          "type": "uint256"
        }
      ],
      "stateMutability": "view",
      "type": "function"
    },
    {
      "inputs": [],
      "name": "currentMintWithFeesPrice",
      "outputs": [
        {
          "internalType": "uint256",
          "name": "",
          "type": "uint256"
        }
      ],
      "stateMutability": "view",
      "type": "function"
    },
    {
      "inputs": [],
      "name": "currentPrice",
      "outputs": [
        {
          "internalType": "uint256",
          "name": "",
          "type": "uint256"
        }
      ],
      "stateMutability": "view",
      "type": "function"
    },
    {
      "inputs": [],
      "name": "feesReceiver",
      "outputs": [
        {
          "internalType": "address payable",
          "name": "",
          "type": "address"
        }
      ],
      "stateMutability": "view",
      "type": "function"
    },
    {
      "inputs": [
        {
          "internalType": "uint256",
          "name": "tokenId",
          "type": "uint256"
        }
      ],
      "name": "getApproved",
      "outputs": [
        {
          "internalType": "address",
          "name": "",
          "type": "address"
        }
      ],
      "stateMutability": "view",
      "type": "function"
    },
    {
      "inputs": [
        {
          "internalType": "address",
          "name": "owner",
          "type": "address"
        },
        {
          "internalType": "address",
          "name": "operator",
          "type": "address"
        }
      ],
      "name": "isApprovedForAll",
      "outputs": [
        {
          "internalType": "bool",
          "name": "",
          "type": "bool"
        }
      ],
      "stateMutability": "view",
      "type": "function"
    },
    {
      "inputs": [],
      "name": "manager",
      "outputs": [
        {
          "internalType": "address",
          "name": "",
          "type": "address"
        }
      ],
      "stateMutability": "view",
      "type": "function"
    },
    {
      "inputs": [
        {
          "internalType": "string",
          "name": "_uri",
          "type": "string"
        },
        {
          "internalType": "bytes",
          "name": "_signature",
          "type": "bytes"
        }
      ],
      "name": "mint",
      "outputs": [
        {
          "internalType": "uint256",
          "name": "_tokenId",
          "type": "uint256"
        }
      ],
      "stateMutability": "payable",
      "type": "function"
    },
    {
      "inputs": [
        {
          "internalType": "uint256",
          "name": "_current",
          "type": "uint256"
        }
      ],
      "name": "mintPriceFor",
      "outputs": [
        {
          "internalType": "uint256",
          "name": "_currentPrice",
          "type": "uint256"
        },
        {
          "internalType": "uint256",
          "name": "_fees",
          "type": "uint256"
        }
      ],
      "stateMutability": "pure",
      "type": "function"
    },
    {
      "inputs": [
        {
          "internalType": "uint256",
          "name": "_current",
          "type": "uint256"
        }
      ],
      "name": "mintWithFeesPriceFor",
      "outputs": [
        {
          "internalType": "uint256",
          "name": "",
          "type": "uint256"
        }
      ],
      "stateMutability": "pure",
      "type": "function"
    },
    {
      "inputs": [],
      "name": "name",
      "outputs": [
        {
          "internalType": "string",
          "name": "",
          "type": "string"
        }
      ],
      "stateMutability": "view",
      "type": "function"
    },
    {
      "inputs": [
        {
          "internalType": "uint256",
          "name": "tokenId",
          "type": "uint256"
        }
      ],
      "name": "ownerOf",
      "outputs": [
        {
          "internalType": "address",
          "name": "",
          "type": "address"
        }
      ],
      "stateMutability": "view",
      "type": "function"
    },
    {
      "inputs": [
        {
          "internalType": "uint256",
          "name": "_current",
          "type": "uint256"
        }
      ],
      "name": "priceFor",
      "outputs": [
        {
          "internalType": "uint256",
          "name": "",
          "type": "uint256"
        }
      ],
      "stateMutability": "pure",
      "type": "function"
    },
    {
      "inputs": [
        {
          "internalType": "address",
          "name": "from",
          "type": "address"
        },
        {
          "internalType": "address",
          "name": "to",
          "type": "address"
        },
        {
          "internalType": "uint256",
          "name": "tokenId",
          "type": "uint256"
        }
      ],
      "name": "safeTransferFrom",
      "outputs": [],
      "stateMutability": "nonpayable",
      "type": "function"
    },
    {
      "inputs": [
        {
          "internalType": "address",
          "name": "from",
          "type": "address"
        },
        {
          "internalType": "address",
          "name": "to",
          "type": "address"
        },
        {
          "internalType": "uint256",
          "name": "tokenId",
          "type": "uint256"
        },
        {
          "internalType": "bytes",
          "name": "_data",
          "type": "bytes"
        }
      ],
      "name": "safeTransferFrom",
      "outputs": [],
      "stateMutability": "nonpayable",
      "type": "function"
    },
    {
      "inputs": [
        {
          "internalType": "address",
          "name": "operator",
          "type": "address"
        },
        {
          "internalType": "bool",
          "name": "approved",
          "type": "bool"
        }
      ],
      "name": "setApprovalForAll",
      "outputs": [],
      "stateMutability": "nonpayable",
      "type": "function"
    },
    {
      "inputs": [
        {
          "internalType": "bytes4",
          "name": "interfaceId",
          "type": "bytes4"
        }
      ],
      "name": "supportsInterface",
      "outputs": [
        {
          "internalType": "bool",
          "name": "",
          "type": "bool"
        }
      ],
      "stateMutability": "view",
      "type": "function"
    },
    {
      "inputs": [],
      "name": "symbol",
      "outputs": [
        {
          "internalType": "string",
          "name": "",
          "type": "string"
        }
      ],
      "stateMutability": "view",
      "type": "function"
    },
    {
      "inputs": [
        {
          "internalType": "uint256",
          "name": "tokenId",
          "type": "uint256"
        }
      ],
      "name": "tokenURI",
      "outputs": [
        {
          "internalType": "string",
          "name": "",
          "type": "string"
        }
      ],
      "stateMutability": "view",
      "type": "function"
    },
    {
      "inputs": [],
      "name": "totalSupply",
      "outputs": [
        {
          "internalType": "uint256",
          "name": "_value",
          "type": "uint256"
        }
      ],
      "stateMutability": "view",
      "type": "function"
    },
    {
      "inputs": [
        {
          "internalType": "address",
          "name": "from",
          "type": "address"
        },
        {
          "internalType": "address",
          "name": "to",
          "type": "address"
        },
        {
          "internalType": "uint256",
          "name": "tokenId",
          "type": "uint256"
        }
      ],
      "name": "transferFrom",
      "outputs": [],
      "stateMutability": "nonpayable",
      "type": "function"
    }
  ],
  "transactionHash": "0x70082ad73a8aefcd22f2353b52e8718165263e99ca13ce93c7c98e211e617187",
  "args": [
    "0x2a3624b3C2d5492C5eD6001d078455C5C10de617",
    "0x7B7e9410A2245459b7270140C45F55DDaeF58392"
  ],
  "solcInputHash": "493ed4ca35526ad6bb7c323321a61765",
  "bytecode": "0x60806040523480156200001157600080fd5b506040516200269a3803806200269a833981016040819052620000349162000176565b604080518082018252600a8152694176616e74476172646560b01b60208083019182528351808501909452600384526241564760e81b9084015281519192916200008191600091620000d0565b50805162000097906001906020840190620000d0565b5050600980546001600160a01b039485166001600160a01b0319918216179091556008805493909416921691909117909155506200020b565b828054620000de90620001b5565b90600052602060002090601f0160209004810192826200010257600085556200014d565b82601f106200011d57805160ff19168380011785556200014d565b828001600101855582156200014d579182015b828111156200014d57825182559160200191906001019062000130565b506200015b9291506200015f565b5090565b5b808211156200015b576000815560010162000160565b600080604083850312156200018a57600080fd5b82516200019781620001f2565b6020840151909250620001aa81620001f2565b809150509250929050565b600181811c90821680620001ca57607f821691505b60208210811415620001ec57634e487b7160e01b600052602260045260246000fd5b50919050565b6001600160a01b03811681146200020857600080fd5b50565b61247f806200021b6000396000f3fe60806040526004361061019c5760003560e01c806377119765116100ec578063a3fbbaae1161008a578063bca93cf511610064578063bca93cf514610493578063c87b56dd146104b3578063e985e9c5146104d3578063f620c8151461051c57600080fd5b8063a3fbbaae14610433578063b390c0ab14610453578063b88d4fde1461047357600080fd5b806395d89b41116100c657806395d89b41146103c957806399f7ab31146103de5780639d1b464a146103fe578063a22cb4651461041357600080fd5b806377119765146103745780638d5555f2146103895780638def9f82146103a957600080fd5b806323b872dd116101595780634737576e116101335780634737576e14610301578063481c6a75146103145780636352211e1461033457806370a082311461035457600080fd5b806323b872dd146102a157806331fd9fd1146102c157806342842e0e146102e157600080fd5b806301ffc9a7146101a15780630561942a146101d657806306fdde0314610200578063081812fc14610222578063095ea7b31461025a57806318160ddd1461027c575b600080fd5b3480156101ad57600080fd5b506101c16101bc366004611f8a565b610531565b60405190151581526020015b60405180910390f35b3480156101e257600080fd5b506101eb610583565b604080519283526020830191909152016101cd565b34801561020c57600080fd5b506102156105a5565b6040516101cd919061213f565b34801561022e57600080fd5b5061024261023d36600461203f565b610637565b6040516001600160a01b0390911681526020016101cd565b34801561026657600080fd5b5061027a610275366004611f60565b6106c4565b005b34801561028857600080fd5b506007546102939081565b6040519081526020016101cd565b3480156102ad57600080fd5b5061027a6102bc366004611e80565b6107da565b3480156102cd57600080fd5b506101c16102dc366004611e32565b61080b565b3480156102ed57600080fd5b5061027a6102fc366004611e80565b610874565b61029361030f366004611fc4565b61088f565b34801561032057600080fd5b50600954610242906001600160a01b031681565b34801561034057600080fd5b5061024261034f36600461203f565b610a24565b34801561036057600080fd5b5061029361036f366004611e32565b610a9b565b34801561038057600080fd5b50610293610b22565b34801561039557600080fd5b506102936103a436600461203f565b610b35565b3480156103b557600080fd5b506102936103c436600461203f565b610b61565b3480156103d557600080fd5b50610215610b86565b3480156103ea57600080fd5b506101eb6103f936600461203f565b610b95565b34801561040a57600080fd5b50610293610bb5565b34801561041f57600080fd5b5061027a61042e366004611f24565b610bce565b34801561043f57600080fd5b506101c161044e366004611e32565b610c93565b34801561045f57600080fd5b506101c161046e366004612058565b610cfb565b34801561047f57600080fd5b5061027a61048e366004611ebc565b610ddb565b34801561049f57600080fd5b50600854610242906001600160a01b031681565b3480156104bf57600080fd5b506102156104ce36600461203f565b610e13565b3480156104df57600080fd5b506101c16104ee366004611e4d565b6001600160a01b03918216600090815260056020908152604080832093909416825291909152205460ff1690565b34801561052857600080fd5b50610293610f91565b60006001600160e01b031982166380ac58cd60e01b148061056257506001600160e01b03198216635b5e139f60e01b145b8061057d57506301ffc9a760e01b6001600160e01b03198316145b92915050565b60008061059d61059260075490565b6103f99060016121f5565b915091509091565b6060600080546105b490612371565b80601f01602080910402602001604051908101604052809291908181526020018280546105e090612371565b801561062d5780601f106106025761010080835404028352916020019161062d565b820191906000526020600020905b81548152906001019060200180831161061057829003601f168201915b5050505050905090565b600061064282610faa565b6106a85760405162461bcd60e51b815260206004820152602c60248201527f4552433732313a20617070726f76656420717565727920666f72206e6f6e657860448201526b34b9ba32b73a103a37b5b2b760a11b60648201526084015b60405180910390fd5b506000908152600460205260409020546001600160a01b031690565b60006106cf82610a24565b9050806001600160a01b0316836001600160a01b0316141561073d5760405162461bcd60e51b815260206004820152602160248201527f4552433732313a20617070726f76616c20746f2063757272656e74206f776e656044820152603960f91b606482015260840161069f565b336001600160a01b0382161480610759575061075981336104ee565b6107cb5760405162461bcd60e51b815260206004820152603860248201527f4552433732313a20617070726f76652063616c6c6572206973206e6f74206f7760448201527f6e6572206e6f7220617070726f76656420666f7220616c6c0000000000000000606482015260840161069f565b6107d58383610fc7565b505050565b6107e43382611035565b6108005760405162461bcd60e51b815260040161069f906121a4565b6107d583838361111b565b6008546000906001600160a01b0316331461084e5760405162461bcd60e51b815260206004820152600360248201526227232960e91b604482015260640161069f565b50600880546001600160a01b0319166001600160a01b0392909216919091179055600190565b6107d583838360405180602001604052806000815250610ddb565b60008083336040516020016108a59291906120a6565b604051602081830303815290604052905060006109208461091a84805190602001206040517f19457468657265756d205369676e6564204d6573736167653a0a3332000000006020820152603c8101829052600090605c01604051602081830303815290604052805190602001209050919050565b906112bb565b6009549091506001600160a01b038083169116146109655760405162461bcd60e51b81526020600482015260026024820152614e4d60f01b604482015260640161069f565b600080610970610583565b909250905061097f81836121f5565b34146109b25760405162461bcd60e51b8152602060048201526002602482015261414960f01b604482015260640161069f565b6109c0600780546001019055565b3394506109cd858061135f565b6109d7858861137d565b6008546109ed906001600160a01b031682611408565b604051349086907f8a9dcf4e150b1153011b29fec302d5be0c13e84fa8f56ab78587f778a32a90dd90600090a35050505092915050565b6000818152600260205260408120546001600160a01b03168061057d5760405162461bcd60e51b815260206004820152602960248201527f4552433732313a206f776e657220717565727920666f72206e6f6e657869737460448201526832b73a103a37b5b2b760b91b606482015260840161069f565b60006001600160a01b038216610b065760405162461bcd60e51b815260206004820152602a60248201527f4552433732313a2062616c616e636520717565727920666f7220746865207a65604482015269726f206164647265737360b01b606482015260840161069f565b506001600160a01b031660009081526003602052604090205490565b6000610b306103a460075490565b905090565b6000612710610b45600284612264565b610b5790670de0b6b3a764000061230f565b61057d919061220d565b6000806000610b6f84610b95565b9092509050610b7e81836121f5565b949350505050565b6060600180546105b490612371565b600080610ba183610b35565b9150610bae600a8361220d565b9050915091565b6000610b30610bc360075490565b6103a49060016121f5565b6001600160a01b038216331415610c275760405162461bcd60e51b815260206004820152601960248201527f4552433732313a20617070726f766520746f2063616c6c657200000000000000604482015260640161069f565b3360008181526005602090815260408083206001600160a01b03871680855290835292819020805460ff191686151590811790915590519081529192917f17307eab39ab6107e8899845ad3d59bd9653f200f220920489ca2b5937696c31910160405180910390a35050565b6009546000906001600160a01b03163314610cd55760405162461bcd60e51b81526020600482015260026024820152614e4d60f01b604482015260640161069f565b50600980546001600160a01b0319166001600160a01b0392909216919091179055600190565b600033610d0784610a24565b6001600160a01b031614610d425760405162461bcd60e51b81526020600482015260026024820152614e4f60f01b604482015260640161069f565b610d4c6007611521565b610d5583611578565b6000610d5f610bb5565b905082811015610d9a5760405162461bcd60e51b815260040161069f906020808252600490820152634d42504960e01b604082015260600190565b610da43382611408565b604051819085907fcec1bae6e024d929f2929f3478ce70f55f9c636c8ef7b5073a61d7c3a432451b90600090a35060019392505050565b610de53383611035565b610e015760405162461bcd60e51b815260040161069f906121a4565b610e0d848484846115bb565b50505050565b6060610e1e82610faa565b610e845760405162461bcd60e51b815260206004820152603160248201527f45524337323155524953746f726167653a2055524920717565727920666f72206044820152703737b732bc34b9ba32b73a103a37b5b2b760791b606482015260840161069f565b60008281526006602052604081208054610e9d90612371565b80601f0160208091040260200160405190810160405280929190818152602001828054610ec990612371565b8015610f165780601f10610eeb57610100808354040283529160200191610f16565b820191906000526020600020905b815481529060010190602001808311610ef957829003601f168201915b505050505090506000610f43604080518082019091526007815266697066733a2f2f60c81b602082015290565b9050805160001415610f56575092915050565b815115610f88578082604051602001610f709291906120dd565b60405160208183030381529060405292505050919050565b610b7e846115ee565b6000610b30610f9f60075490565b6103c49060016121f5565b6000908152600260205260409020546001600160a01b0316151590565b600081815260046020526040902080546001600160a01b0319166001600160a01b0384169081179091558190610ffc82610a24565b6001600160a01b03167f8c5be1e5ebec7d5bd14f71427d1e84f3dd0314c0f7b2291e5b200ac8c7c3b92560405160405180910390a45050565b600061104082610faa565b6110a15760405162461bcd60e51b815260206004820152602c60248201527f4552433732313a206f70657261746f7220717565727920666f72206e6f6e657860448201526b34b9ba32b73a103a37b5b2b760a11b606482015260840161069f565b60006110ac83610a24565b9050806001600160a01b0316846001600160a01b031614806110e75750836001600160a01b03166110dc84610637565b6001600160a01b0316145b80610b7e57506001600160a01b0380821660009081526005602090815260408083209388168352929052205460ff16610b7e565b826001600160a01b031661112e82610a24565b6001600160a01b0316146111965760405162461bcd60e51b815260206004820152602960248201527f4552433732313a207472616e73666572206f6620746f6b656e2074686174206960448201526839903737ba1037bbb760b91b606482015260840161069f565b6001600160a01b0382166111f85760405162461bcd60e51b8152602060048201526024808201527f4552433732313a207472616e7366657220746f20746865207a65726f206164646044820152637265737360e01b606482015260840161069f565b611203600082610fc7565b6001600160a01b038316600090815260036020526040812080546001929061122c90849061232e565b90915550506001600160a01b038216600090815260036020526040812080546001929061125a9084906121f5565b909155505060008181526002602052604080822080546001600160a01b0319166001600160a01b0386811691821790925591518493918716917fddf252ad1be2c89b69c2b068fc378daa952ba7f163c4a11628f55a4df523b3ef91a4505050565b60008151604114156112ef5760208201516040830151606084015160001a6112e5868285856116d5565b935050505061057d565b815160401415611317576020820151604083015161130e85838361187e565b9250505061057d565b60405162461bcd60e51b815260206004820152601f60248201527f45434453413a20696e76616c6964207369676e6174757265206c656e67746800604482015260640161069f565b6113798282604051806020016040528060008152506118a8565b5050565b61138682610faa565b6113e95760405162461bcd60e51b815260206004820152602e60248201527f45524337323155524953746f726167653a2055524920736574206f66206e6f6e60448201526d32bc34b9ba32b73a103a37b5b2b760911b606482015260840161069f565b600082815260066020908152604090912082516107d592840190611cb1565b804710156114585760405162461bcd60e51b815260206004820152601d60248201527f416464726573733a20696e73756666696369656e742062616c616e6365000000604482015260640161069f565b6000826001600160a01b03168260405160006040518083038185875af1925050503d80600081146114a5576040519150601f19603f3d011682016040523d82523d6000602084013e6114aa565b606091505b50509050806107d55760405162461bcd60e51b815260206004820152603a60248201527f416464726573733a20756e61626c6520746f2073656e642076616c75652c207260448201527f6563697069656e74206d61792068617665207265766572746564000000000000606482015260840161069f565b8054806115705760405162461bcd60e51b815260206004820152601b60248201527f436f756e7465723a2064656372656d656e74206f766572666c6f770000000000604482015260640161069f565b600019019055565b611581816118db565b6000818152600660205260409020805461159a90612371565b1590506115b85760008181526006602052604081206115b891611d35565b50565b6115c684848461111b565b6115d284848484611976565b610e0d5760405162461bcd60e51b815260040161069f90612152565b60606115f982610faa565b61165d5760405162461bcd60e51b815260206004820152602f60248201527f4552433732314d657461646174613a2055524920717565727920666f72206e6f60448201526e3732bc34b9ba32b73a103a37b5b2b760891b606482015260840161069f565b6000611683604080518082019091526007815266697066733a2f2f60c81b602082015290565b905060008151116116a357604051806020016040528060008152506116ce565b806116ad84611a80565b6040516020016116be9291906120dd565b6040516020818303038152906040525b9392505050565b60007f7fffffffffffffffffffffffffffffff5d576e7357a4501ddfe92f46681b20a08211156117525760405162461bcd60e51b815260206004820152602260248201527f45434453413a20696e76616c6964207369676e6174757265202773272076616c604482015261756560f01b606482015260840161069f565b8360ff16601b148061176757508360ff16601c145b6117be5760405162461bcd60e51b815260206004820152602260248201527f45434453413a20696e76616c6964207369676e6174757265202776272076616c604482015261756560f01b606482015260840161069f565b6040805160008082526020820180845288905260ff871692820192909252606081018590526080810184905260019060a0016020604051602081039080840390855afa158015611812573d6000803e3d6000fd5b5050604051601f1901519150506001600160a01b0381166118755760405162461bcd60e51b815260206004820152601860248201527f45434453413a20696e76616c6964207369676e61747572650000000000000000604482015260640161069f565b95945050505050565b60006001600160ff1b03821660ff83901c601b0161189e868287856116d5565b9695505050505050565b6118b28383611b7e565b6118bf6000848484611976565b6107d55760405162461bcd60e51b815260040161069f90612152565b60006118e682610a24565b90506118f3600083610fc7565b6001600160a01b038116600090815260036020526040812080546001929061191c90849061232e565b909155505060008281526002602052604080822080546001600160a01b0319169055518391906001600160a01b038416907fddf252ad1be2c89b69c2b068fc378daa952ba7f163c4a11628f55a4df523b3ef908390a45050565b60006001600160a01b0384163b15611a7857604051630a85bd0160e11b81526001600160a01b0385169063150b7a02906119ba90339089908890889060040161210c565b602060405180830381600087803b1580156119d457600080fd5b505af1925050508015611a04575060408051601f3d908101601f19168201909252611a0191810190611fa7565b60015b611a5e573d808015611a32576040519150601f19603f3d011682016040523d82523d6000602084013e611a37565b606091505b508051611a565760405162461bcd60e51b815260040161069f90612152565b805181602001fd5b6001600160e01b031916630a85bd0160e11b149050610b7e565b506001610b7e565b606081611aa45750506040805180820190915260018152600360fc1b602082015290565b8160005b8115611ace5780611ab8816123ac565b9150611ac79050600a8361220d565b9150611aa8565b60008167ffffffffffffffff811115611ae957611ae961241d565b6040519080825280601f01601f191660200182016040528015611b13576020820181803683370190505b5090505b8415610b7e57611b2860018361232e565b9150611b35600a866123c7565b611b409060306121f5565b60f81b818381518110611b5557611b55612407565b60200101906001600160f81b031916908160001a905350611b77600a8661220d565b9450611b17565b6001600160a01b038216611bd45760405162461bcd60e51b815260206004820181905260248201527f4552433732313a206d696e7420746f20746865207a65726f2061646472657373604482015260640161069f565b611bdd81610faa565b15611c2a5760405162461bcd60e51b815260206004820152601c60248201527f4552433732313a20746f6b656e20616c7265616479206d696e74656400000000604482015260640161069f565b6001600160a01b0382166000908152600360205260408120805460019290611c539084906121f5565b909155505060008181526002602052604080822080546001600160a01b0319166001600160a01b03861690811790915590518392907fddf252ad1be2c89b69c2b068fc378daa952ba7f163c4a11628f55a4df523b3ef908290a45050565b828054611cbd90612371565b90600052602060002090601f016020900481019282611cdf5760008555611d25565b82601f10611cf857805160ff1916838001178555611d25565b82800160010185558215611d25579182015b82811115611d25578251825591602001919060010190611d0a565b50611d31929150611d6b565b5090565b508054611d4190612371565b6000825580601f10611d51575050565b601f0160209004906000526020600020908101906115b891905b5b80821115611d315760008155600101611d6c565b600067ffffffffffffffff80841115611d9b57611d9b61241d565b604051601f8501601f19908116603f01168101908282118183101715611dc357611dc361241d565b81604052809350858152868686011115611ddc57600080fd5b858560208301376000602087830101525050509392505050565b80356001600160a01b0381168114611e0d57600080fd5b919050565b600082601f830112611e2357600080fd5b6116ce83833560208501611d80565b600060208284031215611e4457600080fd5b6116ce82611df6565b60008060408385031215611e6057600080fd5b611e6983611df6565b9150611e7760208401611df6565b90509250929050565b600080600060608486031215611e9557600080fd5b611e9e84611df6565b9250611eac60208501611df6565b9150604084013590509250925092565b60008060008060808587031215611ed257600080fd5b611edb85611df6565b9350611ee960208601611df6565b925060408501359150606085013567ffffffffffffffff811115611f0c57600080fd5b611f1887828801611e12565b91505092959194509250565b60008060408385031215611f3757600080fd5b611f4083611df6565b915060208301358015158114611f5557600080fd5b809150509250929050565b60008060408385031215611f7357600080fd5b611f7c83611df6565b946020939093013593505050565b600060208284031215611f9c57600080fd5b81356116ce81612433565b600060208284031215611fb957600080fd5b81516116ce81612433565b60008060408385031215611fd757600080fd5b823567ffffffffffffffff80821115611fef57600080fd5b818501915085601f83011261200357600080fd5b61201286833560208501611d80565b9350602085013591508082111561202857600080fd5b5061203585828601611e12565b9150509250929050565b60006020828403121561205157600080fd5b5035919050565b6000806040838503121561206b57600080fd5b50508035926020909101359150565b60008151808452612092816020860160208601612345565b601f01601f19169290920160200192915050565b600083516120b8818460208801612345565b60609390931b6bffffffffffffffffffffffff19169190920190815260140192915050565b600083516120ef818460208801612345565b835190830190612103818360208801612345565b01949350505050565b6001600160a01b038581168252841660208201526040810183905260806060820181905260009061189e9083018461207a565b6020815260006116ce602083018461207a565b60208082526032908201527f4552433732313a207472616e7366657220746f206e6f6e20455243373231526560408201527131b2b4bb32b91034b6b83632b6b2b73a32b960711b606082015260800190565b60208082526031908201527f4552433732313a207472616e736665722063616c6c6572206973206e6f74206f6040820152701ddb995c881b9bdc88185c1c1c9bdd9959607a1b606082015260800190565b60008219821115612208576122086123db565b500190565b60008261221c5761221c6123f1565b500490565b600181815b8085111561225c578160001904821115612242576122426123db565b8085161561224f57918102915b93841c9390800290612226565b509250929050565b60006116ce60ff84168360008261227d5750600161057d565b8161228a5750600061057d565b81600181146122a057600281146122aa576122c6565b600191505061057d565b60ff8411156122bb576122bb6123db565b50506001821b61057d565b5060208310610133831016604e8410600b84101617156122e9575081810a61057d565b6122f38383612221565b8060001904821115612307576123076123db565b029392505050565b6000816000190483118215151615612329576123296123db565b500290565b600082821015612340576123406123db565b500390565b60005b83811015612360578181015183820152602001612348565b83811115610e0d5750506000910152565b600181811c9082168061238557607f821691505b602082108114156123a657634e487b7160e01b600052602260045260246000fd5b50919050565b60006000198214156123c0576123c06123db565b5060010190565b6000826123d6576123d66123f1565b500690565b634e487b7160e01b600052601160045260246000fd5b634e487b7160e01b600052601260045260246000fd5b634e487b7160e01b600052603260045260246000fd5b634e487b7160e01b600052604160045260246000fd5b6001600160e01b0319811681146115b857600080fdfea2646970667358221220b1eae1411e039c77b744d2005dac8843c45f41020cafa3325ed5f0eb23b8884764736f6c63430008060033",
  "devdoc": {
    "kind": "dev",
    "methods": {
      "approve(address,uint256)": {
        "details": "See {IERC721-approve}."
      },
      "balanceOf(address)": {
        "details": "See {IERC721-balanceOf}."
      },
      "getApproved(uint256)": {
        "details": "See {IERC721-getApproved}."
      },
      "isApprovedForAll(address,address)": {
        "details": "See {IERC721-isApprovedForAll}."
      },
      "name()": {
        "details": "See {IERC721Metadata-name}."
      },
      "ownerOf(uint256)": {
        "details": "See {IERC721-ownerOf}."
      },
      "safeTransferFrom(address,address,uint256)": {
        "details": "See {IERC721-safeTransferFrom}."
      },
      "safeTransferFrom(address,address,uint256,bytes)": {
        "details": "See {IERC721-safeTransferFrom}."
      },
      "setApprovalForAll(address,bool)": {
        "details": "See {IERC721-setApprovalForAll}."
      },
      "supportsInterface(bytes4)": {
        "details": "See {IERC165-supportsInterface}."
      },
      "symbol()": {
        "details": "See {IERC721Metadata-symbol}."
      },
      "tokenURI(uint256)": {
        "details": "See {IERC721Metadata-tokenURI}."
      },
      "transferFrom(address,address,uint256)": {
        "details": "See {IERC721-transferFrom}."
      }
    },
    "version": 1
  },
  "userdoc": {
    "kind": "user",
    "methods": {},
    "version": 1
  },
  "storageLayout": {
    "storage": [
      {
        "astId": 25,
        "contract": "contracts/AvantGarde.sol:AvantGarde",
        "label": "_name",
        "offset": 0,
        "slot": "0",
        "type": "t_string_storage"
      },
      {
        "astId": 27,
        "contract": "contracts/AvantGarde.sol:AvantGarde",
        "label": "_symbol",
        "offset": 0,
        "slot": "1",
        "type": "t_string_storage"
      },
      {
        "astId": 31,
        "contract": "contracts/AvantGarde.sol:AvantGarde",
        "label": "_owners",
        "offset": 0,
        "slot": "2",
        "type": "t_mapping(t_uint256,t_address)"
      },
      {
        "astId": 35,
        "contract": "contracts/AvantGarde.sol:AvantGarde",
        "label": "_balances",
        "offset": 0,
        "slot": "3",
        "type": "t_mapping(t_address,t_uint256)"
      },
      {
        "astId": 39,
        "contract": "contracts/AvantGarde.sol:AvantGarde",
        "label": "_tokenApprovals",
        "offset": 0,
        "slot": "4",
        "type": "t_mapping(t_uint256,t_address)"
      },
      {
        "astId": 45,
        "contract": "contracts/AvantGarde.sol:AvantGarde",
        "label": "_operatorApprovals",
        "offset": 0,
        "slot": "5",
        "type": "t_mapping(t_address,t_mapping(t_address,t_bool))"
      },
      {
        "astId": 964,
        "contract": "contracts/AvantGarde.sol:AvantGarde",
        "label": "_tokenURIs",
        "offset": 0,
        "slot": "6",
        "type": "t_mapping(t_uint256,t_string_storage)"
      },
      {
        "astId": 1952,
        "contract": "contracts/AvantGarde.sol:AvantGarde",
        "label": "totalSupply",
        "offset": 0,
        "slot": "7",
        "type": "t_struct(Counter)1429_storage"
      },
      {
        "astId": 1957,
        "contract": "contracts/AvantGarde.sol:AvantGarde",
        "label": "feesReceiver",
        "offset": 0,
        "slot": "8",
        "type": "t_address_payable"
      },
      {
        "astId": 1959,
        "contract": "contracts/AvantGarde.sol:AvantGarde",
        "label": "manager",
        "offset": 0,
        "slot": "9",
        "type": "t_address"
      }
    ],
    "types": {
      "t_address": {
        "encoding": "inplace",
        "label": "address",
        "numberOfBytes": "20"
      },
      "t_address_payable": {
        "encoding": "inplace",
        "label": "address payable",
        "numberOfBytes": "20"
      },
      "t_bool": {
        "encoding": "inplace",
        "label": "bool",
        "numberOfBytes": "1"
      },
      "t_mapping(t_address,t_bool)": {
        "encoding": "mapping",
        "key": "t_address",
        "label": "mapping(address => bool)",
        "numberOfBytes": "32",
        "value": "t_bool"
      },
      "t_mapping(t_address,t_mapping(t_address,t_bool))": {
        "encoding": "mapping",
        "key": "t_address",
        "label": "mapping(address => mapping(address => bool))",
        "numberOfBytes": "32",
        "value": "t_mapping(t_address,t_bool)"
      },
      "t_mapping(t_address,t_uint256)": {
        "encoding": "mapping",
        "key": "t_address",
        "label": "mapping(address => uint256)",
        "numberOfBytes": "32",
        "value": "t_uint256"
      },
      "t_mapping(t_uint256,t_address)": {
        "encoding": "mapping",
        "key": "t_uint256",
        "label": "mapping(uint256 => address)",
        "numberOfBytes": "32",
        "value": "t_address"
      },
      "t_mapping(t_uint256,t_string_storage)": {
        "encoding": "mapping",
        "key": "t_uint256",
        "label": "mapping(uint256 => string)",
        "numberOfBytes": "32",
        "value": "t_string_storage"
      },
      "t_string_storage": {
        "encoding": "bytes",
        "label": "string",
        "numberOfBytes": "32"
      },
      "t_struct(Counter)1429_storage": {
        "encoding": "inplace",
        "label": "struct Counters.Counter",
        "members": [
          {
            "astId": 1428,
            "contract": "contracts/AvantGarde.sol:AvantGarde",
            "label": "_value",
            "offset": 0,
            "slot": "0",
            "type": "t_uint256"
          }
        ],
        "numberOfBytes": "32"
      },
      "t_uint256": {
        "encoding": "inplace",
        "label": "uint256",
        "numberOfBytes": "32"
      }
    }
  }
}