{
  "address": "0x5FbDB2315678afecb367f032d93F642f64180aa3",
  "abi": [
    {
      "inputs": [],
      "stateMutability": "nonpayable",
      "type": "constructor"
    },
    {
      "anonymous": false,
      "inputs": [
        {
          "indexed": true,
          "internalType": "address",
          "name": "owner",
          "type": "address"
        },
        {
          "indexed": true,
          "internalType": "address",
          "name": "approved",
          "type": "address"
        },
        {
          "indexed": true,
          "internalType": "uint256",
          "name": "tokenId",
          "type": "uint256"
        }
      ],
      "name": "Approval",
      "type": "event"
    },
    {
      "anonymous": false,
      "inputs": [
        {
          "indexed": true,
          "internalType": "address",
          "name": "owner",
          "type": "address"
        },
        {
          "indexed": true,
          "internalType": "address",
          "name": "operator",
          "type": "address"
        },
        {
          "indexed": false,
          "internalType": "bool",
          "name": "approved",
          "type": "bool"
        }
      ],
      "name": "ApprovalForAll",
      "type": "event"
    },
    {
      "anonymous": false,
      "inputs": [
        {
          "indexed": true,
          "internalType": "bytes32",
          "name": "role",
          "type": "bytes32"
        },
        {
          "indexed": true,
          "internalType": "bytes32",
          "name": "previousAdminRole",
          "type": "bytes32"
        },
        {
          "indexed": true,
          "internalType": "bytes32",
          "name": "newAdminRole",
          "type": "bytes32"
        }
      ],
      "name": "RoleAdminChanged",
      "type": "event"
    },
    {
      "anonymous": false,
      "inputs": [
        {
          "indexed": true,
          "internalType": "bytes32",
          "name": "role",
          "type": "bytes32"
        },
        {
          "indexed": true,
          "internalType": "address",
          "name": "account",
          "type": "address"
        },
        {
          "indexed": true,
          "internalType": "address",
          "name": "sender",
          "type": "address"
        }
      ],
      "name": "RoleGranted",
      "type": "event"
    },
    {
      "anonymous": false,
      "inputs": [
        {
          "indexed": true,
          "internalType": "bytes32",
          "name": "role",
          "type": "bytes32"
        },
        {
          "indexed": true,
          "internalType": "address",
          "name": "account",
          "type": "address"
        },
        {
          "indexed": true,
          "internalType": "address",
          "name": "sender",
          "type": "address"
        }
      ],
      "name": "RoleRevoked",
      "type": "event"
    },
    {
      "anonymous": false,
      "inputs": [
        {
          "indexed": true,
          "internalType": "address",
          "name": "from",
          "type": "address"
        },
        {
          "indexed": true,
          "internalType": "address",
          "name": "to",
          "type": "address"
        },
        {
          "indexed": true,
          "internalType": "uint256",
          "name": "tokenId",
          "type": "uint256"
        }
      ],
      "name": "Transfer",
      "type": "event"
    },
    {
      "inputs": [],
      "name": "DEFAULT_ADMIN_ROLE",
      "outputs": [
        {
          "internalType": "bytes32",
          "name": "",
          "type": "bytes32"
        }
      ],
      "stateMutability": "view",
      "type": "function"
    },
    {
      "inputs": [],
      "name": "MANAGER_ROLE",
      "outputs": [
        {
          "internalType": "bytes32",
          "name": "",
          "type": "bytes32"
        }
      ],
      "stateMutability": "view",
      "type": "function"
    },
    {
      "inputs": [
        {
          "internalType": "address",
          "name": "to",
          "type": "address"
        },
        {
          "internalType": "uint256",
          "name": "tokenId",
          "type": "uint256"
        }
      ],
      "name": "approve",
      "outputs": [],
      "stateMutability": "nonpayable",
      "type": "function"
    },
    {
      "inputs": [
        {
          "internalType": "address",
          "name": "owner",
          "type": "address"
        }
      ],
      "name": "balanceOf",
      "outputs": [
        {
          "internalType": "uint256",
          "name": "",
          "type": "uint256"
        }
      ],
      "stateMutability": "view",
      "type": "function"
    },
    {
      "inputs": [
        {
          "internalType": "uint256",
          "name": "tokenId",
          "type": "uint256"
        }
      ],
      "name": "getApproved",
      "outputs": [
        {
          "internalType": "address",
          "name": "",
          "type": "address"
        }
      ],
      "stateMutability": "view",
      "type": "function"
    },
    {
      "inputs": [
        {
          "internalType": "bytes32",
          "name": "role",
          "type": "bytes32"
        }
      ],
      "name": "getRoleAdmin",
      "outputs": [
        {
          "internalType": "bytes32",
          "name": "",
          "type": "bytes32"
        }
      ],
      "stateMutability": "view",
      "type": "function"
    },
    {
      "inputs": [
        {
          "internalType": "bytes32",
          "name": "role",
          "type": "bytes32"
        },
        {
          "internalType": "uint256",
          "name": "index",
          "type": "uint256"
        }
      ],
      "name": "getRoleMember",
      "outputs": [
        {
          "internalType": "address",
          "name": "",
          "type": "address"
        }
      ],
      "stateMutability": "view",
      "type": "function"
    },
    {
      "inputs": [
        {
          "internalType": "bytes32",
          "name": "role",
          "type": "bytes32"
        }
      ],
      "name": "getRoleMemberCount",
      "outputs": [
        {
          "internalType": "uint256",
          "name": "",
          "type": "uint256"
        }
      ],
      "stateMutability": "view",
      "type": "function"
    },
    {
      "inputs": [
        {
          "internalType": "bytes32",
          "name": "role",
          "type": "bytes32"
        },
        {
          "internalType": "address",
          "name": "account",
          "type": "address"
        }
      ],
      "name": "grantRole",
      "outputs": [],
      "stateMutability": "nonpayable",
      "type": "function"
    },
    {
      "inputs": [
        {
          "internalType": "bytes32",
          "name": "role",
          "type": "bytes32"
        },
        {
          "internalType": "address",
          "name": "account",
          "type": "address"
        }
      ],
      "name": "hasRole",
      "outputs": [
        {
          "internalType": "bool",
          "name": "",
          "type": "bool"
        }
      ],
      "stateMutability": "view",
      "type": "function"
    },
    {
      "inputs": [
        {
          "internalType": "address",
          "name": "owner",
          "type": "address"
        },
        {
          "internalType": "address",
          "name": "operator",
          "type": "address"
        }
      ],
      "name": "isApprovedForAll",
      "outputs": [
        {
          "internalType": "bool",
          "name": "",
          "type": "bool"
        }
      ],
      "stateMutability": "view",
      "type": "function"
    },
    {
      "inputs": [
        {
          "internalType": "string",
          "name": "_uri",
          "type": "string"
        },
        {
          "internalType": "address",
          "name": "_signer",
          "type": "address"
        },
        {
          "internalType": "bytes",
          "name": "_signature",
          "type": "bytes"
        }
      ],
      "name": "mint",
      "outputs": [
        {
          "internalType": "uint256",
          "name": "_tokenId",
          "type": "uint256"
        }
      ],
      "stateMutability": "nonpayable",
      "type": "function"
    },
    {
      "inputs": [],
      "name": "name",
      "outputs": [
        {
          "internalType": "string",
          "name": "",
          "type": "string"
        }
      ],
      "stateMutability": "view",
      "type": "function"
    },
    {
      "inputs": [
        {
          "internalType": "uint256",
          "name": "tokenId",
          "type": "uint256"
        }
      ],
      "name": "ownerOf",
      "outputs": [
        {
          "internalType": "address",
          "name": "",
          "type": "address"
        }
      ],
      "stateMutability": "view",
      "type": "function"
    },
    {
      "inputs": [
        {
          "internalType": "bytes32",
          "name": "role",
          "type": "bytes32"
        },
        {
          "internalType": "address",
          "name": "account",
          "type": "address"
        }
      ],
      "name": "renounceRole",
      "outputs": [],
      "stateMutability": "nonpayable",
      "type": "function"
    },
    {
      "inputs": [
        {
          "internalType": "bytes32",
          "name": "role",
          "type": "bytes32"
        },
        {
          "internalType": "address",
          "name": "account",
          "type": "address"
        }
      ],
      "name": "revokeRole",
      "outputs": [],
      "stateMutability": "nonpayable",
      "type": "function"
    },
    {
      "inputs": [
        {
          "internalType": "address",
          "name": "from",
          "type": "address"
        },
        {
          "internalType": "address",
          "name": "to",
          "type": "address"
        },
        {
          "internalType": "uint256",
          "name": "tokenId",
          "type": "uint256"
        }
      ],
      "name": "safeTransferFrom",
      "outputs": [],
      "stateMutability": "nonpayable",
      "type": "function"
    },
    {
      "inputs": [
        {
          "internalType": "address",
          "name": "from",
          "type": "address"
        },
        {
          "internalType": "address",
          "name": "to",
          "type": "address"
        },
        {
          "internalType": "uint256",
          "name": "tokenId",
          "type": "uint256"
        },
        {
          "internalType": "bytes",
          "name": "_data",
          "type": "bytes"
        }
      ],
      "name": "safeTransferFrom",
      "outputs": [],
      "stateMutability": "nonpayable",
      "type": "function"
    },
    {
      "inputs": [
        {
          "internalType": "address",
          "name": "operator",
          "type": "address"
        },
        {
          "internalType": "bool",
          "name": "approved",
          "type": "bool"
        }
      ],
      "name": "setApprovalForAll",
      "outputs": [],
      "stateMutability": "nonpayable",
      "type": "function"
    },
    {
      "inputs": [
        {
          "internalType": "bytes4",
          "name": "interfaceId",
          "type": "bytes4"
        }
      ],
      "name": "supportsInterface",
      "outputs": [
        {
          "internalType": "bool",
          "name": "",
          "type": "bool"
        }
      ],
      "stateMutability": "view",
      "type": "function"
    },
    {
      "inputs": [],
      "name": "symbol",
      "outputs": [
        {
          "internalType": "string",
          "name": "",
          "type": "string"
        }
      ],
      "stateMutability": "view",
      "type": "function"
    },
    {
      "inputs": [
        {
          "internalType": "uint256",
          "name": "tokenId",
          "type": "uint256"
        }
      ],
      "name": "tokenURI",
      "outputs": [
        {
          "internalType": "string",
          "name": "",
          "type": "string"
        }
      ],
      "stateMutability": "view",
      "type": "function"
    },
    {
      "inputs": [
        {
          "internalType": "address",
          "name": "from",
          "type": "address"
        },
        {
          "internalType": "address",
          "name": "to",
          "type": "address"
        },
        {
          "internalType": "uint256",
          "name": "tokenId",
          "type": "uint256"
        }
      ],
      "name": "transferFrom",
      "outputs": [],
      "stateMutability": "nonpayable",
      "type": "function"
    }
  ],
  "transactionHash": "0x8899321e3fd0ee56fc0857f302f93398c71bef2f9b6aa6b43f189b7a861bb918",
  "args": [],
  "solcInputHash": "99a888256ac3478ee8f4cce76340bd74",
  "bytecode": "0x60806040523480156200001157600080fd5b506040518060400160405280600681526020017f41726241727400000000000000000000000000000000000000000000000000008152506040518060400160405280600481526020017f415242540000000000000000000000000000000000000000000000000000000081525081600090805190602001906200009692919062000382565b508060019080519060200190620000af92919062000382565b505050620000e47f241ecf16d79d0f8dbfb92cbc07fe17840425976cf0667f022fe9877caa831b0833620000ea60201b60201c565b62000497565b6200010182826200013260201b620010581760201c565b6200012d81600860008581526020019081526020016000206200014860201b620010661790919060201c565b505050565b6200014482826200018060201b60201c565b5050565b600062000178836000018373ffffffffffffffffffffffffffffffffffffffff1660001b6200027260201b60201c565b905092915050565b620001928282620002ec60201b60201c565b6200026e5760016007600084815260200190815260200160002060000160008373ffffffffffffffffffffffffffffffffffffffff1673ffffffffffffffffffffffffffffffffffffffff16815260200190815260200160002060006101000a81548160ff021916908315150217905550620002136200035760201b60201c565b73ffffffffffffffffffffffffffffffffffffffff168173ffffffffffffffffffffffffffffffffffffffff16837f2f8788117e7eff1d82e926ec794901d17c78024a50270940304540a733656f0d60405160405180910390a45b5050565b60006200028683836200035f60201b60201c565b620002e1578260000182908060018154018082558091505060019003906000526020600020016000909190919091505582600001805490508360010160008481526020019081526020016000208190555060019050620002e6565b600090505b92915050565b60006007600084815260200190815260200160002060000160008373ffffffffffffffffffffffffffffffffffffffff1673ffffffffffffffffffffffffffffffffffffffff16815260200190815260200160002060009054906101000a900460ff16905092915050565b600033905090565b600080836001016000848152602001908152602001600020541415905092915050565b828054620003909062000432565b90600052602060002090601f016020900481019282620003b4576000855562000400565b82601f10620003cf57805160ff191683800117855562000400565b8280016001018555821562000400579182015b82811115620003ff578251825591602001919060010190620003e2565b5b5090506200040f919062000413565b5090565b5b808211156200042e57600081600090555060010162000414565b5090565b600060028204905060018216806200044b57607f821691505b6020821081141562000462576200046162000468565b5b50919050565b7f4e487b7100000000000000000000000000000000000000000000000000000000600052602260045260246000fd5b61420f80620004a76000396000f3fe608060405234801561001057600080fd5b506004361061014d5760003560e01c806370a08231116100c3578063b88d4fde1161007c578063b88d4fde146103d4578063c87b56dd146103f0578063ca15c87314610420578063d547741f14610450578063e985e9c51461046c578063ec87621c1461049c5761014d565b806370a08231146102ec5780639010d07c1461031c57806391d148541461034c57806395d89b411461037c578063a217fddf1461039a578063a22cb465146103b85761014d565b8063248a9ca311610115578063248a9ca314610208578063251a701a146102385780632f2ff15d1461026857806336568abe1461028457806342842e0e146102a05780636352211e146102bc5761014d565b806301ffc9a71461015257806306fdde0314610182578063081812fc146101a0578063095ea7b3146101d057806323b872dd146101ec575b600080fd5b61016c60048036038101906101679190612b3b565b6104ba565b60405161017991906131ec565b60405180910390f35b61018a6104dc565b6040516101979190613267565b60405180910390f35b6101ba60048036038101906101b59190612c0c565b61056e565b6040516101c79190613185565b60405180910390f35b6101ea60048036038101906101e59190612a5e565b6105f3565b005b61020660048036038101906102019190612958565b61070b565b005b610222600480360381019061021d9190612a9a565b61076b565b60405161022f9190613207565b60405180910390f35b610252600480360381019061024d9190612b8d565b61078b565b60405161025f91906135c9565b60405180910390f35b610282600480360381019061027d9190612ac3565b6108ee565b005b61029e60048036038101906102999190612ac3565b610922565b005b6102ba60048036038101906102b59190612958565b610956565b005b6102d660048036038101906102d19190612c0c565b610976565b6040516102e39190613185565b60405180910390f35b610306600480360381019061030191906128f3565b610a28565b60405161031391906135c9565b60405180910390f35b61033660048036038101906103319190612aff565b610ae0565b6040516103439190613185565b60405180910390f35b61036660048036038101906103619190612ac3565b610b0f565b60405161037391906131ec565b60405180910390f35b610384610b7a565b6040516103919190613267565b60405180910390f35b6103a2610c0c565b6040516103af9190613207565b60405180910390f35b6103d260048036038101906103cd9190612a22565b610c13565b005b6103ee60048036038101906103e991906129a7565b610d94565b005b61040a60048036038101906104059190612c0c565b610df6565b6040516104179190613267565b60405180910390f35b61043a60048036038101906104359190612a9a565b610f48565b60405161044791906135c9565b60405180910390f35b61046a60048036038101906104659190612ac3565b610f6c565b005b6104866004803603810190610481919061291c565b610fa0565b60405161049391906131ec565b60405180910390f35b6104a4611034565b6040516104b19190613207565b60405180910390f35b60006104c582611096565b806104d557506104d482611110565b5b9050919050565b6060600080546104eb90613836565b80601f016020809104026020016040519081016040528092919081815260200182805461051790613836565b80156105645780601f1061053957610100808354040283529160200191610564565b820191906000526020600020905b81548152906001019060200180831161054757829003601f168201915b5050505050905090565b6000610579826111f2565b6105b8576040517f08c379a00000000000000000000000000000000000000000000000000000000081526004016105af90613509565b60405180910390fd5b6004600083815260200190815260200160002060009054906101000a900473ffffffffffffffffffffffffffffffffffffffff169050919050565b60006105fe82610976565b90508073ffffffffffffffffffffffffffffffffffffffff168373ffffffffffffffffffffffffffffffffffffffff16141561066f576040517f08c379a000000000000000000000000000000000000000000000000000000000815260040161066690613569565b60405180910390fd5b8073ffffffffffffffffffffffffffffffffffffffff1661068e61125e565b73ffffffffffffffffffffffffffffffffffffffff1614806106bd57506106bc816106b761125e565b610fa0565b5b6106fc576040517f08c379a00000000000000000000000000000000000000000000000000000000081526004016106f390613409565b60405180910390fd5b6107068383611266565b505050565b61071c61071661125e565b8261131f565b61075b576040517f08c379a000000000000000000000000000000000000000000000000000000000815260040161075290613589565b60405180910390fd5b6107668383836113fd565b505050565b600060076000838152602001908152602001600020600101549050919050565b60006107b77f241ecf16d79d0f8dbfb92cbc07fe17840425976cf0667f022fe9877caa831b0884610b0f565b6107f6576040517f08c379a00000000000000000000000000000000000000000000000000000000081526004016107ed90613489565b60405180910390fd5b600084338560405160200161080d93929190613102565b60405160208183030381529060405290506000610842846108348480519060200120611659565b61168990919063ffffffff16565b90508073ffffffffffffffffffffffffffffffffffffffff168573ffffffffffffffffffffffffffffffffffffffff16146108b2576040517f08c379a00000000000000000000000000000000000000000000000000000000081526004016108a9906133c9565b60405180910390fd5b3360601b60601c73ffffffffffffffffffffffffffffffffffffffff1692506108db3384611703565b6108e58387611721565b50509392505050565b6108f88282611795565b61091d816008600085815260200190815260200160002061106690919063ffffffff16565b505050565b61092c82826117fb565b610951816008600085815260200190815260200160002061187e90919063ffffffff16565b505050565b61097183838360405180602001604052806000815250610d94565b505050565b6000806002600084815260200190815260200160002060009054906101000a900473ffffffffffffffffffffffffffffffffffffffff169050600073ffffffffffffffffffffffffffffffffffffffff168173ffffffffffffffffffffffffffffffffffffffff161415610a1f576040517f08c379a0000000000000000000000000000000000000000000000000000000008152600401610a1690613449565b60405180910390fd5b80915050919050565b60008073ffffffffffffffffffffffffffffffffffffffff168273ffffffffffffffffffffffffffffffffffffffff161415610a99576040517f08c379a0000000000000000000000000000000000000000000000000000000008152600401610a9090613429565b60405180910390fd5b600360008373ffffffffffffffffffffffffffffffffffffffff1673ffffffffffffffffffffffffffffffffffffffff168152602001908152602001600020549050919050565b6000610b0782600860008681526020019081526020016000206118ae90919063ffffffff16565b905092915050565b60006007600084815260200190815260200160002060000160008373ffffffffffffffffffffffffffffffffffffffff1673ffffffffffffffffffffffffffffffffffffffff16815260200190815260200160002060009054906101000a900460ff16905092915050565b606060018054610b8990613836565b80601f0160208091040260200160405190810160405280929190818152602001828054610bb590613836565b8015610c025780601f10610bd757610100808354040283529160200191610c02565b820191906000526020600020905b815481529060010190602001808311610be557829003601f168201915b5050505050905090565b6000801b81565b610c1b61125e565b73ffffffffffffffffffffffffffffffffffffffff168273ffffffffffffffffffffffffffffffffffffffff161415610c89576040517f08c379a0000000000000000000000000000000000000000000000000000000008152600401610c8090613369565b60405180910390fd5b8060056000610c9661125e565b73ffffffffffffffffffffffffffffffffffffffff1673ffffffffffffffffffffffffffffffffffffffff16815260200190815260200160002060008473ffffffffffffffffffffffffffffffffffffffff1673ffffffffffffffffffffffffffffffffffffffff16815260200190815260200160002060006101000a81548160ff0219169083151502179055508173ffffffffffffffffffffffffffffffffffffffff16610d4361125e565b73ffffffffffffffffffffffffffffffffffffffff167f17307eab39ab6107e8899845ad3d59bd9653f200f220920489ca2b5937696c3183604051610d8891906131ec565b60405180910390a35050565b610da5610d9f61125e565b8361131f565b610de4576040517f08c379a0000000000000000000000000000000000000000000000000000000008152600401610ddb90613589565b60405180910390fd5b610df0848484846118c8565b50505050565b6060610e01826111f2565b610e40576040517f08c379a0000000000000000000000000000000000000000000000000000000008152600401610e37906134e9565b60405180910390fd5b6000600660008481526020019081526020016000208054610e6090613836565b80601f0160208091040260200160405190810160405280929190818152602001828054610e8c90613836565b8015610ed95780601f10610eae57610100808354040283529160200191610ed9565b820191906000526020600020905b815481529060010190602001808311610ebc57829003601f168201915b505050505090506000610eea611924565b9050600081511415610f00578192505050610f43565b600082511115610f35578082604051602001610f1d92919061313b565b60405160208183030381529060405292505050610f43565b610f3e84611961565b925050505b919050565b6000610f6560086000848152602001908152602001600020611a08565b9050919050565b610f768282611a1d565b610f9b816008600085815260200190815260200160002061187e90919063ffffffff16565b505050565b6000600560008473ffffffffffffffffffffffffffffffffffffffff1673ffffffffffffffffffffffffffffffffffffffff16815260200190815260200160002060008373ffffffffffffffffffffffffffffffffffffffff1673ffffffffffffffffffffffffffffffffffffffff16815260200190815260200160002060009054906101000a900460ff16905092915050565b7f241ecf16d79d0f8dbfb92cbc07fe17840425976cf0667f022fe9877caa831b0881565b6110628282611a83565b5050565b600061108e836000018373ffffffffffffffffffffffffffffffffffffffff1660001b611b64565b905092915050565b60007f5a05180f000000000000000000000000000000000000000000000000000000007bffffffffffffffffffffffffffffffffffffffffffffffffffffffff1916827bffffffffffffffffffffffffffffffffffffffffffffffffffffffff19161480611109575061110882611bd4565b5b9050919050565b60007f80ac58cd000000000000000000000000000000000000000000000000000000007bffffffffffffffffffffffffffffffffffffffffffffffffffffffff1916827bffffffffffffffffffffffffffffffffffffffffffffffffffffffff191614806111db57507f5b5e139f000000000000000000000000000000000000000000000000000000007bffffffffffffffffffffffffffffffffffffffffffffffffffffffff1916827bffffffffffffffffffffffffffffffffffffffffffffffffffffffff1916145b806111eb57506111ea82611c4e565b5b9050919050565b60008073ffffffffffffffffffffffffffffffffffffffff166002600084815260200190815260200160002060009054906101000a900473ffffffffffffffffffffffffffffffffffffffff1673ffffffffffffffffffffffffffffffffffffffff1614159050919050565b600033905090565b816004600083815260200190815260200160002060006101000a81548173ffffffffffffffffffffffffffffffffffffffff021916908373ffffffffffffffffffffffffffffffffffffffff160217905550808273ffffffffffffffffffffffffffffffffffffffff166112d983610976565b73ffffffffffffffffffffffffffffffffffffffff167f8c5be1e5ebec7d5bd14f71427d1e84f3dd0314c0f7b2291e5b200ac8c7c3b92560405160405180910390a45050565b600061132a826111f2565b611369576040517f08c379a0000000000000000000000000000000000000000000000000000000008152600401611360906133a9565b60405180910390fd5b600061137483610976565b90508073ffffffffffffffffffffffffffffffffffffffff168473ffffffffffffffffffffffffffffffffffffffff1614806113e357508373ffffffffffffffffffffffffffffffffffffffff166113cb8461056e565b73ffffffffffffffffffffffffffffffffffffffff16145b806113f457506113f38185610fa0565b5b91505092915050565b8273ffffffffffffffffffffffffffffffffffffffff1661141d82610976565b73ffffffffffffffffffffffffffffffffffffffff1614611473576040517f08c379a000000000000000000000000000000000000000000000000000000000815260040161146a90613529565b60405180910390fd5b600073ffffffffffffffffffffffffffffffffffffffff168273ffffffffffffffffffffffffffffffffffffffff1614156114e3576040517f08c379a00000000000000000000000000000000000000000000000000000000081526004016114da90613349565b60405180910390fd5b6114ee838383611cb8565b6114f9600082611266565b6001600360008573ffffffffffffffffffffffffffffffffffffffff1673ffffffffffffffffffffffffffffffffffffffff16815260200190815260200160002060008282546115499190613735565b925050819055506001600360008473ffffffffffffffffffffffffffffffffffffffff1673ffffffffffffffffffffffffffffffffffffffff16815260200190815260200160002060008282546115a091906136ae565b92505081905550816002600083815260200190815260200160002060006101000a81548173ffffffffffffffffffffffffffffffffffffffff021916908373ffffffffffffffffffffffffffffffffffffffff160217905550808273ffffffffffffffffffffffffffffffffffffffff168473ffffffffffffffffffffffffffffffffffffffff167fddf252ad1be2c89b69c2b068fc378daa952ba7f163c4a11628f55a4df523b3ef60405160405180910390a4505050565b60008160405160200161166c919061315f565b604051602081830303815290604052805190602001209050919050565b600060418251146116cf576040517f08c379a00000000000000000000000000000000000000000000000000000000081526004016116c6906132e9565b60405180910390fd5b60008060006020850151925060408501519150606085015160001a90506116f886828585611cbd565b935050505092915050565b61171d828260405180602001604052806000815250611e48565b5050565b61172a826111f2565b611769576040517f08c379a000000000000000000000000000000000000000000000000000000000815260040161176090613469565b60405180910390fd5b80600660008481526020019081526020016000209080519060200190611790929190612702565b505050565b6117ae6117a18361076b565b6117a961125e565b610b0f565b6117ed576040517f08c379a00000000000000000000000000000000000000000000000000000000081526004016117e4906132c9565b60405180910390fd5b6117f78282611a83565b5050565b61180361125e565b73ffffffffffffffffffffffffffffffffffffffff168173ffffffffffffffffffffffffffffffffffffffff1614611870576040517f08c379a0000000000000000000000000000000000000000000000000000000008152600401611867906135a9565b60405180910390fd5b61187a8282611ea3565b5050565b60006118a6836000018373ffffffffffffffffffffffffffffffffffffffff1660001b611f85565b905092915050565b60006118bd836000018361210f565b60001c905092915050565b6118d38484846113fd565b6118df848484846121a9565b61191e576040517f08c379a000000000000000000000000000000000000000000000000000000000815260040161191590613309565b60405180910390fd5b50505050565b60606040518060400160405280600781526020017f697066733a2f2f00000000000000000000000000000000000000000000000000815250905090565b606061196c826111f2565b6119ab576040517f08c379a00000000000000000000000000000000000000000000000000000000081526004016119a290613549565b60405180910390fd5b60006119b5611924565b905060008151116119d55760405180602001604052806000815250611a00565b806119df84612340565b6040516020016119f092919061313b565b6040516020818303038152906040525b915050919050565b6000611a16826000016124ed565b9050919050565b611a36611a298361076b565b611a3161125e565b610b0f565b611a75576040517f08c379a0000000000000000000000000000000000000000000000000000000008152600401611a6c906133e9565b60405180910390fd5b611a7f8282611ea3565b5050565b611a8d8282610b0f565b611b605760016007600084815260200190815260200160002060000160008373ffffffffffffffffffffffffffffffffffffffff1673ffffffffffffffffffffffffffffffffffffffff16815260200190815260200160002060006101000a81548160ff021916908315150217905550611b0561125e565b73ffffffffffffffffffffffffffffffffffffffff168173ffffffffffffffffffffffffffffffffffffffff16837f2f8788117e7eff1d82e926ec794901d17c78024a50270940304540a733656f0d60405160405180910390a45b5050565b6000611b7083836124fe565b611bc9578260000182908060018154018082558091505060019003906000526020600020016000909190919091505582600001805490508360010160008481526020019081526020016000208190555060019050611bce565b600090505b92915050565b60007f7965db0b000000000000000000000000000000000000000000000000000000007bffffffffffffffffffffffffffffffffffffffffffffffffffffffff1916827bffffffffffffffffffffffffffffffffffffffffffffffffffffffff19161480611c475750611c4682611110565b5b9050919050565b60007f01ffc9a7000000000000000000000000000000000000000000000000000000007bffffffffffffffffffffffffffffffffffffffffffffffffffffffff1916827bffffffffffffffffffffffffffffffffffffffffffffffffffffffff1916149050919050565b505050565b60007f7fffffffffffffffffffffffffffffff5d576e7357a4501ddfe92f46681b20a08260001c1115611d25576040517f08c379a0000000000000000000000000000000000000000000000000000000008152600401611d1c90613389565b60405180910390fd5b601b8460ff161480611d3a5750601c8460ff16145b611d79576040517f08c379a0000000000000000000000000000000000000000000000000000000008152600401611d70906134a9565b60405180910390fd5b600060018686868660405160008152602001604052604051611d9e9493929190613222565b6020604051602081039080840390855afa158015611dc0573d6000803e3d6000fd5b505050602060405103519050600073ffffffffffffffffffffffffffffffffffffffff168173ffffffffffffffffffffffffffffffffffffffff161415611e3c576040517f08c379a0000000000000000000000000000000000000000000000000000000008152600401611e3390613289565b60405180910390fd5b80915050949350505050565b611e528383612521565b611e5f60008484846121a9565b611e9e576040517f08c379a0000000000000000000000000000000000000000000000000000000008152600401611e9590613309565b60405180910390fd5b505050565b611ead8282610b0f565b15611f815760006007600084815260200190815260200160002060000160008373ffffffffffffffffffffffffffffffffffffffff1673ffffffffffffffffffffffffffffffffffffffff16815260200190815260200160002060006101000a81548160ff021916908315150217905550611f2661125e565b73ffffffffffffffffffffffffffffffffffffffff168173ffffffffffffffffffffffffffffffffffffffff16837ff6391f5c32d9c69d2a47ea670b442974b53935d1edc7fd64eb21e047a839171b60405160405180910390a45b5050565b60008083600101600084815260200190815260200160002054905060008114612103576000600182611fb79190613735565b9050600060018660000180549050611fcf9190613735565b9050600086600001828154811061200f577f4e487b7100000000000000000000000000000000000000000000000000000000600052603260045260246000fd5b9060005260206000200154905080876000018481548110612059577f4e487b7100000000000000000000000000000000000000000000000000000000600052603260045260246000fd5b906000526020600020018190555060018361207491906136ae565b87600101600083815260200190815260200160002081905550866000018054806120c7577f4e487b7100000000000000000000000000000000000000000000000000000000600052603160045260246000fd5b60019003818190600052602060002001600090559055866001016000878152602001908152602001600020600090556001945050505050612109565b60009150505b92915050565b60008183600001805490501161215a576040517f08c379a0000000000000000000000000000000000000000000000000000000008152600401612151906132a9565b60405180910390fd5b826000018281548110612196577f4e487b7100000000000000000000000000000000000000000000000000000000600052603260045260246000fd5b9060005260206000200154905092915050565b60006121ca8473ffffffffffffffffffffffffffffffffffffffff166126ef565b15612333578373ffffffffffffffffffffffffffffffffffffffff1663150b7a026121f361125e565b8786866040518563ffffffff1660e01b815260040161221594939291906131a0565b602060405180830381600087803b15801561222f57600080fd5b505af192505050801561226057506040513d601f19601f8201168201806040525081019061225d9190612b64565b60015b6122e3573d8060008114612290576040519150601f19603f3d011682016040523d82523d6000602084013e612295565b606091505b506000815114156122db576040517f08c379a00000000000000000000000000000000000000000000000000000000081526004016122d290613309565b60405180910390fd5b805181602001fd5b63150b7a0260e01b7bffffffffffffffffffffffffffffffffffffffffffffffffffffffff1916817bffffffffffffffffffffffffffffffffffffffffffffffffffffffff191614915050612338565b600190505b949350505050565b60606000821415612388576040518060400160405280600181526020017f300000000000000000000000000000000000000000000000000000000000000081525090506124e8565b600082905060005b600082146123ba5780806123a390613899565b915050600a826123b39190613704565b9150612390565b60008167ffffffffffffffff8111156123fc577f4e487b7100000000000000000000000000000000000000000000000000000000600052604160045260246000fd5b6040519080825280601f01601f19166020018201604052801561242e5781602001600182028036833780820191505090505b5090505b600085146124e1576001826124479190613735565b9150600a856124569190613910565b603061246291906136ae565b60f81b81838151811061249e577f4e487b7100000000000000000000000000000000000000000000000000000000600052603260045260246000fd5b60200101907effffffffffffffffffffffffffffffffffffffffffffffffffffffffffffff1916908160001a905350600a856124da9190613704565b9450612432565b8093505050505b919050565b600081600001805490509050919050565b600080836001016000848152602001908152602001600020541415905092915050565b600073ffffffffffffffffffffffffffffffffffffffff168273ffffffffffffffffffffffffffffffffffffffff161415612591576040517f08c379a0000000000000000000000000000000000000000000000000000000008152600401612588906134c9565b60405180910390fd5b61259a816111f2565b156125da576040517f08c379a00000000000000000000000000000000000000000000000000000000081526004016125d190613329565b60405180910390fd5b6125e660008383611cb8565b6001600360008473ffffffffffffffffffffffffffffffffffffffff1673ffffffffffffffffffffffffffffffffffffffff168152602001908152602001600020600082825461263691906136ae565b92505081905550816002600083815260200190815260200160002060006101000a81548173ffffffffffffffffffffffffffffffffffffffff021916908373ffffffffffffffffffffffffffffffffffffffff160217905550808273ffffffffffffffffffffffffffffffffffffffff16600073ffffffffffffffffffffffffffffffffffffffff167fddf252ad1be2c89b69c2b068fc378daa952ba7f163c4a11628f55a4df523b3ef60405160405180910390a45050565b600080823b905060008111915050919050565b82805461270e90613836565b90600052602060002090601f0160209004810192826127305760008555612777565b82601f1061274957805160ff1916838001178555612777565b82800160010185558215612777579182015b8281111561277657825182559160200191906001019061275b565b5b5090506127849190612788565b5090565b5b808211156127a1576000816000905550600101612789565b5090565b60006127b86127b384613609565b6135e4565b9050828152602081018484840111156127d057600080fd5b6127db8482856137f4565b509392505050565b60006127f66127f18461363a565b6135e4565b90508281526020810184848401111561280e57600080fd5b6128198482856137f4565b509392505050565b60008135905061283081614166565b92915050565b6000813590506128458161417d565b92915050565b60008135905061285a81614194565b92915050565b60008135905061286f816141ab565b92915050565b600081519050612884816141ab565b92915050565b600082601f83011261289b57600080fd5b81356128ab8482602086016127a5565b91505092915050565b600082601f8301126128c557600080fd5b81356128d58482602086016127e3565b91505092915050565b6000813590506128ed816141c2565b92915050565b60006020828403121561290557600080fd5b600061291384828501612821565b91505092915050565b6000806040838503121561292f57600080fd5b600061293d85828601612821565b925050602061294e85828601612821565b9150509250929050565b60008060006060848603121561296d57600080fd5b600061297b86828701612821565b935050602061298c86828701612821565b925050604061299d868287016128de565b9150509250925092565b600080600080608085870312156129bd57600080fd5b60006129cb87828801612821565b94505060206129dc87828801612821565b93505060406129ed878288016128de565b925050606085013567ffffffffffffffff811115612a0a57600080fd5b612a168782880161288a565b91505092959194509250565b60008060408385031215612a3557600080fd5b6000612a4385828601612821565b9250506020612a5485828601612836565b9150509250929050565b60008060408385031215612a7157600080fd5b6000612a7f85828601612821565b9250506020612a90858286016128de565b9150509250929050565b600060208284031215612aac57600080fd5b6000612aba8482850161284b565b91505092915050565b60008060408385031215612ad657600080fd5b6000612ae48582860161284b565b9250506020612af585828601612821565b9150509250929050565b60008060408385031215612b1257600080fd5b6000612b208582860161284b565b9250506020612b31858286016128de565b9150509250929050565b600060208284031215612b4d57600080fd5b6000612b5b84828501612860565b91505092915050565b600060208284031215612b7657600080fd5b6000612b8484828501612875565b91505092915050565b600080600060608486031215612ba257600080fd5b600084013567ffffffffffffffff811115612bbc57600080fd5b612bc8868287016128b4565b9350506020612bd986828701612821565b925050604084013567ffffffffffffffff811115612bf657600080fd5b612c028682870161288a565b9150509250925092565b600060208284031215612c1e57600080fd5b6000612c2c848285016128de565b91505092915050565b612c3e81613769565b82525050565b612c55612c5082613769565b6138e2565b82525050565b612c648161377b565b82525050565b612c7381613787565b82525050565b612c8a612c8582613787565b6138f4565b82525050565b6000612c9b8261366b565b612ca58185613681565b9350612cb5818560208601613803565b612cbe816139fd565b840191505092915050565b6000612cd482613676565b612cde8185613692565b9350612cee818560208601613803565b612cf7816139fd565b840191505092915050565b6000612d0d82613676565b612d1781856136a3565b9350612d27818560208601613803565b80840191505092915050565b6000612d40601883613692565b9150612d4b82613a1b565b602082019050919050565b6000612d63602283613692565b9150612d6e82613a44565b604082019050919050565b6000612d86602f83613692565b9150612d9182613a93565b604082019050919050565b6000612da9601f83613692565b9150612db482613ae2565b602082019050919050565b6000612dcc601c836136a3565b9150612dd782613b0b565b601c82019050919050565b6000612def603283613692565b9150612dfa82613b34565b604082019050919050565b6000612e12601c83613692565b9150612e1d82613b83565b602082019050919050565b6000612e35602483613692565b9150612e4082613bac565b604082019050919050565b6000612e58601983613692565b9150612e6382613bfb565b602082019050919050565b6000612e7b602283613692565b9150612e8682613c24565b604082019050919050565b6000612e9e602c83613692565b9150612ea982613c73565b604082019050919050565b6000612ec1601983613692565b9150612ecc82613cc2565b602082019050919050565b6000612ee4603083613692565b9150612eef82613ceb565b604082019050919050565b6000612f07603883613692565b9150612f1282613d3a565b604082019050919050565b6000612f2a602a83613692565b9150612f3582613d89565b604082019050919050565b6000612f4d602983613692565b9150612f5882613dd8565b604082019050919050565b6000612f70602e83613692565b9150612f7b82613e27565b604082019050919050565b6000612f93602b83613692565b9150612f9e82613e76565b604082019050919050565b6000612fb6602283613692565b9150612fc182613ec5565b604082019050919050565b6000612fd9602083613692565b9150612fe482613f14565b602082019050919050565b6000612ffc603183613692565b915061300782613f3d565b604082019050919050565b600061301f602c83613692565b915061302a82613f8c565b604082019050919050565b6000613042602983613692565b915061304d82613fdb565b604082019050919050565b6000613065602f83613692565b91506130708261402a565b604082019050919050565b6000613088602183613692565b915061309382614079565b604082019050919050565b60006130ab603183613692565b91506130b6826140c8565b604082019050919050565b60006130ce602f83613692565b91506130d982614117565b604082019050919050565b6130ed816137dd565b82525050565b6130fc816137e7565b82525050565b600061310e8286612d02565b915061311a8285612c44565b60148201915061312a8284612c44565b601482019150819050949350505050565b60006131478285612d02565b91506131538284612d02565b91508190509392505050565b600061316a82612dbf565b91506131768284612c79565b60208201915081905092915050565b600060208201905061319a6000830184612c35565b92915050565b60006080820190506131b56000830187612c35565b6131c26020830186612c35565b6131cf60408301856130e4565b81810360608301526131e18184612c90565b905095945050505050565b60006020820190506132016000830184612c5b565b92915050565b600060208201905061321c6000830184612c6a565b92915050565b60006080820190506132376000830187612c6a565b61324460208301866130f3565b6132516040830185612c6a565b61325e6060830184612c6a565b95945050505050565b600060208201905081810360008301526132818184612cc9565b905092915050565b600060208201905081810360008301526132a281612d33565b9050919050565b600060208201905081810360008301526132c281612d56565b9050919050565b600060208201905081810360008301526132e281612d79565b9050919050565b6000602082019050818103600083015261330281612d9c565b9050919050565b6000602082019050818103600083015261332281612de2565b9050919050565b6000602082019050818103600083015261334281612e05565b9050919050565b6000602082019050818103600083015261336281612e28565b9050919050565b6000602082019050818103600083015261338281612e4b565b9050919050565b600060208201905081810360008301526133a281612e6e565b9050919050565b600060208201905081810360008301526133c281612e91565b9050919050565b600060208201905081810360008301526133e281612eb4565b9050919050565b6000602082019050818103600083015261340281612ed7565b9050919050565b6000602082019050818103600083015261342281612efa565b9050919050565b6000602082019050818103600083015261344281612f1d565b9050919050565b6000602082019050818103600083015261346281612f40565b9050919050565b6000602082019050818103600083015261348281612f63565b9050919050565b600060208201905081810360008301526134a281612f86565b9050919050565b600060208201905081810360008301526134c281612fa9565b9050919050565b600060208201905081810360008301526134e281612fcc565b9050919050565b6000602082019050818103600083015261350281612fef565b9050919050565b6000602082019050818103600083015261352281613012565b9050919050565b6000602082019050818103600083015261354281613035565b9050919050565b6000602082019050818103600083015261356281613058565b9050919050565b600060208201905081810360008301526135828161307b565b9050919050565b600060208201905081810360008301526135a28161309e565b9050919050565b600060208201905081810360008301526135c2816130c1565b9050919050565b60006020820190506135de60008301846130e4565b92915050565b60006135ee6135ff565b90506135fa8282613868565b919050565b6000604051905090565b600067ffffffffffffffff821115613624576136236139ce565b5b61362d826139fd565b9050602081019050919050565b600067ffffffffffffffff821115613655576136546139ce565b5b61365e826139fd565b9050602081019050919050565b600081519050919050565b600081519050919050565b600082825260208201905092915050565b600082825260208201905092915050565b600081905092915050565b60006136b9826137dd565b91506136c4836137dd565b9250827fffffffffffffffffffffffffffffffffffffffffffffffffffffffffffffffff038211156136f9576136f8613941565b5b828201905092915050565b600061370f826137dd565b915061371a836137dd565b92508261372a57613729613970565b5b828204905092915050565b6000613740826137dd565b915061374b836137dd565b92508282101561375e5761375d613941565b5b828203905092915050565b6000613774826137bd565b9050919050565b60008115159050919050565b6000819050919050565b60007fffffffff0000000000000000000000000000000000000000000000000000000082169050919050565b600073ffffffffffffffffffffffffffffffffffffffff82169050919050565b6000819050919050565b600060ff82169050919050565b82818337600083830152505050565b60005b83811015613821578082015181840152602081019050613806565b83811115613830576000848401525b50505050565b6000600282049050600182168061384e57607f821691505b602082108114156138625761386161399f565b5b50919050565b613871826139fd565b810181811067ffffffffffffffff821117156138905761388f6139ce565b5b80604052505050565b60006138a4826137dd565b91507fffffffffffffffffffffffffffffffffffffffffffffffffffffffffffffffff8214156138d7576138d6613941565b5b600182019050919050565b60006138ed826138fe565b9050919050565b6000819050919050565b600061390982613a0e565b9050919050565b600061391b826137dd565b9150613926836137dd565b92508261393657613935613970565b5b828206905092915050565b7f4e487b7100000000000000000000000000000000000000000000000000000000600052601160045260246000fd5b7f4e487b7100000000000000000000000000000000000000000000000000000000600052601260045260246000fd5b7f4e487b7100000000000000000000000000000000000000000000000000000000600052602260045260246000fd5b7f4e487b7100000000000000000000000000000000000000000000000000000000600052604160045260246000fd5b6000601f19601f8301169050919050565b60008160601b9050919050565b7f45434453413a20696e76616c6964207369676e61747572650000000000000000600082015250565b7f456e756d657261626c655365743a20696e646578206f7574206f6620626f756e60008201527f6473000000000000000000000000000000000000000000000000000000000000602082015250565b7f416363657373436f6e74726f6c3a2073656e646572206d75737420626520616e60008201527f2061646d696e20746f206772616e740000000000000000000000000000000000602082015250565b7f45434453413a20696e76616c6964207369676e6174757265206c656e67746800600082015250565b7f19457468657265756d205369676e6564204d6573736167653a0a333200000000600082015250565b7f4552433732313a207472616e7366657220746f206e6f6e20455243373231526560008201527f63656976657220696d706c656d656e7465720000000000000000000000000000602082015250565b7f4552433732313a20746f6b656e20616c7265616479206d696e74656400000000600082015250565b7f4552433732313a207472616e7366657220746f20746865207a65726f2061646460008201527f7265737300000000000000000000000000000000000000000000000000000000602082015250565b7f4552433732313a20617070726f766520746f2063616c6c657200000000000000600082015250565b7f45434453413a20696e76616c6964207369676e6174757265202773272076616c60008201527f7565000000000000000000000000000000000000000000000000000000000000602082015250565b7f4552433732313a206f70657261746f7220717565727920666f72206e6f6e657860008201527f697374656e7420746f6b656e0000000000000000000000000000000000000000602082015250565b7f496e76616c6964207265636f7665726564206164647265737300000000000000600082015250565b7f416363657373436f6e74726f6c3a2073656e646572206d75737420626520616e60008201527f2061646d696e20746f207265766f6b6500000000000000000000000000000000602082015250565b7f4552433732313a20617070726f76652063616c6c6572206973206e6f74206f7760008201527f6e6572206e6f7220617070726f76656420666f7220616c6c0000000000000000602082015250565b7f4552433732313a2062616c616e636520717565727920666f7220746865207a6560008201527f726f206164647265737300000000000000000000000000000000000000000000602082015250565b7f4552433732313a206f776e657220717565727920666f72206e6f6e657869737460008201527f656e7420746f6b656e0000000000000000000000000000000000000000000000602082015250565b7f45524337323155524953746f726167653a2055524920736574206f66206e6f6e60008201527f6578697374656e7420746f6b656e000000000000000000000000000000000000602082015250565b7f4f6e6c7920616363657074696e67207369676e6174757265732066726f6d204d60008201527f414e414745525f524f4c45000000000000000000000000000000000000000000602082015250565b7f45434453413a20696e76616c6964207369676e6174757265202776272076616c60008201527f7565000000000000000000000000000000000000000000000000000000000000602082015250565b7f4552433732313a206d696e7420746f20746865207a65726f2061646472657373600082015250565b7f45524337323155524953746f726167653a2055524920717565727920666f722060008201527f6e6f6e6578697374656e7420746f6b656e000000000000000000000000000000602082015250565b7f4552433732313a20617070726f76656420717565727920666f72206e6f6e657860008201527f697374656e7420746f6b656e0000000000000000000000000000000000000000602082015250565b7f4552433732313a207472616e73666572206f6620746f6b656e2074686174206960008201527f73206e6f74206f776e0000000000000000000000000000000000000000000000602082015250565b7f4552433732314d657461646174613a2055524920717565727920666f72206e6f60008201527f6e6578697374656e7420746f6b656e0000000000000000000000000000000000602082015250565b7f4552433732313a20617070726f76616c20746f2063757272656e74206f776e6560008201527f7200000000000000000000000000000000000000000000000000000000000000602082015250565b7f4552433732313a207472616e736665722063616c6c6572206973206e6f74206f60008201527f776e6572206e6f7220617070726f766564000000000000000000000000000000602082015250565b7f416363657373436f6e74726f6c3a2063616e206f6e6c792072656e6f756e636560008201527f20726f6c657320666f722073656c660000000000000000000000000000000000602082015250565b61416f81613769565b811461417a57600080fd5b50565b6141868161377b565b811461419157600080fd5b50565b61419d81613787565b81146141a857600080fd5b50565b6141b481613791565b81146141bf57600080fd5b50565b6141cb816137dd565b81146141d657600080fd5b5056fea264697066735822122076cecf2a04623f88ac54d5a776a48b30350b26e5b649a8f5d447e0662b8056b564736f6c63430008010033",
  "devdoc": {
    "kind": "dev",
    "methods": {
      "approve(address,uint256)": {
        "details": "See {IERC721-approve}."
      },
      "balanceOf(address)": {
        "details": "See {IERC721-balanceOf}."
      },
      "getApproved(uint256)": {
        "details": "See {IERC721-getApproved}."
      },
      "getRoleAdmin(bytes32)": {
        "details": "Returns the admin role that controls `role`. See {grantRole} and {revokeRole}. To change a role's admin, use {_setRoleAdmin}."
      },
      "getRoleMember(bytes32,uint256)": {
        "details": "Returns one of the accounts that have `role`. `index` must be a value between 0 and {getRoleMemberCount}, non-inclusive. Role bearers are not sorted in any particular way, and their ordering may change at any point. WARNING: When using {getRoleMember} and {getRoleMemberCount}, make sure you perform all queries on the same block. See the following https://forum.openzeppelin.com/t/iterating-over-elements-on-enumerableset-in-openzeppelin-contracts/2296[forum post] for more information."
      },
      "getRoleMemberCount(bytes32)": {
        "details": "Returns the number of accounts that have `role`. Can be used together with {getRoleMember} to enumerate all bearers of a role."
      },
      "grantRole(bytes32,address)": {
        "details": "Overload {grantRole} to track enumerable memberships"
      },
      "hasRole(bytes32,address)": {
        "details": "Returns `true` if `account` has been granted `role`."
      },
      "isApprovedForAll(address,address)": {
        "details": "See {IERC721-isApprovedForAll}."
      },
      "name()": {
        "details": "See {IERC721Metadata-name}."
      },
      "ownerOf(uint256)": {
        "details": "See {IERC721-ownerOf}."
      },
      "renounceRole(bytes32,address)": {
        "details": "Overload {renounceRole} to track enumerable memberships"
      },
      "revokeRole(bytes32,address)": {
        "details": "Overload {revokeRole} to track enumerable memberships"
      },
      "safeTransferFrom(address,address,uint256)": {
        "details": "See {IERC721-safeTransferFrom}."
      },
      "safeTransferFrom(address,address,uint256,bytes)": {
        "details": "See {IERC721-safeTransferFrom}."
      },
      "setApprovalForAll(address,bool)": {
        "details": "See {IERC721-setApprovalForAll}."
      },
      "symbol()": {
        "details": "See {IERC721Metadata-symbol}."
      },
      "tokenURI(uint256)": {
        "details": "See {IERC721Metadata-tokenURI}."
      },
      "transferFrom(address,address,uint256)": {
        "details": "See {IERC721-transferFrom}."
      }
    },
    "version": 1
  },
  "userdoc": {
    "kind": "user",
    "methods": {},
    "version": 1
  },
  "storageLayout": {
    "storage": [
      {
        "astId": 539,
        "contract": "contracts/ArbArt.sol:ArbArt",
        "label": "_name",
        "offset": 0,
        "slot": "0",
        "type": "t_string_storage"
      },
      {
        "astId": 541,
        "contract": "contracts/ArbArt.sol:ArbArt",
        "label": "_symbol",
        "offset": 0,
        "slot": "1",
        "type": "t_string_storage"
      },
      {
        "astId": 545,
        "contract": "contracts/ArbArt.sol:ArbArt",
        "label": "_owners",
        "offset": 0,
        "slot": "2",
        "type": "t_mapping(t_uint256,t_address)"
      },
      {
        "astId": 549,
        "contract": "contracts/ArbArt.sol:ArbArt",
        "label": "_balances",
        "offset": 0,
        "slot": "3",
        "type": "t_mapping(t_address,t_uint256)"
      },
      {
        "astId": 553,
        "contract": "contracts/ArbArt.sol:ArbArt",
        "label": "_tokenApprovals",
        "offset": 0,
        "slot": "4",
        "type": "t_mapping(t_uint256,t_address)"
      },
      {
        "astId": 559,
        "contract": "contracts/ArbArt.sol:ArbArt",
        "label": "_operatorApprovals",
        "offset": 0,
        "slot": "5",
        "type": "t_mapping(t_address,t_mapping(t_address,t_bool))"
      },
      {
        "astId": 1480,
        "contract": "contracts/ArbArt.sol:ArbArt",
        "label": "_tokenURIs",
        "offset": 0,
        "slot": "6",
        "type": "t_mapping(t_uint256,t_string_storage)"
      },
      {
        "astId": 61,
        "contract": "contracts/ArbArt.sol:ArbArt",
        "label": "_roles",
        "offset": 0,
        "slot": "7",
        "type": "t_mapping(t_bytes32,t_struct(RoleData)56_storage)"
      },
      {
        "astId": 358,
        "contract": "contracts/ArbArt.sol:ArbArt",
        "label": "_roleMembers",
        "offset": 0,
        "slot": "8",
        "type": "t_mapping(t_bytes32,t_struct(AddressSet)2635_storage)"
      }
    ],
    "types": {
      "t_address": {
        "encoding": "inplace",
        "label": "address",
        "numberOfBytes": "20"
      },
      "t_array(t_bytes32)dyn_storage": {
        "base": "t_bytes32",
        "encoding": "dynamic_array",
        "label": "bytes32[]",
        "numberOfBytes": "32"
      },
      "t_bool": {
        "encoding": "inplace",
        "label": "bool",
        "numberOfBytes": "1"
      },
      "t_bytes32": {
        "encoding": "inplace",
        "label": "bytes32",
        "numberOfBytes": "32"
      },
      "t_mapping(t_address,t_bool)": {
        "encoding": "mapping",
        "key": "t_address",
        "label": "mapping(address => bool)",
        "numberOfBytes": "32",
        "value": "t_bool"
      },
      "t_mapping(t_address,t_mapping(t_address,t_bool))": {
        "encoding": "mapping",
        "key": "t_address",
        "label": "mapping(address => mapping(address => bool))",
        "numberOfBytes": "32",
        "value": "t_mapping(t_address,t_bool)"
      },
      "t_mapping(t_address,t_uint256)": {
        "encoding": "mapping",
        "key": "t_address",
        "label": "mapping(address => uint256)",
        "numberOfBytes": "32",
        "value": "t_uint256"
      },
      "t_mapping(t_bytes32,t_struct(AddressSet)2635_storage)": {
        "encoding": "mapping",
        "key": "t_bytes32",
        "label": "mapping(bytes32 => struct EnumerableSet.AddressSet)",
        "numberOfBytes": "32",
        "value": "t_struct(AddressSet)2635_storage"
      },
      "t_mapping(t_bytes32,t_struct(RoleData)56_storage)": {
        "encoding": "mapping",
        "key": "t_bytes32",
        "label": "mapping(bytes32 => struct AccessControl.RoleData)",
        "numberOfBytes": "32",
        "value": "t_struct(RoleData)56_storage"
      },
      "t_mapping(t_bytes32,t_uint256)": {
        "encoding": "mapping",
        "key": "t_bytes32",
        "label": "mapping(bytes32 => uint256)",
        "numberOfBytes": "32",
        "value": "t_uint256"
      },
      "t_mapping(t_uint256,t_address)": {
        "encoding": "mapping",
        "key": "t_uint256",
        "label": "mapping(uint256 => address)",
        "numberOfBytes": "32",
        "value": "t_address"
      },
      "t_mapping(t_uint256,t_string_storage)": {
        "encoding": "mapping",
        "key": "t_uint256",
        "label": "mapping(uint256 => string)",
        "numberOfBytes": "32",
        "value": "t_string_storage"
      },
      "t_string_storage": {
        "encoding": "bytes",
        "label": "string",
        "numberOfBytes": "32"
      },
      "t_struct(AddressSet)2635_storage": {
        "encoding": "inplace",
        "label": "struct EnumerableSet.AddressSet",
        "members": [
          {
            "astId": 2634,
            "contract": "contracts/ArbArt.sol:ArbArt",
            "label": "_inner",
            "offset": 0,
            "slot": "0",
            "type": "t_struct(Set)2358_storage"
          }
        ],
        "numberOfBytes": "64"
      },
      "t_struct(RoleData)56_storage": {
        "encoding": "inplace",
        "label": "struct AccessControl.RoleData",
        "members": [
          {
            "astId": 53,
            "contract": "contracts/ArbArt.sol:ArbArt",
            "label": "members",
            "offset": 0,
            "slot": "0",
            "type": "t_mapping(t_address,t_bool)"
          },
          {
            "astId": 55,
            "contract": "contracts/ArbArt.sol:ArbArt",
            "label": "adminRole",
            "offset": 0,
            "slot": "1",
            "type": "t_bytes32"
          }
        ],
        "numberOfBytes": "64"
      },
      "t_struct(Set)2358_storage": {
        "encoding": "inplace",
        "label": "struct EnumerableSet.Set",
        "members": [
          {
            "astId": 2353,
            "contract": "contracts/ArbArt.sol:ArbArt",
            "label": "_values",
            "offset": 0,
            "slot": "0",
            "type": "t_array(t_bytes32)dyn_storage"
          },
          {
            "astId": 2357,
            "contract": "contracts/ArbArt.sol:ArbArt",
            "label": "_indexes",
            "offset": 0,
            "slot": "1",
            "type": "t_mapping(t_bytes32,t_uint256)"
          }
        ],
        "numberOfBytes": "64"
      },
      "t_uint256": {
        "encoding": "inplace",
        "label": "uint256",
        "numberOfBytes": "32"
      }
    }
  }
}