{
  "address": "0x5FbDB2315678afecb367f032d93F642f64180aa3",
  "abi": [
    {
      "inputs": [
        {
          "internalType": "address",
          "name": "_manager",
          "type": "address"
        },
        {
          "internalType": "address payable",
          "name": "_feesReceiver",
          "type": "address"
        }
      ],
      "stateMutability": "nonpayable",
      "type": "constructor"
    },
    {
      "anonymous": false,
      "inputs": [
        {
          "indexed": true,
          "internalType": "address",
          "name": "owner",
          "type": "address"
        },
        {
          "indexed": true,
          "internalType": "address",
          "name": "approved",
          "type": "address"
        },
        {
          "indexed": true,
          "internalType": "uint256",
          "name": "tokenId",
          "type": "uint256"
        }
      ],
      "name": "Approval",
      "type": "event"
    },
    {
      "anonymous": false,
      "inputs": [
        {
          "indexed": true,
          "internalType": "address",
          "name": "owner",
          "type": "address"
        },
        {
          "indexed": true,
          "internalType": "address",
          "name": "operator",
          "type": "address"
        },
        {
          "indexed": false,
          "internalType": "bool",
          "name": "approved",
          "type": "bool"
        }
      ],
      "name": "ApprovalForAll",
      "type": "event"
    },
    {
      "anonymous": false,
      "inputs": [
        {
          "indexed": true,
          "internalType": "uint256",
          "name": "tokenId",
          "type": "uint256"
        },
        {
          "indexed": true,
          "internalType": "uint256",
          "name": "burnPrice",
          "type": "uint256"
        }
      ],
      "name": "Burned",
      "type": "event"
    },
    {
      "anonymous": false,
      "inputs": [
        {
          "indexed": true,
          "internalType": "uint256",
          "name": "tokenId",
          "type": "uint256"
        },
        {
          "indexed": true,
          "internalType": "uint256",
          "name": "mintPrice",
          "type": "uint256"
        }
      ],
      "name": "Minted",
      "type": "event"
    },
    {
      "anonymous": false,
      "inputs": [
        {
          "indexed": true,
          "internalType": "address",
          "name": "from",
          "type": "address"
        },
        {
          "indexed": true,
          "internalType": "address",
          "name": "to",
          "type": "address"
        },
        {
          "indexed": true,
          "internalType": "uint256",
          "name": "tokenId",
          "type": "uint256"
        }
      ],
      "name": "Transfer",
      "type": "event"
    },
    {
      "inputs": [
        {
          "internalType": "address",
          "name": "to",
          "type": "address"
        },
        {
          "internalType": "uint256",
          "name": "tokenId",
          "type": "uint256"
        }
      ],
      "name": "approve",
      "outputs": [],
      "stateMutability": "nonpayable",
      "type": "function"
    },
    {
      "inputs": [
        {
          "internalType": "address",
          "name": "owner",
          "type": "address"
        }
      ],
      "name": "balanceOf",
      "outputs": [
        {
          "internalType": "uint256",
          "name": "",
          "type": "uint256"
        }
      ],
      "stateMutability": "view",
      "type": "function"
    },
    {
      "inputs": [
        {
          "internalType": "uint256",
          "name": "_tokenId",
          "type": "uint256"
        }
      ],
      "name": "burn",
      "outputs": [
        {
          "internalType": "bool",
          "name": "",
          "type": "bool"
        }
      ],
      "stateMutability": "nonpayable",
      "type": "function"
    },
    {
      "inputs": [
        {
          "internalType": "address",
          "name": "_newFeesReceiver",
          "type": "address"
        }
      ],
      "name": "changeFeesReceiver",
      "outputs": [
        {
          "internalType": "bool",
          "name": "",
          "type": "bool"
        }
      ],
      "stateMutability": "nonpayable",
      "type": "function"
    },
    {
      "inputs": [
        {
          "internalType": "address",
          "name": "_newManager",
          "type": "address"
        }
      ],
      "name": "changeManager",
      "outputs": [
        {
          "internalType": "bool",
          "name": "",
          "type": "bool"
        }
      ],
      "stateMutability": "nonpayable",
      "type": "function"
    },
    {
      "inputs": [],
      "name": "countMint",
      "outputs": [
        {
          "internalType": "uint256",
          "name": "_value",
          "type": "uint256"
        }
      ],
      "stateMutability": "view",
      "type": "function"
    },
    {
      "inputs": [],
      "name": "currentBurnPrice",
      "outputs": [
        {
          "internalType": "uint256",
          "name": "",
          "type": "uint256"
        }
      ],
      "stateMutability": "view",
      "type": "function"
    },
    {
      "inputs": [],
      "name": "currentMintPrice",
      "outputs": [
        {
          "internalType": "uint256",
          "name": "",
          "type": "uint256"
        },
        {
          "internalType": "uint256",
          "name": "",
          "type": "uint256"
        }
      ],
      "stateMutability": "view",
      "type": "function"
    },
    {
      "inputs": [],
      "name": "currentMintWithFeesPrice",
      "outputs": [
        {
          "internalType": "uint256",
          "name": "",
          "type": "uint256"
        }
      ],
      "stateMutability": "view",
      "type": "function"
    },
    {
      "inputs": [],
      "name": "currentPrice",
      "outputs": [
        {
          "internalType": "uint256",
          "name": "",
          "type": "uint256"
        }
      ],
      "stateMutability": "view",
      "type": "function"
    },
    {
      "inputs": [],
      "name": "feesReceiver",
      "outputs": [
        {
          "internalType": "address payable",
          "name": "",
          "type": "address"
        }
      ],
      "stateMutability": "view",
      "type": "function"
    },
    {
      "inputs": [
        {
          "internalType": "uint256",
          "name": "tokenId",
          "type": "uint256"
        }
      ],
      "name": "getApproved",
      "outputs": [
        {
          "internalType": "address",
          "name": "",
          "type": "address"
        }
      ],
      "stateMutability": "view",
      "type": "function"
    },
    {
      "inputs": [
        {
          "internalType": "address",
          "name": "owner",
          "type": "address"
        },
        {
          "internalType": "address",
          "name": "operator",
          "type": "address"
        }
      ],
      "name": "isApprovedForAll",
      "outputs": [
        {
          "internalType": "bool",
          "name": "",
          "type": "bool"
        }
      ],
      "stateMutability": "view",
      "type": "function"
    },
    {
      "inputs": [],
      "name": "manager",
      "outputs": [
        {
          "internalType": "address",
          "name": "",
          "type": "address"
        }
      ],
      "stateMutability": "view",
      "type": "function"
    },
    {
      "inputs": [
        {
          "internalType": "string",
          "name": "_uri",
          "type": "string"
        },
        {
          "internalType": "bytes",
          "name": "_signature",
          "type": "bytes"
        }
      ],
      "name": "mint",
      "outputs": [
        {
          "internalType": "uint256",
          "name": "_tokenId",
          "type": "uint256"
        }
      ],
      "stateMutability": "payable",
      "type": "function"
    },
    {
      "inputs": [
        {
          "internalType": "uint256",
          "name": "_current",
          "type": "uint256"
        }
      ],
      "name": "mintPriceFor",
      "outputs": [
        {
          "internalType": "uint256",
          "name": "_currentPrice",
          "type": "uint256"
        },
        {
          "internalType": "uint256",
          "name": "_fees",
          "type": "uint256"
        }
      ],
      "stateMutability": "pure",
      "type": "function"
    },
    {
      "inputs": [
        {
          "internalType": "uint256",
          "name": "_current",
          "type": "uint256"
        }
      ],
      "name": "mintWithFeesPriceFor",
      "outputs": [
        {
          "internalType": "uint256",
          "name": "",
          "type": "uint256"
        }
      ],
      "stateMutability": "pure",
      "type": "function"
    },
    {
      "inputs": [],
      "name": "name",
      "outputs": [
        {
          "internalType": "string",
          "name": "",
          "type": "string"
        }
      ],
      "stateMutability": "view",
      "type": "function"
    },
    {
      "inputs": [
        {
          "internalType": "uint256",
          "name": "tokenId",
          "type": "uint256"
        }
      ],
      "name": "ownerOf",
      "outputs": [
        {
          "internalType": "address",
          "name": "",
          "type": "address"
        }
      ],
      "stateMutability": "view",
      "type": "function"
    },
    {
      "inputs": [
        {
          "internalType": "uint256",
          "name": "_current",
          "type": "uint256"
        }
      ],
      "name": "priceFor",
      "outputs": [
        {
          "internalType": "uint256",
          "name": "",
          "type": "uint256"
        }
      ],
      "stateMutability": "pure",
      "type": "function"
    },
    {
      "inputs": [
        {
          "internalType": "address",
          "name": "from",
          "type": "address"
        },
        {
          "internalType": "address",
          "name": "to",
          "type": "address"
        },
        {
          "internalType": "uint256",
          "name": "tokenId",
          "type": "uint256"
        }
      ],
      "name": "safeTransferFrom",
      "outputs": [],
      "stateMutability": "nonpayable",
      "type": "function"
    },
    {
      "inputs": [
        {
          "internalType": "address",
          "name": "from",
          "type": "address"
        },
        {
          "internalType": "address",
          "name": "to",
          "type": "address"
        },
        {
          "internalType": "uint256",
          "name": "tokenId",
          "type": "uint256"
        },
        {
          "internalType": "bytes",
          "name": "_data",
          "type": "bytes"
        }
      ],
      "name": "safeTransferFrom",
      "outputs": [],
      "stateMutability": "nonpayable",
      "type": "function"
    },
    {
      "inputs": [
        {
          "internalType": "address",
          "name": "operator",
          "type": "address"
        },
        {
          "internalType": "bool",
          "name": "approved",
          "type": "bool"
        }
      ],
      "name": "setApprovalForAll",
      "outputs": [],
      "stateMutability": "nonpayable",
      "type": "function"
    },
    {
      "inputs": [
        {
          "internalType": "bytes4",
          "name": "interfaceId",
          "type": "bytes4"
        }
      ],
      "name": "supportsInterface",
      "outputs": [
        {
          "internalType": "bool",
          "name": "",
          "type": "bool"
        }
      ],
      "stateMutability": "view",
      "type": "function"
    },
    {
      "inputs": [],
      "name": "symbol",
      "outputs": [
        {
          "internalType": "string",
          "name": "",
          "type": "string"
        }
      ],
      "stateMutability": "view",
      "type": "function"
    },
    {
      "inputs": [
        {
          "internalType": "uint256",
          "name": "tokenId",
          "type": "uint256"
        }
      ],
      "name": "tokenURI",
      "outputs": [
        {
          "internalType": "string",
          "name": "",
          "type": "string"
        }
      ],
      "stateMutability": "view",
      "type": "function"
    },
    {
      "inputs": [
        {
          "internalType": "address",
          "name": "from",
          "type": "address"
        },
        {
          "internalType": "address",
          "name": "to",
          "type": "address"
        },
        {
          "internalType": "uint256",
          "name": "tokenId",
          "type": "uint256"
        }
      ],
      "name": "transferFrom",
      "outputs": [],
      "stateMutability": "nonpayable",
      "type": "function"
    }
  ],
  "transactionHash": "0x73a23909e83d47ce7131aee6ebbc5cfb1717644c8507bde1a184b02089f739d1",
  "args": [
    "0xE4D29ec42F4057EfF92c9124c82844b2689f9C6d",
    "0x91a5D3bCe5317D5579E780d67021fEc692575d1d"
  ],
  "solcInputHash": "4b8e10011a8d77d8a9098d804af10dc3",
  "bytecode": "0x60806040523480156200001157600080fd5b506040516200261938038062002619833981016040819052620000349162000176565b604080518082018252600a8152694176616e74476172646560b01b60208083019182528351808501909452600384526241564760e81b9084015281519192916200008191600091620000d0565b50805162000097906001906020840190620000d0565b5050600980546001600160a01b039485166001600160a01b0319918216179091556008805493909416921691909117909155506200020a565b828054620000de90620001b4565b90600052602060002090601f0160209004810192826200010257600085556200014d565b82601f106200011d57805160ff19168380011785556200014d565b828001600101855582156200014d579182015b828111156200014d57825182559160200191906001019062000130565b506200015b9291506200015f565b5090565b5b808211156200015b576000815560010162000160565b6000806040838503121562000189578182fd5b82516200019681620001f1565b6020840151909250620001a981620001f1565b809150509250929050565b600181811c90821680620001c957607f821691505b60208210811415620001eb57634e487b7160e01b600052602260045260246000fd5b50919050565b6001600160a01b03811681146200020757600080fd5b50565b6123ff806200021a6000396000f3fe60806040526004361061019c5760003560e01c806377119765116100ec578063a22cb4651161008a578063bca93cf511610064578063bca93cf514610493578063c87b56dd146104b3578063e985e9c5146104d3578063f620c8151461051c5761019c565b8063a22cb46514610433578063a3fbbaae14610453578063b88d4fde146104735761019c565b80638def9f82116100c65780638def9f82146103c957806395d89b41146103e957806399f7ab31146103fe5780639d1b464a1461041e5761019c565b8063771197651461037d5780637e309aaa146103925780638d5555f2146103a95761019c565b806331fd9fd1116101595780634737576e116101335780634737576e146102fc578063481c6a751461031d5780636352211e1461033d57806370a082311461035d5761019c565b806331fd9fd11461029c57806342842e0e146102bc57806342966c68146102dc5761019c565b806301ffc9a7146101a15780630561942a146101d657806306fdde0314610200578063081812fc14610222578063095ea7b31461025a57806323b872dd1461027c575b600080fd5b3480156101ad57600080fd5b506101c16101bc366004611f20565b610531565b60405190151581526020015b60405180910390f35b3480156101e257600080fd5b506101eb610585565b604080519283526020830191909152016101cd565b34801561020c57600080fd5b506102156105a7565b6040516101cd91906120ac565b34801561022e57600080fd5b5061024261023d366004611fcf565b610639565b6040516001600160a01b0390911681526020016101cd565b34801561026657600080fd5b5061027a610275366004611ef7565b6106c6565b005b34801561028857600080fd5b5061027a610297366004611e1c565b6107dc565b3480156102a857600080fd5b506101c16102b7366004611dd0565b61080d565b3480156102c857600080fd5b5061027a6102d7366004611e1c565b610875565b3480156102e857600080fd5b506101c16102f7366004611fcf565b610890565b61030f61030a366004611f58565b610936565b6040519081526020016101cd565b34801561032957600080fd5b50600954610242906001600160a01b031681565b34801561034957600080fd5b50610242610358366004611fcf565b610acb565b34801561036957600080fd5b5061030f610378366004611dd0565b610b42565b34801561038957600080fd5b5061030f610bc9565b34801561039e57600080fd5b5060075461030f9081565b3480156103b557600080fd5b5061030f6103c4366004611fcf565b610bdc565b3480156103d557600080fd5b5061030f6103e4366004611fcf565b610c08565b3480156103f557600080fd5b50610215610c2d565b34801561040a57600080fd5b506101eb610419366004611fcf565b610c3c565b34801561042a57600080fd5b5061030f610c5c565b34801561043f57600080fd5b5061027a61044e366004611ebd565b610c75565b34801561045f57600080fd5b506101c161046e366004611dd0565b610d47565b34801561047f57600080fd5b5061027a61048e366004611e57565b610dae565b34801561049f57600080fd5b50600854610242906001600160a01b031681565b3480156104bf57600080fd5b506102156104ce366004611fcf565b610de6565b3480156104df57600080fd5b506101c16104ee366004611dea565b6001600160a01b03918216600090815260056020908152604080832093909416825291909152205460ff1690565b34801561052857600080fd5b5061030f610f65565b60006001600160e01b031982166380ac58cd60e01b148061056257506001600160e01b03198216635b5e139f60e01b145b8061057d57506301ffc9a760e01b6001600160e01b03198316145b90505b919050565b60008061059f61059460075490565b610419906001612162565b915091509091565b6060600080546105b690612307565b80601f01602080910402602001604051908101604052809291908181526020018280546105e290612307565b801561062f5780601f106106045761010080835404028352916020019161062f565b820191906000526020600020905b81548152906001019060200180831161061257829003601f168201915b5050505050905090565b600061064482610f7e565b6106aa5760405162461bcd60e51b815260206004820152602c60248201527f4552433732313a20617070726f76656420717565727920666f72206e6f6e657860448201526b34b9ba32b73a103a37b5b2b760a11b60648201526084015b60405180910390fd5b506000908152600460205260409020546001600160a01b031690565b60006106d182610acb565b9050806001600160a01b0316836001600160a01b0316141561073f5760405162461bcd60e51b815260206004820152602160248201527f4552433732313a20617070726f76616c20746f2063757272656e74206f776e656044820152603960f91b60648201526084016106a1565b336001600160a01b038216148061075b575061075b81336104ee565b6107cd5760405162461bcd60e51b815260206004820152603860248201527f4552433732313a20617070726f76652063616c6c6572206973206e6f74206f7760448201527f6e6572206e6f7220617070726f76656420666f7220616c6c000000000000000060648201526084016106a1565b6107d78383610f9b565b505050565b6107e63382611009565b6108025760405162461bcd60e51b81526004016106a190612111565b6107d78383836110ef565b6008546000906001600160a01b031633146108505760405162461bcd60e51b815260206004820152600360248201526227232960e91b60448201526064016106a1565b50600880546001600160a01b0383166001600160a01b03199091161790556001919050565b6107d783838360405180602001604052806000815250610dae565b60003361089c83610acb565b6001600160a01b0316146108d75760405162461bcd60e51b81526020600482015260026024820152614e4f60f01b60448201526064016106a1565b6108e1600761128f565b6108ea826112e6565b60006108f4610c5c565b90506109003382611329565b604051819084907fcec1bae6e024d929f2929f3478ce70f55f9c636c8ef7b5073a61d7c3a432451b90600090a350600192915050565b600080833360405160200161094c929190612013565b604051602081830303815290604052905060006109c7846109c184805190602001206040517f19457468657265756d205369676e6564204d6573736167653a0a3332000000006020820152603c8101829052600090605c01604051602081830303815290604052805190602001209050919050565b90611442565b6009549091506001600160a01b03808316911614610a0c5760405162461bcd60e51b81526020600482015260026024820152614e4d60f01b60448201526064016106a1565b600080610a17610585565b9092509050610a268183612162565b3414610a595760405162461bcd60e51b8152602060048201526002602482015261414960f01b60448201526064016106a1565b610a67600780546001019055565b339450610a7485806114bd565b610a7e85886114db565b600854610a94906001600160a01b031682611329565b604051349086907f8a9dcf4e150b1153011b29fec302d5be0c13e84fa8f56ab78587f778a32a90dd90600090a35050505092915050565b6000818152600260205260408120546001600160a01b03168061057d5760405162461bcd60e51b815260206004820152602960248201527f4552433732313a206f776e657220717565727920666f72206e6f6e657869737460448201526832b73a103a37b5b2b760b91b60648201526084016106a1565b60006001600160a01b038216610bad5760405162461bcd60e51b815260206004820152602a60248201527f4552433732313a2062616c616e636520717565727920666f7220746865207a65604482015269726f206164647265737360b01b60648201526084016106a1565b506001600160a01b031660009081526003602052604090205490565b6000610bd76103c460075490565b905090565b6000612710610bec6002846121d4565b610bfe90670de0b6b3a76400006122a5565b61057d919061217a565b6000806000610c1684610c3c565b9092509050610c258183612162565b949350505050565b6060600180546105b690612307565b600080610c4883610bdc565b9150610c55600a8361217a565b9050915091565b6000610bd7610c6a60075490565b6103c4906001612162565b6001600160a01b038216331415610cce5760405162461bcd60e51b815260206004820152601960248201527f4552433732313a20617070726f766520746f2063616c6c65720000000000000060448201526064016106a1565b3360008181526005602090815260408083206001600160a01b0387168085529252909120805460ff1916841515179055906001600160a01b03167f17307eab39ab6107e8899845ad3d59bd9653f200f220920489ca2b5937696c3183604051610d3b911515815260200190565b60405180910390a35050565b6009546000906001600160a01b03163314610d895760405162461bcd60e51b81526020600482015260026024820152614e4d60f01b60448201526064016106a1565b50600980546001600160a01b0383166001600160a01b03199091161790556001919050565b610db83383611009565b610dd45760405162461bcd60e51b81526004016106a190612111565b610de084848484611566565b50505050565b6060610df182610f7e565b610e575760405162461bcd60e51b815260206004820152603160248201527f45524337323155524953746f726167653a2055524920717565727920666f72206044820152703737b732bc34b9ba32b73a103a37b5b2b760791b60648201526084016106a1565b60008281526006602052604081208054610e7090612307565b80601f0160208091040260200160405190810160405280929190818152602001828054610e9c90612307565b8015610ee95780601f10610ebe57610100808354040283529160200191610ee9565b820191906000526020600020905b815481529060010190602001808311610ecc57829003601f168201915b505050505090506000610f16604080518082019091526007815266697066733a2f2f60c81b602082015290565b9050805160001415610f2a57509050610580565b815115610f5c578082604051602001610f4492919061204a565b60405160208183030381529060405292505050610580565b610c2584611599565b6000610bd7610f7360075490565b6103e4906001612162565b6000908152600260205260409020546001600160a01b0316151590565b600081815260046020526040902080546001600160a01b0319166001600160a01b0384169081179091558190610fd082610acb565b6001600160a01b03167f8c5be1e5ebec7d5bd14f71427d1e84f3dd0314c0f7b2291e5b200ac8c7c3b92560405160405180910390a45050565b600061101482610f7e565b6110755760405162461bcd60e51b815260206004820152602c60248201527f4552433732313a206f70657261746f7220717565727920666f72206e6f6e657860448201526b34b9ba32b73a103a37b5b2b760a11b60648201526084016106a1565b600061108083610acb565b9050806001600160a01b0316846001600160a01b031614806110bb5750836001600160a01b03166110b084610639565b6001600160a01b0316145b80610c2557506001600160a01b0380821660009081526005602090815260408083209388168352929052205460ff16610c25565b826001600160a01b031661110282610acb565b6001600160a01b03161461116a5760405162461bcd60e51b815260206004820152602960248201527f4552433732313a207472616e73666572206f6620746f6b656e2074686174206960448201526839903737ba1037bbb760b91b60648201526084016106a1565b6001600160a01b0382166111cc5760405162461bcd60e51b8152602060048201526024808201527f4552433732313a207472616e7366657220746f20746865207a65726f206164646044820152637265737360e01b60648201526084016106a1565b6111d7600082610f9b565b6001600160a01b03831660009081526003602052604081208054600192906112009084906122c4565b90915550506001600160a01b038216600090815260036020526040812080546001929061122e908490612162565b909155505060008181526002602052604080822080546001600160a01b0319166001600160a01b0386811691821790925591518493918716917fddf252ad1be2c89b69c2b068fc378daa952ba7f163c4a11628f55a4df523b3ef91a4505050565b8054806112de5760405162461bcd60e51b815260206004820152601b60248201527f436f756e7465723a2064656372656d656e74206f766572666c6f77000000000060448201526064016106a1565b600019019055565b6112ef81611680565b6000818152600660205260409020805461130890612307565b15905061132657600081815260066020526040812061132691611c4f565b50565b804710156113795760405162461bcd60e51b815260206004820152601d60248201527f416464726573733a20696e73756666696369656e742062616c616e636500000060448201526064016106a1565b6000826001600160a01b03168260405160006040518083038185875af1925050503d80600081146113c6576040519150601f19603f3d011682016040523d82523d6000602084013e6113cb565b606091505b50509050806107d75760405162461bcd60e51b815260206004820152603a60248201527f416464726573733a20756e61626c6520746f2073656e642076616c75652c207260448201527f6563697069656e74206d6179206861766520726576657274656400000000000060648201526084016106a1565b600081516041146114955760405162461bcd60e51b815260206004820152601f60248201527f45434453413a20696e76616c6964207369676e6174757265206c656e6774680060448201526064016106a1565b60208201516040830151606084015160001a6114b38682858561171b565b9695505050505050565b6114d78282604051806020016040528060008152506118c4565b5050565b6114e482610f7e565b6115475760405162461bcd60e51b815260206004820152602e60248201527f45524337323155524953746f726167653a2055524920736574206f66206e6f6e60448201526d32bc34b9ba32b73a103a37b5b2b760911b60648201526084016106a1565b600082815260066020908152604090912082516107d792840190611c8b565b6115718484846110ef565b61157d848484846118f7565b610de05760405162461bcd60e51b81526004016106a1906120bf565b60606115a482610f7e565b6116085760405162461bcd60e51b815260206004820152602f60248201527f4552433732314d657461646174613a2055524920717565727920666f72206e6f60448201526e3732bc34b9ba32b73a103a37b5b2b760891b60648201526084016106a1565b600061162e604080518082019091526007815266697066733a2f2f60c81b602082015290565b9050600081511161164e5760405180602001604052806000815250611679565b8061165884611a01565b60405160200161166992919061204a565b6040516020818303038152906040525b9392505050565b600061168b82610acb565b9050611698600083610f9b565b6001600160a01b03811660009081526003602052604081208054600192906116c19084906122c4565b909155505060008281526002602052604080822080546001600160a01b0319169055518391906001600160a01b038416907fddf252ad1be2c89b69c2b068fc378daa952ba7f163c4a11628f55a4df523b3ef908390a45050565b60007f7fffffffffffffffffffffffffffffff5d576e7357a4501ddfe92f46681b20a08211156117985760405162461bcd60e51b815260206004820152602260248201527f45434453413a20696e76616c6964207369676e6174757265202773272076616c604482015261756560f01b60648201526084016106a1565b8360ff16601b14806117ad57508360ff16601c145b6118045760405162461bcd60e51b815260206004820152602260248201527f45434453413a20696e76616c6964207369676e6174757265202776272076616c604482015261756560f01b60648201526084016106a1565b6040805160008082526020820180845288905260ff871692820192909252606081018590526080810184905260019060a0016020604051602081039080840390855afa158015611858573d6000803e3d6000fd5b5050604051601f1901519150506001600160a01b0381166118bb5760405162461bcd60e51b815260206004820152601860248201527f45434453413a20696e76616c6964207369676e6174757265000000000000000060448201526064016106a1565b95945050505050565b6118ce8383611b1c565b6118db60008484846118f7565b6107d75760405162461bcd60e51b81526004016106a1906120bf565b60006001600160a01b0384163b156119f957604051630a85bd0160e11b81526001600160a01b0385169063150b7a029061193b903390899088908890600401612079565b602060405180830381600087803b15801561195557600080fd5b505af1925050508015611985575060408051601f3d908101601f1916820190925261198291810190611f3c565b60015b6119df573d8080156119b3576040519150601f19603f3d011682016040523d82523d6000602084013e6119b8565b606091505b5080516119d75760405162461bcd60e51b81526004016106a1906120bf565b805181602001fd5b6001600160e01b031916630a85bd0160e11b149050610c25565b506001610c25565b606081611a2657506040805180820190915260018152600360fc1b6020820152610580565b8160005b8115611a505780611a3a81612342565b9150611a499050600a8361217a565b9150611a2a565b60008167ffffffffffffffff811115611a7957634e487b7160e01b600052604160045260246000fd5b6040519080825280601f01601f191660200182016040528015611aa3576020820181803683370190505b5090505b8415610c2557611ab86001836122c4565b9150611ac5600a8661235d565b611ad0906030612162565b60f81b818381518110611af357634e487b7160e01b600052603260045260246000fd5b60200101906001600160f81b031916908160001a905350611b15600a8661217a565b9450611aa7565b6001600160a01b038216611b725760405162461bcd60e51b815260206004820181905260248201527f4552433732313a206d696e7420746f20746865207a65726f206164647265737360448201526064016106a1565b611b7b81610f7e565b15611bc85760405162461bcd60e51b815260206004820152601c60248201527f4552433732313a20746f6b656e20616c7265616479206d696e7465640000000060448201526064016106a1565b6001600160a01b0382166000908152600360205260408120805460019290611bf1908490612162565b909155505060008181526002602052604080822080546001600160a01b0319166001600160a01b03861690811790915590518392907fddf252ad1be2c89b69c2b068fc378daa952ba7f163c4a11628f55a4df523b3ef908290a45050565b508054611c5b90612307565b6000825580601f10611c6d5750611326565b601f0160209004906000526020600020908101906113269190611d0f565b828054611c9790612307565b90600052602060002090601f016020900481019282611cb95760008555611cff565b82601f10611cd257805160ff1916838001178555611cff565b82800160010185558215611cff579182015b82811115611cff578251825591602001919060010190611ce4565b50611d0b929150611d0f565b5090565b5b80821115611d0b5760008155600101611d10565b600067ffffffffffffffff80841115611d3f57611d3f61239d565b604051601f8501601f19908116603f01168101908282118183101715611d6757611d6761239d565b81604052809350858152868686011115611d8057600080fd5b858560208301376000602087830101525050509392505050565b80356001600160a01b038116811461058057600080fd5b600082601f830112611dc1578081fd5b61167983833560208501611d24565b600060208284031215611de1578081fd5b61167982611d9a565b60008060408385031215611dfc578081fd5b611e0583611d9a565b9150611e1360208401611d9a565b90509250929050565b600080600060608486031215611e30578081fd5b611e3984611d9a565b9250611e4760208501611d9a565b9150604084013590509250925092565b60008060008060808587031215611e6c578081fd5b611e7585611d9a565b9350611e8360208601611d9a565b925060408501359150606085013567ffffffffffffffff811115611ea5578182fd5b611eb187828801611db1565b91505092959194509250565b60008060408385031215611ecf578182fd5b611ed883611d9a565b915060208301358015158114611eec578182fd5b809150509250929050565b60008060408385031215611f09578182fd5b611f1283611d9a565b946020939093013593505050565b600060208284031215611f31578081fd5b8135611679816123b3565b600060208284031215611f4d578081fd5b8151611679816123b3565b60008060408385031215611f6a578182fd5b823567ffffffffffffffff80821115611f81578384fd5b818501915085601f830112611f94578384fd5b611fa386833560208501611d24565b93506020850135915080821115611fb8578283fd5b50611fc585828601611db1565b9150509250929050565b600060208284031215611fe0578081fd5b5035919050565b60008151808452611fff8160208601602086016122db565b601f01601f19169290920160200192915050565b600083516120258184602088016122db565b60609390931b6bffffffffffffffffffffffff19169190920190815260140192915050565b6000835161205c8184602088016122db565b8351908301906120708183602088016122db565b01949350505050565b6001600160a01b03858116825284166020820152604081018390526080606082018190526000906114b390830184611fe7565b6000602082526116796020830184611fe7565b60208082526032908201527f4552433732313a207472616e7366657220746f206e6f6e20455243373231526560408201527131b2b4bb32b91034b6b83632b6b2b73a32b960711b606082015260800190565b60208082526031908201527f4552433732313a207472616e736665722063616c6c6572206973206e6f74206f6040820152701ddb995c881b9bdc88185c1c1c9bdd9959607a1b606082015260800190565b6000821982111561217557612175612371565b500190565b60008261218957612189612387565b500490565b80825b60018086116121a057506121cb565b8187048211156121b2576121b2612371565b808616156121bf57918102915b9490941c938002612191565b94509492505050565b600061167960001960ff8516846000826121f057506001611679565b816121fd57506000611679565b8160018114612213576002811461221d5761224a565b6001915050611679565b60ff84111561222e5761222e612371565b6001841b91508482111561224457612244612371565b50611679565b5060208310610133831016604e8410600b841016171561227d575081810a8381111561227857612278612371565b611679565b61228a848484600161218e565b80860482111561229c5761229c612371565b02949350505050565b60008160001904831182151516156122bf576122bf612371565b500290565b6000828210156122d6576122d6612371565b500390565b60005b838110156122f65781810151838201526020016122de565b83811115610de05750506000910152565b600181811c9082168061231b57607f821691505b6020821081141561233c57634e487b7160e01b600052602260045260246000fd5b50919050565b600060001982141561235657612356612371565b5060010190565b60008261236c5761236c612387565b500690565b634e487b7160e01b600052601160045260246000fd5b634e487b7160e01b600052601260045260246000fd5b634e487b7160e01b600052604160045260246000fd5b6001600160e01b03198116811461132657600080fdfea2646970667358221220bb8adb7615ac90316d6ac5a49b9c924f6fa3d0ac7e75974608b197657d0ddc8664736f6c63430008030033",
  "devdoc": {
    "kind": "dev",
    "methods": {
      "approve(address,uint256)": {
        "details": "See {IERC721-approve}."
      },
      "balanceOf(address)": {
        "details": "See {IERC721-balanceOf}."
      },
      "getApproved(uint256)": {
        "details": "See {IERC721-getApproved}."
      },
      "isApprovedForAll(address,address)": {
        "details": "See {IERC721-isApprovedForAll}."
      },
      "name()": {
        "details": "See {IERC721Metadata-name}."
      },
      "ownerOf(uint256)": {
        "details": "See {IERC721-ownerOf}."
      },
      "safeTransferFrom(address,address,uint256)": {
        "details": "See {IERC721-safeTransferFrom}."
      },
      "safeTransferFrom(address,address,uint256,bytes)": {
        "details": "See {IERC721-safeTransferFrom}."
      },
      "setApprovalForAll(address,bool)": {
        "details": "See {IERC721-setApprovalForAll}."
      },
      "supportsInterface(bytes4)": {
        "details": "See {IERC165-supportsInterface}."
      },
      "symbol()": {
        "details": "See {IERC721Metadata-symbol}."
      },
      "tokenURI(uint256)": {
        "details": "See {IERC721Metadata-tokenURI}."
      },
      "transferFrom(address,address,uint256)": {
        "details": "See {IERC721-transferFrom}."
      }
    },
    "version": 1
  },
  "userdoc": {
    "kind": "user",
    "methods": {},
    "version": 1
  },
  "storageLayout": {
    "storage": [
      {
        "astId": 26,
        "contract": "contracts/AvantGarde.sol:AvantGarde",
        "label": "_name",
        "offset": 0,
        "slot": "0",
        "type": "t_string_storage"
      },
      {
        "astId": 28,
        "contract": "contracts/AvantGarde.sol:AvantGarde",
        "label": "_symbol",
        "offset": 0,
        "slot": "1",
        "type": "t_string_storage"
      },
      {
        "astId": 32,
        "contract": "contracts/AvantGarde.sol:AvantGarde",
        "label": "_owners",
        "offset": 0,
        "slot": "2",
        "type": "t_mapping(t_uint256,t_address)"
      },
      {
        "astId": 36,
        "contract": "contracts/AvantGarde.sol:AvantGarde",
        "label": "_balances",
        "offset": 0,
        "slot": "3",
        "type": "t_mapping(t_address,t_uint256)"
      },
      {
        "astId": 40,
        "contract": "contracts/AvantGarde.sol:AvantGarde",
        "label": "_tokenApprovals",
        "offset": 0,
        "slot": "4",
        "type": "t_mapping(t_uint256,t_address)"
      },
      {
        "astId": 46,
        "contract": "contracts/AvantGarde.sol:AvantGarde",
        "label": "_operatorApprovals",
        "offset": 0,
        "slot": "5",
        "type": "t_mapping(t_address,t_mapping(t_address,t_bool))"
      },
      {
        "astId": 967,
        "contract": "contracts/AvantGarde.sol:AvantGarde",
        "label": "_tokenURIs",
        "offset": 0,
        "slot": "6",
        "type": "t_mapping(t_uint256,t_string_storage)"
      },
      {
        "astId": 1929,
        "contract": "contracts/AvantGarde.sol:AvantGarde",
        "label": "countMint",
        "offset": 0,
        "slot": "7",
        "type": "t_struct(Counter)1465_storage"
      },
      {
        "astId": 1934,
        "contract": "contracts/AvantGarde.sol:AvantGarde",
        "label": "feesReceiver",
        "offset": 0,
        "slot": "8",
        "type": "t_address_payable"
      },
      {
        "astId": 1936,
        "contract": "contracts/AvantGarde.sol:AvantGarde",
        "label": "manager",
        "offset": 0,
        "slot": "9",
        "type": "t_address"
      }
    ],
    "types": {
      "t_address": {
        "encoding": "inplace",
        "label": "address",
        "numberOfBytes": "20"
      },
      "t_address_payable": {
        "encoding": "inplace",
        "label": "address payable",
        "numberOfBytes": "20"
      },
      "t_bool": {
        "encoding": "inplace",
        "label": "bool",
        "numberOfBytes": "1"
      },
      "t_mapping(t_address,t_bool)": {
        "encoding": "mapping",
        "key": "t_address",
        "label": "mapping(address => bool)",
        "numberOfBytes": "32",
        "value": "t_bool"
      },
      "t_mapping(t_address,t_mapping(t_address,t_bool))": {
        "encoding": "mapping",
        "key": "t_address",
        "label": "mapping(address => mapping(address => bool))",
        "numberOfBytes": "32",
        "value": "t_mapping(t_address,t_bool)"
      },
      "t_mapping(t_address,t_uint256)": {
        "encoding": "mapping",
        "key": "t_address",
        "label": "mapping(address => uint256)",
        "numberOfBytes": "32",
        "value": "t_uint256"
      },
      "t_mapping(t_uint256,t_address)": {
        "encoding": "mapping",
        "key": "t_uint256",
        "label": "mapping(uint256 => address)",
        "numberOfBytes": "32",
        "value": "t_address"
      },
      "t_mapping(t_uint256,t_string_storage)": {
        "encoding": "mapping",
        "key": "t_uint256",
        "label": "mapping(uint256 => string)",
        "numberOfBytes": "32",
        "value": "t_string_storage"
      },
      "t_string_storage": {
        "encoding": "bytes",
        "label": "string",
        "numberOfBytes": "32"
      },
      "t_struct(Counter)1465_storage": {
        "encoding": "inplace",
        "label": "struct Counters.Counter",
        "members": [
          {
            "astId": 1464,
            "contract": "contracts/AvantGarde.sol:AvantGarde",
            "label": "_value",
            "offset": 0,
            "slot": "0",
            "type": "t_uint256"
          }
        ],
        "numberOfBytes": "32"
      },
      "t_uint256": {
        "encoding": "inplace",
        "label": "uint256",
        "numberOfBytes": "32"
      }
    }
  }
}