{
  "address": "0x24522a519A335cDD5e7eC59166f70C68A81Cd774",
  "abi": [
    {
      "inputs": [
        {
          "internalType": "address",
          "name": "_admin",
          "type": "address"
        },
        {
          "internalType": "address payable",
          "name": "_feesReceiver",
          "type": "address"
        }
      ],
      "stateMutability": "nonpayable",
      "type": "constructor"
    },
    {
      "anonymous": false,
      "inputs": [
        {
          "indexed": true,
          "internalType": "address",
          "name": "owner",
          "type": "address"
        },
        {
          "indexed": true,
          "internalType": "address",
          "name": "approved",
          "type": "address"
        },
        {
          "indexed": true,
          "internalType": "uint256",
          "name": "tokenId",
          "type": "uint256"
        }
      ],
      "name": "Approval",
      "type": "event"
    },
    {
      "anonymous": false,
      "inputs": [
        {
          "indexed": true,
          "internalType": "address",
          "name": "owner",
          "type": "address"
        },
        {
          "indexed": true,
          "internalType": "address",
          "name": "operator",
          "type": "address"
        },
        {
          "indexed": false,
          "internalType": "bool",
          "name": "approved",
          "type": "bool"
        }
      ],
      "name": "ApprovalForAll",
      "type": "event"
    },
    {
      "anonymous": false,
      "inputs": [
        {
          "indexed": true,
          "internalType": "bytes32",
          "name": "role",
          "type": "bytes32"
        },
        {
          "indexed": true,
          "internalType": "bytes32",
          "name": "previousAdminRole",
          "type": "bytes32"
        },
        {
          "indexed": true,
          "internalType": "bytes32",
          "name": "newAdminRole",
          "type": "bytes32"
        }
      ],
      "name": "RoleAdminChanged",
      "type": "event"
    },
    {
      "anonymous": false,
      "inputs": [
        {
          "indexed": true,
          "internalType": "bytes32",
          "name": "role",
          "type": "bytes32"
        },
        {
          "indexed": true,
          "internalType": "address",
          "name": "account",
          "type": "address"
        },
        {
          "indexed": true,
          "internalType": "address",
          "name": "sender",
          "type": "address"
        }
      ],
      "name": "RoleGranted",
      "type": "event"
    },
    {
      "anonymous": false,
      "inputs": [
        {
          "indexed": true,
          "internalType": "bytes32",
          "name": "role",
          "type": "bytes32"
        },
        {
          "indexed": true,
          "internalType": "address",
          "name": "account",
          "type": "address"
        },
        {
          "indexed": true,
          "internalType": "address",
          "name": "sender",
          "type": "address"
        }
      ],
      "name": "RoleRevoked",
      "type": "event"
    },
    {
      "anonymous": false,
      "inputs": [
        {
          "indexed": true,
          "internalType": "address",
          "name": "from",
          "type": "address"
        },
        {
          "indexed": true,
          "internalType": "address",
          "name": "to",
          "type": "address"
        },
        {
          "indexed": true,
          "internalType": "uint256",
          "name": "tokenId",
          "type": "uint256"
        }
      ],
      "name": "Transfer",
      "type": "event"
    },
    {
      "inputs": [],
      "name": "DEFAULT_ADMIN_ROLE",
      "outputs": [
        {
          "internalType": "bytes32",
          "name": "",
          "type": "bytes32"
        }
      ],
      "stateMutability": "view",
      "type": "function"
    },
    {
      "inputs": [
        {
          "internalType": "address",
          "name": "to",
          "type": "address"
        },
        {
          "internalType": "uint256",
          "name": "tokenId",
          "type": "uint256"
        }
      ],
      "name": "approve",
      "outputs": [],
      "stateMutability": "nonpayable",
      "type": "function"
    },
    {
      "inputs": [
        {
          "internalType": "address",
          "name": "owner",
          "type": "address"
        }
      ],
      "name": "balanceOf",
      "outputs": [
        {
          "internalType": "uint256",
          "name": "",
          "type": "uint256"
        }
      ],
      "stateMutability": "view",
      "type": "function"
    },
    {
      "inputs": [
        {
          "internalType": "uint256",
          "name": "_tokenId",
          "type": "uint256"
        }
      ],
      "name": "burn",
      "outputs": [
        {
          "internalType": "bool",
          "name": "",
          "type": "bool"
        }
      ],
      "stateMutability": "nonpayable",
      "type": "function"
    },
    {
      "inputs": [],
      "name": "currentBurnPrice",
      "outputs": [
        {
          "internalType": "uint256",
          "name": "",
          "type": "uint256"
        }
      ],
      "stateMutability": "view",
      "type": "function"
    },
    {
      "inputs": [],
      "name": "currentMintPrice",
      "outputs": [
        {
          "internalType": "uint256",
          "name": "",
          "type": "uint256"
        },
        {
          "internalType": "uint256",
          "name": "",
          "type": "uint256"
        }
      ],
      "stateMutability": "view",
      "type": "function"
    },
    {
      "inputs": [],
      "name": "currentMintWithFeesPrice",
      "outputs": [
        {
          "internalType": "uint256",
          "name": "",
          "type": "uint256"
        }
      ],
      "stateMutability": "view",
      "type": "function"
    },
    {
      "inputs": [],
      "name": "currentPrice",
      "outputs": [
        {
          "internalType": "uint256",
          "name": "",
          "type": "uint256"
        }
      ],
      "stateMutability": "view",
      "type": "function"
    },
    {
      "inputs": [
        {
          "internalType": "uint256",
          "name": "tokenId",
          "type": "uint256"
        }
      ],
      "name": "getApproved",
      "outputs": [
        {
          "internalType": "address",
          "name": "",
          "type": "address"
        }
      ],
      "stateMutability": "view",
      "type": "function"
    },
    {
      "inputs": [
        {
          "internalType": "bytes32",
          "name": "role",
          "type": "bytes32"
        }
      ],
      "name": "getRoleAdmin",
      "outputs": [
        {
          "internalType": "bytes32",
          "name": "",
          "type": "bytes32"
        }
      ],
      "stateMutability": "view",
      "type": "function"
    },
    {
      "inputs": [
        {
          "internalType": "bytes32",
          "name": "role",
          "type": "bytes32"
        },
        {
          "internalType": "uint256",
          "name": "index",
          "type": "uint256"
        }
      ],
      "name": "getRoleMember",
      "outputs": [
        {
          "internalType": "address",
          "name": "",
          "type": "address"
        }
      ],
      "stateMutability": "view",
      "type": "function"
    },
    {
      "inputs": [
        {
          "internalType": "bytes32",
          "name": "role",
          "type": "bytes32"
        }
      ],
      "name": "getRoleMemberCount",
      "outputs": [
        {
          "internalType": "uint256",
          "name": "",
          "type": "uint256"
        }
      ],
      "stateMutability": "view",
      "type": "function"
    },
    {
      "inputs": [
        {
          "internalType": "bytes32",
          "name": "role",
          "type": "bytes32"
        },
        {
          "internalType": "address",
          "name": "account",
          "type": "address"
        }
      ],
      "name": "grantRole",
      "outputs": [],
      "stateMutability": "nonpayable",
      "type": "function"
    },
    {
      "inputs": [
        {
          "internalType": "bytes32",
          "name": "role",
          "type": "bytes32"
        },
        {
          "internalType": "address",
          "name": "account",
          "type": "address"
        }
      ],
      "name": "hasRole",
      "outputs": [
        {
          "internalType": "bool",
          "name": "",
          "type": "bool"
        }
      ],
      "stateMutability": "view",
      "type": "function"
    },
    {
      "inputs": [
        {
          "internalType": "address",
          "name": "owner",
          "type": "address"
        },
        {
          "internalType": "address",
          "name": "operator",
          "type": "address"
        }
      ],
      "name": "isApprovedForAll",
      "outputs": [
        {
          "internalType": "bool",
          "name": "",
          "type": "bool"
        }
      ],
      "stateMutability": "view",
      "type": "function"
    },
    {
      "inputs": [
        {
          "internalType": "string",
          "name": "_uri",
          "type": "string"
        },
        {
          "internalType": "address",
          "name": "_signer",
          "type": "address"
        },
        {
          "internalType": "bytes",
          "name": "_signature",
          "type": "bytes"
        }
      ],
      "name": "mint",
      "outputs": [
        {
          "internalType": "uint256",
          "name": "_tokenId",
          "type": "uint256"
        }
      ],
      "stateMutability": "payable",
      "type": "function"
    },
    {
      "inputs": [
        {
          "internalType": "uint256",
          "name": "_current",
          "type": "uint256"
        }
      ],
      "name": "mintPriceFor",
      "outputs": [
        {
          "internalType": "uint256",
          "name": "_currentPrice",
          "type": "uint256"
        },
        {
          "internalType": "uint256",
          "name": "_fees",
          "type": "uint256"
        }
      ],
      "stateMutability": "view",
      "type": "function"
    },
    {
      "inputs": [
        {
          "internalType": "uint256",
          "name": "_current",
          "type": "uint256"
        }
      ],
      "name": "mintWithFeesPriceFor",
      "outputs": [
        {
          "internalType": "uint256",
          "name": "",
          "type": "uint256"
        }
      ],
      "stateMutability": "view",
      "type": "function"
    },
    {
      "inputs": [],
      "name": "name",
      "outputs": [
        {
          "internalType": "string",
          "name": "",
          "type": "string"
        }
      ],
      "stateMutability": "view",
      "type": "function"
    },
    {
      "inputs": [
        {
          "internalType": "uint256",
          "name": "tokenId",
          "type": "uint256"
        }
      ],
      "name": "ownerOf",
      "outputs": [
        {
          "internalType": "address",
          "name": "",
          "type": "address"
        }
      ],
      "stateMutability": "view",
      "type": "function"
    },
    {
      "inputs": [
        {
          "internalType": "uint256",
          "name": "_current",
          "type": "uint256"
        }
      ],
      "name": "priceFor",
      "outputs": [
        {
          "internalType": "uint256",
          "name": "",
          "type": "uint256"
        }
      ],
      "stateMutability": "view",
      "type": "function"
    },
    {
      "inputs": [
        {
          "internalType": "bytes32",
          "name": "role",
          "type": "bytes32"
        },
        {
          "internalType": "address",
          "name": "account",
          "type": "address"
        }
      ],
      "name": "renounceRole",
      "outputs": [],
      "stateMutability": "nonpayable",
      "type": "function"
    },
    {
      "inputs": [
        {
          "internalType": "bytes32",
          "name": "role",
          "type": "bytes32"
        },
        {
          "internalType": "address",
          "name": "account",
          "type": "address"
        }
      ],
      "name": "revokeRole",
      "outputs": [],
      "stateMutability": "nonpayable",
      "type": "function"
    },
    {
      "inputs": [
        {
          "internalType": "address",
          "name": "from",
          "type": "address"
        },
        {
          "internalType": "address",
          "name": "to",
          "type": "address"
        },
        {
          "internalType": "uint256",
          "name": "tokenId",
          "type": "uint256"
        }
      ],
      "name": "safeTransferFrom",
      "outputs": [],
      "stateMutability": "nonpayable",
      "type": "function"
    },
    {
      "inputs": [
        {
          "internalType": "address",
          "name": "from",
          "type": "address"
        },
        {
          "internalType": "address",
          "name": "to",
          "type": "address"
        },
        {
          "internalType": "uint256",
          "name": "tokenId",
          "type": "uint256"
        },
        {
          "internalType": "bytes",
          "name": "_data",
          "type": "bytes"
        }
      ],
      "name": "safeTransferFrom",
      "outputs": [],
      "stateMutability": "nonpayable",
      "type": "function"
    },
    {
      "inputs": [
        {
          "internalType": "address",
          "name": "operator",
          "type": "address"
        },
        {
          "internalType": "bool",
          "name": "approved",
          "type": "bool"
        }
      ],
      "name": "setApprovalForAll",
      "outputs": [],
      "stateMutability": "nonpayable",
      "type": "function"
    },
    {
      "inputs": [
        {
          "internalType": "bytes4",
          "name": "interfaceId",
          "type": "bytes4"
        }
      ],
      "name": "supportsInterface",
      "outputs": [
        {
          "internalType": "bool",
          "name": "",
          "type": "bool"
        }
      ],
      "stateMutability": "view",
      "type": "function"
    },
    {
      "inputs": [],
      "name": "symbol",
      "outputs": [
        {
          "internalType": "string",
          "name": "",
          "type": "string"
        }
      ],
      "stateMutability": "view",
      "type": "function"
    },
    {
      "inputs": [
        {
          "internalType": "uint256",
          "name": "tokenId",
          "type": "uint256"
        }
      ],
      "name": "tokenURI",
      "outputs": [
        {
          "internalType": "string",
          "name": "",
          "type": "string"
        }
      ],
      "stateMutability": "view",
      "type": "function"
    },
    {
      "inputs": [
        {
          "internalType": "address",
          "name": "from",
          "type": "address"
        },
        {
          "internalType": "address",
          "name": "to",
          "type": "address"
        },
        {
          "internalType": "uint256",
          "name": "tokenId",
          "type": "uint256"
        }
      ],
      "name": "transferFrom",
      "outputs": [],
      "stateMutability": "nonpayable",
      "type": "function"
    }
  ],
  "transactionHash": "0x7ec2bf6a2d49b24cbc048cc05f1c349055edf1cb00b282e49e22f755ac4d6138",
  "args": [
    "0xE4D29ec42F4057EfF92c9124c82844b2689f9C6d",
    "0x91a5D3bCe5317D5579E780d67021fEc692575d1d"
  ],
  "solcInputHash": "b6f7fa0e7ad1f7313cf46bdeb8548851",
  "bytecode": "0x6080604052600a80556064600b553480156200001a57600080fd5b5060405162002fbc38038062002fbc8339810160408190526200003d9162000316565b6040805180820182526006815265105c98905c9d60d21b6020808301918252835180850190945260048452631054909560e21b908401528151919291620000879160009162000270565b5080516200009d90600190602084019062000270565b50620000af91506000905083620000db565b600c80546001600160a01b0319166001600160a01b0392909216919091179055506001600955620003aa565b620000f282826200011e60201b62000d671760201c565b60008281526008602090815260409091206200011991839062000d756200012e821b17901c565b505050565b6200012a82826200014e565b5050565b600062000145836001600160a01b038416620001da565b90505b92915050565b6200015a828262000229565b6200012a5760008281526007602090815260408083206001600160a01b03851684529091529020805460ff191660011790556200019662000254565b6001600160a01b0316816001600160a01b0316837f2f8788117e7eff1d82e926ec794901d17c78024a50270940304540a733656f0d60405160405180910390a45050565b6000620001e8838362000258565b620002205750815460018181018455600084815260208082209093018490558454848252828601909352604090209190915562000148565b50600062000148565b60009182526007602090815260408084206001600160a01b0393909316845291905290205460ff1690565b3390565b60009081526001919091016020526040902054151590565b8280546200027e9062000354565b90600052602060002090601f016020900481019282620002a25760008555620002ed565b82601f10620002bd57805160ff1916838001178555620002ed565b82800160010185558215620002ed579182015b82811115620002ed578251825591602001919060010190620002d0565b50620002fb929150620002ff565b5090565b5b80821115620002fb576000815560010162000300565b6000806040838503121562000329578182fd5b8251620003368162000391565b6020840151909250620003498162000391565b809150509250929050565b6002810460018216806200036957607f821691505b602082108114156200038b57634e487b7160e01b600052602260045260246000fd5b50919050565b6001600160a01b0381168114620003a757600080fd5b50565b612c0280620003ba6000396000f3fe6080604052600436106101cd5760003560e01c80638d5555f2116100f7578063a217fddf11610095578063ca15c87311610064578063ca15c87314610510578063d547741f14610530578063e985e9c514610550578063f620c81514610570576101cd565b8063a217fddf1461049b578063a22cb465146104b0578063b88d4fde146104d0578063c87b56dd146104f0576101cd565b806391d14854116100d157806391d148541461043157806395d89b411461045157806399f7ab31146104665780639d1b464a14610486576101cd565b80638d5555f2146103d15780638def9f82146103f15780639010d07c14610411576101cd565b8063251a701a1161016f57806342966c681161013e57806342966c681461035c5780636352211e1461037c57806370a082311461039c57806377119765146103bc576101cd565b8063251a701a146102e95780632f2ff15d146102fc57806336568abe1461031c57806342842e0e1461033c576101cd565b8063081812fc116101ab578063081812fc1461024d578063095ea7b31461027a57806323b872dd1461029c578063248a9ca3146102bc576101cd565b806301ffc9a7146101d25780630561942a1461020857806306fdde031461022b575b600080fd5b3480156101de57600080fd5b506101f26101ed366004611ee2565b610585565b6040516101ff91906120b8565b60405180910390f35b34801561021457600080fd5b5061021d6105a7565b6040516101ff929190612957565b34801561023757600080fd5b506102406105bf565b6040516101ff91906120ea565b34801561025957600080fd5b5061026d610268366004611e87565b610651565b6040516101ff9190612071565b34801561028657600080fd5b5061029a610295366004611e5e565b61069d565b005b3480156102a857600080fd5b5061029a6102b7366004611d83565b610735565b3480156102c857600080fd5b506102dc6102d7366004611e87565b61076d565b6040516101ff91906120c3565b6102dc6102f7366004611f1a565b610782565b34801561030857600080fd5b5061029a610317366004611e9f565b61089c565b34801561032857600080fd5b5061029a610337366004611e9f565b6108be565b34801561034857600080fd5b5061029a610357366004611d83565b6108e0565b34801561036857600080fd5b506101f2610377366004611e87565b6108fb565b34801561038857600080fd5b5061026d610397366004611e87565b61095a565b3480156103a857600080fd5b506102dc6103b7366004611d37565b61098f565b3480156103c857600080fd5b506102dc6109d3565b3480156103dd57600080fd5b506102dc6103ec366004611e87565b6109f3565b3480156103fd57600080fd5b506102dc61040c366004611e87565b610a1f565b34801561041d57600080fd5b5061026d61042c366004611ec1565b610a44565b34801561043d57600080fd5b506101f261044c366004611e9f565b610a65565b34801561045d57600080fd5b50610240610a90565b34801561047257600080fd5b5061021d610481366004611e87565b610a9f565b34801561049257600080fd5b506102dc610acf565b3480156104a757600080fd5b506102dc610ade565b3480156104bc57600080fd5b5061029a6104cb366004611e24565b610ae3565b3480156104dc57600080fd5b5061029a6104eb366004611dbe565b610bb1565b3480156104fc57600080fd5b5061024061050b366004611e87565b610bf0565b34801561051c57600080fd5b506102dc61052b366004611e87565b610d09565b34801561053c57600080fd5b5061029a61054b366004611e9f565b610d20565b34801561055c57600080fd5b506101f261056b366004611d51565b610d2a565b34801561057c57600080fd5b506102dc610d58565b600061059082610d8a565b8061059f575061059f82610daf565b90505b919050565b6000806105b76104816009610def565b915091509091565b6060600080546105ce90612b0a565b80601f01602080910402602001604051908101604052809291908181526020018280546105fa90612b0a565b80156106475780601f1061061c57610100808354040283529160200191610647565b820191906000526020600020905b81548152906001019060200180831161062a57829003601f168201915b5050505050905090565b600061065c82610df3565b6106815760405162461bcd60e51b815260040161067890612792565b60405180910390fd5b506000908152600460205260409020546001600160a01b031690565b60006106a88261095a565b9050806001600160a01b0316836001600160a01b031614156106dc5760405162461bcd60e51b815260040161067890612876565b806001600160a01b03166106ee610e10565b6001600160a01b0316148061070a575061070a8161056b610e10565b6107265760405162461bcd60e51b81526004016106789061258c565b6107308383610e14565b505050565b610746610740610e10565b82610e82565b6107625760405162461bcd60e51b8152600401610678906128b7565b610730838383610eff565b60009081526007602052604090206001015490565b600061078e8184610a65565b6107aa5760405162461bcd60e51b8152600401610678906121fc565b60008433856040516020016107c193929190611fcd565b604051602081830303815290604052905060006107ee846107e8848051906020012061102c565b9061105c565b9050806001600160a01b0316856001600160a01b0316146108215760405162461bcd60e51b815260040161067890612505565b60008061082c6105a7565b909250905061083b8183612965565b34146108595760405162461bcd60e51b8152600401610678906122d6565b61086360096110a7565b33945061087085806110b0565b61087a85896110ca565b600c54610890906001600160a01b03168261110e565b505050505b9392505050565b6108a682826111aa565b60008281526008602052604090206107309082610d75565b6108c882826111da565b6000828152600860205260409020610730908261121c565b61073083838360405180602001604052806000815250610bb1565b6000336109078361095a565b6001600160a01b03161461092d5760405162461bcd60e51b815260040161067890612381565b6109376009611231565b61094082611258565b61095261094b610acf565b339061110e565b506001919050565b6000818152600260205260408120546001600160a01b03168061059f5760405162461bcd60e51b815260040161067890612633565b60006001600160a01b0382166109b75760405162461bcd60e51b8152600401610678906125e9565b506001600160a01b031660009081526003602052604090205490565b60006109ee60016109e46009610def565b6103ec9190612ac7565b905090565b6000612710610a036002846129d7565b610a1590670de0b6b3a7640000612aa8565b61059f919061297d565b6000806000610a2d84610a9f565b9092509050610a3c8183612965565b949350505050565b6000828152600860205260408120610a5c908361129b565b90505b92915050565b60009182526007602090815260408084206001600160a01b0393909316845291905290205460ff1690565b6060600180546105ce90612b0a565b600080610aab836109f3565b9150600b54600a5483610abe9190612aa8565b610ac8919061297d565b9050915091565b60006109ee6103ec6009610def565b600081565b610aeb610e10565b6001600160a01b0316826001600160a01b03161415610b1c5760405162461bcd60e51b8152600401610678906123ac565b8060056000610b29610e10565b6001600160a01b03908116825260208083019390935260409182016000908120918716808252919093529120805460ff191692151592909217909155610b6d610e10565b6001600160a01b03167f17307eab39ab6107e8899845ad3d59bd9653f200f220920489ca2b5937696c3183604051610ba591906120b8565b60405180910390a35050565b610bc2610bbc610e10565b83610e82565b610bde5760405162461bcd60e51b8152600401610678906128b7565b610bea848484846112a7565b50505050565b6060610bfb82610df3565b610c175760405162461bcd60e51b815260040161067890612741565b60008281526006602052604081208054610c3090612b0a565b80601f0160208091040260200160405190810160405280929190818152602001828054610c5c90612b0a565b8015610ca95780601f10610c7e57610100808354040283529160200191610ca9565b820191906000526020600020905b815481529060010190602001808311610c8c57829003601f168201915b505050505090506000610cba6112da565b9050805160001415610cce575090506105a2565b815115610d00578082604051602001610ce892919061200e565b604051602081830303815290604052925050506105a2565b610a3c846112fb565b600081815260086020526040812061059f9061137d565b6108c88282611388565b6001600160a01b03918216600090815260056020908152604080832093909416825291909152205460ff1690565b60006109ee61040c6009610def565b610d7182826113b0565b5050565b6000610a5c836001600160a01b038416611437565b60006001600160e01b03198216635a05180f60e01b148061059f575061059f82611481565b60006001600160e01b031982166380ac58cd60e01b1480610de057506001600160e01b03198216635b5e139f60e01b145b8061059f575061059f826114a6565b5490565b6000908152600260205260409020546001600160a01b0316151590565b3390565b600081815260046020526040902080546001600160a01b0319166001600160a01b0384169081179091558190610e498261095a565b6001600160a01b03167f8c5be1e5ebec7d5bd14f71427d1e84f3dd0314c0f7b2291e5b200ac8c7c3b92560405160405180910390a45050565b6000610e8d82610df3565b610ea95760405162461bcd60e51b8152600401610678906124b9565b6000610eb48361095a565b9050806001600160a01b0316846001600160a01b03161480610eef5750836001600160a01b0316610ee484610651565b6001600160a01b0316145b80610a3c5750610a3c8185610d2a565b826001600160a01b0316610f128261095a565b6001600160a01b031614610f385760405162461bcd60e51b8152600401610678906127de565b6001600160a01b038216610f5e5760405162461bcd60e51b81526004016106789061233d565b610f69838383610730565b610f74600082610e14565b6001600160a01b0383166000908152600360205260408120805460019290610f9d908490612ac7565b90915550506001600160a01b0382166000908152600360205260408120805460019290610fcb908490612965565b909155505060008181526002602052604080822080546001600160a01b0319166001600160a01b0386811691821790925591518493918716917fddf252ad1be2c89b69c2b068fc378daa952ba7f163c4a11628f55a4df523b3ef91a4505050565b60008160405160200161103f919061203d565b604051602081830303815290604052805190602001209050919050565b6000815160411461107f5760405162461bcd60e51b8152600401610678906121c5565b60208201516040830151606084015160001a61109d868285856114bf565b9695505050505050565b80546001019055565b610d718282604051806020016040528060008152506115b5565b6110d382610df3565b6110ef5760405162461bcd60e51b81526004016106789061267c565b6000828152600660209081526040909120825161073092840190611bba565b8047101561112e5760405162461bcd60e51b815260040161067890612482565b6000826001600160a01b0316826040516111479061206e565b60006040518083038185875af1925050503d8060008114611184576040519150601f19603f3d011682016040523d82523d6000602084013e611189565b606091505b50509050806107305760405162461bcd60e51b8152600401610678906123e3565b6111be6111b68361076d565b61044c610e10565b610d675760405162461bcd60e51b815260040161067890612176565b6111e2610e10565b6001600160a01b0316816001600160a01b0316146112125760405162461bcd60e51b815260040161067890612908565b610d7182826115e8565b6000610a5c836001600160a01b03841661166d565b8054806112505760405162461bcd60e51b81526004016106789061224d565b600019019055565b6112618161178a565b6000818152600660205260409020805461127a90612b0a565b15905061129857600081815260066020526040812061129891611c3e565b50565b6000610a5c8383611831565b6112b2848484610eff565b6112be8484848461188a565b610bea5760405162461bcd60e51b815260040161067890612284565b604080518082019091526007815266697066733a2f2f60c81b602082015290565b606061130682610df3565b6113225760405162461bcd60e51b815260040161067890612827565b600061132c6112da565b9050600081511161134c5760405180602001604052806000815250610895565b80611356846119a2565b60405160200161136792919061200e565b6040516020818303038152906040529392505050565b600061059f82610def565b6113946111b68361076d565b6112125760405162461bcd60e51b81526004016106789061253c565b6113ba8282610a65565b610d715760008281526007602090815260408083206001600160a01b03851684529091529020805460ff191660011790556113f3610e10565b6001600160a01b0316816001600160a01b0316837f2f8788117e7eff1d82e926ec794901d17c78024a50270940304540a733656f0d60405160405180910390a45050565b60006114438383611abd565b61147957508154600181810184556000848152602080822090930184905584548482528286019093526040902091909155610a5f565b506000610a5f565b60006001600160e01b03198216637965db0b60e01b148061059f575061059f82610daf565b6001600160e01b031981166301ffc9a760e01b14919050565b60007f7fffffffffffffffffffffffffffffff5d576e7357a4501ddfe92f46681b20a08211156115015760405162461bcd60e51b815260040161067890612440565b8360ff16601b148061151657508360ff16601c145b6115325760405162461bcd60e51b8152600401610678906126ca565b60006001868686866040516000815260200160405260405161155794939291906120cc565b6020604051602081039080840390855afa158015611579573d6000803e3d6000fd5b5050604051601f1901519150506001600160a01b0381166115ac5760405162461bcd60e51b8152600401610678906120fd565b95945050505050565b6115bf8383611ad5565b6115cc600084848461188a565b6107305760405162461bcd60e51b815260040161067890612284565b6115f28282610a65565b15610d715760008281526007602090815260408083206001600160a01b03851684529091529020805460ff19169055611629610e10565b6001600160a01b0316816001600160a01b0316837ff6391f5c32d9c69d2a47ea670b442974b53935d1edc7fd64eb21e047a839171b60405160405180910390a45050565b60008181526001830160205260408120548015611780576000611691600183612ac7565b85549091506000906116a590600190612ac7565b905060008660000182815481106116cc57634e487b7160e01b600052603260045260246000fd5b90600052602060002001549050808760000184815481106116fd57634e487b7160e01b600052603260045260246000fd5b600091825260209091200155611714836001612965565b6000828152600189016020526040902055865487908061174457634e487b7160e01b600052603160045260246000fd5b60019003818190600052602060002001600090559055866001016000878152602001908152602001600020600090556001945050505050610a5f565b6000915050610a5f565b60006117958261095a565b90506117a381600084610730565b6117ae600083610e14565b6001600160a01b03811660009081526003602052604081208054600192906117d7908490612ac7565b909155505060008281526002602052604080822080546001600160a01b0319169055518391906001600160a01b038416907fddf252ad1be2c89b69c2b068fc378daa952ba7f163c4a11628f55a4df523b3ef908390a45050565b815460009082106118545760405162461bcd60e51b815260040161067890612134565b82600001828154811061187757634e487b7160e01b600052603260045260246000fd5b9060005260206000200154905092915050565b600061189e846001600160a01b0316611bb4565b1561199a57836001600160a01b031663150b7a026118ba610e10565b8786866040518563ffffffff1660e01b81526004016118dc9493929190612085565b602060405180830381600087803b1580156118f657600080fd5b505af1925050508015611926575060408051601f3d908101601f1916820190925261192391810190611efe565b60015b611980573d808015611954576040519150601f19603f3d011682016040523d82523d6000602084013e611959565b606091505b5080516119785760405162461bcd60e51b815260040161067890612284565b805181602001fd5b6001600160e01b031916630a85bd0160e11b149050610a3c565b506001610a3c565b6060816119c757506040805180820190915260018152600360fc1b60208201526105a2565b8160005b81156119f157806119db81612b45565b91506119ea9050600a8361297d565b91506119cb565b60008167ffffffffffffffff811115611a1a57634e487b7160e01b600052604160045260246000fd5b6040519080825280601f01601f191660200182016040528015611a44576020820181803683370190505b5090505b8415610a3c57611a59600183612ac7565b9150611a66600a86612b60565b611a71906030612965565b60f81b818381518110611a9457634e487b7160e01b600052603260045260246000fd5b60200101906001600160f81b031916908160001a905350611ab6600a8661297d565b9450611a48565b60009081526001919091016020526040902054151590565b6001600160a01b038216611afb5760405162461bcd60e51b81526004016106789061270c565b611b0481610df3565b15611b215760405162461bcd60e51b815260040161067890612306565b611b2d60008383610730565b6001600160a01b0382166000908152600360205260408120805460019290611b56908490612965565b909155505060008181526002602052604080822080546001600160a01b0319166001600160a01b03861690811790915590518392907fddf252ad1be2c89b69c2b068fc378daa952ba7f163c4a11628f55a4df523b3ef908290a45050565b3b151590565b828054611bc690612b0a565b90600052602060002090601f016020900481019282611be85760008555611c2e565b82601f10611c0157805160ff1916838001178555611c2e565b82800160010185558215611c2e579182015b82811115611c2e578251825591602001919060010190611c13565b50611c3a929150611c76565b5090565b508054611c4a90612b0a565b6000825580601f10611c5c5750611298565b601f01602090049060005260206000209081019061129891905b5b80821115611c3a5760008155600101611c77565b600067ffffffffffffffff80841115611ca657611ca6612ba0565b604051601f8501601f19908116603f01168101908282118183101715611cce57611cce612ba0565b81604052809350858152868686011115611ce757600080fd5b858560208301376000602087830101525050509392505050565b80356001600160a01b03811681146105a257600080fd5b600082601f830112611d28578081fd5b610a5c83833560208501611c8b565b600060208284031215611d48578081fd5b610a5c82611d01565b60008060408385031215611d63578081fd5b611d6c83611d01565b9150611d7a60208401611d01565b90509250929050565b600080600060608486031215611d97578081fd5b611da084611d01565b9250611dae60208501611d01565b9150604084013590509250925092565b60008060008060808587031215611dd3578081fd5b611ddc85611d01565b9350611dea60208601611d01565b925060408501359150606085013567ffffffffffffffff811115611e0c578182fd5b611e1887828801611d18565b91505092959194509250565b60008060408385031215611e36578182fd5b611e3f83611d01565b915060208301358015158114611e53578182fd5b809150509250929050565b60008060408385031215611e70578182fd5b611e7983611d01565b946020939093013593505050565b600060208284031215611e98578081fd5b5035919050565b60008060408385031215611eb1578182fd5b82359150611d7a60208401611d01565b60008060408385031215611ed3578182fd5b50508035926020909101359150565b600060208284031215611ef3578081fd5b813561089581612bb6565b600060208284031215611f0f578081fd5b815161089581612bb6565b600080600060608486031215611f2e578283fd5b833567ffffffffffffffff80821115611f45578485fd5b818601915086601f830112611f58578485fd5b611f6787833560208501611c8b565b9450611f7560208701611d01565b93506040860135915080821115611f8a578283fd5b50611f9786828701611d18565b9150509250925092565b60008151808452611fb9816020860160208601612ade565b601f01601f19169290920160200192915050565b60008451611fdf818460208901612ade565b6bffffffffffffffffffffffff19606095861b8116919093019081529290931b16601482015260280192915050565b60008351612020818460208801612ade565b835190830190612034818360208801612ade565b01949350505050565b7f19457468657265756d205369676e6564204d6573736167653a0a3332000000008152601c810191909152603c0190565b90565b6001600160a01b0391909116815260200190565b6001600160a01b038581168252841660208201526040810183905260806060820181905260009061109d90830184611fa1565b901515815260200190565b90815260200190565b93845260ff9290921660208401526040830152606082015260800190565b600060208252610a5c6020830184611fa1565b60208082526018908201527f45434453413a20696e76616c6964207369676e61747572650000000000000000604082015260600190565b60208082526022908201527f456e756d657261626c655365743a20696e646578206f7574206f6620626f756e604082015261647360f01b606082015260800190565b6020808252602f908201527f416363657373436f6e74726f6c3a2073656e646572206d75737420626520616e60408201526e0818591b5a5b881d1bc819dc985b9d608a1b606082015260800190565b6020808252601f908201527f45434453413a20696e76616c6964207369676e6174757265206c656e67746800604082015260600190565b60208082526031908201527f4f6e6c7920616363657074696e67207369676e6174757265732066726f6d2044604082015270454641554c545f41444d494e5f524f4c4560781b606082015260800190565b6020808252601b908201527f436f756e7465723a2064656372656d656e74206f766572666c6f770000000000604082015260600190565b60208082526032908201527f4552433732313a207472616e7366657220746f206e6f6e20455243373231526560408201527131b2b4bb32b91034b6b83632b6b2b73a32b960711b606082015260800190565b602080825260169082015275105c98905c9d0e88185b5bdd5b9d081a5b9d985b1a5960521b604082015260600190565b6020808252601c908201527f4552433732313a20746f6b656e20616c7265616479206d696e74656400000000604082015260600190565b60208082526024908201527f4552433732313a207472616e7366657220746f20746865207a65726f206164646040820152637265737360e01b606082015260800190565b60208082526011908201527020b93120b93a1d103737ba1037bbb732b960791b604082015260600190565b60208082526019908201527f4552433732313a20617070726f766520746f2063616c6c657200000000000000604082015260600190565b6020808252603a908201527f416464726573733a20756e61626c6520746f2073656e642076616c75652c207260408201527f6563697069656e74206d61792068617665207265766572746564000000000000606082015260800190565b60208082526022908201527f45434453413a20696e76616c6964207369676e6174757265202773272076616c604082015261756560f01b606082015260800190565b6020808252601d908201527f416464726573733a20696e73756666696369656e742062616c616e6365000000604082015260600190565b6020808252602c908201527f4552433732313a206f70657261746f7220717565727920666f72206e6f6e657860408201526b34b9ba32b73a103a37b5b2b760a11b606082015260800190565b60208082526019908201527f496e76616c6964207265636f7665726564206164647265737300000000000000604082015260600190565b60208082526030908201527f416363657373436f6e74726f6c3a2073656e646572206d75737420626520616e60408201526f2061646d696e20746f207265766f6b6560801b606082015260800190565b60208082526038908201527f4552433732313a20617070726f76652063616c6c6572206973206e6f74206f7760408201527f6e6572206e6f7220617070726f76656420666f7220616c6c0000000000000000606082015260800190565b6020808252602a908201527f4552433732313a2062616c616e636520717565727920666f7220746865207a65604082015269726f206164647265737360b01b606082015260800190565b60208082526029908201527f4552433732313a206f776e657220717565727920666f72206e6f6e657869737460408201526832b73a103a37b5b2b760b91b606082015260800190565b6020808252602e908201527f45524337323155524953746f726167653a2055524920736574206f66206e6f6e60408201526d32bc34b9ba32b73a103a37b5b2b760911b606082015260800190565b60208082526022908201527f45434453413a20696e76616c6964207369676e6174757265202776272076616c604082015261756560f01b606082015260800190565b6020808252818101527f4552433732313a206d696e7420746f20746865207a65726f2061646472657373604082015260600190565b60208082526031908201527f45524337323155524953746f726167653a2055524920717565727920666f72206040820152703737b732bc34b9ba32b73a103a37b5b2b760791b606082015260800190565b6020808252602c908201527f4552433732313a20617070726f76656420717565727920666f72206e6f6e657860408201526b34b9ba32b73a103a37b5b2b760a11b606082015260800190565b60208082526029908201527f4552433732313a207472616e73666572206f6620746f6b656e2074686174206960408201526839903737ba1037bbb760b91b606082015260800190565b6020808252602f908201527f4552433732314d657461646174613a2055524920717565727920666f72206e6f60408201526e3732bc34b9ba32b73a103a37b5b2b760891b606082015260800190565b60208082526021908201527f4552433732313a20617070726f76616c20746f2063757272656e74206f776e656040820152603960f91b606082015260800190565b60208082526031908201527f4552433732313a207472616e736665722063616c6c6572206973206e6f74206f6040820152701ddb995c881b9bdc88185c1c1c9bdd9959607a1b606082015260800190565b6020808252602f908201527f416363657373436f6e74726f6c3a2063616e206f6e6c792072656e6f756e636560408201526e103937b632b9903337b91039b2b63360891b606082015260800190565b918252602082015260400190565b6000821982111561297857612978612b74565b500190565b60008261298c5761298c612b8a565b500490565b80825b60018086116129a357506129ce565b8187048211156129b5576129b5612b74565b808616156129c257918102915b9490941c938002612994565b94509492505050565b6000610a5c60001960ff8516846000826129f357506001610895565b81612a0057506000610895565b8160018114612a165760028114612a2057612a4d565b6001915050610895565b60ff841115612a3157612a31612b74565b6001841b915084821115612a4757612a47612b74565b50610895565b5060208310610133831016604e8410600b8410161715612a80575081810a83811115612a7b57612a7b612b74565b610895565b612a8d8484846001612991565b808604821115612a9f57612a9f612b74565b02949350505050565b6000816000190483118215151615612ac257612ac2612b74565b500290565b600082821015612ad957612ad9612b74565b500390565b60005b83811015612af9578181015183820152602001612ae1565b83811115610bea5750506000910152565b600281046001821680612b1e57607f821691505b60208210811415612b3f57634e487b7160e01b600052602260045260246000fd5b50919050565b6000600019821415612b5957612b59612b74565b5060010190565b600082612b6f57612b6f612b8a565b500690565b634e487b7160e01b600052601160045260246000fd5b634e487b7160e01b600052601260045260246000fd5b634e487b7160e01b600052604160045260246000fd5b6001600160e01b03198116811461129857600080fdfea26469706673582212208256d913f6183458ac2e4474bb0b5cc59f521ba28675ab2e9c3b437ab3e37e1064736f6c63430008010033",
  "devdoc": {
    "kind": "dev",
    "methods": {
      "approve(address,uint256)": {
        "details": "See {IERC721-approve}."
      },
      "balanceOf(address)": {
        "details": "See {IERC721-balanceOf}."
      },
      "getApproved(uint256)": {
        "details": "See {IERC721-getApproved}."
      },
      "getRoleAdmin(bytes32)": {
        "details": "Returns the admin role that controls `role`. See {grantRole} and {revokeRole}. To change a role's admin, use {_setRoleAdmin}."
      },
      "getRoleMember(bytes32,uint256)": {
        "details": "Returns one of the accounts that have `role`. `index` must be a value between 0 and {getRoleMemberCount}, non-inclusive. Role bearers are not sorted in any particular way, and their ordering may change at any point. WARNING: When using {getRoleMember} and {getRoleMemberCount}, make sure you perform all queries on the same block. See the following https://forum.openzeppelin.com/t/iterating-over-elements-on-enumerableset-in-openzeppelin-contracts/2296[forum post] for more information."
      },
      "getRoleMemberCount(bytes32)": {
        "details": "Returns the number of accounts that have `role`. Can be used together with {getRoleMember} to enumerate all bearers of a role."
      },
      "grantRole(bytes32,address)": {
        "details": "Overload {grantRole} to track enumerable memberships"
      },
      "hasRole(bytes32,address)": {
        "details": "Returns `true` if `account` has been granted `role`."
      },
      "isApprovedForAll(address,address)": {
        "details": "See {IERC721-isApprovedForAll}."
      },
      "name()": {
        "details": "See {IERC721Metadata-name}."
      },
      "ownerOf(uint256)": {
        "details": "See {IERC721-ownerOf}."
      },
      "renounceRole(bytes32,address)": {
        "details": "Overload {renounceRole} to track enumerable memberships"
      },
      "revokeRole(bytes32,address)": {
        "details": "Overload {revokeRole} to track enumerable memberships"
      },
      "safeTransferFrom(address,address,uint256)": {
        "details": "See {IERC721-safeTransferFrom}."
      },
      "safeTransferFrom(address,address,uint256,bytes)": {
        "details": "See {IERC721-safeTransferFrom}."
      },
      "setApprovalForAll(address,bool)": {
        "details": "See {IERC721-setApprovalForAll}."
      },
      "symbol()": {
        "details": "See {IERC721Metadata-symbol}."
      },
      "tokenURI(uint256)": {
        "details": "See {IERC721Metadata-tokenURI}."
      },
      "transferFrom(address,address,uint256)": {
        "details": "See {IERC721-transferFrom}."
      }
    },
    "version": 1
  },
  "userdoc": {
    "kind": "user",
    "methods": {},
    "version": 1
  },
  "storageLayout": {
    "storage": [
      {
        "astId": 539,
        "contract": "contracts/ArbArt.sol:ArbArt",
        "label": "_name",
        "offset": 0,
        "slot": "0",
        "type": "t_string_storage"
      },
      {
        "astId": 541,
        "contract": "contracts/ArbArt.sol:ArbArt",
        "label": "_symbol",
        "offset": 0,
        "slot": "1",
        "type": "t_string_storage"
      },
      {
        "astId": 545,
        "contract": "contracts/ArbArt.sol:ArbArt",
        "label": "_owners",
        "offset": 0,
        "slot": "2",
        "type": "t_mapping(t_uint256,t_address)"
      },
      {
        "astId": 549,
        "contract": "contracts/ArbArt.sol:ArbArt",
        "label": "_balances",
        "offset": 0,
        "slot": "3",
        "type": "t_mapping(t_address,t_uint256)"
      },
      {
        "astId": 553,
        "contract": "contracts/ArbArt.sol:ArbArt",
        "label": "_tokenApprovals",
        "offset": 0,
        "slot": "4",
        "type": "t_mapping(t_uint256,t_address)"
      },
      {
        "astId": 559,
        "contract": "contracts/ArbArt.sol:ArbArt",
        "label": "_operatorApprovals",
        "offset": 0,
        "slot": "5",
        "type": "t_mapping(t_address,t_mapping(t_address,t_bool))"
      },
      {
        "astId": 1480,
        "contract": "contracts/ArbArt.sol:ArbArt",
        "label": "_tokenURIs",
        "offset": 0,
        "slot": "6",
        "type": "t_mapping(t_uint256,t_string_storage)"
      },
      {
        "astId": 61,
        "contract": "contracts/ArbArt.sol:ArbArt",
        "label": "_roles",
        "offset": 0,
        "slot": "7",
        "type": "t_mapping(t_bytes32,t_struct(RoleData)56_storage)"
      },
      {
        "astId": 358,
        "contract": "contracts/ArbArt.sol:ArbArt",
        "label": "_roleMembers",
        "offset": 0,
        "slot": "8",
        "type": "t_mapping(t_bytes32,t_struct(AddressSet)2696_storage)"
      },
      {
        "astId": 2948,
        "contract": "contracts/ArbArt.sol:ArbArt",
        "label": "countMint",
        "offset": 0,
        "slot": "9",
        "type": "t_struct(Counter)1978_storage"
      },
      {
        "astId": 2951,
        "contract": "contracts/ArbArt.sol:ArbArt",
        "label": "fees",
        "offset": 0,
        "slot": "10",
        "type": "t_uint256"
      },
      {
        "astId": 2954,
        "contract": "contracts/ArbArt.sol:ArbArt",
        "label": "baseFees",
        "offset": 0,
        "slot": "11",
        "type": "t_uint256"
      },
      {
        "astId": 2956,
        "contract": "contracts/ArbArt.sol:ArbArt",
        "label": "feesReceiver",
        "offset": 0,
        "slot": "12",
        "type": "t_address_payable"
      }
    ],
    "types": {
      "t_address": {
        "encoding": "inplace",
        "label": "address",
        "numberOfBytes": "20"
      },
      "t_address_payable": {
        "encoding": "inplace",
        "label": "address payable",
        "numberOfBytes": "20"
      },
      "t_array(t_bytes32)dyn_storage": {
        "base": "t_bytes32",
        "encoding": "dynamic_array",
        "label": "bytes32[]",
        "numberOfBytes": "32"
      },
      "t_bool": {
        "encoding": "inplace",
        "label": "bool",
        "numberOfBytes": "1"
      },
      "t_bytes32": {
        "encoding": "inplace",
        "label": "bytes32",
        "numberOfBytes": "32"
      },
      "t_mapping(t_address,t_bool)": {
        "encoding": "mapping",
        "key": "t_address",
        "label": "mapping(address => bool)",
        "numberOfBytes": "32",
        "value": "t_bool"
      },
      "t_mapping(t_address,t_mapping(t_address,t_bool))": {
        "encoding": "mapping",
        "key": "t_address",
        "label": "mapping(address => mapping(address => bool))",
        "numberOfBytes": "32",
        "value": "t_mapping(t_address,t_bool)"
      },
      "t_mapping(t_address,t_uint256)": {
        "encoding": "mapping",
        "key": "t_address",
        "label": "mapping(address => uint256)",
        "numberOfBytes": "32",
        "value": "t_uint256"
      },
      "t_mapping(t_bytes32,t_struct(AddressSet)2696_storage)": {
        "encoding": "mapping",
        "key": "t_bytes32",
        "label": "mapping(bytes32 => struct EnumerableSet.AddressSet)",
        "numberOfBytes": "32",
        "value": "t_struct(AddressSet)2696_storage"
      },
      "t_mapping(t_bytes32,t_struct(RoleData)56_storage)": {
        "encoding": "mapping",
        "key": "t_bytes32",
        "label": "mapping(bytes32 => struct AccessControl.RoleData)",
        "numberOfBytes": "32",
        "value": "t_struct(RoleData)56_storage"
      },
      "t_mapping(t_bytes32,t_uint256)": {
        "encoding": "mapping",
        "key": "t_bytes32",
        "label": "mapping(bytes32 => uint256)",
        "numberOfBytes": "32",
        "value": "t_uint256"
      },
      "t_mapping(t_uint256,t_address)": {
        "encoding": "mapping",
        "key": "t_uint256",
        "label": "mapping(uint256 => address)",
        "numberOfBytes": "32",
        "value": "t_address"
      },
      "t_mapping(t_uint256,t_string_storage)": {
        "encoding": "mapping",
        "key": "t_uint256",
        "label": "mapping(uint256 => string)",
        "numberOfBytes": "32",
        "value": "t_string_storage"
      },
      "t_string_storage": {
        "encoding": "bytes",
        "label": "string",
        "numberOfBytes": "32"
      },
      "t_struct(AddressSet)2696_storage": {
        "encoding": "inplace",
        "label": "struct EnumerableSet.AddressSet",
        "members": [
          {
            "astId": 2695,
            "contract": "contracts/ArbArt.sol:ArbArt",
            "label": "_inner",
            "offset": 0,
            "slot": "0",
            "type": "t_struct(Set)2419_storage"
          }
        ],
        "numberOfBytes": "64"
      },
      "t_struct(Counter)1978_storage": {
        "encoding": "inplace",
        "label": "struct Counters.Counter",
        "members": [
          {
            "astId": 1977,
            "contract": "contracts/ArbArt.sol:ArbArt",
            "label": "_value",
            "offset": 0,
            "slot": "0",
            "type": "t_uint256"
          }
        ],
        "numberOfBytes": "32"
      },
      "t_struct(RoleData)56_storage": {
        "encoding": "inplace",
        "label": "struct AccessControl.RoleData",
        "members": [
          {
            "astId": 53,
            "contract": "contracts/ArbArt.sol:ArbArt",
            "label": "members",
            "offset": 0,
            "slot": "0",
            "type": "t_mapping(t_address,t_bool)"
          },
          {
            "astId": 55,
            "contract": "contracts/ArbArt.sol:ArbArt",
            "label": "adminRole",
            "offset": 0,
            "slot": "1",
            "type": "t_bytes32"
          }
        ],
        "numberOfBytes": "64"
      },
      "t_struct(Set)2419_storage": {
        "encoding": "inplace",
        "label": "struct EnumerableSet.Set",
        "members": [
          {
            "astId": 2414,
            "contract": "contracts/ArbArt.sol:ArbArt",
            "label": "_values",
            "offset": 0,
            "slot": "0",
            "type": "t_array(t_bytes32)dyn_storage"
          },
          {
            "astId": 2418,
            "contract": "contracts/ArbArt.sol:ArbArt",
            "label": "_indexes",
            "offset": 0,
            "slot": "1",
            "type": "t_mapping(t_bytes32,t_uint256)"
          }
        ],
        "numberOfBytes": "64"
      },
      "t_uint256": {
        "encoding": "inplace",
        "label": "uint256",
        "numberOfBytes": "32"
      }
    }
  }
}