{
  "address": "0x641276Fcc57ba8BD4b7d46C70A5C9361FcDF2EE7",
  "abi": [
    {
      "inputs": [
        {
          "internalType": "address",
          "name": "_manager",
          "type": "address"
        },
        {
          "internalType": "address payable",
          "name": "_feesReceiver",
          "type": "address"
        }
      ],
      "stateMutability": "nonpayable",
      "type": "constructor"
    },
    {
      "anonymous": false,
      "inputs": [
        {
          "indexed": true,
          "internalType": "address",
          "name": "owner",
          "type": "address"
        },
        {
          "indexed": true,
          "internalType": "address",
          "name": "approved",
          "type": "address"
        },
        {
          "indexed": true,
          "internalType": "uint256",
          "name": "tokenId",
          "type": "uint256"
        }
      ],
      "name": "Approval",
      "type": "event"
    },
    {
      "anonymous": false,
      "inputs": [
        {
          "indexed": true,
          "internalType": "address",
          "name": "owner",
          "type": "address"
        },
        {
          "indexed": true,
          "internalType": "address",
          "name": "operator",
          "type": "address"
        },
        {
          "indexed": false,
          "internalType": "bool",
          "name": "approved",
          "type": "bool"
        }
      ],
      "name": "ApprovalForAll",
      "type": "event"
    },
    {
      "anonymous": false,
      "inputs": [
        {
          "indexed": true,
          "internalType": "bytes32",
          "name": "role",
          "type": "bytes32"
        },
        {
          "indexed": true,
          "internalType": "bytes32",
          "name": "previousAdminRole",
          "type": "bytes32"
        },
        {
          "indexed": true,
          "internalType": "bytes32",
          "name": "newAdminRole",
          "type": "bytes32"
        }
      ],
      "name": "RoleAdminChanged",
      "type": "event"
    },
    {
      "anonymous": false,
      "inputs": [
        {
          "indexed": true,
          "internalType": "bytes32",
          "name": "role",
          "type": "bytes32"
        },
        {
          "indexed": true,
          "internalType": "address",
          "name": "account",
          "type": "address"
        },
        {
          "indexed": true,
          "internalType": "address",
          "name": "sender",
          "type": "address"
        }
      ],
      "name": "RoleGranted",
      "type": "event"
    },
    {
      "anonymous": false,
      "inputs": [
        {
          "indexed": true,
          "internalType": "bytes32",
          "name": "role",
          "type": "bytes32"
        },
        {
          "indexed": true,
          "internalType": "address",
          "name": "account",
          "type": "address"
        },
        {
          "indexed": true,
          "internalType": "address",
          "name": "sender",
          "type": "address"
        }
      ],
      "name": "RoleRevoked",
      "type": "event"
    },
    {
      "anonymous": false,
      "inputs": [
        {
          "indexed": true,
          "internalType": "address",
          "name": "from",
          "type": "address"
        },
        {
          "indexed": true,
          "internalType": "address",
          "name": "to",
          "type": "address"
        },
        {
          "indexed": true,
          "internalType": "uint256",
          "name": "tokenId",
          "type": "uint256"
        }
      ],
      "name": "Transfer",
      "type": "event"
    },
    {
      "inputs": [],
      "name": "DEFAULT_ADMIN_ROLE",
      "outputs": [
        {
          "internalType": "bytes32",
          "name": "",
          "type": "bytes32"
        }
      ],
      "stateMutability": "view",
      "type": "function"
    },
    {
      "inputs": [],
      "name": "MANAGER_ROLE",
      "outputs": [
        {
          "internalType": "bytes32",
          "name": "",
          "type": "bytes32"
        }
      ],
      "stateMutability": "view",
      "type": "function"
    },
    {
      "inputs": [
        {
          "internalType": "address",
          "name": "to",
          "type": "address"
        },
        {
          "internalType": "uint256",
          "name": "tokenId",
          "type": "uint256"
        }
      ],
      "name": "approve",
      "outputs": [],
      "stateMutability": "nonpayable",
      "type": "function"
    },
    {
      "inputs": [
        {
          "internalType": "address",
          "name": "owner",
          "type": "address"
        }
      ],
      "name": "balanceOf",
      "outputs": [
        {
          "internalType": "uint256",
          "name": "",
          "type": "uint256"
        }
      ],
      "stateMutability": "view",
      "type": "function"
    },
    {
      "inputs": [
        {
          "internalType": "uint256",
          "name": "_tokenId",
          "type": "uint256"
        }
      ],
      "name": "burn",
      "outputs": [
        {
          "internalType": "bool",
          "name": "",
          "type": "bool"
        }
      ],
      "stateMutability": "nonpayable",
      "type": "function"
    },
    {
      "inputs": [],
      "name": "currentBurnPrice",
      "outputs": [
        {
          "internalType": "uint256",
          "name": "",
          "type": "uint256"
        }
      ],
      "stateMutability": "view",
      "type": "function"
    },
    {
      "inputs": [],
      "name": "currentMintPrice",
      "outputs": [
        {
          "internalType": "uint256",
          "name": "",
          "type": "uint256"
        },
        {
          "internalType": "uint256",
          "name": "",
          "type": "uint256"
        }
      ],
      "stateMutability": "view",
      "type": "function"
    },
    {
      "inputs": [],
      "name": "currentMintWithFeesPrice",
      "outputs": [
        {
          "internalType": "uint256",
          "name": "",
          "type": "uint256"
        }
      ],
      "stateMutability": "view",
      "type": "function"
    },
    {
      "inputs": [],
      "name": "currentPrice",
      "outputs": [
        {
          "internalType": "uint256",
          "name": "",
          "type": "uint256"
        }
      ],
      "stateMutability": "view",
      "type": "function"
    },
    {
      "inputs": [
        {
          "internalType": "uint256",
          "name": "tokenId",
          "type": "uint256"
        }
      ],
      "name": "getApproved",
      "outputs": [
        {
          "internalType": "address",
          "name": "",
          "type": "address"
        }
      ],
      "stateMutability": "view",
      "type": "function"
    },
    {
      "inputs": [
        {
          "internalType": "bytes32",
          "name": "role",
          "type": "bytes32"
        }
      ],
      "name": "getRoleAdmin",
      "outputs": [
        {
          "internalType": "bytes32",
          "name": "",
          "type": "bytes32"
        }
      ],
      "stateMutability": "view",
      "type": "function"
    },
    {
      "inputs": [
        {
          "internalType": "bytes32",
          "name": "role",
          "type": "bytes32"
        },
        {
          "internalType": "uint256",
          "name": "index",
          "type": "uint256"
        }
      ],
      "name": "getRoleMember",
      "outputs": [
        {
          "internalType": "address",
          "name": "",
          "type": "address"
        }
      ],
      "stateMutability": "view",
      "type": "function"
    },
    {
      "inputs": [
        {
          "internalType": "bytes32",
          "name": "role",
          "type": "bytes32"
        }
      ],
      "name": "getRoleMemberCount",
      "outputs": [
        {
          "internalType": "uint256",
          "name": "",
          "type": "uint256"
        }
      ],
      "stateMutability": "view",
      "type": "function"
    },
    {
      "inputs": [
        {
          "internalType": "bytes32",
          "name": "role",
          "type": "bytes32"
        },
        {
          "internalType": "address",
          "name": "account",
          "type": "address"
        }
      ],
      "name": "grantRole",
      "outputs": [],
      "stateMutability": "nonpayable",
      "type": "function"
    },
    {
      "inputs": [
        {
          "internalType": "bytes32",
          "name": "role",
          "type": "bytes32"
        },
        {
          "internalType": "address",
          "name": "account",
          "type": "address"
        }
      ],
      "name": "hasRole",
      "outputs": [
        {
          "internalType": "bool",
          "name": "",
          "type": "bool"
        }
      ],
      "stateMutability": "view",
      "type": "function"
    },
    {
      "inputs": [
        {
          "internalType": "address",
          "name": "owner",
          "type": "address"
        },
        {
          "internalType": "address",
          "name": "operator",
          "type": "address"
        }
      ],
      "name": "isApprovedForAll",
      "outputs": [
        {
          "internalType": "bool",
          "name": "",
          "type": "bool"
        }
      ],
      "stateMutability": "view",
      "type": "function"
    },
    {
      "inputs": [
        {
          "internalType": "string",
          "name": "_uri",
          "type": "string"
        },
        {
          "internalType": "address",
          "name": "_signer",
          "type": "address"
        },
        {
          "internalType": "bytes",
          "name": "_signature",
          "type": "bytes"
        }
      ],
      "name": "mint",
      "outputs": [
        {
          "internalType": "uint256",
          "name": "_tokenId",
          "type": "uint256"
        }
      ],
      "stateMutability": "payable",
      "type": "function"
    },
    {
      "inputs": [
        {
          "internalType": "uint256",
          "name": "_current",
          "type": "uint256"
        }
      ],
      "name": "mintPriceFor",
      "outputs": [
        {
          "internalType": "uint256",
          "name": "_currentPrice",
          "type": "uint256"
        },
        {
          "internalType": "uint256",
          "name": "_fees",
          "type": "uint256"
        }
      ],
      "stateMutability": "view",
      "type": "function"
    },
    {
      "inputs": [
        {
          "internalType": "uint256",
          "name": "_current",
          "type": "uint256"
        }
      ],
      "name": "mintWithFeesPriceFor",
      "outputs": [
        {
          "internalType": "uint256",
          "name": "",
          "type": "uint256"
        }
      ],
      "stateMutability": "view",
      "type": "function"
    },
    {
      "inputs": [],
      "name": "name",
      "outputs": [
        {
          "internalType": "string",
          "name": "",
          "type": "string"
        }
      ],
      "stateMutability": "view",
      "type": "function"
    },
    {
      "inputs": [
        {
          "internalType": "uint256",
          "name": "tokenId",
          "type": "uint256"
        }
      ],
      "name": "ownerOf",
      "outputs": [
        {
          "internalType": "address",
          "name": "",
          "type": "address"
        }
      ],
      "stateMutability": "view",
      "type": "function"
    },
    {
      "inputs": [
        {
          "internalType": "uint256",
          "name": "_current",
          "type": "uint256"
        }
      ],
      "name": "priceFor",
      "outputs": [
        {
          "internalType": "uint256",
          "name": "",
          "type": "uint256"
        }
      ],
      "stateMutability": "view",
      "type": "function"
    },
    {
      "inputs": [
        {
          "internalType": "bytes32",
          "name": "role",
          "type": "bytes32"
        },
        {
          "internalType": "address",
          "name": "account",
          "type": "address"
        }
      ],
      "name": "renounceRole",
      "outputs": [],
      "stateMutability": "nonpayable",
      "type": "function"
    },
    {
      "inputs": [
        {
          "internalType": "bytes32",
          "name": "role",
          "type": "bytes32"
        },
        {
          "internalType": "address",
          "name": "account",
          "type": "address"
        }
      ],
      "name": "revokeRole",
      "outputs": [],
      "stateMutability": "nonpayable",
      "type": "function"
    },
    {
      "inputs": [
        {
          "internalType": "address",
          "name": "from",
          "type": "address"
        },
        {
          "internalType": "address",
          "name": "to",
          "type": "address"
        },
        {
          "internalType": "uint256",
          "name": "tokenId",
          "type": "uint256"
        }
      ],
      "name": "safeTransferFrom",
      "outputs": [],
      "stateMutability": "nonpayable",
      "type": "function"
    },
    {
      "inputs": [
        {
          "internalType": "address",
          "name": "from",
          "type": "address"
        },
        {
          "internalType": "address",
          "name": "to",
          "type": "address"
        },
        {
          "internalType": "uint256",
          "name": "tokenId",
          "type": "uint256"
        },
        {
          "internalType": "bytes",
          "name": "_data",
          "type": "bytes"
        }
      ],
      "name": "safeTransferFrom",
      "outputs": [],
      "stateMutability": "nonpayable",
      "type": "function"
    },
    {
      "inputs": [
        {
          "internalType": "address",
          "name": "operator",
          "type": "address"
        },
        {
          "internalType": "bool",
          "name": "approved",
          "type": "bool"
        }
      ],
      "name": "setApprovalForAll",
      "outputs": [],
      "stateMutability": "nonpayable",
      "type": "function"
    },
    {
      "inputs": [
        {
          "internalType": "bytes4",
          "name": "interfaceId",
          "type": "bytes4"
        }
      ],
      "name": "supportsInterface",
      "outputs": [
        {
          "internalType": "bool",
          "name": "",
          "type": "bool"
        }
      ],
      "stateMutability": "view",
      "type": "function"
    },
    {
      "inputs": [],
      "name": "symbol",
      "outputs": [
        {
          "internalType": "string",
          "name": "",
          "type": "string"
        }
      ],
      "stateMutability": "view",
      "type": "function"
    },
    {
      "inputs": [
        {
          "internalType": "uint256",
          "name": "tokenId",
          "type": "uint256"
        }
      ],
      "name": "tokenURI",
      "outputs": [
        {
          "internalType": "string",
          "name": "",
          "type": "string"
        }
      ],
      "stateMutability": "view",
      "type": "function"
    },
    {
      "inputs": [
        {
          "internalType": "address",
          "name": "from",
          "type": "address"
        },
        {
          "internalType": "address",
          "name": "to",
          "type": "address"
        },
        {
          "internalType": "uint256",
          "name": "tokenId",
          "type": "uint256"
        }
      ],
      "name": "transferFrom",
      "outputs": [],
      "stateMutability": "nonpayable",
      "type": "function"
    }
  ],
  "transactionHash": "0x51d974819ac0a2d3fbcc0e28167c4ee9052750fa33c9fa6c462fc3b1bfa9f7f1",
  "args": [
    "0xE4D29ec42F4057EfF92c9124c82844b2689f9C6d",
    "0x91a5D3bCe5317D5579E780d67021fEc692575d1d"
  ],
  "solcInputHash": "d5c4d55ede157d95b61630cc0a37c65a",
  "bytecode": "0x6080604052600a80556064600b553480156200001a57600080fd5b5060405162002e4e38038062002e4e8339810160408190526200003d916200030d565b6040805180820182526006815265105c98905c9d60d21b6020808301918252835180850190945260048452631054909560e21b908401528151919291620000879160009162000267565b5080516200009d90600190602084019062000267565b505050620000d27f241ecf16d79d0f8dbfb92cbc07fe17840425976cf0667f022fe9877caa831b0883620000fe60201b60201c565b600c80546001600160a01b0319166001600160a01b0392909216919091179055506001600955620003a1565b6200011582826200014160201b620010781760201c565b60008281526008602090815260409091206200013c9183906200108662000151821b17901c565b505050565b6200014d828262000171565b5050565b600062000168836001600160a01b03841662000215565b90505b92915050565b60008281526007602090815260408083206001600160a01b038516845290915290205460ff166200014d5760008281526007602090815260408083206001600160a01b03851684529091529020805460ff19166001179055620001d13390565b6001600160a01b0316816001600160a01b0316837f2f8788117e7eff1d82e926ec794901d17c78024a50270940304540a733656f0d60405160405180910390a45050565b60008181526001830160205260408120546200025e575081546001818101845560008481526020808220909301849055845484825282860190935260409020919091556200016b565b5060006200016b565b82805462000275906200034b565b90600052602060002090601f016020900481019282620002995760008555620002e4565b82601f10620002b457805160ff1916838001178555620002e4565b82800160010185558215620002e4579182015b82811115620002e4578251825591602001919060010190620002c7565b50620002f2929150620002f6565b5090565b5b80821115620002f25760008155600101620002f7565b6000806040838503121562000320578182fd5b82516200032d8162000388565b6020840151909250620003408162000388565b809150509250929050565b600181811c908216806200036057607f821691505b602082108114156200038257634e487b7160e01b600052602260045260246000fd5b50919050565b6001600160a01b03811681146200039e57600080fd5b50565b612a9d80620003b16000396000f3fe6080604052600436106101d85760003560e01c80638d5555f211610102578063a22cb46511610095578063d547741f11610064578063d547741f1461055d578063e985e9c51461057d578063ec87621c146105c6578063f620c815146105fa576101d8565b8063a22cb465146104dd578063b88d4fde146104fd578063c87b56dd1461051d578063ca15c8731461053d576101d8565b806395d89b41116100d157806395d89b411461047e57806399f7ab31146104935780639d1b464a146104b3578063a217fddf146104c8576101d8565b80638d5555f2146103fe5780638def9f821461041e5780639010d07c1461043e57806391d148541461045e576101d8565b8063251a701a1161017a57806342966c681161014957806342966c68146103895780636352211e146103a957806370a08231146103c957806377119765146103e9576101d8565b8063251a701a146103165780632f2ff15d1461032957806336568abe1461034957806342842e0e14610369576101d8565b8063081812fc116101b6578063081812fc1461025e578063095ea7b31461029657806323b872dd146102b8578063248a9ca3146102d8576101d8565b806301ffc9a7146101dd5780630561942a1461021257806306fdde031461023c575b600080fd5b3480156101e957600080fd5b506101fd6101f83660046125bc565b61060f565b60405190151581526020015b60405180910390f35b34801561021e57600080fd5b50610227610631565b60408051928352602083019190915201610209565b34801561024857600080fd5b50610251610648565b604051610209919061274a565b34801561026a57600080fd5b5061027e610279366004612561565b6106da565b6040516001600160a01b039091168152602001610209565b3480156102a257600080fd5b506102b66102b1366004612538565b610767565b005b3480156102c457600080fd5b506102b66102d336600461245d565b61087d565b3480156102e457600080fd5b506103086102f3366004612561565b60009081526007602052604090206001015490565b604051908152602001610209565b6103086103243660046125f4565b6108ae565b34801561033557600080fd5b506102b6610344366004612579565b610ad7565b34801561035557600080fd5b506102b6610364366004612579565b610af9565b34801561037557600080fd5b506102b661038436600461245d565b610b1b565b34801561039557600080fd5b506101fd6103a4366004612561565b610b36565b3480156103b557600080fd5b5061027e6103c4366004612561565b610bb9565b3480156103d557600080fd5b506103086103e4366004612411565b610c30565b3480156103f557600080fd5b50610308610cb7565b34801561040a57600080fd5b50610308610419366004612561565b610cd6565b34801561042a57600080fd5b50610308610439366004612561565b610d02565b34801561044a57600080fd5b5061027e61045936600461259b565b610d27565b34801561046a57600080fd5b506101fd610479366004612579565b610d48565b34801561048a57600080fd5b50610251610d73565b34801561049f57600080fd5b506102276104ae366004612561565b610d82565b3480156104bf57600080fd5b50610308610db2565b3480156104d457600080fd5b50610308600081565b3480156104e957600080fd5b506102b66104f83660046124fe565b610dc0565b34801561050957600080fd5b506102b6610518366004612498565b610e92565b34801561052957600080fd5b50610251610538366004612561565b610eca565b34801561054957600080fd5b50610308610558366004612561565b611049565b34801561056957600080fd5b506102b6610578366004612579565b611060565b34801561058957600080fd5b506101fd61059836600461242b565b6001600160a01b03918216600090815260056020908152604080832093909416825291909152205460ff1690565b3480156105d257600080fd5b506103087f241ecf16d79d0f8dbfb92cbc07fe17840425976cf0667f022fe9877caa831b0881565b34801561060657600080fd5b5061030861106a565b600061061a8261109b565b806106295750610629826110c0565b90505b919050565b6000806106406104ae60095490565b915091509091565b606060008054610657906129a5565b80601f0160208091040260200160405190810160405280929190818152602001828054610683906129a5565b80156106d05780601f106106a5576101008083540402835291602001916106d0565b820191906000526020600020905b8154815290600101906020018083116106b357829003601f168201915b5050505050905090565b60006106e582611110565b61074b5760405162461bcd60e51b815260206004820152602c60248201527f4552433732313a20617070726f76656420717565727920666f72206e6f6e657860448201526b34b9ba32b73a103a37b5b2b760a11b60648201526084015b60405180910390fd5b506000908152600460205260409020546001600160a01b031690565b600061077282610bb9565b9050806001600160a01b0316836001600160a01b031614156107e05760405162461bcd60e51b815260206004820152602160248201527f4552433732313a20617070726f76616c20746f2063757272656e74206f776e656044820152603960f91b6064820152608401610742565b336001600160a01b03821614806107fc57506107fc8133610598565b61086e5760405162461bcd60e51b815260206004820152603860248201527f4552433732313a20617070726f76652063616c6c6572206973206e6f74206f7760448201527f6e6572206e6f7220617070726f76656420666f7220616c6c00000000000000006064820152608401610742565b610878838361112d565b505050565b610887338261119b565b6108a35760405162461bcd60e51b8152600401610742906127af565b610878838383611281565b60006108da7f241ecf16d79d0f8dbfb92cbc07fe17840425976cf0667f022fe9877caa831b0884610d48565b61093a5760405162461bcd60e51b815260206004820152602b60248201527f4f6e6c7920616363657074696e67207369676e6174757265732066726f6d204d60448201526a414e414745525f524f4c4560a81b6064820152608401610742565b6000843385604051602001610951939291906126a7565b604051602081830303815290604052905060006109cc846109c684805190602001206040517f19457468657265756d205369676e6564204d6573736167653a0a3332000000006020820152603c8101829052600090605c01604051602081830303815290604052805190602001209050919050565b90611421565b9050806001600160a01b0316856001600160a01b031614610a2f5760405162461bcd60e51b815260206004820152601960248201527f496e76616c6964207265636f76657265642061646472657373000000000000006044820152606401610742565b600080610a3a610631565b9092509050610a498183612800565b3414610a905760405162461bcd60e51b8152602060048201526016602482015275105c98905c9d0e88185b5bdd5b9d081a5b9d985b1a5960521b6044820152606401610742565b610a9e600980546001019055565b339450610aab858061149c565b610ab585896114b6565b600c54610acb906001600160a01b031682611541565b505050505b9392505050565b610ae1828261165a565b60008281526008602052604090206108789082611086565b610b0382826116db565b60008281526008602052604090206108789082611755565b61087883838360405180602001604052806000815250610e92565b600033610b4283610bb9565b6001600160a01b031614610b8c5760405162461bcd60e51b815260206004820152601160248201527020b93120b93a1d103737ba1037bbb732b960791b6044820152606401610742565b610b96600961176a565b610b9f826117c1565b610bb1610baa610db2565b3390611541565b506001919050565b6000818152600260205260408120546001600160a01b0316806106295760405162461bcd60e51b815260206004820152602960248201527f4552433732313a206f776e657220717565727920666f72206e6f6e657869737460448201526832b73a103a37b5b2b760b91b6064820152608401610742565b60006001600160a01b038216610c9b5760405162461bcd60e51b815260206004820152602a60248201527f4552433732313a2062616c616e636520717565727920666f7220746865207a65604482015269726f206164647265737360b01b6064820152608401610742565b506001600160a01b031660009081526003602052604090205490565b6000610cd16001610cc760095490565b6104199190612962565b905090565b6000612710610ce6600284612872565b610cf890670de0b6b3a7640000612943565b6106299190612818565b6000806000610d1084610d82565b9092509050610d1f8183612800565b949350505050565b6000828152600860205260408120610d3f9083611804565b90505b92915050565b60009182526007602090815260408084206001600160a01b0393909316845291905290205460ff1690565b606060018054610657906129a5565b600080610d8e83610cd6565b9150600b54600a5483610da19190612943565b610dab9190612818565b9050915091565b6000610cd161041960095490565b6001600160a01b038216331415610e195760405162461bcd60e51b815260206004820152601960248201527f4552433732313a20617070726f766520746f2063616c6c6572000000000000006044820152606401610742565b3360008181526005602090815260408083206001600160a01b0387168085529252909120805460ff1916841515179055906001600160a01b03167f17307eab39ab6107e8899845ad3d59bd9653f200f220920489ca2b5937696c3183604051610e86911515815260200190565b60405180910390a35050565b610e9c338361119b565b610eb85760405162461bcd60e51b8152600401610742906127af565b610ec484848484611810565b50505050565b6060610ed582611110565b610f3b5760405162461bcd60e51b815260206004820152603160248201527f45524337323155524953746f726167653a2055524920717565727920666f72206044820152703737b732bc34b9ba32b73a103a37b5b2b760791b6064820152608401610742565b60008281526006602052604081208054610f54906129a5565b80601f0160208091040260200160405190810160405280929190818152602001828054610f80906129a5565b8015610fcd5780601f10610fa257610100808354040283529160200191610fcd565b820191906000526020600020905b815481529060010190602001808311610fb057829003601f168201915b505050505090506000610ffa604080518082019091526007815266697066733a2f2f60c81b602082015290565b905080516000141561100e5750905061062c565b8151156110405780826040516020016110289291906126e8565b6040516020818303038152906040529250505061062c565b610d1f84611843565b600081815260086020526040812061062990611929565b610b038282611933565b6000610cd161043960095490565b61108282826119b3565b5050565b6000610d3f836001600160a01b038416611a39565b60006001600160e01b03198216635a05180f60e01b1480610629575061062982611a88565b60006001600160e01b031982166380ac58cd60e01b14806110f157506001600160e01b03198216635b5e139f60e01b145b8061062957506301ffc9a760e01b6001600160e01b0319831614610629565b6000908152600260205260409020546001600160a01b0316151590565b600081815260046020526040902080546001600160a01b0319166001600160a01b038416908117909155819061116282610bb9565b6001600160a01b03167f8c5be1e5ebec7d5bd14f71427d1e84f3dd0314c0f7b2291e5b200ac8c7c3b92560405160405180910390a45050565b60006111a682611110565b6112075760405162461bcd60e51b815260206004820152602c60248201527f4552433732313a206f70657261746f7220717565727920666f72206e6f6e657860448201526b34b9ba32b73a103a37b5b2b760a11b6064820152608401610742565b600061121283610bb9565b9050806001600160a01b0316846001600160a01b0316148061124d5750836001600160a01b0316611242846106da565b6001600160a01b0316145b80610d1f57506001600160a01b0380821660009081526005602090815260408083209388168352929052205460ff16610d1f565b826001600160a01b031661129482610bb9565b6001600160a01b0316146112fc5760405162461bcd60e51b815260206004820152602960248201527f4552433732313a207472616e73666572206f6620746f6b656e2074686174206960448201526839903737ba1037bbb760b91b6064820152608401610742565b6001600160a01b03821661135e5760405162461bcd60e51b8152602060048201526024808201527f4552433732313a207472616e7366657220746f20746865207a65726f206164646044820152637265737360e01b6064820152608401610742565b61136960008261112d565b6001600160a01b0383166000908152600360205260408120805460019290611392908490612962565b90915550506001600160a01b03821660009081526003602052604081208054600192906113c0908490612800565b909155505060008181526002602052604080822080546001600160a01b0319166001600160a01b0386811691821790925591518493918716917fddf252ad1be2c89b69c2b068fc378daa952ba7f163c4a11628f55a4df523b3ef91a4505050565b600081516041146114745760405162461bcd60e51b815260206004820152601f60248201527f45434453413a20696e76616c6964207369676e6174757265206c656e677468006044820152606401610742565b60208201516040830151606084015160001a61149286828585611aad565b9695505050505050565b611082828260405180602001604052806000815250611c56565b6114bf82611110565b6115225760405162461bcd60e51b815260206004820152602e60248201527f45524337323155524953746f726167653a2055524920736574206f66206e6f6e60448201526d32bc34b9ba32b73a103a37b5b2b760911b6064820152608401610742565b6000828152600660209081526040909120825161087892840190612294565b804710156115915760405162461bcd60e51b815260206004820152601d60248201527f416464726573733a20696e73756666696369656e742062616c616e63650000006044820152606401610742565b6000826001600160a01b03168260405160006040518083038185875af1925050503d80600081146115de576040519150601f19603f3d011682016040523d82523d6000602084013e6115e3565b606091505b50509050806108785760405162461bcd60e51b815260206004820152603a60248201527f416464726573733a20756e61626c6520746f2073656e642076616c75652c207260448201527f6563697069656e74206d617920686176652072657665727465640000000000006064820152608401610742565b600082815260076020526040902060010154611677905b33610479565b6110785760405162461bcd60e51b815260206004820152602f60248201527f416363657373436f6e74726f6c3a2073656e646572206d75737420626520616e60448201526e0818591b5a5b881d1bc819dc985b9d608a1b6064820152608401610742565b6001600160a01b038116331461174b5760405162461bcd60e51b815260206004820152602f60248201527f416363657373436f6e74726f6c3a2063616e206f6e6c792072656e6f756e636560448201526e103937b632b9903337b91039b2b63360891b6064820152608401610742565b6110828282611c89565b6000610d3f836001600160a01b038416611cf0565b8054806117b95760405162461bcd60e51b815260206004820152601b60248201527f436f756e7465723a2064656372656d656e74206f766572666c6f7700000000006044820152606401610742565b600019019055565b6117ca81611e0d565b600081815260066020526040902080546117e3906129a5565b15905061180157600081815260066020526040812061180191612318565b50565b6000610d3f8383611ea8565b61181b848484611281565b61182784848484611f3c565b610ec45760405162461bcd60e51b81526004016107429061275d565b606061184e82611110565b6118b25760405162461bcd60e51b815260206004820152602f60248201527f4552433732314d657461646174613a2055524920717565727920666f72206e6f60448201526e3732bc34b9ba32b73a103a37b5b2b760891b6064820152608401610742565b60006118d8604080518082019091526007815266697066733a2f2f60c81b602082015290565b905060008151116118f85760405180602001604052806000815250610ad0565b8061190284612046565b6040516020016119139291906126e8565b6040516020818303038152906040529392505050565b6000610629825490565b60008281526007602052604090206001015461194e90611671565b61174b5760405162461bcd60e51b815260206004820152603060248201527f416363657373436f6e74726f6c3a2073656e646572206d75737420626520616e60448201526f2061646d696e20746f207265766f6b6560801b6064820152608401610742565b6119bd8282610d48565b6110825760008281526007602090815260408083206001600160a01b03851684529091529020805460ff191660011790556119f53390565b6001600160a01b0316816001600160a01b0316837f2f8788117e7eff1d82e926ec794901d17c78024a50270940304540a733656f0d60405160405180910390a45050565b6000818152600183016020526040812054611a8057508154600181810184556000848152602080822090930184905584548482528286019093526040902091909155610d42565b506000610d42565b60006001600160e01b03198216637965db0b60e01b14806106295750610629826110c0565b60007f7fffffffffffffffffffffffffffffff5d576e7357a4501ddfe92f46681b20a0821115611b2a5760405162461bcd60e51b815260206004820152602260248201527f45434453413a20696e76616c6964207369676e6174757265202773272076616c604482015261756560f01b6064820152608401610742565b8360ff16601b1480611b3f57508360ff16601c145b611b965760405162461bcd60e51b815260206004820152602260248201527f45434453413a20696e76616c6964207369676e6174757265202776272076616c604482015261756560f01b6064820152608401610742565b6040805160008082526020820180845288905260ff871692820192909252606081018590526080810184905260019060a0016020604051602081039080840390855afa158015611bea573d6000803e3d6000fd5b5050604051601f1901519150506001600160a01b038116611c4d5760405162461bcd60e51b815260206004820152601860248201527f45434453413a20696e76616c6964207369676e617475726500000000000000006044820152606401610742565b95945050505050565b611c608383612161565b611c6d6000848484611f3c565b6108785760405162461bcd60e51b81526004016107429061275d565b611c938282610d48565b156110825760008281526007602090815260408083206001600160a01b0385168085529252808320805460ff1916905551339285917ff6391f5c32d9c69d2a47ea670b442974b53935d1edc7fd64eb21e047a839171b9190a45050565b60008181526001830160205260408120548015611e03576000611d14600183612962565b8554909150600090611d2890600190612962565b90506000866000018281548110611d4f57634e487b7160e01b600052603260045260246000fd5b9060005260206000200154905080876000018481548110611d8057634e487b7160e01b600052603260045260246000fd5b600091825260209091200155611d97836001612800565b60008281526001890160205260409020558654879080611dc757634e487b7160e01b600052603160045260246000fd5b60019003818190600052602060002001600090559055866001016000878152602001908152602001600020600090556001945050505050610d42565b6000915050610d42565b6000611e1882610bb9565b9050611e2560008361112d565b6001600160a01b0381166000908152600360205260408120805460019290611e4e908490612962565b909155505060008281526002602052604080822080546001600160a01b0319169055518391906001600160a01b038416907fddf252ad1be2c89b69c2b068fc378daa952ba7f163c4a11628f55a4df523b3ef908390a45050565b81546000908210611f065760405162461bcd60e51b815260206004820152602260248201527f456e756d657261626c655365743a20696e646578206f7574206f6620626f756e604482015261647360f01b6064820152608401610742565b826000018281548110611f2957634e487b7160e01b600052603260045260246000fd5b9060005260206000200154905092915050565b60006001600160a01b0384163b1561203e57604051630a85bd0160e11b81526001600160a01b0385169063150b7a0290611f80903390899088908890600401612717565b602060405180830381600087803b158015611f9a57600080fd5b505af1925050508015611fca575060408051601f3d908101601f19168201909252611fc7918101906125d8565b60015b612024573d808015611ff8576040519150601f19603f3d011682016040523d82523d6000602084013e611ffd565b606091505b50805161201c5760405162461bcd60e51b81526004016107429061275d565b805181602001fd5b6001600160e01b031916630a85bd0160e11b149050610d1f565b506001610d1f565b60608161206b57506040805180820190915260018152600360fc1b602082015261062c565b8160005b8115612095578061207f816129e0565b915061208e9050600a83612818565b915061206f565b60008167ffffffffffffffff8111156120be57634e487b7160e01b600052604160045260246000fd5b6040519080825280601f01601f1916602001820160405280156120e8576020820181803683370190505b5090505b8415610d1f576120fd600183612962565b915061210a600a866129fb565b612115906030612800565b60f81b81838151811061213857634e487b7160e01b600052603260045260246000fd5b60200101906001600160f81b031916908160001a90535061215a600a86612818565b94506120ec565b6001600160a01b0382166121b75760405162461bcd60e51b815260206004820181905260248201527f4552433732313a206d696e7420746f20746865207a65726f20616464726573736044820152606401610742565b6121c081611110565b1561220d5760405162461bcd60e51b815260206004820152601c60248201527f4552433732313a20746f6b656e20616c7265616479206d696e746564000000006044820152606401610742565b6001600160a01b0382166000908152600360205260408120805460019290612236908490612800565b909155505060008181526002602052604080822080546001600160a01b0319166001600160a01b03861690811790915590518392907fddf252ad1be2c89b69c2b068fc378daa952ba7f163c4a11628f55a4df523b3ef908290a45050565b8280546122a0906129a5565b90600052602060002090601f0160209004810192826122c25760008555612308565b82601f106122db57805160ff1916838001178555612308565b82800160010185558215612308579182015b828111156123085782518255916020019190600101906122ed565b50612314929150612350565b5090565b508054612324906129a5565b6000825580601f106123365750611801565b601f01602090049060005260206000209081019061180191905b5b808211156123145760008155600101612351565b600067ffffffffffffffff8084111561238057612380612a3b565b604051601f8501601f19908116603f011681019082821181831017156123a8576123a8612a3b565b816040528093508581528686860111156123c157600080fd5b858560208301376000602087830101525050509392505050565b80356001600160a01b038116811461062c57600080fd5b600082601f830112612402578081fd5b610d3f83833560208501612365565b600060208284031215612422578081fd5b610d3f826123db565b6000806040838503121561243d578081fd5b612446836123db565b9150612454602084016123db565b90509250929050565b600080600060608486031215612471578081fd5b61247a846123db565b9250612488602085016123db565b9150604084013590509250925092565b600080600080608085870312156124ad578081fd5b6124b6856123db565b93506124c4602086016123db565b925060408501359150606085013567ffffffffffffffff8111156124e6578182fd5b6124f2878288016123f2565b91505092959194509250565b60008060408385031215612510578182fd5b612519836123db565b91506020830135801515811461252d578182fd5b809150509250929050565b6000806040838503121561254a578182fd5b612553836123db565b946020939093013593505050565b600060208284031215612572578081fd5b5035919050565b6000806040838503121561258b578182fd5b82359150612454602084016123db565b600080604083850312156125ad578182fd5b50508035926020909101359150565b6000602082840312156125cd578081fd5b8135610ad081612a51565b6000602082840312156125e9578081fd5b8151610ad081612a51565b600080600060608486031215612608578283fd5b833567ffffffffffffffff8082111561261f578485fd5b818601915086601f830112612632578485fd5b61264187833560208501612365565b945061264f602087016123db565b93506040860135915080821115612664578283fd5b50612671868287016123f2565b9150509250925092565b60008151808452612693816020860160208601612979565b601f01601f19169290920160200192915050565b600084516126b9818460208901612979565b6bffffffffffffffffffffffff19606095861b8116919093019081529290931b16601482015260280192915050565b600083516126fa818460208801612979565b83519083019061270e818360208801612979565b01949350505050565b6001600160a01b03858116825284166020820152604081018390526080606082018190526000906114929083018461267b565b600060208252610d3f602083018461267b565b60208082526032908201527f4552433732313a207472616e7366657220746f206e6f6e20455243373231526560408201527131b2b4bb32b91034b6b83632b6b2b73a32b960711b606082015260800190565b60208082526031908201527f4552433732313a207472616e736665722063616c6c6572206973206e6f74206f6040820152701ddb995c881b9bdc88185c1c1c9bdd9959607a1b606082015260800190565b6000821982111561281357612813612a0f565b500190565b60008261282757612827612a25565b500490565b80825b600180861161283e5750612869565b81870482111561285057612850612a0f565b8086161561285d57918102915b9490941c93800261282f565b94509492505050565b6000610d3f60001960ff85168460008261288e57506001610ad0565b8161289b57506000610ad0565b81600181146128b157600281146128bb576128e8565b6001915050610ad0565b60ff8411156128cc576128cc612a0f565b6001841b9150848211156128e2576128e2612a0f565b50610ad0565b5060208310610133831016604e8410600b841016171561291b575081810a8381111561291657612916612a0f565b610ad0565b612928848484600161282c565b80860482111561293a5761293a612a0f565b02949350505050565b600081600019048311821515161561295d5761295d612a0f565b500290565b60008282101561297457612974612a0f565b500390565b60005b8381101561299457818101518382015260200161297c565b83811115610ec45750506000910152565b600181811c908216806129b957607f821691505b602082108114156129da57634e487b7160e01b600052602260045260246000fd5b50919050565b60006000198214156129f4576129f4612a0f565b5060010190565b600082612a0a57612a0a612a25565b500690565b634e487b7160e01b600052601160045260246000fd5b634e487b7160e01b600052601260045260246000fd5b634e487b7160e01b600052604160045260246000fd5b6001600160e01b03198116811461180157600080fdfea2646970667358221220c880d4385fe84717dd2b2a52ddf3fc3cdcdb38d41d745cdd75899d0d741e623a64736f6c63430008030033",
  "devdoc": {
    "kind": "dev",
    "methods": {
      "approve(address,uint256)": {
        "details": "See {IERC721-approve}."
      },
      "balanceOf(address)": {
        "details": "See {IERC721-balanceOf}."
      },
      "getApproved(uint256)": {
        "details": "See {IERC721-getApproved}."
      },
      "getRoleAdmin(bytes32)": {
        "details": "Returns the admin role that controls `role`. See {grantRole} and {revokeRole}. To change a role's admin, use {_setRoleAdmin}."
      },
      "getRoleMember(bytes32,uint256)": {
        "details": "Returns one of the accounts that have `role`. `index` must be a value between 0 and {getRoleMemberCount}, non-inclusive. Role bearers are not sorted in any particular way, and their ordering may change at any point. WARNING: When using {getRoleMember} and {getRoleMemberCount}, make sure you perform all queries on the same block. See the following https://forum.openzeppelin.com/t/iterating-over-elements-on-enumerableset-in-openzeppelin-contracts/2296[forum post] for more information."
      },
      "getRoleMemberCount(bytes32)": {
        "details": "Returns the number of accounts that have `role`. Can be used together with {getRoleMember} to enumerate all bearers of a role."
      },
      "grantRole(bytes32,address)": {
        "details": "Overload {grantRole} to track enumerable memberships"
      },
      "hasRole(bytes32,address)": {
        "details": "Returns `true` if `account` has been granted `role`."
      },
      "isApprovedForAll(address,address)": {
        "details": "See {IERC721-isApprovedForAll}."
      },
      "name()": {
        "details": "See {IERC721Metadata-name}."
      },
      "ownerOf(uint256)": {
        "details": "See {IERC721-ownerOf}."
      },
      "renounceRole(bytes32,address)": {
        "details": "Overload {renounceRole} to track enumerable memberships"
      },
      "revokeRole(bytes32,address)": {
        "details": "Overload {revokeRole} to track enumerable memberships"
      },
      "safeTransferFrom(address,address,uint256)": {
        "details": "See {IERC721-safeTransferFrom}."
      },
      "safeTransferFrom(address,address,uint256,bytes)": {
        "details": "See {IERC721-safeTransferFrom}."
      },
      "setApprovalForAll(address,bool)": {
        "details": "See {IERC721-setApprovalForAll}."
      },
      "symbol()": {
        "details": "See {IERC721Metadata-symbol}."
      },
      "tokenURI(uint256)": {
        "details": "See {IERC721Metadata-tokenURI}."
      },
      "transferFrom(address,address,uint256)": {
        "details": "See {IERC721-transferFrom}."
      }
    },
    "version": 1
  },
  "userdoc": {
    "kind": "user",
    "methods": {},
    "version": 1
  },
  "storageLayout": {
    "storage": [
      {
        "astId": 539,
        "contract": "contracts/ArbArt.sol:ArbArt",
        "label": "_name",
        "offset": 0,
        "slot": "0",
        "type": "t_string_storage"
      },
      {
        "astId": 541,
        "contract": "contracts/ArbArt.sol:ArbArt",
        "label": "_symbol",
        "offset": 0,
        "slot": "1",
        "type": "t_string_storage"
      },
      {
        "astId": 545,
        "contract": "contracts/ArbArt.sol:ArbArt",
        "label": "_owners",
        "offset": 0,
        "slot": "2",
        "type": "t_mapping(t_uint256,t_address)"
      },
      {
        "astId": 549,
        "contract": "contracts/ArbArt.sol:ArbArt",
        "label": "_balances",
        "offset": 0,
        "slot": "3",
        "type": "t_mapping(t_address,t_uint256)"
      },
      {
        "astId": 553,
        "contract": "contracts/ArbArt.sol:ArbArt",
        "label": "_tokenApprovals",
        "offset": 0,
        "slot": "4",
        "type": "t_mapping(t_uint256,t_address)"
      },
      {
        "astId": 559,
        "contract": "contracts/ArbArt.sol:ArbArt",
        "label": "_operatorApprovals",
        "offset": 0,
        "slot": "5",
        "type": "t_mapping(t_address,t_mapping(t_address,t_bool))"
      },
      {
        "astId": 1480,
        "contract": "contracts/ArbArt.sol:ArbArt",
        "label": "_tokenURIs",
        "offset": 0,
        "slot": "6",
        "type": "t_mapping(t_uint256,t_string_storage)"
      },
      {
        "astId": 61,
        "contract": "contracts/ArbArt.sol:ArbArt",
        "label": "_roles",
        "offset": 0,
        "slot": "7",
        "type": "t_mapping(t_bytes32,t_struct(RoleData)56_storage)"
      },
      {
        "astId": 358,
        "contract": "contracts/ArbArt.sol:ArbArt",
        "label": "_roleMembers",
        "offset": 0,
        "slot": "8",
        "type": "t_mapping(t_bytes32,t_struct(AddressSet)2696_storage)"
      },
      {
        "astId": 2953,
        "contract": "contracts/ArbArt.sol:ArbArt",
        "label": "countMint",
        "offset": 0,
        "slot": "9",
        "type": "t_struct(Counter)1978_storage"
      },
      {
        "astId": 2956,
        "contract": "contracts/ArbArt.sol:ArbArt",
        "label": "fees",
        "offset": 0,
        "slot": "10",
        "type": "t_uint256"
      },
      {
        "astId": 2959,
        "contract": "contracts/ArbArt.sol:ArbArt",
        "label": "baseFees",
        "offset": 0,
        "slot": "11",
        "type": "t_uint256"
      },
      {
        "astId": 2961,
        "contract": "contracts/ArbArt.sol:ArbArt",
        "label": "feesReceiver",
        "offset": 0,
        "slot": "12",
        "type": "t_address_payable"
      }
    ],
    "types": {
      "t_address": {
        "encoding": "inplace",
        "label": "address",
        "numberOfBytes": "20"
      },
      "t_address_payable": {
        "encoding": "inplace",
        "label": "address payable",
        "numberOfBytes": "20"
      },
      "t_array(t_bytes32)dyn_storage": {
        "base": "t_bytes32",
        "encoding": "dynamic_array",
        "label": "bytes32[]",
        "numberOfBytes": "32"
      },
      "t_bool": {
        "encoding": "inplace",
        "label": "bool",
        "numberOfBytes": "1"
      },
      "t_bytes32": {
        "encoding": "inplace",
        "label": "bytes32",
        "numberOfBytes": "32"
      },
      "t_mapping(t_address,t_bool)": {
        "encoding": "mapping",
        "key": "t_address",
        "label": "mapping(address => bool)",
        "numberOfBytes": "32",
        "value": "t_bool"
      },
      "t_mapping(t_address,t_mapping(t_address,t_bool))": {
        "encoding": "mapping",
        "key": "t_address",
        "label": "mapping(address => mapping(address => bool))",
        "numberOfBytes": "32",
        "value": "t_mapping(t_address,t_bool)"
      },
      "t_mapping(t_address,t_uint256)": {
        "encoding": "mapping",
        "key": "t_address",
        "label": "mapping(address => uint256)",
        "numberOfBytes": "32",
        "value": "t_uint256"
      },
      "t_mapping(t_bytes32,t_struct(AddressSet)2696_storage)": {
        "encoding": "mapping",
        "key": "t_bytes32",
        "label": "mapping(bytes32 => struct EnumerableSet.AddressSet)",
        "numberOfBytes": "32",
        "value": "t_struct(AddressSet)2696_storage"
      },
      "t_mapping(t_bytes32,t_struct(RoleData)56_storage)": {
        "encoding": "mapping",
        "key": "t_bytes32",
        "label": "mapping(bytes32 => struct AccessControl.RoleData)",
        "numberOfBytes": "32",
        "value": "t_struct(RoleData)56_storage"
      },
      "t_mapping(t_bytes32,t_uint256)": {
        "encoding": "mapping",
        "key": "t_bytes32",
        "label": "mapping(bytes32 => uint256)",
        "numberOfBytes": "32",
        "value": "t_uint256"
      },
      "t_mapping(t_uint256,t_address)": {
        "encoding": "mapping",
        "key": "t_uint256",
        "label": "mapping(uint256 => address)",
        "numberOfBytes": "32",
        "value": "t_address"
      },
      "t_mapping(t_uint256,t_string_storage)": {
        "encoding": "mapping",
        "key": "t_uint256",
        "label": "mapping(uint256 => string)",
        "numberOfBytes": "32",
        "value": "t_string_storage"
      },
      "t_string_storage": {
        "encoding": "bytes",
        "label": "string",
        "numberOfBytes": "32"
      },
      "t_struct(AddressSet)2696_storage": {
        "encoding": "inplace",
        "label": "struct EnumerableSet.AddressSet",
        "members": [
          {
            "astId": 2695,
            "contract": "contracts/ArbArt.sol:ArbArt",
            "label": "_inner",
            "offset": 0,
            "slot": "0",
            "type": "t_struct(Set)2419_storage"
          }
        ],
        "numberOfBytes": "64"
      },
      "t_struct(Counter)1978_storage": {
        "encoding": "inplace",
        "label": "struct Counters.Counter",
        "members": [
          {
            "astId": 1977,
            "contract": "contracts/ArbArt.sol:ArbArt",
            "label": "_value",
            "offset": 0,
            "slot": "0",
            "type": "t_uint256"
          }
        ],
        "numberOfBytes": "32"
      },
      "t_struct(RoleData)56_storage": {
        "encoding": "inplace",
        "label": "struct AccessControl.RoleData",
        "members": [
          {
            "astId": 53,
            "contract": "contracts/ArbArt.sol:ArbArt",
            "label": "members",
            "offset": 0,
            "slot": "0",
            "type": "t_mapping(t_address,t_bool)"
          },
          {
            "astId": 55,
            "contract": "contracts/ArbArt.sol:ArbArt",
            "label": "adminRole",
            "offset": 0,
            "slot": "1",
            "type": "t_bytes32"
          }
        ],
        "numberOfBytes": "64"
      },
      "t_struct(Set)2419_storage": {
        "encoding": "inplace",
        "label": "struct EnumerableSet.Set",
        "members": [
          {
            "astId": 2414,
            "contract": "contracts/ArbArt.sol:ArbArt",
            "label": "_values",
            "offset": 0,
            "slot": "0",
            "type": "t_array(t_bytes32)dyn_storage"
          },
          {
            "astId": 2418,
            "contract": "contracts/ArbArt.sol:ArbArt",
            "label": "_indexes",
            "offset": 0,
            "slot": "1",
            "type": "t_mapping(t_bytes32,t_uint256)"
          }
        ],
        "numberOfBytes": "64"
      },
      "t_uint256": {
        "encoding": "inplace",
        "label": "uint256",
        "numberOfBytes": "32"
      }
    }
  }
}