{
  "address": "0x6529888e14634937B0fb19cca58a38Ed63c56d9e",
  "abi": [
    {
      "inputs": [
        {
          "internalType": "address",
          "name": "_manager",
          "type": "address"
        },
        {
          "internalType": "address payable",
          "name": "_fessReceiver",
          "type": "address"
        }
      ],
      "stateMutability": "nonpayable",
      "type": "constructor"
    },
    {
      "anonymous": false,
      "inputs": [
        {
          "indexed": true,
          "internalType": "address",
          "name": "owner",
          "type": "address"
        },
        {
          "indexed": true,
          "internalType": "address",
          "name": "approved",
          "type": "address"
        },
        {
          "indexed": true,
          "internalType": "uint256",
          "name": "tokenId",
          "type": "uint256"
        }
      ],
      "name": "Approval",
      "type": "event"
    },
    {
      "anonymous": false,
      "inputs": [
        {
          "indexed": true,
          "internalType": "address",
          "name": "owner",
          "type": "address"
        },
        {
          "indexed": true,
          "internalType": "address",
          "name": "operator",
          "type": "address"
        },
        {
          "indexed": false,
          "internalType": "bool",
          "name": "approved",
          "type": "bool"
        }
      ],
      "name": "ApprovalForAll",
      "type": "event"
    },
    {
      "anonymous": false,
      "inputs": [
        {
          "indexed": true,
          "internalType": "bytes32",
          "name": "role",
          "type": "bytes32"
        },
        {
          "indexed": true,
          "internalType": "bytes32",
          "name": "previousAdminRole",
          "type": "bytes32"
        },
        {
          "indexed": true,
          "internalType": "bytes32",
          "name": "newAdminRole",
          "type": "bytes32"
        }
      ],
      "name": "RoleAdminChanged",
      "type": "event"
    },
    {
      "anonymous": false,
      "inputs": [
        {
          "indexed": true,
          "internalType": "bytes32",
          "name": "role",
          "type": "bytes32"
        },
        {
          "indexed": true,
          "internalType": "address",
          "name": "account",
          "type": "address"
        },
        {
          "indexed": true,
          "internalType": "address",
          "name": "sender",
          "type": "address"
        }
      ],
      "name": "RoleGranted",
      "type": "event"
    },
    {
      "anonymous": false,
      "inputs": [
        {
          "indexed": true,
          "internalType": "bytes32",
          "name": "role",
          "type": "bytes32"
        },
        {
          "indexed": true,
          "internalType": "address",
          "name": "account",
          "type": "address"
        },
        {
          "indexed": true,
          "internalType": "address",
          "name": "sender",
          "type": "address"
        }
      ],
      "name": "RoleRevoked",
      "type": "event"
    },
    {
      "anonymous": false,
      "inputs": [
        {
          "indexed": true,
          "internalType": "address",
          "name": "from",
          "type": "address"
        },
        {
          "indexed": true,
          "internalType": "address",
          "name": "to",
          "type": "address"
        },
        {
          "indexed": true,
          "internalType": "uint256",
          "name": "tokenId",
          "type": "uint256"
        }
      ],
      "name": "Transfer",
      "type": "event"
    },
    {
      "inputs": [],
      "name": "DEFAULT_ADMIN_ROLE",
      "outputs": [
        {
          "internalType": "bytes32",
          "name": "",
          "type": "bytes32"
        }
      ],
      "stateMutability": "view",
      "type": "function"
    },
    {
      "inputs": [],
      "name": "MANAGER_ROLE",
      "outputs": [
        {
          "internalType": "bytes32",
          "name": "",
          "type": "bytes32"
        }
      ],
      "stateMutability": "view",
      "type": "function"
    },
    {
      "inputs": [
        {
          "internalType": "address",
          "name": "to",
          "type": "address"
        },
        {
          "internalType": "uint256",
          "name": "tokenId",
          "type": "uint256"
        }
      ],
      "name": "approve",
      "outputs": [],
      "stateMutability": "nonpayable",
      "type": "function"
    },
    {
      "inputs": [
        {
          "internalType": "address",
          "name": "owner",
          "type": "address"
        }
      ],
      "name": "balanceOf",
      "outputs": [
        {
          "internalType": "uint256",
          "name": "",
          "type": "uint256"
        }
      ],
      "stateMutability": "view",
      "type": "function"
    },
    {
      "inputs": [
        {
          "internalType": "uint256",
          "name": "_tokenId",
          "type": "uint256"
        }
      ],
      "name": "burn",
      "outputs": [
        {
          "internalType": "bool",
          "name": "",
          "type": "bool"
        }
      ],
      "stateMutability": "nonpayable",
      "type": "function"
    },
    {
      "inputs": [],
      "name": "currentBurnPrice",
      "outputs": [
        {
          "internalType": "uint256",
          "name": "",
          "type": "uint256"
        }
      ],
      "stateMutability": "view",
      "type": "function"
    },
    {
      "inputs": [],
      "name": "currentMintPrice",
      "outputs": [
        {
          "internalType": "uint256",
          "name": "",
          "type": "uint256"
        },
        {
          "internalType": "uint256",
          "name": "",
          "type": "uint256"
        }
      ],
      "stateMutability": "view",
      "type": "function"
    },
    {
      "inputs": [],
      "name": "currentMintWithFeesPrice",
      "outputs": [
        {
          "internalType": "uint256",
          "name": "",
          "type": "uint256"
        }
      ],
      "stateMutability": "view",
      "type": "function"
    },
    {
      "inputs": [],
      "name": "currentPrice",
      "outputs": [
        {
          "internalType": "uint256",
          "name": "",
          "type": "uint256"
        }
      ],
      "stateMutability": "view",
      "type": "function"
    },
    {
      "inputs": [
        {
          "internalType": "uint256",
          "name": "tokenId",
          "type": "uint256"
        }
      ],
      "name": "getApproved",
      "outputs": [
        {
          "internalType": "address",
          "name": "",
          "type": "address"
        }
      ],
      "stateMutability": "view",
      "type": "function"
    },
    {
      "inputs": [
        {
          "internalType": "bytes32",
          "name": "role",
          "type": "bytes32"
        }
      ],
      "name": "getRoleAdmin",
      "outputs": [
        {
          "internalType": "bytes32",
          "name": "",
          "type": "bytes32"
        }
      ],
      "stateMutability": "view",
      "type": "function"
    },
    {
      "inputs": [
        {
          "internalType": "bytes32",
          "name": "role",
          "type": "bytes32"
        },
        {
          "internalType": "uint256",
          "name": "index",
          "type": "uint256"
        }
      ],
      "name": "getRoleMember",
      "outputs": [
        {
          "internalType": "address",
          "name": "",
          "type": "address"
        }
      ],
      "stateMutability": "view",
      "type": "function"
    },
    {
      "inputs": [
        {
          "internalType": "bytes32",
          "name": "role",
          "type": "bytes32"
        }
      ],
      "name": "getRoleMemberCount",
      "outputs": [
        {
          "internalType": "uint256",
          "name": "",
          "type": "uint256"
        }
      ],
      "stateMutability": "view",
      "type": "function"
    },
    {
      "inputs": [
        {
          "internalType": "bytes32",
          "name": "role",
          "type": "bytes32"
        },
        {
          "internalType": "address",
          "name": "account",
          "type": "address"
        }
      ],
      "name": "grantRole",
      "outputs": [],
      "stateMutability": "nonpayable",
      "type": "function"
    },
    {
      "inputs": [
        {
          "internalType": "bytes32",
          "name": "role",
          "type": "bytes32"
        },
        {
          "internalType": "address",
          "name": "account",
          "type": "address"
        }
      ],
      "name": "hasRole",
      "outputs": [
        {
          "internalType": "bool",
          "name": "",
          "type": "bool"
        }
      ],
      "stateMutability": "view",
      "type": "function"
    },
    {
      "inputs": [
        {
          "internalType": "address",
          "name": "owner",
          "type": "address"
        },
        {
          "internalType": "address",
          "name": "operator",
          "type": "address"
        }
      ],
      "name": "isApprovedForAll",
      "outputs": [
        {
          "internalType": "bool",
          "name": "",
          "type": "bool"
        }
      ],
      "stateMutability": "view",
      "type": "function"
    },
    {
      "inputs": [
        {
          "internalType": "string",
          "name": "_uri",
          "type": "string"
        },
        {
          "internalType": "address",
          "name": "_signer",
          "type": "address"
        },
        {
          "internalType": "bytes",
          "name": "_signature",
          "type": "bytes"
        }
      ],
      "name": "mint",
      "outputs": [
        {
          "internalType": "uint256",
          "name": "_tokenId",
          "type": "uint256"
        }
      ],
      "stateMutability": "payable",
      "type": "function"
    },
    {
      "inputs": [
        {
          "internalType": "uint256",
          "name": "_current",
          "type": "uint256"
        }
      ],
      "name": "mintPriceFor",
      "outputs": [
        {
          "internalType": "uint256",
          "name": "_currentPrice",
          "type": "uint256"
        },
        {
          "internalType": "uint256",
          "name": "_fees",
          "type": "uint256"
        }
      ],
      "stateMutability": "view",
      "type": "function"
    },
    {
      "inputs": [
        {
          "internalType": "uint256",
          "name": "_current",
          "type": "uint256"
        }
      ],
      "name": "mintWithFeesPriceFor",
      "outputs": [
        {
          "internalType": "uint256",
          "name": "",
          "type": "uint256"
        }
      ],
      "stateMutability": "view",
      "type": "function"
    },
    {
      "inputs": [],
      "name": "name",
      "outputs": [
        {
          "internalType": "string",
          "name": "",
          "type": "string"
        }
      ],
      "stateMutability": "view",
      "type": "function"
    },
    {
      "inputs": [
        {
          "internalType": "uint256",
          "name": "tokenId",
          "type": "uint256"
        }
      ],
      "name": "ownerOf",
      "outputs": [
        {
          "internalType": "address",
          "name": "",
          "type": "address"
        }
      ],
      "stateMutability": "view",
      "type": "function"
    },
    {
      "inputs": [
        {
          "internalType": "uint256",
          "name": "_current",
          "type": "uint256"
        }
      ],
      "name": "priceFor",
      "outputs": [
        {
          "internalType": "uint256",
          "name": "",
          "type": "uint256"
        }
      ],
      "stateMutability": "view",
      "type": "function"
    },
    {
      "inputs": [
        {
          "internalType": "bytes32",
          "name": "role",
          "type": "bytes32"
        },
        {
          "internalType": "address",
          "name": "account",
          "type": "address"
        }
      ],
      "name": "renounceRole",
      "outputs": [],
      "stateMutability": "nonpayable",
      "type": "function"
    },
    {
      "inputs": [
        {
          "internalType": "bytes32",
          "name": "role",
          "type": "bytes32"
        },
        {
          "internalType": "address",
          "name": "account",
          "type": "address"
        }
      ],
      "name": "revokeRole",
      "outputs": [],
      "stateMutability": "nonpayable",
      "type": "function"
    },
    {
      "inputs": [
        {
          "internalType": "address",
          "name": "from",
          "type": "address"
        },
        {
          "internalType": "address",
          "name": "to",
          "type": "address"
        },
        {
          "internalType": "uint256",
          "name": "tokenId",
          "type": "uint256"
        }
      ],
      "name": "safeTransferFrom",
      "outputs": [],
      "stateMutability": "nonpayable",
      "type": "function"
    },
    {
      "inputs": [
        {
          "internalType": "address",
          "name": "from",
          "type": "address"
        },
        {
          "internalType": "address",
          "name": "to",
          "type": "address"
        },
        {
          "internalType": "uint256",
          "name": "tokenId",
          "type": "uint256"
        },
        {
          "internalType": "bytes",
          "name": "_data",
          "type": "bytes"
        }
      ],
      "name": "safeTransferFrom",
      "outputs": [],
      "stateMutability": "nonpayable",
      "type": "function"
    },
    {
      "inputs": [
        {
          "internalType": "address",
          "name": "operator",
          "type": "address"
        },
        {
          "internalType": "bool",
          "name": "approved",
          "type": "bool"
        }
      ],
      "name": "setApprovalForAll",
      "outputs": [],
      "stateMutability": "nonpayable",
      "type": "function"
    },
    {
      "inputs": [
        {
          "internalType": "bytes4",
          "name": "interfaceId",
          "type": "bytes4"
        }
      ],
      "name": "supportsInterface",
      "outputs": [
        {
          "internalType": "bool",
          "name": "",
          "type": "bool"
        }
      ],
      "stateMutability": "view",
      "type": "function"
    },
    {
      "inputs": [],
      "name": "symbol",
      "outputs": [
        {
          "internalType": "string",
          "name": "",
          "type": "string"
        }
      ],
      "stateMutability": "view",
      "type": "function"
    },
    {
      "inputs": [
        {
          "internalType": "uint256",
          "name": "tokenId",
          "type": "uint256"
        }
      ],
      "name": "tokenURI",
      "outputs": [
        {
          "internalType": "string",
          "name": "",
          "type": "string"
        }
      ],
      "stateMutability": "view",
      "type": "function"
    },
    {
      "inputs": [
        {
          "internalType": "address",
          "name": "from",
          "type": "address"
        },
        {
          "internalType": "address",
          "name": "to",
          "type": "address"
        },
        {
          "internalType": "uint256",
          "name": "tokenId",
          "type": "uint256"
        }
      ],
      "name": "transferFrom",
      "outputs": [],
      "stateMutability": "nonpayable",
      "type": "function"
    }
  ],
  "transactionHash": "0xec3fb0fc670eec6fd677af54662424d8fcceab46a9366be00245f227e74e8948",
  "args": [
    "0xE4D29ec42F4057EfF92c9124c82844b2689f9C6d",
    "0x91a5D3bCe5317D5579E780d67021fEc692575d1d"
  ],
  "solcInputHash": "cc213a55ba64f4cb6b871b2fd2353098",
  "bytecode": "0x6080604052600a80556064600b553480156200001a57600080fd5b506040516200303c3803806200303c8339810160408190526200003d9162000339565b6040805180820182526006815265105c98905c9d60d21b6020808301918252835180850190945260048452631054909560e21b908401528151919291620000879160009162000293565b5080516200009d90600190602084019062000293565b505050620000d27f241ecf16d79d0f8dbfb92cbc07fe17840425976cf0667f022fe9877caa831b0883620000fe60201b60201c565b600c80546001600160a01b0319166001600160a01b0392909216919091179055506001600955620003cd565b6200011582826200014160201b62000dca1760201c565b60008281526008602090815260409091206200013c91839062000dd862000151821b17901c565b505050565b6200014d828262000171565b5050565b600062000168836001600160a01b038416620001fd565b90505b92915050565b6200017d82826200024c565b6200014d5760008281526007602090815260408083206001600160a01b03851684529091529020805460ff19166001179055620001b962000277565b6001600160a01b0316816001600160a01b0316837f2f8788117e7eff1d82e926ec794901d17c78024a50270940304540a733656f0d60405160405180910390a45050565b60006200020b83836200027b565b62000243575081546001818101845560008481526020808220909301849055845484825282860190935260409020919091556200016b565b5060006200016b565b60009182526007602090815260408084206001600160a01b0393909316845291905290205460ff1690565b3390565b60009081526001919091016020526040902054151590565b828054620002a19062000377565b90600052602060002090601f016020900481019282620002c5576000855562000310565b82601f10620002e057805160ff191683800117855562000310565b8280016001018555821562000310579182015b8281111562000310578251825591602001919060010190620002f3565b506200031e92915062000322565b5090565b5b808211156200031e576000815560010162000323565b600080604083850312156200034c578182fd5b82516200035981620003b4565b60208401519092506200036c81620003b4565b809150509250929050565b6002810460018216806200038c57607f821691505b60208210811415620003ae57634e487b7160e01b600052602260045260246000fd5b50919050565b6001600160a01b0381168114620003ca57600080fd5b50565b612c5f80620003dd6000396000f3fe6080604052600436106101d85760003560e01c80638d5555f211610102578063a22cb46511610095578063d547741f11610064578063d547741f1461053b578063e985e9c51461055b578063ec87621c1461057b578063f620c81514610590576101d8565b8063a22cb465146104bb578063b88d4fde146104db578063c87b56dd146104fb578063ca15c8731461051b576101d8565b806395d89b41116100d157806395d89b411461045c57806399f7ab31146104715780639d1b464a14610491578063a217fddf146104a6576101d8565b80638d5555f2146103dc5780638def9f82146103fc5780639010d07c1461041c57806391d148541461043c576101d8565b8063251a701a1161017a57806342966c681161014957806342966c68146103675780636352211e1461038757806370a08231146103a757806377119765146103c7576101d8565b8063251a701a146102f45780632f2ff15d1461030757806336568abe1461032757806342842e0e14610347576101d8565b8063081812fc116101b6578063081812fc14610258578063095ea7b31461028557806323b872dd146102a7578063248a9ca3146102c7576101d8565b806301ffc9a7146101dd5780630561942a1461021357806306fdde0314610236575b600080fd5b3480156101e957600080fd5b506101fd6101f8366004611f45565b6105a5565b60405161020a919061211b565b60405180910390f35b34801561021f57600080fd5b506102286105c7565b60405161020a9291906129b4565b34801561024257600080fd5b5061024b6105df565b60405161020a919061214d565b34801561026457600080fd5b50610278610273366004611eea565b610671565b60405161020a91906120d4565b34801561029157600080fd5b506102a56102a0366004611ec1565b6106bd565b005b3480156102b357600080fd5b506102a56102c2366004611de6565b610755565b3480156102d357600080fd5b506102e76102e2366004611eea565b61078d565b60405161020a9190612126565b6102e7610302366004611f7d565b6107a2565b34801561031357600080fd5b506102a5610322366004611f02565b6108dc565b34801561033357600080fd5b506102a5610342366004611f02565b6108fe565b34801561035357600080fd5b506102a5610362366004611de6565b610920565b34801561037357600080fd5b506101fd610382366004611eea565b61093b565b34801561039357600080fd5b506102786103a2366004611eea565b610999565b3480156103b357600080fd5b506102e76103c2366004611d9a565b6109ce565b3480156103d357600080fd5b506102e7610a12565b3480156103e857600080fd5b506102e76103f7366004611eea565b610a32565b34801561040857600080fd5b506102e7610417366004611eea565b610a5e565b34801561042857600080fd5b50610278610437366004611f24565b610a83565b34801561044857600080fd5b506101fd610457366004611f02565b610aa4565b34801561046857600080fd5b5061024b610acf565b34801561047d57600080fd5b5061022861048c366004611eea565b610ade565b34801561049d57600080fd5b506102e7610b0e565b3480156104b257600080fd5b506102e7610b1d565b3480156104c757600080fd5b506102a56104d6366004611e87565b610b22565b3480156104e757600080fd5b506102a56104f6366004611e21565b610bf0565b34801561050757600080fd5b5061024b610516366004611eea565b610c2f565b34801561052757600080fd5b506102e7610536366004611eea565b610d48565b34801561054757600080fd5b506102a5610556366004611f02565b610d5f565b34801561056757600080fd5b506101fd610576366004611db4565b610d69565b34801561058757600080fd5b506102e7610d97565b34801561059c57600080fd5b506102e7610dbb565b60006105b082610ded565b806105bf57506105bf82610e12565b90505b919050565b6000806105d761048c6009610e52565b915091509091565b6060600080546105ee90612b67565b80601f016020809104026020016040519081016040528092919081815260200182805461061a90612b67565b80156106675780601f1061063c57610100808354040283529160200191610667565b820191906000526020600020905b81548152906001019060200180831161064a57829003601f168201915b5050505050905090565b600061067c82610e56565b6106a15760405162461bcd60e51b8152600401610698906127ef565b60405180910390fd5b506000908152600460205260409020546001600160a01b031690565b60006106c882610999565b9050806001600160a01b0316836001600160a01b031614156106fc5760405162461bcd60e51b8152600401610698906128d3565b806001600160a01b031661070e610e73565b6001600160a01b0316148061072a575061072a81610576610e73565b6107465760405162461bcd60e51b81526004016106989061259e565b6107508383610e77565b505050565b610766610760610e73565b82610ee5565b6107825760405162461bcd60e51b815260040161069890612914565b610750838383610f62565b60009081526007602052604090206001015490565b60006107ce7f241ecf16d79d0f8dbfb92cbc07fe17840425976cf0667f022fe9877caa831b0884610aa4565b6107ea5760405162461bcd60e51b8152600401610698906126dc565b600084338560405160200161080193929190612030565b6040516020818303038152906040529050600061082e84610828848051906020012061108f565b906110bf565b9050806001600160a01b0316856001600160a01b0316146108615760405162461bcd60e51b815260040161069890612517565b60008061086c6105c7565b909250905061087b81836129c2565b34146108995760405162461bcd60e51b8152600401610698906122e8565b6108a3600961110a565b3394506108b08580611113565b6108ba858961112d565b600c546108d0906001600160a01b031682611171565b505050505b9392505050565b6108e6828261120d565b60008281526008602052604090206107509082610dd8565b610908828261123d565b6000828152600860205260409020610750908261127f565b61075083838360405180602001604052806000815250610bf0565b60003361094783610999565b6001600160a01b03161461096d5760405162461bcd60e51b815260040161069890612393565b6109776009611294565b610980826112bb565b6109913361098c610b0e565b611171565b506001919050565b6000818152600260205260408120546001600160a01b0316806105bf5760405162461bcd60e51b815260040161069890612645565b60006001600160a01b0382166109f65760405162461bcd60e51b8152600401610698906125fb565b506001600160a01b031660009081526003602052604090205490565b6000610a2d6001610a236009610e52565b6103f79190612b24565b905090565b6000612710610a42600284612a34565b610a5490670de0b6b3a7640000612b05565b6105bf91906129da565b6000806000610a6c84610ade565b9092509050610a7b81836129c2565b949350505050565b6000828152600860205260408120610a9b90836112fe565b90505b92915050565b60009182526007602090815260408084206001600160a01b0393909316845291905290205460ff1690565b6060600180546105ee90612b67565b600080610aea83610a32565b9150600b54600a5483610afd9190612b05565b610b0791906129da565b9050915091565b6000610a2d6103f76009610e52565b600081565b610b2a610e73565b6001600160a01b0316826001600160a01b03161415610b5b5760405162461bcd60e51b8152600401610698906123be565b8060056000610b68610e73565b6001600160a01b03908116825260208083019390935260409182016000908120918716808252919093529120805460ff191692151592909217909155610bac610e73565b6001600160a01b03167f17307eab39ab6107e8899845ad3d59bd9653f200f220920489ca2b5937696c3183604051610be4919061211b565b60405180910390a35050565b610c01610bfb610e73565b83610ee5565b610c1d5760405162461bcd60e51b815260040161069890612914565b610c298484848461130a565b50505050565b6060610c3a82610e56565b610c565760405162461bcd60e51b81526004016106989061279e565b60008281526006602052604081208054610c6f90612b67565b80601f0160208091040260200160405190810160405280929190818152602001828054610c9b90612b67565b8015610ce85780601f10610cbd57610100808354040283529160200191610ce8565b820191906000526020600020905b815481529060010190602001808311610ccb57829003601f168201915b505050505090506000610cf961133d565b9050805160001415610d0d575090506105c2565b815115610d3f578082604051602001610d27929190612071565b604051602081830303815290604052925050506105c2565b610a7b8461135e565b60008181526008602052604081206105bf906113e0565b61090882826113eb565b6001600160a01b03918216600090815260056020908152604080832093909416825291909152205460ff1690565b7f241ecf16d79d0f8dbfb92cbc07fe17840425976cf0667f022fe9877caa831b0881565b6000610a2d6104176009610e52565b610dd48282611413565b5050565b6000610a9b836001600160a01b03841661149a565b60006001600160e01b03198216635a05180f60e01b14806105bf57506105bf826114e4565b60006001600160e01b031982166380ac58cd60e01b1480610e4357506001600160e01b03198216635b5e139f60e01b145b806105bf57506105bf82611509565b5490565b6000908152600260205260409020546001600160a01b0316151590565b3390565b600081815260046020526040902080546001600160a01b0319166001600160a01b0384169081179091558190610eac82610999565b6001600160a01b03167f8c5be1e5ebec7d5bd14f71427d1e84f3dd0314c0f7b2291e5b200ac8c7c3b92560405160405180910390a45050565b6000610ef082610e56565b610f0c5760405162461bcd60e51b8152600401610698906124cb565b6000610f1783610999565b9050806001600160a01b0316846001600160a01b03161480610f525750836001600160a01b0316610f4784610671565b6001600160a01b0316145b80610a7b5750610a7b8185610d69565b826001600160a01b0316610f7582610999565b6001600160a01b031614610f9b5760405162461bcd60e51b81526004016106989061283b565b6001600160a01b038216610fc15760405162461bcd60e51b81526004016106989061234f565b610fcc838383610750565b610fd7600082610e77565b6001600160a01b0383166000908152600360205260408120805460019290611000908490612b24565b90915550506001600160a01b038216600090815260036020526040812080546001929061102e9084906129c2565b909155505060008181526002602052604080822080546001600160a01b0319166001600160a01b0386811691821790925591518493918716917fddf252ad1be2c89b69c2b068fc378daa952ba7f163c4a11628f55a4df523b3ef91a4505050565b6000816040516020016110a291906120a0565b604051602081830303815290604052805190602001209050919050565b600081516041146110e25760405162461bcd60e51b815260040161069890612228565b60208201516040830151606084015160001a61110086828585611522565b9695505050505050565b80546001019055565b610dd4828260405180602001604052806000815250611618565b61113682610e56565b6111525760405162461bcd60e51b81526004016106989061268e565b6000828152600660209081526040909120825161075092840190611c1d565b804710156111915760405162461bcd60e51b815260040161069890612494565b6000826001600160a01b0316826040516111aa906120d1565b60006040518083038185875af1925050503d80600081146111e7576040519150601f19603f3d011682016040523d82523d6000602084013e6111ec565b606091505b50509050806107505760405162461bcd60e51b8152600401610698906123f5565b6112216112198361078d565b610457610e73565b610dca5760405162461bcd60e51b8152600401610698906121d9565b611245610e73565b6001600160a01b0316816001600160a01b0316146112755760405162461bcd60e51b815260040161069890612965565b610dd4828261164b565b6000610a9b836001600160a01b0384166116d0565b8054806112b35760405162461bcd60e51b81526004016106989061225f565b600019019055565b6112c4816117ed565b600081815260066020526040902080546112dd90612b67565b1590506112fb5760008181526006602052604081206112fb91611ca1565b50565b6000610a9b8383611894565b611315848484610f62565b611321848484846118ed565b610c295760405162461bcd60e51b815260040161069890612296565b604080518082019091526007815266697066733a2f2f60c81b602082015290565b606061136982610e56565b6113855760405162461bcd60e51b815260040161069890612884565b600061138f61133d565b905060008151116113af57604051806020016040528060008152506108d5565b806113b984611a05565b6040516020016113ca929190612071565b6040516020818303038152906040529392505050565b60006105bf82610e52565b6113f76112198361078d565b6112755760405162461bcd60e51b81526004016106989061254e565b61141d8282610aa4565b610dd45760008281526007602090815260408083206001600160a01b03851684529091529020805460ff19166001179055611456610e73565b6001600160a01b0316816001600160a01b0316837f2f8788117e7eff1d82e926ec794901d17c78024a50270940304540a733656f0d60405160405180910390a45050565b60006114a68383611b20565b6114dc57508154600181810184556000848152602080822090930184905584548482528286019093526040902091909155610a9e565b506000610a9e565b60006001600160e01b03198216637965db0b60e01b14806105bf57506105bf82610e12565b6001600160e01b031981166301ffc9a760e01b14919050565b60007f7fffffffffffffffffffffffffffffff5d576e7357a4501ddfe92f46681b20a08211156115645760405162461bcd60e51b815260040161069890612452565b8360ff16601b148061157957508360ff16601c145b6115955760405162461bcd60e51b815260040161069890612727565b6000600186868686604051600081526020016040526040516115ba949392919061212f565b6020604051602081039080840390855afa1580156115dc573d6000803e3d6000fd5b5050604051601f1901519150506001600160a01b03811661160f5760405162461bcd60e51b815260040161069890612160565b95945050505050565b6116228383611b38565b61162f60008484846118ed565b6107505760405162461bcd60e51b815260040161069890612296565b6116558282610aa4565b15610dd45760008281526007602090815260408083206001600160a01b03851684529091529020805460ff1916905561168c610e73565b6001600160a01b0316816001600160a01b0316837ff6391f5c32d9c69d2a47ea670b442974b53935d1edc7fd64eb21e047a839171b60405160405180910390a45050565b600081815260018301602052604081205480156117e35760006116f4600183612b24565b855490915060009061170890600190612b24565b9050600086600001828154811061172f57634e487b7160e01b600052603260045260246000fd5b906000526020600020015490508087600001848154811061176057634e487b7160e01b600052603260045260246000fd5b6000918252602090912001556117778360016129c2565b600082815260018901602052604090205586548790806117a757634e487b7160e01b600052603160045260246000fd5b60019003818190600052602060002001600090559055866001016000878152602001908152602001600020600090556001945050505050610a9e565b6000915050610a9e565b60006117f882610999565b905061180681600084610750565b611811600083610e77565b6001600160a01b038116600090815260036020526040812080546001929061183a908490612b24565b909155505060008281526002602052604080822080546001600160a01b0319169055518391906001600160a01b038416907fddf252ad1be2c89b69c2b068fc378daa952ba7f163c4a11628f55a4df523b3ef908390a45050565b815460009082106118b75760405162461bcd60e51b815260040161069890612197565b8260000182815481106118da57634e487b7160e01b600052603260045260246000fd5b9060005260206000200154905092915050565b6000611901846001600160a01b0316611c17565b156119fd57836001600160a01b031663150b7a0261191d610e73565b8786866040518563ffffffff1660e01b815260040161193f94939291906120e8565b602060405180830381600087803b15801561195957600080fd5b505af1925050508015611989575060408051601f3d908101601f1916820190925261198691810190611f61565b60015b6119e3573d8080156119b7576040519150601f19603f3d011682016040523d82523d6000602084013e6119bc565b606091505b5080516119db5760405162461bcd60e51b815260040161069890612296565b805181602001fd5b6001600160e01b031916630a85bd0160e11b149050610a7b565b506001610a7b565b606081611a2a57506040805180820190915260018152600360fc1b60208201526105c2565b8160005b8115611a545780611a3e81612ba2565b9150611a4d9050600a836129da565b9150611a2e565b60008167ffffffffffffffff811115611a7d57634e487b7160e01b600052604160045260246000fd5b6040519080825280601f01601f191660200182016040528015611aa7576020820181803683370190505b5090505b8415610a7b57611abc600183612b24565b9150611ac9600a86612bbd565b611ad49060306129c2565b60f81b818381518110611af757634e487b7160e01b600052603260045260246000fd5b60200101906001600160f81b031916908160001a905350611b19600a866129da565b9450611aab565b60009081526001919091016020526040902054151590565b6001600160a01b038216611b5e5760405162461bcd60e51b815260040161069890612769565b611b6781610e56565b15611b845760405162461bcd60e51b815260040161069890612318565b611b9060008383610750565b6001600160a01b0382166000908152600360205260408120805460019290611bb99084906129c2565b909155505060008181526002602052604080822080546001600160a01b0319166001600160a01b03861690811790915590518392907fddf252ad1be2c89b69c2b068fc378daa952ba7f163c4a11628f55a4df523b3ef908290a45050565b3b151590565b828054611c2990612b67565b90600052602060002090601f016020900481019282611c4b5760008555611c91565b82601f10611c6457805160ff1916838001178555611c91565b82800160010185558215611c91579182015b82811115611c91578251825591602001919060010190611c76565b50611c9d929150611cd9565b5090565b508054611cad90612b67565b6000825580601f10611cbf57506112fb565b601f0160209004906000526020600020908101906112fb91905b5b80821115611c9d5760008155600101611cda565b600067ffffffffffffffff80841115611d0957611d09612bfd565b604051601f8501601f19908116603f01168101908282118183101715611d3157611d31612bfd565b81604052809350858152868686011115611d4a57600080fd5b858560208301376000602087830101525050509392505050565b80356001600160a01b03811681146105c257600080fd5b600082601f830112611d8b578081fd5b610a9b83833560208501611cee565b600060208284031215611dab578081fd5b610a9b82611d64565b60008060408385031215611dc6578081fd5b611dcf83611d64565b9150611ddd60208401611d64565b90509250929050565b600080600060608486031215611dfa578081fd5b611e0384611d64565b9250611e1160208501611d64565b9150604084013590509250925092565b60008060008060808587031215611e36578081fd5b611e3f85611d64565b9350611e4d60208601611d64565b925060408501359150606085013567ffffffffffffffff811115611e6f578182fd5b611e7b87828801611d7b565b91505092959194509250565b60008060408385031215611e99578182fd5b611ea283611d64565b915060208301358015158114611eb6578182fd5b809150509250929050565b60008060408385031215611ed3578182fd5b611edc83611d64565b946020939093013593505050565b600060208284031215611efb578081fd5b5035919050565b60008060408385031215611f14578182fd5b82359150611ddd60208401611d64565b60008060408385031215611f36578182fd5b50508035926020909101359150565b600060208284031215611f56578081fd5b81356108d581612c13565b600060208284031215611f72578081fd5b81516108d581612c13565b600080600060608486031215611f91578283fd5b833567ffffffffffffffff80821115611fa8578485fd5b818601915086601f830112611fbb578485fd5b611fca87833560208501611cee565b9450611fd860208701611d64565b93506040860135915080821115611fed578283fd5b50611ffa86828701611d7b565b9150509250925092565b6000815180845261201c816020860160208601612b3b565b601f01601f19169290920160200192915050565b60008451612042818460208901612b3b565b6bffffffffffffffffffffffff19606095861b8116919093019081529290931b16601482015260280192915050565b60008351612083818460208801612b3b565b835190830190612097818360208801612b3b565b01949350505050565b7f19457468657265756d205369676e6564204d6573736167653a0a3332000000008152601c810191909152603c0190565b90565b6001600160a01b0391909116815260200190565b6001600160a01b038581168252841660208201526040810183905260806060820181905260009061110090830184612004565b901515815260200190565b90815260200190565b93845260ff9290921660208401526040830152606082015260800190565b600060208252610a9b6020830184612004565b60208082526018908201527f45434453413a20696e76616c6964207369676e61747572650000000000000000604082015260600190565b60208082526022908201527f456e756d657261626c655365743a20696e646578206f7574206f6620626f756e604082015261647360f01b606082015260800190565b6020808252602f908201527f416363657373436f6e74726f6c3a2073656e646572206d75737420626520616e60408201526e0818591b5a5b881d1bc819dc985b9d608a1b606082015260800190565b6020808252601f908201527f45434453413a20696e76616c6964207369676e6174757265206c656e67746800604082015260600190565b6020808252601b908201527f436f756e7465723a2064656372656d656e74206f766572666c6f770000000000604082015260600190565b60208082526032908201527f4552433732313a207472616e7366657220746f206e6f6e20455243373231526560408201527131b2b4bb32b91034b6b83632b6b2b73a32b960711b606082015260800190565b602080825260169082015275105c98905c9d0e88185b5bdd5b9d081a5b9d985b1a5960521b604082015260600190565b6020808252601c908201527f4552433732313a20746f6b656e20616c7265616479206d696e74656400000000604082015260600190565b60208082526024908201527f4552433732313a207472616e7366657220746f20746865207a65726f206164646040820152637265737360e01b606082015260800190565b60208082526011908201527020b93120b93a1d103737ba1037bbb732b960791b604082015260600190565b60208082526019908201527f4552433732313a20617070726f766520746f2063616c6c657200000000000000604082015260600190565b6020808252603a908201527f416464726573733a20756e61626c6520746f2073656e642076616c75652c207260408201527f6563697069656e74206d61792068617665207265766572746564000000000000606082015260800190565b60208082526022908201527f45434453413a20696e76616c6964207369676e6174757265202773272076616c604082015261756560f01b606082015260800190565b6020808252601d908201527f416464726573733a20696e73756666696369656e742062616c616e6365000000604082015260600190565b6020808252602c908201527f4552433732313a206f70657261746f7220717565727920666f72206e6f6e657860408201526b34b9ba32b73a103a37b5b2b760a11b606082015260800190565b60208082526019908201527f496e76616c6964207265636f7665726564206164647265737300000000000000604082015260600190565b60208082526030908201527f416363657373436f6e74726f6c3a2073656e646572206d75737420626520616e60408201526f2061646d696e20746f207265766f6b6560801b606082015260800190565b60208082526038908201527f4552433732313a20617070726f76652063616c6c6572206973206e6f74206f7760408201527f6e6572206e6f7220617070726f76656420666f7220616c6c0000000000000000606082015260800190565b6020808252602a908201527f4552433732313a2062616c616e636520717565727920666f7220746865207a65604082015269726f206164647265737360b01b606082015260800190565b60208082526029908201527f4552433732313a206f776e657220717565727920666f72206e6f6e657869737460408201526832b73a103a37b5b2b760b91b606082015260800190565b6020808252602e908201527f45524337323155524953746f726167653a2055524920736574206f66206e6f6e60408201526d32bc34b9ba32b73a103a37b5b2b760911b606082015260800190565b6020808252602b908201527f4f6e6c7920616363657074696e67207369676e6174757265732066726f6d204d60408201526a414e414745525f524f4c4560a81b606082015260800190565b60208082526022908201527f45434453413a20696e76616c6964207369676e6174757265202776272076616c604082015261756560f01b606082015260800190565b6020808252818101527f4552433732313a206d696e7420746f20746865207a65726f2061646472657373604082015260600190565b60208082526031908201527f45524337323155524953746f726167653a2055524920717565727920666f72206040820152703737b732bc34b9ba32b73a103a37b5b2b760791b606082015260800190565b6020808252602c908201527f4552433732313a20617070726f76656420717565727920666f72206e6f6e657860408201526b34b9ba32b73a103a37b5b2b760a11b606082015260800190565b60208082526029908201527f4552433732313a207472616e73666572206f6620746f6b656e2074686174206960408201526839903737ba1037bbb760b91b606082015260800190565b6020808252602f908201527f4552433732314d657461646174613a2055524920717565727920666f72206e6f60408201526e3732bc34b9ba32b73a103a37b5b2b760891b606082015260800190565b60208082526021908201527f4552433732313a20617070726f76616c20746f2063757272656e74206f776e656040820152603960f91b606082015260800190565b60208082526031908201527f4552433732313a207472616e736665722063616c6c6572206973206e6f74206f6040820152701ddb995c881b9bdc88185c1c1c9bdd9959607a1b606082015260800190565b6020808252602f908201527f416363657373436f6e74726f6c3a2063616e206f6e6c792072656e6f756e636560408201526e103937b632b9903337b91039b2b63360891b606082015260800190565b918252602082015260400190565b600082198211156129d5576129d5612bd1565b500190565b6000826129e9576129e9612be7565b500490565b80825b6001808611612a005750612a2b565b818704821115612a1257612a12612bd1565b80861615612a1f57918102915b9490941c9380026129f1565b94509492505050565b6000610a9b60001960ff851684600082612a50575060016108d5565b81612a5d575060006108d5565b8160018114612a735760028114612a7d57612aaa565b60019150506108d5565b60ff841115612a8e57612a8e612bd1565b6001841b915084821115612aa457612aa4612bd1565b506108d5565b5060208310610133831016604e8410600b8410161715612add575081810a83811115612ad857612ad8612bd1565b6108d5565b612aea84848460016129ee565b808604821115612afc57612afc612bd1565b02949350505050565b6000816000190483118215151615612b1f57612b1f612bd1565b500290565b600082821015612b3657612b36612bd1565b500390565b60005b83811015612b56578181015183820152602001612b3e565b83811115610c295750506000910152565b600281046001821680612b7b57607f821691505b60208210811415612b9c57634e487b7160e01b600052602260045260246000fd5b50919050565b6000600019821415612bb657612bb6612bd1565b5060010190565b600082612bcc57612bcc612be7565b500690565b634e487b7160e01b600052601160045260246000fd5b634e487b7160e01b600052601260045260246000fd5b634e487b7160e01b600052604160045260246000fd5b6001600160e01b0319811681146112fb57600080fdfea2646970667358221220dbd73d3524e27251de57d4c72372a00b6522476102150a95347c72d3e3e632b564736f6c63430008010033",
  "devdoc": {
    "kind": "dev",
    "methods": {
      "approve(address,uint256)": {
        "details": "See {IERC721-approve}."
      },
      "balanceOf(address)": {
        "details": "See {IERC721-balanceOf}."
      },
      "getApproved(uint256)": {
        "details": "See {IERC721-getApproved}."
      },
      "getRoleAdmin(bytes32)": {
        "details": "Returns the admin role that controls `role`. See {grantRole} and {revokeRole}. To change a role's admin, use {_setRoleAdmin}."
      },
      "getRoleMember(bytes32,uint256)": {
        "details": "Returns one of the accounts that have `role`. `index` must be a value between 0 and {getRoleMemberCount}, non-inclusive. Role bearers are not sorted in any particular way, and their ordering may change at any point. WARNING: When using {getRoleMember} and {getRoleMemberCount}, make sure you perform all queries on the same block. See the following https://forum.openzeppelin.com/t/iterating-over-elements-on-enumerableset-in-openzeppelin-contracts/2296[forum post] for more information."
      },
      "getRoleMemberCount(bytes32)": {
        "details": "Returns the number of accounts that have `role`. Can be used together with {getRoleMember} to enumerate all bearers of a role."
      },
      "grantRole(bytes32,address)": {
        "details": "Overload {grantRole} to track enumerable memberships"
      },
      "hasRole(bytes32,address)": {
        "details": "Returns `true` if `account` has been granted `role`."
      },
      "isApprovedForAll(address,address)": {
        "details": "See {IERC721-isApprovedForAll}."
      },
      "name()": {
        "details": "See {IERC721Metadata-name}."
      },
      "ownerOf(uint256)": {
        "details": "See {IERC721-ownerOf}."
      },
      "renounceRole(bytes32,address)": {
        "details": "Overload {renounceRole} to track enumerable memberships"
      },
      "revokeRole(bytes32,address)": {
        "details": "Overload {revokeRole} to track enumerable memberships"
      },
      "safeTransferFrom(address,address,uint256)": {
        "details": "See {IERC721-safeTransferFrom}."
      },
      "safeTransferFrom(address,address,uint256,bytes)": {
        "details": "See {IERC721-safeTransferFrom}."
      },
      "setApprovalForAll(address,bool)": {
        "details": "See {IERC721-setApprovalForAll}."
      },
      "symbol()": {
        "details": "See {IERC721Metadata-symbol}."
      },
      "tokenURI(uint256)": {
        "details": "See {IERC721Metadata-tokenURI}."
      },
      "transferFrom(address,address,uint256)": {
        "details": "See {IERC721-transferFrom}."
      }
    },
    "version": 1
  },
  "userdoc": {
    "kind": "user",
    "methods": {},
    "version": 1
  },
  "storageLayout": {
    "storage": [
      {
        "astId": 539,
        "contract": "contracts/ArbArt.sol:ArbArt",
        "label": "_name",
        "offset": 0,
        "slot": "0",
        "type": "t_string_storage"
      },
      {
        "astId": 541,
        "contract": "contracts/ArbArt.sol:ArbArt",
        "label": "_symbol",
        "offset": 0,
        "slot": "1",
        "type": "t_string_storage"
      },
      {
        "astId": 545,
        "contract": "contracts/ArbArt.sol:ArbArt",
        "label": "_owners",
        "offset": 0,
        "slot": "2",
        "type": "t_mapping(t_uint256,t_address)"
      },
      {
        "astId": 549,
        "contract": "contracts/ArbArt.sol:ArbArt",
        "label": "_balances",
        "offset": 0,
        "slot": "3",
        "type": "t_mapping(t_address,t_uint256)"
      },
      {
        "astId": 553,
        "contract": "contracts/ArbArt.sol:ArbArt",
        "label": "_tokenApprovals",
        "offset": 0,
        "slot": "4",
        "type": "t_mapping(t_uint256,t_address)"
      },
      {
        "astId": 559,
        "contract": "contracts/ArbArt.sol:ArbArt",
        "label": "_operatorApprovals",
        "offset": 0,
        "slot": "5",
        "type": "t_mapping(t_address,t_mapping(t_address,t_bool))"
      },
      {
        "astId": 1480,
        "contract": "contracts/ArbArt.sol:ArbArt",
        "label": "_tokenURIs",
        "offset": 0,
        "slot": "6",
        "type": "t_mapping(t_uint256,t_string_storage)"
      },
      {
        "astId": 61,
        "contract": "contracts/ArbArt.sol:ArbArt",
        "label": "_roles",
        "offset": 0,
        "slot": "7",
        "type": "t_mapping(t_bytes32,t_struct(RoleData)56_storage)"
      },
      {
        "astId": 358,
        "contract": "contracts/ArbArt.sol:ArbArt",
        "label": "_roleMembers",
        "offset": 0,
        "slot": "8",
        "type": "t_mapping(t_bytes32,t_struct(AddressSet)2696_storage)"
      },
      {
        "astId": 2950,
        "contract": "contracts/ArbArt.sol:ArbArt",
        "label": "countMint",
        "offset": 0,
        "slot": "9",
        "type": "t_struct(Counter)1978_storage"
      },
      {
        "astId": 2953,
        "contract": "contracts/ArbArt.sol:ArbArt",
        "label": "fees",
        "offset": 0,
        "slot": "10",
        "type": "t_uint256"
      },
      {
        "astId": 2956,
        "contract": "contracts/ArbArt.sol:ArbArt",
        "label": "baseFees",
        "offset": 0,
        "slot": "11",
        "type": "t_uint256"
      },
      {
        "astId": 2958,
        "contract": "contracts/ArbArt.sol:ArbArt",
        "label": "fessReceiver",
        "offset": 0,
        "slot": "12",
        "type": "t_address_payable"
      }
    ],
    "types": {
      "t_address": {
        "encoding": "inplace",
        "label": "address",
        "numberOfBytes": "20"
      },
      "t_address_payable": {
        "encoding": "inplace",
        "label": "address payable",
        "numberOfBytes": "20"
      },
      "t_array(t_bytes32)dyn_storage": {
        "base": "t_bytes32",
        "encoding": "dynamic_array",
        "label": "bytes32[]",
        "numberOfBytes": "32"
      },
      "t_bool": {
        "encoding": "inplace",
        "label": "bool",
        "numberOfBytes": "1"
      },
      "t_bytes32": {
        "encoding": "inplace",
        "label": "bytes32",
        "numberOfBytes": "32"
      },
      "t_mapping(t_address,t_bool)": {
        "encoding": "mapping",
        "key": "t_address",
        "label": "mapping(address => bool)",
        "numberOfBytes": "32",
        "value": "t_bool"
      },
      "t_mapping(t_address,t_mapping(t_address,t_bool))": {
        "encoding": "mapping",
        "key": "t_address",
        "label": "mapping(address => mapping(address => bool))",
        "numberOfBytes": "32",
        "value": "t_mapping(t_address,t_bool)"
      },
      "t_mapping(t_address,t_uint256)": {
        "encoding": "mapping",
        "key": "t_address",
        "label": "mapping(address => uint256)",
        "numberOfBytes": "32",
        "value": "t_uint256"
      },
      "t_mapping(t_bytes32,t_struct(AddressSet)2696_storage)": {
        "encoding": "mapping",
        "key": "t_bytes32",
        "label": "mapping(bytes32 => struct EnumerableSet.AddressSet)",
        "numberOfBytes": "32",
        "value": "t_struct(AddressSet)2696_storage"
      },
      "t_mapping(t_bytes32,t_struct(RoleData)56_storage)": {
        "encoding": "mapping",
        "key": "t_bytes32",
        "label": "mapping(bytes32 => struct AccessControl.RoleData)",
        "numberOfBytes": "32",
        "value": "t_struct(RoleData)56_storage"
      },
      "t_mapping(t_bytes32,t_uint256)": {
        "encoding": "mapping",
        "key": "t_bytes32",
        "label": "mapping(bytes32 => uint256)",
        "numberOfBytes": "32",
        "value": "t_uint256"
      },
      "t_mapping(t_uint256,t_address)": {
        "encoding": "mapping",
        "key": "t_uint256",
        "label": "mapping(uint256 => address)",
        "numberOfBytes": "32",
        "value": "t_address"
      },
      "t_mapping(t_uint256,t_string_storage)": {
        "encoding": "mapping",
        "key": "t_uint256",
        "label": "mapping(uint256 => string)",
        "numberOfBytes": "32",
        "value": "t_string_storage"
      },
      "t_string_storage": {
        "encoding": "bytes",
        "label": "string",
        "numberOfBytes": "32"
      },
      "t_struct(AddressSet)2696_storage": {
        "encoding": "inplace",
        "label": "struct EnumerableSet.AddressSet",
        "members": [
          {
            "astId": 2695,
            "contract": "contracts/ArbArt.sol:ArbArt",
            "label": "_inner",
            "offset": 0,
            "slot": "0",
            "type": "t_struct(Set)2419_storage"
          }
        ],
        "numberOfBytes": "64"
      },
      "t_struct(Counter)1978_storage": {
        "encoding": "inplace",
        "label": "struct Counters.Counter",
        "members": [
          {
            "astId": 1977,
            "contract": "contracts/ArbArt.sol:ArbArt",
            "label": "_value",
            "offset": 0,
            "slot": "0",
            "type": "t_uint256"
          }
        ],
        "numberOfBytes": "32"
      },
      "t_struct(RoleData)56_storage": {
        "encoding": "inplace",
        "label": "struct AccessControl.RoleData",
        "members": [
          {
            "astId": 53,
            "contract": "contracts/ArbArt.sol:ArbArt",
            "label": "members",
            "offset": 0,
            "slot": "0",
            "type": "t_mapping(t_address,t_bool)"
          },
          {
            "astId": 55,
            "contract": "contracts/ArbArt.sol:ArbArt",
            "label": "adminRole",
            "offset": 0,
            "slot": "1",
            "type": "t_bytes32"
          }
        ],
        "numberOfBytes": "64"
      },
      "t_struct(Set)2419_storage": {
        "encoding": "inplace",
        "label": "struct EnumerableSet.Set",
        "members": [
          {
            "astId": 2414,
            "contract": "contracts/ArbArt.sol:ArbArt",
            "label": "_values",
            "offset": 0,
            "slot": "0",
            "type": "t_array(t_bytes32)dyn_storage"
          },
          {
            "astId": 2418,
            "contract": "contracts/ArbArt.sol:ArbArt",
            "label": "_indexes",
            "offset": 0,
            "slot": "1",
            "type": "t_mapping(t_bytes32,t_uint256)"
          }
        ],
        "numberOfBytes": "64"
      },
      "t_uint256": {
        "encoding": "inplace",
        "label": "uint256",
        "numberOfBytes": "32"
      }
    }
  }
}