{
  "address": "0xC38313D8db4B176b5A4D973D0cc749cDBCD29DBd",
  "abi": [
    {
      "inputs": [
        {
          "internalType": "address",
          "name": "_manager",
          "type": "address"
        },
        {
          "internalType": "address payable",
          "name": "_feesReceiver",
          "type": "address"
        }
      ],
      "stateMutability": "nonpayable",
      "type": "constructor"
    },
    {
      "anonymous": false,
      "inputs": [
        {
          "indexed": true,
          "internalType": "address",
          "name": "owner",
          "type": "address"
        },
        {
          "indexed": true,
          "internalType": "address",
          "name": "approved",
          "type": "address"
        },
        {
          "indexed": true,
          "internalType": "uint256",
          "name": "tokenId",
          "type": "uint256"
        }
      ],
      "name": "Approval",
      "type": "event"
    },
    {
      "anonymous": false,
      "inputs": [
        {
          "indexed": true,
          "internalType": "address",
          "name": "owner",
          "type": "address"
        },
        {
          "indexed": true,
          "internalType": "address",
          "name": "operator",
          "type": "address"
        },
        {
          "indexed": false,
          "internalType": "bool",
          "name": "approved",
          "type": "bool"
        }
      ],
      "name": "ApprovalForAll",
      "type": "event"
    },
    {
      "anonymous": false,
      "inputs": [
        {
          "indexed": true,
          "internalType": "bytes32",
          "name": "role",
          "type": "bytes32"
        },
        {
          "indexed": true,
          "internalType": "bytes32",
          "name": "previousAdminRole",
          "type": "bytes32"
        },
        {
          "indexed": true,
          "internalType": "bytes32",
          "name": "newAdminRole",
          "type": "bytes32"
        }
      ],
      "name": "RoleAdminChanged",
      "type": "event"
    },
    {
      "anonymous": false,
      "inputs": [
        {
          "indexed": true,
          "internalType": "bytes32",
          "name": "role",
          "type": "bytes32"
        },
        {
          "indexed": true,
          "internalType": "address",
          "name": "account",
          "type": "address"
        },
        {
          "indexed": true,
          "internalType": "address",
          "name": "sender",
          "type": "address"
        }
      ],
      "name": "RoleGranted",
      "type": "event"
    },
    {
      "anonymous": false,
      "inputs": [
        {
          "indexed": true,
          "internalType": "bytes32",
          "name": "role",
          "type": "bytes32"
        },
        {
          "indexed": true,
          "internalType": "address",
          "name": "account",
          "type": "address"
        },
        {
          "indexed": true,
          "internalType": "address",
          "name": "sender",
          "type": "address"
        }
      ],
      "name": "RoleRevoked",
      "type": "event"
    },
    {
      "anonymous": false,
      "inputs": [
        {
          "indexed": true,
          "internalType": "address",
          "name": "from",
          "type": "address"
        },
        {
          "indexed": true,
          "internalType": "address",
          "name": "to",
          "type": "address"
        },
        {
          "indexed": true,
          "internalType": "uint256",
          "name": "tokenId",
          "type": "uint256"
        }
      ],
      "name": "Transfer",
      "type": "event"
    },
    {
      "inputs": [],
      "name": "DEFAULT_ADMIN_ROLE",
      "outputs": [
        {
          "internalType": "bytes32",
          "name": "",
          "type": "bytes32"
        }
      ],
      "stateMutability": "view",
      "type": "function"
    },
    {
      "inputs": [],
      "name": "MANAGER_ROLE",
      "outputs": [
        {
          "internalType": "bytes32",
          "name": "",
          "type": "bytes32"
        }
      ],
      "stateMutability": "view",
      "type": "function"
    },
    {
      "inputs": [
        {
          "internalType": "address",
          "name": "to",
          "type": "address"
        },
        {
          "internalType": "uint256",
          "name": "tokenId",
          "type": "uint256"
        }
      ],
      "name": "approve",
      "outputs": [],
      "stateMutability": "nonpayable",
      "type": "function"
    },
    {
      "inputs": [
        {
          "internalType": "address",
          "name": "owner",
          "type": "address"
        }
      ],
      "name": "balanceOf",
      "outputs": [
        {
          "internalType": "uint256",
          "name": "",
          "type": "uint256"
        }
      ],
      "stateMutability": "view",
      "type": "function"
    },
    {
      "inputs": [
        {
          "internalType": "uint256",
          "name": "_tokenId",
          "type": "uint256"
        }
      ],
      "name": "burn",
      "outputs": [
        {
          "internalType": "bool",
          "name": "",
          "type": "bool"
        }
      ],
      "stateMutability": "nonpayable",
      "type": "function"
    },
    {
      "inputs": [],
      "name": "currentBurnPrice",
      "outputs": [
        {
          "internalType": "uint256",
          "name": "",
          "type": "uint256"
        }
      ],
      "stateMutability": "view",
      "type": "function"
    },
    {
      "inputs": [],
      "name": "currentMintPrice",
      "outputs": [
        {
          "internalType": "uint256",
          "name": "",
          "type": "uint256"
        },
        {
          "internalType": "uint256",
          "name": "",
          "type": "uint256"
        }
      ],
      "stateMutability": "view",
      "type": "function"
    },
    {
      "inputs": [],
      "name": "currentMintWithFeesPrice",
      "outputs": [
        {
          "internalType": "uint256",
          "name": "",
          "type": "uint256"
        }
      ],
      "stateMutability": "view",
      "type": "function"
    },
    {
      "inputs": [],
      "name": "currentPrice",
      "outputs": [
        {
          "internalType": "uint256",
          "name": "",
          "type": "uint256"
        }
      ],
      "stateMutability": "view",
      "type": "function"
    },
    {
      "inputs": [],
      "name": "feesReceiver",
      "outputs": [
        {
          "internalType": "address payable",
          "name": "",
          "type": "address"
        }
      ],
      "stateMutability": "view",
      "type": "function"
    },
    {
      "inputs": [
        {
          "internalType": "uint256",
          "name": "tokenId",
          "type": "uint256"
        }
      ],
      "name": "getApproved",
      "outputs": [
        {
          "internalType": "address",
          "name": "",
          "type": "address"
        }
      ],
      "stateMutability": "view",
      "type": "function"
    },
    {
      "inputs": [
        {
          "internalType": "bytes32",
          "name": "role",
          "type": "bytes32"
        }
      ],
      "name": "getRoleAdmin",
      "outputs": [
        {
          "internalType": "bytes32",
          "name": "",
          "type": "bytes32"
        }
      ],
      "stateMutability": "view",
      "type": "function"
    },
    {
      "inputs": [
        {
          "internalType": "bytes32",
          "name": "role",
          "type": "bytes32"
        },
        {
          "internalType": "address",
          "name": "account",
          "type": "address"
        }
      ],
      "name": "grantRole",
      "outputs": [],
      "stateMutability": "nonpayable",
      "type": "function"
    },
    {
      "inputs": [
        {
          "internalType": "bytes32",
          "name": "role",
          "type": "bytes32"
        },
        {
          "internalType": "address",
          "name": "account",
          "type": "address"
        }
      ],
      "name": "hasRole",
      "outputs": [
        {
          "internalType": "bool",
          "name": "",
          "type": "bool"
        }
      ],
      "stateMutability": "view",
      "type": "function"
    },
    {
      "inputs": [
        {
          "internalType": "address",
          "name": "owner",
          "type": "address"
        },
        {
          "internalType": "address",
          "name": "operator",
          "type": "address"
        }
      ],
      "name": "isApprovedForAll",
      "outputs": [
        {
          "internalType": "bool",
          "name": "",
          "type": "bool"
        }
      ],
      "stateMutability": "view",
      "type": "function"
    },
    {
      "inputs": [
        {
          "internalType": "string",
          "name": "_uri",
          "type": "string"
        },
        {
          "internalType": "address",
          "name": "_signer",
          "type": "address"
        },
        {
          "internalType": "bytes",
          "name": "_signature",
          "type": "bytes"
        }
      ],
      "name": "mint",
      "outputs": [
        {
          "internalType": "uint256",
          "name": "_tokenId",
          "type": "uint256"
        }
      ],
      "stateMutability": "payable",
      "type": "function"
    },
    {
      "inputs": [
        {
          "internalType": "uint256",
          "name": "_current",
          "type": "uint256"
        }
      ],
      "name": "mintPriceFor",
      "outputs": [
        {
          "internalType": "uint256",
          "name": "_currentPrice",
          "type": "uint256"
        },
        {
          "internalType": "uint256",
          "name": "_fees",
          "type": "uint256"
        }
      ],
      "stateMutability": "view",
      "type": "function"
    },
    {
      "inputs": [
        {
          "internalType": "uint256",
          "name": "_current",
          "type": "uint256"
        }
      ],
      "name": "mintWithFeesPriceFor",
      "outputs": [
        {
          "internalType": "uint256",
          "name": "",
          "type": "uint256"
        }
      ],
      "stateMutability": "view",
      "type": "function"
    },
    {
      "inputs": [],
      "name": "name",
      "outputs": [
        {
          "internalType": "string",
          "name": "",
          "type": "string"
        }
      ],
      "stateMutability": "view",
      "type": "function"
    },
    {
      "inputs": [
        {
          "internalType": "uint256",
          "name": "tokenId",
          "type": "uint256"
        }
      ],
      "name": "ownerOf",
      "outputs": [
        {
          "internalType": "address",
          "name": "",
          "type": "address"
        }
      ],
      "stateMutability": "view",
      "type": "function"
    },
    {
      "inputs": [
        {
          "internalType": "uint256",
          "name": "_current",
          "type": "uint256"
        }
      ],
      "name": "priceFor",
      "outputs": [
        {
          "internalType": "uint256",
          "name": "",
          "type": "uint256"
        }
      ],
      "stateMutability": "pure",
      "type": "function"
    },
    {
      "inputs": [
        {
          "internalType": "bytes32",
          "name": "role",
          "type": "bytes32"
        },
        {
          "internalType": "address",
          "name": "account",
          "type": "address"
        }
      ],
      "name": "renounceRole",
      "outputs": [],
      "stateMutability": "nonpayable",
      "type": "function"
    },
    {
      "inputs": [
        {
          "internalType": "bytes32",
          "name": "role",
          "type": "bytes32"
        },
        {
          "internalType": "address",
          "name": "account",
          "type": "address"
        }
      ],
      "name": "revokeRole",
      "outputs": [],
      "stateMutability": "nonpayable",
      "type": "function"
    },
    {
      "inputs": [
        {
          "internalType": "address",
          "name": "from",
          "type": "address"
        },
        {
          "internalType": "address",
          "name": "to",
          "type": "address"
        },
        {
          "internalType": "uint256",
          "name": "tokenId",
          "type": "uint256"
        }
      ],
      "name": "safeTransferFrom",
      "outputs": [],
      "stateMutability": "nonpayable",
      "type": "function"
    },
    {
      "inputs": [
        {
          "internalType": "address",
          "name": "from",
          "type": "address"
        },
        {
          "internalType": "address",
          "name": "to",
          "type": "address"
        },
        {
          "internalType": "uint256",
          "name": "tokenId",
          "type": "uint256"
        },
        {
          "internalType": "bytes",
          "name": "_data",
          "type": "bytes"
        }
      ],
      "name": "safeTransferFrom",
      "outputs": [],
      "stateMutability": "nonpayable",
      "type": "function"
    },
    {
      "inputs": [
        {
          "internalType": "address",
          "name": "operator",
          "type": "address"
        },
        {
          "internalType": "bool",
          "name": "approved",
          "type": "bool"
        }
      ],
      "name": "setApprovalForAll",
      "outputs": [],
      "stateMutability": "nonpayable",
      "type": "function"
    },
    {
      "inputs": [
        {
          "internalType": "bytes4",
          "name": "interfaceId",
          "type": "bytes4"
        }
      ],
      "name": "supportsInterface",
      "outputs": [
        {
          "internalType": "bool",
          "name": "",
          "type": "bool"
        }
      ],
      "stateMutability": "view",
      "type": "function"
    },
    {
      "inputs": [],
      "name": "symbol",
      "outputs": [
        {
          "internalType": "string",
          "name": "",
          "type": "string"
        }
      ],
      "stateMutability": "view",
      "type": "function"
    },
    {
      "inputs": [
        {
          "internalType": "uint256",
          "name": "tokenId",
          "type": "uint256"
        }
      ],
      "name": "tokenURI",
      "outputs": [
        {
          "internalType": "string",
          "name": "",
          "type": "string"
        }
      ],
      "stateMutability": "view",
      "type": "function"
    },
    {
      "inputs": [
        {
          "internalType": "address",
          "name": "from",
          "type": "address"
        },
        {
          "internalType": "address",
          "name": "to",
          "type": "address"
        },
        {
          "internalType": "uint256",
          "name": "tokenId",
          "type": "uint256"
        }
      ],
      "name": "transferFrom",
      "outputs": [],
      "stateMutability": "nonpayable",
      "type": "function"
    }
  ],
  "transactionHash": "0x7636243292c92bf6cc3ebef2210cf5b6d3a3711d847e1764c7c3041a2140bcfb",
  "args": [
    "0xE4D29ec42F4057EfF92c9124c82844b2689f9C6d",
    "0x91a5D3bCe5317D5579E780d67021fEc692575d1d"
  ],
  "solcInputHash": "d586f1f7137802a1128b0acbac32240a",
  "bytecode": "0x60a06040523480156200001157600080fd5b5060405162002a7c38038062002a7c83398101604081905262000034916200023f565b6040805180820182526006815265105c98905c9d60d21b6020808301918252835180850190945260048452631054909560e21b9084015281519192916200007e9160009162000199565b5080516200009490600190602084019062000199565b505050620000c97f241ecf16d79d0f8dbfb92cbc07fe17840425976cf0667f022fe9877caa831b0883620000e560201b60201c565b60601b6001600160601b031916608052506001600855620002d3565b620000f18282620000f5565b5050565b60008281526007602090815260408083206001600160a01b038516845290915290205460ff16620000f15760008281526007602090815260408083206001600160a01b03851684529091529020805460ff19166001179055620001553390565b6001600160a01b0316816001600160a01b0316837f2f8788117e7eff1d82e926ec794901d17c78024a50270940304540a733656f0d60405160405180910390a45050565b828054620001a7906200027d565b90600052602060002090601f016020900481019282620001cb576000855562000216565b82601f10620001e657805160ff191683800117855562000216565b8280016001018555821562000216579182015b8281111562000216578251825591602001919060010190620001f9565b506200022492915062000228565b5090565b5b8082111562000224576000815560010162000229565b6000806040838503121562000252578182fd5b82516200025f81620002ba565b60208401519092506200027281620002ba565b809150509250929050565b600181811c908216806200029257607f821691505b60208210811415620002b457634e487b7160e01b600052602260045260246000fd5b50919050565b6001600160a01b0381168114620002d057600080fd5b50565b60805160601c612783620002f9600039600081816105040152610aab01526127836000f3fe6080604052600436106101cd5760003560e01c80638d5555f2116100f7578063a22cb46511610095578063d547741f11610064578063d547741f14610546578063e985e9c514610566578063ec87621c146105af578063f620c815146105e3576101cd565b8063a22cb465146104b2578063b88d4fde146104d2578063bca93cf5146104f2578063c87b56dd14610526576101cd565b806395d89b41116100d157806395d89b411461045357806399f7ab31146104685780639d1b464a14610488578063a217fddf1461049d576101cd565b80638d5555f2146103f35780638def9f821461041357806391d1485414610433576101cd565b8063251a701a1161016f57806342966c681161013e57806342966c681461037e5780636352211e1461039e57806370a08231146103be57806377119765146103de576101cd565b8063251a701a1461030b5780632f2ff15d1461031e57806336568abe1461033e57806342842e0e1461035e576101cd565b8063081812fc116101ab578063081812fc14610253578063095ea7b31461028b57806323b872dd146102ad578063248a9ca3146102cd576101cd565b806301ffc9a7146101d25780630561942a1461020757806306fdde0314610231575b600080fd5b3480156101de57600080fd5b506101f26101ed3660046122a2565b6105f8565b60405190151581526020015b60405180910390f35b34801561021357600080fd5b5061021c61061a565b604080519283526020830191909152016101fe565b34801561023d57600080fd5b50610246610631565b6040516101fe9190612430565b34801561025f57600080fd5b5061027361026e366004612268565b6106c3565b6040516001600160a01b0390911681526020016101fe565b34801561029757600080fd5b506102ab6102a636600461223f565b610750565b005b3480156102b957600080fd5b506102ab6102c8366004612164565b610866565b3480156102d957600080fd5b506102fd6102e8366004612268565b60009081526007602052604090206001015490565b6040519081526020016101fe565b6102fd6103193660046122da565b610897565b34801561032a57600080fd5b506102ab610339366004612280565b610add565b34801561034a57600080fd5b506102ab610359366004612280565b610b6c565b34801561036a57600080fd5b506102ab610379366004612164565b610be6565b34801561038a57600080fd5b506101f2610399366004612268565b610c01565b3480156103aa57600080fd5b506102736103b9366004612268565b610c84565b3480156103ca57600080fd5b506102fd6103d9366004612118565b610cfb565b3480156103ea57600080fd5b506102fd610d82565b3480156103ff57600080fd5b506102fd61040e366004612268565b610da1565b34801561041f57600080fd5b506102fd61042e366004612268565b610dcd565b34801561043f57600080fd5b506101f261044e366004612280565b610df2565b34801561045f57600080fd5b50610246610e1d565b34801561047457600080fd5b5061021c610483366004612268565b610e2c565b34801561049457600080fd5b506102fd610e4c565b3480156104a957600080fd5b506102fd600081565b3480156104be57600080fd5b506102ab6104cd366004612205565b610e5a565b3480156104de57600080fd5b506102ab6104ed36600461219f565b610f2c565b3480156104fe57600080fd5b506102737f000000000000000000000000000000000000000000000000000000000000000081565b34801561053257600080fd5b50610246610541366004612268565b610f64565b34801561055257600080fd5b506102ab610561366004612280565b6110e3565b34801561057257600080fd5b506101f2610581366004612132565b6001600160a01b03918216600090815260056020908152604080832093909416825291909152205460ff1690565b3480156105bb57600080fd5b506102fd7f241ecf16d79d0f8dbfb92cbc07fe17840425976cf0667f022fe9877caa831b0881565b3480156105ef57600080fd5b506102fd611163565b600061060382611171565b80610612575061061282611192565b90505b919050565b60008061062961048360085490565b915091509091565b6060600080546106409061268b565b80601f016020809104026020016040519081016040528092919081815260200182805461066c9061268b565b80156106b95780601f1061068e576101008083540402835291602001916106b9565b820191906000526020600020905b81548152906001019060200180831161069c57829003601f168201915b5050505050905090565b60006106ce826111e2565b6107345760405162461bcd60e51b815260206004820152602c60248201527f4552433732313a20617070726f76656420717565727920666f72206e6f6e657860448201526b34b9ba32b73a103a37b5b2b760a11b60648201526084015b60405180910390fd5b506000908152600460205260409020546001600160a01b031690565b600061075b82610c84565b9050806001600160a01b0316836001600160a01b031614156107c95760405162461bcd60e51b815260206004820152602160248201527f4552433732313a20617070726f76616c20746f2063757272656e74206f776e656044820152603960f91b606482015260840161072b565b336001600160a01b03821614806107e557506107e58133610581565b6108575760405162461bcd60e51b815260206004820152603860248201527f4552433732313a20617070726f76652063616c6c6572206973206e6f74206f7760448201527f6e6572206e6f7220617070726f76656420666f7220616c6c0000000000000000606482015260840161072b565b61086183836111ff565b505050565b610870338261126d565b61088c5760405162461bcd60e51b815260040161072b90612495565b610861838383611353565b60006108c37f241ecf16d79d0f8dbfb92cbc07fe17840425976cf0667f022fe9877caa831b0884610df2565b6109235760405162461bcd60e51b815260206004820152602b60248201527f4f6e6c7920616363657074696e67207369676e6174757265732066726f6d204d60448201526a414e414745525f524f4c4560a81b606482015260840161072b565b600084338560405160200161093a9392919061238d565b604051602081830303815290604052905060006109b5846109af84805190602001206040517f19457468657265756d205369676e6564204d6573736167653a0a3332000000006020820152603c8101829052600090605c01604051602081830303815290604052805190602001209050919050565b906114f3565b9050806001600160a01b0316856001600160a01b031614610a185760405162461bcd60e51b815260206004820152601960248201527f496e76616c6964207265636f7665726564206164647265737300000000000000604482015260640161072b565b600080610a2361061a565b9092509050610a3281836124e6565b3414610a795760405162461bcd60e51b8152602060048201526016602482015275105c98905c9d0e88185b5bdd5b9d081a5b9d985b1a5960521b604482015260640161072b565b610a87600880546001019055565b339450610a94858061156e565b610a9e8589611588565b610ad16001600160a01b037f00000000000000000000000000000000000000000000000000000000000000001682611613565b505050505b9392505050565b600082815260076020526040902060010154610afa905b3361044e565b610b5e5760405162461bcd60e51b815260206004820152602f60248201527f416363657373436f6e74726f6c3a2073656e646572206d75737420626520616e60448201526e0818591b5a5b881d1bc819dc985b9d608a1b606482015260840161072b565b610b68828261172c565b5050565b6001600160a01b0381163314610bdc5760405162461bcd60e51b815260206004820152602f60248201527f416363657373436f6e74726f6c3a2063616e206f6e6c792072656e6f756e636560448201526e103937b632b9903337b91039b2b63360891b606482015260840161072b565b610b6882826117b2565b61086183838360405180602001604052806000815250610f2c565b600033610c0d83610c84565b6001600160a01b031614610c575760405162461bcd60e51b815260206004820152601160248201527020b93120b93a1d103737ba1037bbb732b960791b604482015260640161072b565b610c616008611819565b610c6a82611870565b610c7c610c75610e4c565b3390611613565b506001919050565b6000818152600260205260408120546001600160a01b0316806106125760405162461bcd60e51b815260206004820152602960248201527f4552433732313a206f776e657220717565727920666f72206e6f6e657869737460448201526832b73a103a37b5b2b760b91b606482015260840161072b565b60006001600160a01b038216610d665760405162461bcd60e51b815260206004820152602a60248201527f4552433732313a2062616c616e636520717565727920666f7220746865207a65604482015269726f206164647265737360b01b606482015260840161072b565b506001600160a01b031660009081526003602052604090205490565b6000610d9c6001610d9260085490565b61040e9190612648565b905090565b6000612710610db1600284612558565b610dc390670de0b6b3a7640000612629565b61061291906124fe565b6000806000610ddb84610e2c565b9092509050610dea81836124e6565b949350505050565b60009182526007602090815260408084206001600160a01b0393909316845291905290205460ff1690565b6060600180546106409061268b565b600080610e3883610da1565b9150610e45600a836124fe565b9050915091565b6000610d9c61040e60085490565b6001600160a01b038216331415610eb35760405162461bcd60e51b815260206004820152601960248201527f4552433732313a20617070726f766520746f2063616c6c657200000000000000604482015260640161072b565b3360008181526005602090815260408083206001600160a01b0387168085529252909120805460ff1916841515179055906001600160a01b03167f17307eab39ab6107e8899845ad3d59bd9653f200f220920489ca2b5937696c3183604051610f20911515815260200190565b60405180910390a35050565b610f36338361126d565b610f525760405162461bcd60e51b815260040161072b90612495565b610f5e848484846118b3565b50505050565b6060610f6f826111e2565b610fd55760405162461bcd60e51b815260206004820152603160248201527f45524337323155524953746f726167653a2055524920717565727920666f72206044820152703737b732bc34b9ba32b73a103a37b5b2b760791b606482015260840161072b565b60008281526006602052604081208054610fee9061268b565b80601f016020809104026020016040519081016040528092919081815260200182805461101a9061268b565b80156110675780601f1061103c57610100808354040283529160200191611067565b820191906000526020600020905b81548152906001019060200180831161104a57829003601f168201915b505050505090506000611094604080518082019091526007815266697066733a2f2f60c81b602082015290565b90508051600014156110a857509050610615565b8151156110da5780826040516020016110c29291906123ce565b60405160208183030381529060405292505050610615565b610dea846118e6565b6000828152600760205260409020600101546110fe90610af4565b610bdc5760405162461bcd60e51b815260206004820152603060248201527f416363657373436f6e74726f6c3a2073656e646572206d75737420626520616e60448201526f2061646d696e20746f207265766f6b6560801b606482015260840161072b565b6000610d9c61042e60085490565b60006001600160e01b03198216637965db0b60e01b14806106125750610612825b60006001600160e01b031982166380ac58cd60e01b14806111c357506001600160e01b03198216635b5e139f60e01b145b8061061257506301ffc9a760e01b6001600160e01b0319831614610612565b6000908152600260205260409020546001600160a01b0316151590565b600081815260046020526040902080546001600160a01b0319166001600160a01b038416908117909155819061123482610c84565b6001600160a01b03167f8c5be1e5ebec7d5bd14f71427d1e84f3dd0314c0f7b2291e5b200ac8c7c3b92560405160405180910390a45050565b6000611278826111e2565b6112d95760405162461bcd60e51b815260206004820152602c60248201527f4552433732313a206f70657261746f7220717565727920666f72206e6f6e657860448201526b34b9ba32b73a103a37b5b2b760a11b606482015260840161072b565b60006112e483610c84565b9050806001600160a01b0316846001600160a01b0316148061131f5750836001600160a01b0316611314846106c3565b6001600160a01b0316145b80610dea57506001600160a01b0380821660009081526005602090815260408083209388168352929052205460ff16610dea565b826001600160a01b031661136682610c84565b6001600160a01b0316146113ce5760405162461bcd60e51b815260206004820152602960248201527f4552433732313a207472616e73666572206f6620746f6b656e2074686174206960448201526839903737ba1037bbb760b91b606482015260840161072b565b6001600160a01b0382166114305760405162461bcd60e51b8152602060048201526024808201527f4552433732313a207472616e7366657220746f20746865207a65726f206164646044820152637265737360e01b606482015260840161072b565b61143b6000826111ff565b6001600160a01b0383166000908152600360205260408120805460019290611464908490612648565b90915550506001600160a01b03821660009081526003602052604081208054600192906114929084906124e6565b909155505060008181526002602052604080822080546001600160a01b0319166001600160a01b0386811691821790925591518493918716917fddf252ad1be2c89b69c2b068fc378daa952ba7f163c4a11628f55a4df523b3ef91a4505050565b600081516041146115465760405162461bcd60e51b815260206004820152601f60248201527f45434453413a20696e76616c6964207369676e6174757265206c656e67746800604482015260640161072b565b60208201516040830151606084015160001a611564868285856119cc565b9695505050505050565b610b68828260405180602001604052806000815250611b75565b611591826111e2565b6115f45760405162461bcd60e51b815260206004820152602e60248201527f45524337323155524953746f726167653a2055524920736574206f66206e6f6e60448201526d32bc34b9ba32b73a103a37b5b2b760911b606482015260840161072b565b6000828152600660209081526040909120825161086192840190611f9b565b804710156116635760405162461bcd60e51b815260206004820152601d60248201527f416464726573733a20696e73756666696369656e742062616c616e6365000000604482015260640161072b565b6000826001600160a01b03168260405160006040518083038185875af1925050503d80600081146116b0576040519150601f19603f3d011682016040523d82523d6000602084013e6116b5565b606091505b50509050806108615760405162461bcd60e51b815260206004820152603a60248201527f416464726573733a20756e61626c6520746f2073656e642076616c75652c207260448201527f6563697069656e74206d61792068617665207265766572746564000000000000606482015260840161072b565b6117368282610df2565b610b685760008281526007602090815260408083206001600160a01b03851684529091529020805460ff1916600117905561176e3390565b6001600160a01b0316816001600160a01b0316837f2f8788117e7eff1d82e926ec794901d17c78024a50270940304540a733656f0d60405160405180910390a45050565b6117bc8282610df2565b15610b685760008281526007602090815260408083206001600160a01b0385168085529252808320805460ff1916905551339285917ff6391f5c32d9c69d2a47ea670b442974b53935d1edc7fd64eb21e047a839171b9190a45050565b8054806118685760405162461bcd60e51b815260206004820152601b60248201527f436f756e7465723a2064656372656d656e74206f766572666c6f770000000000604482015260640161072b565b600019019055565b61187981611ba8565b600081815260066020526040902080546118929061268b565b1590506118b05760008181526006602052604081206118b09161201f565b50565b6118be848484611353565b6118ca84848484611c43565b610f5e5760405162461bcd60e51b815260040161072b90612443565b60606118f1826111e2565b6119555760405162461bcd60e51b815260206004820152602f60248201527f4552433732314d657461646174613a2055524920717565727920666f72206e6f60448201526e3732bc34b9ba32b73a103a37b5b2b760891b606482015260840161072b565b600061197b604080518082019091526007815266697066733a2f2f60c81b602082015290565b9050600081511161199b5760405180602001604052806000815250610ad6565b806119a584611d4d565b6040516020016119b69291906123ce565b6040516020818303038152906040529392505050565b60007f7fffffffffffffffffffffffffffffff5d576e7357a4501ddfe92f46681b20a0821115611a495760405162461bcd60e51b815260206004820152602260248201527f45434453413a20696e76616c6964207369676e6174757265202773272076616c604482015261756560f01b606482015260840161072b565b8360ff16601b1480611a5e57508360ff16601c145b611ab55760405162461bcd60e51b815260206004820152602260248201527f45434453413a20696e76616c6964207369676e6174757265202776272076616c604482015261756560f01b606482015260840161072b565b6040805160008082526020820180845288905260ff871692820192909252606081018590526080810184905260019060a0016020604051602081039080840390855afa158015611b09573d6000803e3d6000fd5b5050604051601f1901519150506001600160a01b038116611b6c5760405162461bcd60e51b815260206004820152601860248201527f45434453413a20696e76616c6964207369676e61747572650000000000000000604482015260640161072b565b95945050505050565b611b7f8383611e68565b611b8c6000848484611c43565b6108615760405162461bcd60e51b815260040161072b90612443565b6000611bb382610c84565b9050611bc06000836111ff565b6001600160a01b0381166000908152600360205260408120805460019290611be9908490612648565b909155505060008281526002602052604080822080546001600160a01b0319169055518391906001600160a01b038416907fddf252ad1be2c89b69c2b068fc378daa952ba7f163c4a11628f55a4df523b3ef908390a45050565b60006001600160a01b0384163b15611d4557604051630a85bd0160e11b81526001600160a01b0385169063150b7a0290611c879033908990889088906004016123fd565b602060405180830381600087803b158015611ca157600080fd5b505af1925050508015611cd1575060408051601f3d908101601f19168201909252611cce918101906122be565b60015b611d2b573d808015611cff576040519150601f19603f3d011682016040523d82523d6000602084013e611d04565b606091505b508051611d235760405162461bcd60e51b815260040161072b90612443565b805181602001fd5b6001600160e01b031916630a85bd0160e11b149050610dea565b506001610dea565b606081611d7257506040805180820190915260018152600360fc1b6020820152610615565b8160005b8115611d9c5780611d86816126c6565b9150611d959050600a836124fe565b9150611d76565b60008167ffffffffffffffff811115611dc557634e487b7160e01b600052604160045260246000fd5b6040519080825280601f01601f191660200182016040528015611def576020820181803683370190505b5090505b8415610dea57611e04600183612648565b9150611e11600a866126e1565b611e1c9060306124e6565b60f81b818381518110611e3f57634e487b7160e01b600052603260045260246000fd5b60200101906001600160f81b031916908160001a905350611e61600a866124fe565b9450611df3565b6001600160a01b038216611ebe5760405162461bcd60e51b815260206004820181905260248201527f4552433732313a206d696e7420746f20746865207a65726f2061646472657373604482015260640161072b565b611ec7816111e2565b15611f145760405162461bcd60e51b815260206004820152601c60248201527f4552433732313a20746f6b656e20616c7265616479206d696e74656400000000604482015260640161072b565b6001600160a01b0382166000908152600360205260408120805460019290611f3d9084906124e6565b909155505060008181526002602052604080822080546001600160a01b0319166001600160a01b03861690811790915590518392907fddf252ad1be2c89b69c2b068fc378daa952ba7f163c4a11628f55a4df523b3ef908290a45050565b828054611fa79061268b565b90600052602060002090601f016020900481019282611fc9576000855561200f565b82601f10611fe257805160ff191683800117855561200f565b8280016001018555821561200f579182015b8281111561200f578251825591602001919060010190611ff4565b5061201b929150612057565b5090565b50805461202b9061268b565b6000825580601f1061203d57506118b0565b601f0160209004906000526020600020908101906118b091905b5b8082111561201b5760008155600101612058565b600067ffffffffffffffff8084111561208757612087612721565b604051601f8501601f19908116603f011681019082821181831017156120af576120af612721565b816040528093508581528686860111156120c857600080fd5b858560208301376000602087830101525050509392505050565b80356001600160a01b038116811461061557600080fd5b600082601f830112612109578081fd5b610ad68383356020850161206c565b600060208284031215612129578081fd5b610ad6826120e2565b60008060408385031215612144578081fd5b61214d836120e2565b915061215b602084016120e2565b90509250929050565b600080600060608486031215612178578081fd5b612181846120e2565b925061218f602085016120e2565b9150604084013590509250925092565b600080600080608085870312156121b4578081fd5b6121bd856120e2565b93506121cb602086016120e2565b925060408501359150606085013567ffffffffffffffff8111156121ed578182fd5b6121f9878288016120f9565b91505092959194509250565b60008060408385031215612217578182fd5b612220836120e2565b915060208301358015158114612234578182fd5b809150509250929050565b60008060408385031215612251578182fd5b61225a836120e2565b946020939093013593505050565b600060208284031215612279578081fd5b5035919050565b60008060408385031215612292578182fd5b8235915061215b602084016120e2565b6000602082840312156122b3578081fd5b8135610ad681612737565b6000602082840312156122cf578081fd5b8151610ad681612737565b6000806000606084860312156122ee578283fd5b833567ffffffffffffffff80821115612305578485fd5b818601915086601f830112612318578485fd5b6123278783356020850161206c565b9450612335602087016120e2565b9350604086013591508082111561234a578283fd5b50612357868287016120f9565b9150509250925092565b6000815180845261237981602086016020860161265f565b601f01601f19169290920160200192915050565b6000845161239f81846020890161265f565b6bffffffffffffffffffffffff19606095861b8116919093019081529290931b16601482015260280192915050565b600083516123e081846020880161265f565b8351908301906123f481836020880161265f565b01949350505050565b6001600160a01b038581168252841660208201526040810183905260806060820181905260009061156490830184612361565b600060208252610ad66020830184612361565b60208082526032908201527f4552433732313a207472616e7366657220746f206e6f6e20455243373231526560408201527131b2b4bb32b91034b6b83632b6b2b73a32b960711b606082015260800190565b60208082526031908201527f4552433732313a207472616e736665722063616c6c6572206973206e6f74206f6040820152701ddb995c881b9bdc88185c1c1c9bdd9959607a1b606082015260800190565b600082198211156124f9576124f96126f5565b500190565b60008261250d5761250d61270b565b500490565b80825b6001808611612524575061254f565b818704821115612536576125366126f5565b8086161561254357918102915b9490941c938002612515565b94509492505050565b6000610ad660001960ff85168460008261257457506001610ad6565b8161258157506000610ad6565b816001811461259757600281146125a1576125ce565b6001915050610ad6565b60ff8411156125b2576125b26126f5565b6001841b9150848211156125c8576125c86126f5565b50610ad6565b5060208310610133831016604e8410600b8410161715612601575081810a838111156125fc576125fc6126f5565b610ad6565b61260e8484846001612512565b808604821115612620576126206126f5565b02949350505050565b6000816000190483118215151615612643576126436126f5565b500290565b60008282101561265a5761265a6126f5565b500390565b60005b8381101561267a578181015183820152602001612662565b83811115610f5e5750506000910152565b600181811c9082168061269f57607f821691505b602082108114156126c057634e487b7160e01b600052602260045260246000fd5b50919050565b60006000198214156126da576126da6126f5565b5060010190565b6000826126f0576126f061270b565b500690565b634e487b7160e01b600052601160045260246000fd5b634e487b7160e01b600052601260045260246000fd5b634e487b7160e01b600052604160045260246000fd5b6001600160e01b0319811681146118b057600080fdfea264697066735822122062efdb697631787d40538bf93618a610a09b58c40f25639250209de1fe502e8964736f6c63430008030033",
  "devdoc": {
    "kind": "dev",
    "methods": {
      "approve(address,uint256)": {
        "details": "See {IERC721-approve}."
      },
      "balanceOf(address)": {
        "details": "See {IERC721-balanceOf}."
      },
      "getApproved(uint256)": {
        "details": "See {IERC721-getApproved}."
      },
      "getRoleAdmin(bytes32)": {
        "details": "Returns the admin role that controls `role`. See {grantRole} and {revokeRole}. To change a role's admin, use {_setRoleAdmin}."
      },
      "grantRole(bytes32,address)": {
        "details": "Grants `role` to `account`. If `account` had not been already granted `role`, emits a {RoleGranted} event. Requirements: - the caller must have ``role``'s admin role."
      },
      "hasRole(bytes32,address)": {
        "details": "Returns `true` if `account` has been granted `role`."
      },
      "isApprovedForAll(address,address)": {
        "details": "See {IERC721-isApprovedForAll}."
      },
      "name()": {
        "details": "See {IERC721Metadata-name}."
      },
      "ownerOf(uint256)": {
        "details": "See {IERC721-ownerOf}."
      },
      "renounceRole(bytes32,address)": {
        "details": "Revokes `role` from the calling account. Roles are often managed via {grantRole} and {revokeRole}: this function's purpose is to provide a mechanism for accounts to lose their privileges if they are compromised (such as when a trusted device is misplaced). If the calling account had been granted `role`, emits a {RoleRevoked} event. Requirements: - the caller must be `account`."
      },
      "revokeRole(bytes32,address)": {
        "details": "Revokes `role` from `account`. If `account` had been granted `role`, emits a {RoleRevoked} event. Requirements: - the caller must have ``role``'s admin role."
      },
      "safeTransferFrom(address,address,uint256)": {
        "details": "See {IERC721-safeTransferFrom}."
      },
      "safeTransferFrom(address,address,uint256,bytes)": {
        "details": "See {IERC721-safeTransferFrom}."
      },
      "setApprovalForAll(address,bool)": {
        "details": "See {IERC721-setApprovalForAll}."
      },
      "symbol()": {
        "details": "See {IERC721Metadata-symbol}."
      },
      "tokenURI(uint256)": {
        "details": "See {IERC721Metadata-tokenURI}."
      },
      "transferFrom(address,address,uint256)": {
        "details": "See {IERC721-transferFrom}."
      }
    },
    "version": 1
  },
  "userdoc": {
    "kind": "user",
    "methods": {},
    "version": 1
  },
  "storageLayout": {
    "storage": [
      {
        "astId": 349,
        "contract": "contracts/ArbArt.sol:ArbArt",
        "label": "_name",
        "offset": 0,
        "slot": "0",
        "type": "t_string_storage"
      },
      {
        "astId": 351,
        "contract": "contracts/ArbArt.sol:ArbArt",
        "label": "_symbol",
        "offset": 0,
        "slot": "1",
        "type": "t_string_storage"
      },
      {
        "astId": 355,
        "contract": "contracts/ArbArt.sol:ArbArt",
        "label": "_owners",
        "offset": 0,
        "slot": "2",
        "type": "t_mapping(t_uint256,t_address)"
      },
      {
        "astId": 359,
        "contract": "contracts/ArbArt.sol:ArbArt",
        "label": "_balances",
        "offset": 0,
        "slot": "3",
        "type": "t_mapping(t_address,t_uint256)"
      },
      {
        "astId": 363,
        "contract": "contracts/ArbArt.sol:ArbArt",
        "label": "_tokenApprovals",
        "offset": 0,
        "slot": "4",
        "type": "t_mapping(t_uint256,t_address)"
      },
      {
        "astId": 369,
        "contract": "contracts/ArbArt.sol:ArbArt",
        "label": "_operatorApprovals",
        "offset": 0,
        "slot": "5",
        "type": "t_mapping(t_address,t_mapping(t_address,t_bool))"
      },
      {
        "astId": 1290,
        "contract": "contracts/ArbArt.sol:ArbArt",
        "label": "_tokenURIs",
        "offset": 0,
        "slot": "6",
        "type": "t_mapping(t_uint256,t_string_storage)"
      },
      {
        "astId": 61,
        "contract": "contracts/ArbArt.sol:ArbArt",
        "label": "_roles",
        "offset": 0,
        "slot": "7",
        "type": "t_mapping(t_bytes32,t_struct(RoleData)56_storage)"
      },
      {
        "astId": 2247,
        "contract": "contracts/ArbArt.sol:ArbArt",
        "label": "countMint",
        "offset": 0,
        "slot": "8",
        "type": "t_struct(Counter)1788_storage"
      }
    ],
    "types": {
      "t_address": {
        "encoding": "inplace",
        "label": "address",
        "numberOfBytes": "20"
      },
      "t_bool": {
        "encoding": "inplace",
        "label": "bool",
        "numberOfBytes": "1"
      },
      "t_bytes32": {
        "encoding": "inplace",
        "label": "bytes32",
        "numberOfBytes": "32"
      },
      "t_mapping(t_address,t_bool)": {
        "encoding": "mapping",
        "key": "t_address",
        "label": "mapping(address => bool)",
        "numberOfBytes": "32",
        "value": "t_bool"
      },
      "t_mapping(t_address,t_mapping(t_address,t_bool))": {
        "encoding": "mapping",
        "key": "t_address",
        "label": "mapping(address => mapping(address => bool))",
        "numberOfBytes": "32",
        "value": "t_mapping(t_address,t_bool)"
      },
      "t_mapping(t_address,t_uint256)": {
        "encoding": "mapping",
        "key": "t_address",
        "label": "mapping(address => uint256)",
        "numberOfBytes": "32",
        "value": "t_uint256"
      },
      "t_mapping(t_bytes32,t_struct(RoleData)56_storage)": {
        "encoding": "mapping",
        "key": "t_bytes32",
        "label": "mapping(bytes32 => struct AccessControl.RoleData)",
        "numberOfBytes": "32",
        "value": "t_struct(RoleData)56_storage"
      },
      "t_mapping(t_uint256,t_address)": {
        "encoding": "mapping",
        "key": "t_uint256",
        "label": "mapping(uint256 => address)",
        "numberOfBytes": "32",
        "value": "t_address"
      },
      "t_mapping(t_uint256,t_string_storage)": {
        "encoding": "mapping",
        "key": "t_uint256",
        "label": "mapping(uint256 => string)",
        "numberOfBytes": "32",
        "value": "t_string_storage"
      },
      "t_string_storage": {
        "encoding": "bytes",
        "label": "string",
        "numberOfBytes": "32"
      },
      "t_struct(Counter)1788_storage": {
        "encoding": "inplace",
        "label": "struct Counters.Counter",
        "members": [
          {
            "astId": 1787,
            "contract": "contracts/ArbArt.sol:ArbArt",
            "label": "_value",
            "offset": 0,
            "slot": "0",
            "type": "t_uint256"
          }
        ],
        "numberOfBytes": "32"
      },
      "t_struct(RoleData)56_storage": {
        "encoding": "inplace",
        "label": "struct AccessControl.RoleData",
        "members": [
          {
            "astId": 53,
            "contract": "contracts/ArbArt.sol:ArbArt",
            "label": "members",
            "offset": 0,
            "slot": "0",
            "type": "t_mapping(t_address,t_bool)"
          },
          {
            "astId": 55,
            "contract": "contracts/ArbArt.sol:ArbArt",
            "label": "adminRole",
            "offset": 0,
            "slot": "1",
            "type": "t_bytes32"
          }
        ],
        "numberOfBytes": "64"
      },
      "t_uint256": {
        "encoding": "inplace",
        "label": "uint256",
        "numberOfBytes": "32"
      }
    }
  }
}