{
  "address": "0xF091333236ad892daFC2F25f908A60bD9101C028",
  "abi": [
    {
      "inputs": [
        {
          "internalType": "address",
          "name": "_manager",
          "type": "address"
        },
        {
          "internalType": "address payable",
          "name": "_feesReceiver",
          "type": "address"
        }
      ],
      "stateMutability": "nonpayable",
      "type": "constructor"
    },
    {
      "anonymous": false,
      "inputs": [
        {
          "indexed": true,
          "internalType": "address",
          "name": "owner",
          "type": "address"
        },
        {
          "indexed": true,
          "internalType": "address",
          "name": "approved",
          "type": "address"
        },
        {
          "indexed": true,
          "internalType": "uint256",
          "name": "tokenId",
          "type": "uint256"
        }
      ],
      "name": "Approval",
      "type": "event"
    },
    {
      "anonymous": false,
      "inputs": [
        {
          "indexed": true,
          "internalType": "address",
          "name": "owner",
          "type": "address"
        },
        {
          "indexed": true,
          "internalType": "address",
          "name": "operator",
          "type": "address"
        },
        {
          "indexed": false,
          "internalType": "bool",
          "name": "approved",
          "type": "bool"
        }
      ],
      "name": "ApprovalForAll",
      "type": "event"
    },
    {
      "anonymous": false,
      "inputs": [
        {
          "indexed": true,
          "internalType": "bytes32",
          "name": "role",
          "type": "bytes32"
        },
        {
          "indexed": true,
          "internalType": "bytes32",
          "name": "previousAdminRole",
          "type": "bytes32"
        },
        {
          "indexed": true,
          "internalType": "bytes32",
          "name": "newAdminRole",
          "type": "bytes32"
        }
      ],
      "name": "RoleAdminChanged",
      "type": "event"
    },
    {
      "anonymous": false,
      "inputs": [
        {
          "indexed": true,
          "internalType": "bytes32",
          "name": "role",
          "type": "bytes32"
        },
        {
          "indexed": true,
          "internalType": "address",
          "name": "account",
          "type": "address"
        },
        {
          "indexed": true,
          "internalType": "address",
          "name": "sender",
          "type": "address"
        }
      ],
      "name": "RoleGranted",
      "type": "event"
    },
    {
      "anonymous": false,
      "inputs": [
        {
          "indexed": true,
          "internalType": "bytes32",
          "name": "role",
          "type": "bytes32"
        },
        {
          "indexed": true,
          "internalType": "address",
          "name": "account",
          "type": "address"
        },
        {
          "indexed": true,
          "internalType": "address",
          "name": "sender",
          "type": "address"
        }
      ],
      "name": "RoleRevoked",
      "type": "event"
    },
    {
      "anonymous": false,
      "inputs": [
        {
          "indexed": true,
          "internalType": "address",
          "name": "from",
          "type": "address"
        },
        {
          "indexed": true,
          "internalType": "address",
          "name": "to",
          "type": "address"
        },
        {
          "indexed": true,
          "internalType": "uint256",
          "name": "tokenId",
          "type": "uint256"
        }
      ],
      "name": "Transfer",
      "type": "event"
    },
    {
      "inputs": [],
      "name": "DEFAULT_ADMIN_ROLE",
      "outputs": [
        {
          "internalType": "bytes32",
          "name": "",
          "type": "bytes32"
        }
      ],
      "stateMutability": "view",
      "type": "function"
    },
    {
      "inputs": [],
      "name": "MANAGER_ROLE",
      "outputs": [
        {
          "internalType": "bytes32",
          "name": "",
          "type": "bytes32"
        }
      ],
      "stateMutability": "view",
      "type": "function"
    },
    {
      "inputs": [
        {
          "internalType": "address",
          "name": "to",
          "type": "address"
        },
        {
          "internalType": "uint256",
          "name": "tokenId",
          "type": "uint256"
        }
      ],
      "name": "approve",
      "outputs": [],
      "stateMutability": "nonpayable",
      "type": "function"
    },
    {
      "inputs": [
        {
          "internalType": "address",
          "name": "owner",
          "type": "address"
        }
      ],
      "name": "balanceOf",
      "outputs": [
        {
          "internalType": "uint256",
          "name": "",
          "type": "uint256"
        }
      ],
      "stateMutability": "view",
      "type": "function"
    },
    {
      "inputs": [
        {
          "internalType": "uint256",
          "name": "_tokenId",
          "type": "uint256"
        }
      ],
      "name": "burn",
      "outputs": [
        {
          "internalType": "bool",
          "name": "",
          "type": "bool"
        }
      ],
      "stateMutability": "nonpayable",
      "type": "function"
    },
    {
      "inputs": [],
      "name": "currentBurnPrice",
      "outputs": [
        {
          "internalType": "uint256",
          "name": "",
          "type": "uint256"
        }
      ],
      "stateMutability": "view",
      "type": "function"
    },
    {
      "inputs": [],
      "name": "currentMintPrice",
      "outputs": [
        {
          "internalType": "uint256",
          "name": "",
          "type": "uint256"
        },
        {
          "internalType": "uint256",
          "name": "",
          "type": "uint256"
        }
      ],
      "stateMutability": "view",
      "type": "function"
    },
    {
      "inputs": [],
      "name": "currentMintWithFeesPrice",
      "outputs": [
        {
          "internalType": "uint256",
          "name": "",
          "type": "uint256"
        }
      ],
      "stateMutability": "view",
      "type": "function"
    },
    {
      "inputs": [],
      "name": "currentPrice",
      "outputs": [
        {
          "internalType": "uint256",
          "name": "",
          "type": "uint256"
        }
      ],
      "stateMutability": "view",
      "type": "function"
    },
    {
      "inputs": [],
      "name": "feesReceiver",
      "outputs": [
        {
          "internalType": "address payable",
          "name": "",
          "type": "address"
        }
      ],
      "stateMutability": "view",
      "type": "function"
    },
    {
      "inputs": [
        {
          "internalType": "uint256",
          "name": "tokenId",
          "type": "uint256"
        }
      ],
      "name": "getApproved",
      "outputs": [
        {
          "internalType": "address",
          "name": "",
          "type": "address"
        }
      ],
      "stateMutability": "view",
      "type": "function"
    },
    {
      "inputs": [
        {
          "internalType": "bytes32",
          "name": "role",
          "type": "bytes32"
        }
      ],
      "name": "getRoleAdmin",
      "outputs": [
        {
          "internalType": "bytes32",
          "name": "",
          "type": "bytes32"
        }
      ],
      "stateMutability": "view",
      "type": "function"
    },
    {
      "inputs": [
        {
          "internalType": "bytes32",
          "name": "role",
          "type": "bytes32"
        },
        {
          "internalType": "address",
          "name": "account",
          "type": "address"
        }
      ],
      "name": "grantRole",
      "outputs": [],
      "stateMutability": "nonpayable",
      "type": "function"
    },
    {
      "inputs": [
        {
          "internalType": "bytes32",
          "name": "role",
          "type": "bytes32"
        },
        {
          "internalType": "address",
          "name": "account",
          "type": "address"
        }
      ],
      "name": "hasRole",
      "outputs": [
        {
          "internalType": "bool",
          "name": "",
          "type": "bool"
        }
      ],
      "stateMutability": "view",
      "type": "function"
    },
    {
      "inputs": [
        {
          "internalType": "address",
          "name": "owner",
          "type": "address"
        },
        {
          "internalType": "address",
          "name": "operator",
          "type": "address"
        }
      ],
      "name": "isApprovedForAll",
      "outputs": [
        {
          "internalType": "bool",
          "name": "",
          "type": "bool"
        }
      ],
      "stateMutability": "view",
      "type": "function"
    },
    {
      "inputs": [
        {
          "internalType": "string",
          "name": "_uri",
          "type": "string"
        },
        {
          "internalType": "address",
          "name": "_signer",
          "type": "address"
        },
        {
          "internalType": "bytes",
          "name": "_signature",
          "type": "bytes"
        }
      ],
      "name": "mint",
      "outputs": [
        {
          "internalType": "uint256",
          "name": "_tokenId",
          "type": "uint256"
        }
      ],
      "stateMutability": "payable",
      "type": "function"
    },
    {
      "inputs": [
        {
          "internalType": "uint256",
          "name": "_current",
          "type": "uint256"
        }
      ],
      "name": "mintPriceFor",
      "outputs": [
        {
          "internalType": "uint256",
          "name": "_currentPrice",
          "type": "uint256"
        },
        {
          "internalType": "uint256",
          "name": "_fees",
          "type": "uint256"
        }
      ],
      "stateMutability": "pure",
      "type": "function"
    },
    {
      "inputs": [
        {
          "internalType": "uint256",
          "name": "_current",
          "type": "uint256"
        }
      ],
      "name": "mintWithFeesPriceFor",
      "outputs": [
        {
          "internalType": "uint256",
          "name": "",
          "type": "uint256"
        }
      ],
      "stateMutability": "pure",
      "type": "function"
    },
    {
      "inputs": [],
      "name": "name",
      "outputs": [
        {
          "internalType": "string",
          "name": "",
          "type": "string"
        }
      ],
      "stateMutability": "view",
      "type": "function"
    },
    {
      "inputs": [
        {
          "internalType": "uint256",
          "name": "tokenId",
          "type": "uint256"
        }
      ],
      "name": "ownerOf",
      "outputs": [
        {
          "internalType": "address",
          "name": "",
          "type": "address"
        }
      ],
      "stateMutability": "view",
      "type": "function"
    },
    {
      "inputs": [
        {
          "internalType": "uint256",
          "name": "_current",
          "type": "uint256"
        }
      ],
      "name": "priceFor",
      "outputs": [
        {
          "internalType": "uint256",
          "name": "",
          "type": "uint256"
        }
      ],
      "stateMutability": "pure",
      "type": "function"
    },
    {
      "inputs": [
        {
          "internalType": "bytes32",
          "name": "role",
          "type": "bytes32"
        },
        {
          "internalType": "address",
          "name": "account",
          "type": "address"
        }
      ],
      "name": "renounceRole",
      "outputs": [],
      "stateMutability": "nonpayable",
      "type": "function"
    },
    {
      "inputs": [
        {
          "internalType": "bytes32",
          "name": "role",
          "type": "bytes32"
        },
        {
          "internalType": "address",
          "name": "account",
          "type": "address"
        }
      ],
      "name": "revokeRole",
      "outputs": [],
      "stateMutability": "nonpayable",
      "type": "function"
    },
    {
      "inputs": [
        {
          "internalType": "address",
          "name": "from",
          "type": "address"
        },
        {
          "internalType": "address",
          "name": "to",
          "type": "address"
        },
        {
          "internalType": "uint256",
          "name": "tokenId",
          "type": "uint256"
        }
      ],
      "name": "safeTransferFrom",
      "outputs": [],
      "stateMutability": "nonpayable",
      "type": "function"
    },
    {
      "inputs": [
        {
          "internalType": "address",
          "name": "from",
          "type": "address"
        },
        {
          "internalType": "address",
          "name": "to",
          "type": "address"
        },
        {
          "internalType": "uint256",
          "name": "tokenId",
          "type": "uint256"
        },
        {
          "internalType": "bytes",
          "name": "_data",
          "type": "bytes"
        }
      ],
      "name": "safeTransferFrom",
      "outputs": [],
      "stateMutability": "nonpayable",
      "type": "function"
    },
    {
      "inputs": [
        {
          "internalType": "address",
          "name": "operator",
          "type": "address"
        },
        {
          "internalType": "bool",
          "name": "approved",
          "type": "bool"
        }
      ],
      "name": "setApprovalForAll",
      "outputs": [],
      "stateMutability": "nonpayable",
      "type": "function"
    },
    {
      "inputs": [
        {
          "internalType": "bytes4",
          "name": "interfaceId",
          "type": "bytes4"
        }
      ],
      "name": "supportsInterface",
      "outputs": [
        {
          "internalType": "bool",
          "name": "",
          "type": "bool"
        }
      ],
      "stateMutability": "view",
      "type": "function"
    },
    {
      "inputs": [],
      "name": "symbol",
      "outputs": [
        {
          "internalType": "string",
          "name": "",
          "type": "string"
        }
      ],
      "stateMutability": "view",
      "type": "function"
    },
    {
      "inputs": [
        {
          "internalType": "uint256",
          "name": "tokenId",
          "type": "uint256"
        }
      ],
      "name": "tokenURI",
      "outputs": [
        {
          "internalType": "string",
          "name": "",
          "type": "string"
        }
      ],
      "stateMutability": "view",
      "type": "function"
    },
    {
      "inputs": [
        {
          "internalType": "address",
          "name": "from",
          "type": "address"
        },
        {
          "internalType": "address",
          "name": "to",
          "type": "address"
        },
        {
          "internalType": "uint256",
          "name": "tokenId",
          "type": "uint256"
        }
      ],
      "name": "transferFrom",
      "outputs": [],
      "stateMutability": "nonpayable",
      "type": "function"
    }
  ],
  "transactionHash": "0x8ab8dfd47404a1e75d5226a413300f878dd5546963cc4d5e6acb8716d60fb21f",
  "args": [
    "0xE4D29ec42F4057EfF92c9124c82844b2689f9C6d",
    "0x91a5D3bCe5317D5579E780d67021fEc692575d1d"
  ],
  "solcInputHash": "532b3ad53cd1538002db9c38e6e8137a",
  "bytecode": "0x60a06040523480156200001157600080fd5b5060405162002a1738038062002a1783398101604081905262000034916200023f565b6040805180820182526006815265105c98905c9d60d21b6020808301918252835180850190945260048452631054909560e21b9084015281519192916200007e9160009162000199565b5080516200009490600190602084019062000199565b505050620000c97fb4ff4dd8def22935f932557156140da3badd09121dc9b47c4c4292eea2ecdd1d83620000e560201b60201c565b60601b6001600160601b031916608052506001600855620002d3565b620000f18282620000f5565b5050565b60008281526007602090815260408083206001600160a01b038516845290915290205460ff16620000f15760008281526007602090815260408083206001600160a01b03851684529091529020805460ff19166001179055620001553390565b6001600160a01b0316816001600160a01b0316837f2f8788117e7eff1d82e926ec794901d17c78024a50270940304540a733656f0d60405160405180910390a45050565b828054620001a7906200027d565b90600052602060002090601f016020900481019282620001cb576000855562000216565b82601f10620001e657805160ff191683800117855562000216565b8280016001018555821562000216579182015b8281111562000216578251825591602001919060010190620001f9565b506200022492915062000228565b5090565b5b8082111562000224576000815560010162000229565b6000806040838503121562000252578182fd5b82516200025f81620002ba565b60208401519092506200027281620002ba565b809150509250929050565b600181811c908216806200029257607f821691505b60208210811415620002b457634e487b7160e01b600052602260045260246000fd5b50919050565b6001600160a01b0381168114620002d057600080fd5b50565b60805160601c61271e620002f9600039600081816105040152610a54015261271e6000f3fe6080604052600436106101cd5760003560e01c80638d5555f2116100f7578063a22cb46511610095578063d547741f11610064578063d547741f14610546578063e985e9c514610566578063ec87621c146105af578063f620c815146105e3576101cd565b8063a22cb465146104b2578063b88d4fde146104d2578063bca93cf5146104f2578063c87b56dd14610526576101cd565b806395d89b41116100d157806395d89b411461045357806399f7ab31146104685780639d1b464a14610488578063a217fddf1461049d576101cd565b80638d5555f2146103f35780638def9f821461041357806391d1485414610433576101cd565b8063251a701a1161016f57806342966c681161013e57806342966c681461037e5780636352211e1461039e57806370a08231146103be57806377119765146103de576101cd565b8063251a701a1461030b5780632f2ff15d1461031e57806336568abe1461033e57806342842e0e1461035e576101cd565b8063081812fc116101ab578063081812fc14610253578063095ea7b31461028b57806323b872dd146102ad578063248a9ca3146102cd576101cd565b806301ffc9a7146101d25780630561942a1461020757806306fdde0314610231575b600080fd5b3480156101de57600080fd5b506101f26101ed36600461223d565b6105f8565b60405190151581526020015b60405180910390f35b34801561021357600080fd5b5061021c61061a565b604080519283526020830191909152016101fe565b34801561023d57600080fd5b50610246610631565b6040516101fe91906123cb565b34801561025f57600080fd5b5061027361026e366004612203565b6106c3565b6040516001600160a01b0390911681526020016101fe565b34801561029757600080fd5b506102ab6102a63660046121da565b610750565b005b3480156102b957600080fd5b506102ab6102c83660046120ff565b610866565b3480156102d957600080fd5b506102fd6102e8366004612203565b60009081526007602052604090206001015490565b6040519081526020016101fe565b6102fd610319366004612275565b610897565b34801561032a57600080fd5b506102ab61033936600461221b565b610a86565b34801561034a57600080fd5b506102ab61035936600461221b565b610b15565b34801561036a57600080fd5b506102ab6103793660046120ff565b610b8f565b34801561038a57600080fd5b506101f2610399366004612203565b610baa565b3480156103aa57600080fd5b506102736103b9366004612203565b610c1f565b3480156103ca57600080fd5b506102fd6103d93660046120b3565b610c96565b3480156103ea57600080fd5b506102fd610d1d565b3480156103ff57600080fd5b506102fd61040e366004612203565b610d3c565b34801561041f57600080fd5b506102fd61042e366004612203565b610d68565b34801561043f57600080fd5b506101f261044e36600461221b565b610d8d565b34801561045f57600080fd5b50610246610db8565b34801561047457600080fd5b5061021c610483366004612203565b610dc7565b34801561049457600080fd5b506102fd610de7565b3480156104a957600080fd5b506102fd600081565b3480156104be57600080fd5b506102ab6104cd3660046121a0565b610df5565b3480156104de57600080fd5b506102ab6104ed36600461213a565b610ec7565b3480156104fe57600080fd5b506102737f000000000000000000000000000000000000000000000000000000000000000081565b34801561053257600080fd5b50610246610541366004612203565b610eff565b34801561055257600080fd5b506102ab61056136600461221b565b61107e565b34801561057257600080fd5b506101f26105813660046120cd565b6001600160a01b03918216600090815260056020908152604080832093909416825291909152205460ff1690565b3480156105bb57600080fd5b506102fd7fb4ff4dd8def22935f932557156140da3badd09121dc9b47c4c4292eea2ecdd1d81565b3480156105ef57600080fd5b506102fd6110fe565b60006106038261110c565b8061061257506106128261112d565b90505b919050565b60008061062961048360085490565b915091509091565b60606000805461064090612626565b80601f016020809104026020016040519081016040528092919081815260200182805461066c90612626565b80156106b95780601f1061068e576101008083540402835291602001916106b9565b820191906000526020600020905b81548152906001019060200180831161069c57829003601f168201915b5050505050905090565b60006106ce8261117d565b6107345760405162461bcd60e51b815260206004820152602c60248201527f4552433732313a20617070726f76656420717565727920666f72206e6f6e657860448201526b34b9ba32b73a103a37b5b2b760a11b60648201526084015b60405180910390fd5b506000908152600460205260409020546001600160a01b031690565b600061075b82610c1f565b9050806001600160a01b0316836001600160a01b031614156107c95760405162461bcd60e51b815260206004820152602160248201527f4552433732313a20617070726f76616c20746f2063757272656e74206f776e656044820152603960f91b606482015260840161072b565b336001600160a01b03821614806107e557506107e58133610581565b6108575760405162461bcd60e51b815260206004820152603860248201527f4552433732313a20617070726f76652063616c6c6572206973206e6f74206f7760448201527f6e6572206e6f7220617070726f76656420666f7220616c6c0000000000000000606482015260840161072b565b610861838361119a565b505050565b6108703382611208565b61088c5760405162461bcd60e51b815260040161072b90612430565b6108618383836112ee565b60006108c37fb4ff4dd8def22935f932557156140da3badd09121dc9b47c4c4292eea2ecdd1d84610d8d565b6108f75760405162461bcd60e51b815260206004820152600560248201526427afa6afa960d91b604482015260640161072b565b600084338560405160200161090e93929190612328565b604051602081830303815290604052905060006109898461098384805190602001206040517f19457468657265756d205369676e6564204d6573736167653a0a3332000000006020820152603c8101829052600090605c01604051602081830303815290604052805190602001209050919050565b9061148e565b9050806001600160a01b0316856001600160a01b0316146109d45760405162461bcd60e51b8152602060048201526005602482015264495f525f4160d81b604482015260640161072b565b6000806109df61061a565b90925090506109ee8183612481565b3414610a225760405162461bcd60e51b8152602060048201526003602482015262415f4960e81b604482015260640161072b565b610a30600880546001019055565b339450610a3d8580611509565b610a478589611523565b610a7a6001600160a01b037f000000000000000000000000000000000000000000000000000000000000000016826115ae565b505050505b9392505050565b600082815260076020526040902060010154610aa3905b3361044e565b610b075760405162461bcd60e51b815260206004820152602f60248201527f416363657373436f6e74726f6c3a2073656e646572206d75737420626520616e60448201526e0818591b5a5b881d1bc819dc985b9d608a1b606482015260840161072b565b610b1182826116c7565b5050565b6001600160a01b0381163314610b855760405162461bcd60e51b815260206004820152602f60248201527f416363657373436f6e74726f6c3a2063616e206f6e6c792072656e6f756e636560448201526e103937b632b9903337b91039b2b63360891b606482015260840161072b565b610b11828261174d565b61086183838360405180602001604052806000815250610ec7565b600033610bb683610c1f565b6001600160a01b031614610bf25760405162461bcd60e51b81526020600482015260036024820152624e5f4f60e81b604482015260640161072b565b610bfc60086117b4565b610c058261180b565b610c17610c10610de7565b33906115ae565b506001919050565b6000818152600260205260408120546001600160a01b0316806106125760405162461bcd60e51b815260206004820152602960248201527f4552433732313a206f776e657220717565727920666f72206e6f6e657869737460448201526832b73a103a37b5b2b760b91b606482015260840161072b565b60006001600160a01b038216610d015760405162461bcd60e51b815260206004820152602a60248201527f4552433732313a2062616c616e636520717565727920666f7220746865207a65604482015269726f206164647265737360b01b606482015260840161072b565b506001600160a01b031660009081526003602052604090205490565b6000610d376001610d2d60085490565b61040e91906125e3565b905090565b6000612710610d4c6002846124f3565b610d5e90670de0b6b3a76400006125c4565b6106129190612499565b6000806000610d7684610dc7565b9092509050610d858183612481565b949350505050565b60009182526007602090815260408084206001600160a01b0393909316845291905290205460ff1690565b60606001805461064090612626565b600080610dd383610d3c565b9150610de0600a83612499565b9050915091565b6000610d3761040e60085490565b6001600160a01b038216331415610e4e5760405162461bcd60e51b815260206004820152601960248201527f4552433732313a20617070726f766520746f2063616c6c657200000000000000604482015260640161072b565b3360008181526005602090815260408083206001600160a01b0387168085529252909120805460ff1916841515179055906001600160a01b03167f17307eab39ab6107e8899845ad3d59bd9653f200f220920489ca2b5937696c3183604051610ebb911515815260200190565b60405180910390a35050565b610ed13383611208565b610eed5760405162461bcd60e51b815260040161072b90612430565b610ef98484848461184e565b50505050565b6060610f0a8261117d565b610f705760405162461bcd60e51b815260206004820152603160248201527f45524337323155524953746f726167653a2055524920717565727920666f72206044820152703737b732bc34b9ba32b73a103a37b5b2b760791b606482015260840161072b565b60008281526006602052604081208054610f8990612626565b80601f0160208091040260200160405190810160405280929190818152602001828054610fb590612626565b80156110025780601f10610fd757610100808354040283529160200191611002565b820191906000526020600020905b815481529060010190602001808311610fe557829003601f168201915b50505050509050600061102f604080518082019091526007815266697066733a2f2f60c81b602082015290565b905080516000141561104357509050610615565b81511561107557808260405160200161105d929190612369565b60405160208183030381529060405292505050610615565b610d8584611881565b60008281526007602052604090206001015461109990610a9d565b610b855760405162461bcd60e51b815260206004820152603060248201527f416363657373436f6e74726f6c3a2073656e646572206d75737420626520616e60448201526f2061646d696e20746f207265766f6b6560801b606482015260840161072b565b6000610d3761042e60085490565b60006001600160e01b03198216637965db0b60e01b14806106125750610612825b60006001600160e01b031982166380ac58cd60e01b148061115e57506001600160e01b03198216635b5e139f60e01b145b8061061257506301ffc9a760e01b6001600160e01b0319831614610612565b6000908152600260205260409020546001600160a01b0316151590565b600081815260046020526040902080546001600160a01b0319166001600160a01b03841690811790915581906111cf82610c1f565b6001600160a01b03167f8c5be1e5ebec7d5bd14f71427d1e84f3dd0314c0f7b2291e5b200ac8c7c3b92560405160405180910390a45050565b60006112138261117d565b6112745760405162461bcd60e51b815260206004820152602c60248201527f4552433732313a206f70657261746f7220717565727920666f72206e6f6e657860448201526b34b9ba32b73a103a37b5b2b760a11b606482015260840161072b565b600061127f83610c1f565b9050806001600160a01b0316846001600160a01b031614806112ba5750836001600160a01b03166112af846106c3565b6001600160a01b0316145b80610d8557506001600160a01b0380821660009081526005602090815260408083209388168352929052205460ff16610d85565b826001600160a01b031661130182610c1f565b6001600160a01b0316146113695760405162461bcd60e51b815260206004820152602960248201527f4552433732313a207472616e73666572206f6620746f6b656e2074686174206960448201526839903737ba1037bbb760b91b606482015260840161072b565b6001600160a01b0382166113cb5760405162461bcd60e51b8152602060048201526024808201527f4552433732313a207472616e7366657220746f20746865207a65726f206164646044820152637265737360e01b606482015260840161072b565b6113d660008261119a565b6001600160a01b03831660009081526003602052604081208054600192906113ff9084906125e3565b90915550506001600160a01b038216600090815260036020526040812080546001929061142d908490612481565b909155505060008181526002602052604080822080546001600160a01b0319166001600160a01b0386811691821790925591518493918716917fddf252ad1be2c89b69c2b068fc378daa952ba7f163c4a11628f55a4df523b3ef91a4505050565b600081516041146114e15760405162461bcd60e51b815260206004820152601f60248201527f45434453413a20696e76616c6964207369676e6174757265206c656e67746800604482015260640161072b565b60208201516040830151606084015160001a6114ff86828585611967565b9695505050505050565b610b11828260405180602001604052806000815250611b10565b61152c8261117d565b61158f5760405162461bcd60e51b815260206004820152602e60248201527f45524337323155524953746f726167653a2055524920736574206f66206e6f6e60448201526d32bc34b9ba32b73a103a37b5b2b760911b606482015260840161072b565b6000828152600660209081526040909120825161086192840190611f36565b804710156115fe5760405162461bcd60e51b815260206004820152601d60248201527f416464726573733a20696e73756666696369656e742062616c616e6365000000604482015260640161072b565b6000826001600160a01b03168260405160006040518083038185875af1925050503d806000811461164b576040519150601f19603f3d011682016040523d82523d6000602084013e611650565b606091505b50509050806108615760405162461bcd60e51b815260206004820152603a60248201527f416464726573733a20756e61626c6520746f2073656e642076616c75652c207260448201527f6563697069656e74206d61792068617665207265766572746564000000000000606482015260840161072b565b6116d18282610d8d565b610b115760008281526007602090815260408083206001600160a01b03851684529091529020805460ff191660011790556117093390565b6001600160a01b0316816001600160a01b0316837f2f8788117e7eff1d82e926ec794901d17c78024a50270940304540a733656f0d60405160405180910390a45050565b6117578282610d8d565b15610b115760008281526007602090815260408083206001600160a01b0385168085529252808320805460ff1916905551339285917ff6391f5c32d9c69d2a47ea670b442974b53935d1edc7fd64eb21e047a839171b9190a45050565b8054806118035760405162461bcd60e51b815260206004820152601b60248201527f436f756e7465723a2064656372656d656e74206f766572666c6f770000000000604482015260640161072b565b600019019055565b61181481611b43565b6000818152600660205260409020805461182d90612626565b15905061184b57600081815260066020526040812061184b91611fba565b50565b6118598484846112ee565b61186584848484611bde565b610ef95760405162461bcd60e51b815260040161072b906123de565b606061188c8261117d565b6118f05760405162461bcd60e51b815260206004820152602f60248201527f4552433732314d657461646174613a2055524920717565727920666f72206e6f60448201526e3732bc34b9ba32b73a103a37b5b2b760891b606482015260840161072b565b6000611916604080518082019091526007815266697066733a2f2f60c81b602082015290565b905060008151116119365760405180602001604052806000815250610a7f565b8061194084611ce8565b604051602001611951929190612369565b6040516020818303038152906040529392505050565b60007f7fffffffffffffffffffffffffffffff5d576e7357a4501ddfe92f46681b20a08211156119e45760405162461bcd60e51b815260206004820152602260248201527f45434453413a20696e76616c6964207369676e6174757265202773272076616c604482015261756560f01b606482015260840161072b565b8360ff16601b14806119f957508360ff16601c145b611a505760405162461bcd60e51b815260206004820152602260248201527f45434453413a20696e76616c6964207369676e6174757265202776272076616c604482015261756560f01b606482015260840161072b565b6040805160008082526020820180845288905260ff871692820192909252606081018590526080810184905260019060a0016020604051602081039080840390855afa158015611aa4573d6000803e3d6000fd5b5050604051601f1901519150506001600160a01b038116611b075760405162461bcd60e51b815260206004820152601860248201527f45434453413a20696e76616c6964207369676e61747572650000000000000000604482015260640161072b565b95945050505050565b611b1a8383611e03565b611b276000848484611bde565b6108615760405162461bcd60e51b815260040161072b906123de565b6000611b4e82610c1f565b9050611b5b60008361119a565b6001600160a01b0381166000908152600360205260408120805460019290611b849084906125e3565b909155505060008281526002602052604080822080546001600160a01b0319169055518391906001600160a01b038416907fddf252ad1be2c89b69c2b068fc378daa952ba7f163c4a11628f55a4df523b3ef908390a45050565b60006001600160a01b0384163b15611ce057604051630a85bd0160e11b81526001600160a01b0385169063150b7a0290611c22903390899088908890600401612398565b602060405180830381600087803b158015611c3c57600080fd5b505af1925050508015611c6c575060408051601f3d908101601f19168201909252611c6991810190612259565b60015b611cc6573d808015611c9a576040519150601f19603f3d011682016040523d82523d6000602084013e611c9f565b606091505b508051611cbe5760405162461bcd60e51b815260040161072b906123de565b805181602001fd5b6001600160e01b031916630a85bd0160e11b149050610d85565b506001610d85565b606081611d0d57506040805180820190915260018152600360fc1b6020820152610615565b8160005b8115611d375780611d2181612661565b9150611d309050600a83612499565b9150611d11565b60008167ffffffffffffffff811115611d6057634e487b7160e01b600052604160045260246000fd5b6040519080825280601f01601f191660200182016040528015611d8a576020820181803683370190505b5090505b8415610d8557611d9f6001836125e3565b9150611dac600a8661267c565b611db7906030612481565b60f81b818381518110611dda57634e487b7160e01b600052603260045260246000fd5b60200101906001600160f81b031916908160001a905350611dfc600a86612499565b9450611d8e565b6001600160a01b038216611e595760405162461bcd60e51b815260206004820181905260248201527f4552433732313a206d696e7420746f20746865207a65726f2061646472657373604482015260640161072b565b611e628161117d565b15611eaf5760405162461bcd60e51b815260206004820152601c60248201527f4552433732313a20746f6b656e20616c7265616479206d696e74656400000000604482015260640161072b565b6001600160a01b0382166000908152600360205260408120805460019290611ed8908490612481565b909155505060008181526002602052604080822080546001600160a01b0319166001600160a01b03861690811790915590518392907fddf252ad1be2c89b69c2b068fc378daa952ba7f163c4a11628f55a4df523b3ef908290a45050565b828054611f4290612626565b90600052602060002090601f016020900481019282611f645760008555611faa565b82601f10611f7d57805160ff1916838001178555611faa565b82800160010185558215611faa579182015b82811115611faa578251825591602001919060010190611f8f565b50611fb6929150611ff2565b5090565b508054611fc690612626565b6000825580601f10611fd8575061184b565b601f01602090049060005260206000209081019061184b91905b5b80821115611fb65760008155600101611ff3565b600067ffffffffffffffff80841115612022576120226126bc565b604051601f8501601f19908116603f0116810190828211818310171561204a5761204a6126bc565b8160405280935085815286868601111561206357600080fd5b858560208301376000602087830101525050509392505050565b80356001600160a01b038116811461061557600080fd5b600082601f8301126120a4578081fd5b610a7f83833560208501612007565b6000602082840312156120c4578081fd5b610a7f8261207d565b600080604083850312156120df578081fd5b6120e88361207d565b91506120f66020840161207d565b90509250929050565b600080600060608486031215612113578081fd5b61211c8461207d565b925061212a6020850161207d565b9150604084013590509250925092565b6000806000806080858703121561214f578081fd5b6121588561207d565b93506121666020860161207d565b925060408501359150606085013567ffffffffffffffff811115612188578182fd5b61219487828801612094565b91505092959194509250565b600080604083850312156121b2578182fd5b6121bb8361207d565b9150602083013580151581146121cf578182fd5b809150509250929050565b600080604083850312156121ec578182fd5b6121f58361207d565b946020939093013593505050565b600060208284031215612214578081fd5b5035919050565b6000806040838503121561222d578182fd5b823591506120f66020840161207d565b60006020828403121561224e578081fd5b8135610a7f816126d2565b60006020828403121561226a578081fd5b8151610a7f816126d2565b600080600060608486031215612289578283fd5b833567ffffffffffffffff808211156122a0578485fd5b818601915086601f8301126122b3578485fd5b6122c287833560208501612007565b94506122d06020870161207d565b935060408601359150808211156122e5578283fd5b506122f286828701612094565b9150509250925092565b600081518084526123148160208601602086016125fa565b601f01601f19169290920160200192915050565b6000845161233a8184602089016125fa565b6bffffffffffffffffffffffff19606095861b8116919093019081529290931b16601482015260280192915050565b6000835161237b8184602088016125fa565b83519083019061238f8183602088016125fa565b01949350505050565b6001600160a01b03858116825284166020820152604081018390526080606082018190526000906114ff908301846122fc565b600060208252610a7f60208301846122fc565b60208082526032908201527f4552433732313a207472616e7366657220746f206e6f6e20455243373231526560408201527131b2b4bb32b91034b6b83632b6b2b73a32b960711b606082015260800190565b60208082526031908201527f4552433732313a207472616e736665722063616c6c6572206973206e6f74206f6040820152701ddb995c881b9bdc88185c1c1c9bdd9959607a1b606082015260800190565b6000821982111561249457612494612690565b500190565b6000826124a8576124a86126a6565b500490565b80825b60018086116124bf57506124ea565b8187048211156124d1576124d1612690565b808616156124de57918102915b9490941c9380026124b0565b94509492505050565b6000610a7f60001960ff85168460008261250f57506001610a7f565b8161251c57506000610a7f565b8160018114612532576002811461253c57612569565b6001915050610a7f565b60ff84111561254d5761254d612690565b6001841b91508482111561256357612563612690565b50610a7f565b5060208310610133831016604e8410600b841016171561259c575081810a8381111561259757612597612690565b610a7f565b6125a984848460016124ad565b8086048211156125bb576125bb612690565b02949350505050565b60008160001904831182151516156125de576125de612690565b500290565b6000828210156125f5576125f5612690565b500390565b60005b838110156126155781810151838201526020016125fd565b83811115610ef95750506000910152565b600181811c9082168061263a57607f821691505b6020821081141561265b57634e487b7160e01b600052602260045260246000fd5b50919050565b600060001982141561267557612675612690565b5060010190565b60008261268b5761268b6126a6565b500690565b634e487b7160e01b600052601160045260246000fd5b634e487b7160e01b600052601260045260246000fd5b634e487b7160e01b600052604160045260246000fd5b6001600160e01b03198116811461184b57600080fdfea264697066735822122062792f5b26ff8a35e4bf6fa750e199c6903d6a19a70cb61bea755d78851621e364736f6c63430008030033",
  "devdoc": {
    "kind": "dev",
    "methods": {
      "approve(address,uint256)": {
        "details": "See {IERC721-approve}."
      },
      "balanceOf(address)": {
        "details": "See {IERC721-balanceOf}."
      },
      "getApproved(uint256)": {
        "details": "See {IERC721-getApproved}."
      },
      "getRoleAdmin(bytes32)": {
        "details": "Returns the admin role that controls `role`. See {grantRole} and {revokeRole}. To change a role's admin, use {_setRoleAdmin}."
      },
      "grantRole(bytes32,address)": {
        "details": "Grants `role` to `account`. If `account` had not been already granted `role`, emits a {RoleGranted} event. Requirements: - the caller must have ``role``'s admin role."
      },
      "hasRole(bytes32,address)": {
        "details": "Returns `true` if `account` has been granted `role`."
      },
      "isApprovedForAll(address,address)": {
        "details": "See {IERC721-isApprovedForAll}."
      },
      "name()": {
        "details": "See {IERC721Metadata-name}."
      },
      "ownerOf(uint256)": {
        "details": "See {IERC721-ownerOf}."
      },
      "renounceRole(bytes32,address)": {
        "details": "Revokes `role` from the calling account. Roles are often managed via {grantRole} and {revokeRole}: this function's purpose is to provide a mechanism for accounts to lose their privileges if they are compromised (such as when a trusted device is misplaced). If the calling account had been granted `role`, emits a {RoleRevoked} event. Requirements: - the caller must be `account`."
      },
      "revokeRole(bytes32,address)": {
        "details": "Revokes `role` from `account`. If `account` had been granted `role`, emits a {RoleRevoked} event. Requirements: - the caller must have ``role``'s admin role."
      },
      "safeTransferFrom(address,address,uint256)": {
        "details": "See {IERC721-safeTransferFrom}."
      },
      "safeTransferFrom(address,address,uint256,bytes)": {
        "details": "See {IERC721-safeTransferFrom}."
      },
      "setApprovalForAll(address,bool)": {
        "details": "See {IERC721-setApprovalForAll}."
      },
      "symbol()": {
        "details": "See {IERC721Metadata-symbol}."
      },
      "tokenURI(uint256)": {
        "details": "See {IERC721Metadata-tokenURI}."
      },
      "transferFrom(address,address,uint256)": {
        "details": "See {IERC721-transferFrom}."
      }
    },
    "version": 1
  },
  "userdoc": {
    "kind": "user",
    "methods": {},
    "version": 1
  },
  "storageLayout": {
    "storage": [
      {
        "astId": 349,
        "contract": "contracts/ArbArt.sol:ArbArt",
        "label": "_name",
        "offset": 0,
        "slot": "0",
        "type": "t_string_storage"
      },
      {
        "astId": 351,
        "contract": "contracts/ArbArt.sol:ArbArt",
        "label": "_symbol",
        "offset": 0,
        "slot": "1",
        "type": "t_string_storage"
      },
      {
        "astId": 355,
        "contract": "contracts/ArbArt.sol:ArbArt",
        "label": "_owners",
        "offset": 0,
        "slot": "2",
        "type": "t_mapping(t_uint256,t_address)"
      },
      {
        "astId": 359,
        "contract": "contracts/ArbArt.sol:ArbArt",
        "label": "_balances",
        "offset": 0,
        "slot": "3",
        "type": "t_mapping(t_address,t_uint256)"
      },
      {
        "astId": 363,
        "contract": "contracts/ArbArt.sol:ArbArt",
        "label": "_tokenApprovals",
        "offset": 0,
        "slot": "4",
        "type": "t_mapping(t_uint256,t_address)"
      },
      {
        "astId": 369,
        "contract": "contracts/ArbArt.sol:ArbArt",
        "label": "_operatorApprovals",
        "offset": 0,
        "slot": "5",
        "type": "t_mapping(t_address,t_mapping(t_address,t_bool))"
      },
      {
        "astId": 1290,
        "contract": "contracts/ArbArt.sol:ArbArt",
        "label": "_tokenURIs",
        "offset": 0,
        "slot": "6",
        "type": "t_mapping(t_uint256,t_string_storage)"
      },
      {
        "astId": 61,
        "contract": "contracts/ArbArt.sol:ArbArt",
        "label": "_roles",
        "offset": 0,
        "slot": "7",
        "type": "t_mapping(t_bytes32,t_struct(RoleData)56_storage)"
      },
      {
        "astId": 2247,
        "contract": "contracts/ArbArt.sol:ArbArt",
        "label": "countMint",
        "offset": 0,
        "slot": "8",
        "type": "t_struct(Counter)1788_storage"
      }
    ],
    "types": {
      "t_address": {
        "encoding": "inplace",
        "label": "address",
        "numberOfBytes": "20"
      },
      "t_bool": {
        "encoding": "inplace",
        "label": "bool",
        "numberOfBytes": "1"
      },
      "t_bytes32": {
        "encoding": "inplace",
        "label": "bytes32",
        "numberOfBytes": "32"
      },
      "t_mapping(t_address,t_bool)": {
        "encoding": "mapping",
        "key": "t_address",
        "label": "mapping(address => bool)",
        "numberOfBytes": "32",
        "value": "t_bool"
      },
      "t_mapping(t_address,t_mapping(t_address,t_bool))": {
        "encoding": "mapping",
        "key": "t_address",
        "label": "mapping(address => mapping(address => bool))",
        "numberOfBytes": "32",
        "value": "t_mapping(t_address,t_bool)"
      },
      "t_mapping(t_address,t_uint256)": {
        "encoding": "mapping",
        "key": "t_address",
        "label": "mapping(address => uint256)",
        "numberOfBytes": "32",
        "value": "t_uint256"
      },
      "t_mapping(t_bytes32,t_struct(RoleData)56_storage)": {
        "encoding": "mapping",
        "key": "t_bytes32",
        "label": "mapping(bytes32 => struct AccessControl.RoleData)",
        "numberOfBytes": "32",
        "value": "t_struct(RoleData)56_storage"
      },
      "t_mapping(t_uint256,t_address)": {
        "encoding": "mapping",
        "key": "t_uint256",
        "label": "mapping(uint256 => address)",
        "numberOfBytes": "32",
        "value": "t_address"
      },
      "t_mapping(t_uint256,t_string_storage)": {
        "encoding": "mapping",
        "key": "t_uint256",
        "label": "mapping(uint256 => string)",
        "numberOfBytes": "32",
        "value": "t_string_storage"
      },
      "t_string_storage": {
        "encoding": "bytes",
        "label": "string",
        "numberOfBytes": "32"
      },
      "t_struct(Counter)1788_storage": {
        "encoding": "inplace",
        "label": "struct Counters.Counter",
        "members": [
          {
            "astId": 1787,
            "contract": "contracts/ArbArt.sol:ArbArt",
            "label": "_value",
            "offset": 0,
            "slot": "0",
            "type": "t_uint256"
          }
        ],
        "numberOfBytes": "32"
      },
      "t_struct(RoleData)56_storage": {
        "encoding": "inplace",
        "label": "struct AccessControl.RoleData",
        "members": [
          {
            "astId": 53,
            "contract": "contracts/ArbArt.sol:ArbArt",
            "label": "members",
            "offset": 0,
            "slot": "0",
            "type": "t_mapping(t_address,t_bool)"
          },
          {
            "astId": 55,
            "contract": "contracts/ArbArt.sol:ArbArt",
            "label": "adminRole",
            "offset": 0,
            "slot": "1",
            "type": "t_bytes32"
          }
        ],
        "numberOfBytes": "64"
      },
      "t_uint256": {
        "encoding": "inplace",
        "label": "uint256",
        "numberOfBytes": "32"
      }
    }
  }
}