{
  "address": "0x8d9808B75A62ACda4011cd82F017D310738bD878",
  "abi": [
    {
      "inputs": [
        {
          "internalType": "address",
          "name": "_manager",
          "type": "address"
        }
      ],
      "stateMutability": "nonpayable",
      "type": "constructor"
    },
    {
      "anonymous": false,
      "inputs": [
        {
          "indexed": true,
          "internalType": "address",
          "name": "owner",
          "type": "address"
        },
        {
          "indexed": true,
          "internalType": "address",
          "name": "approved",
          "type": "address"
        },
        {
          "indexed": true,
          "internalType": "uint256",
          "name": "tokenId",
          "type": "uint256"
        }
      ],
      "name": "Approval",
      "type": "event"
    },
    {
      "anonymous": false,
      "inputs": [
        {
          "indexed": true,
          "internalType": "address",
          "name": "owner",
          "type": "address"
        },
        {
          "indexed": true,
          "internalType": "address",
          "name": "operator",
          "type": "address"
        },
        {
          "indexed": false,
          "internalType": "bool",
          "name": "approved",
          "type": "bool"
        }
      ],
      "name": "ApprovalForAll",
      "type": "event"
    },
    {
      "anonymous": false,
      "inputs": [
        {
          "indexed": true,
          "internalType": "bytes32",
          "name": "role",
          "type": "bytes32"
        },
        {
          "indexed": true,
          "internalType": "bytes32",
          "name": "previousAdminRole",
          "type": "bytes32"
        },
        {
          "indexed": true,
          "internalType": "bytes32",
          "name": "newAdminRole",
          "type": "bytes32"
        }
      ],
      "name": "RoleAdminChanged",
      "type": "event"
    },
    {
      "anonymous": false,
      "inputs": [
        {
          "indexed": true,
          "internalType": "bytes32",
          "name": "role",
          "type": "bytes32"
        },
        {
          "indexed": true,
          "internalType": "address",
          "name": "account",
          "type": "address"
        },
        {
          "indexed": true,
          "internalType": "address",
          "name": "sender",
          "type": "address"
        }
      ],
      "name": "RoleGranted",
      "type": "event"
    },
    {
      "anonymous": false,
      "inputs": [
        {
          "indexed": true,
          "internalType": "bytes32",
          "name": "role",
          "type": "bytes32"
        },
        {
          "indexed": true,
          "internalType": "address",
          "name": "account",
          "type": "address"
        },
        {
          "indexed": true,
          "internalType": "address",
          "name": "sender",
          "type": "address"
        }
      ],
      "name": "RoleRevoked",
      "type": "event"
    },
    {
      "anonymous": false,
      "inputs": [
        {
          "indexed": true,
          "internalType": "address",
          "name": "from",
          "type": "address"
        },
        {
          "indexed": true,
          "internalType": "address",
          "name": "to",
          "type": "address"
        },
        {
          "indexed": true,
          "internalType": "uint256",
          "name": "tokenId",
          "type": "uint256"
        }
      ],
      "name": "Transfer",
      "type": "event"
    },
    {
      "inputs": [],
      "name": "DEFAULT_ADMIN_ROLE",
      "outputs": [
        {
          "internalType": "bytes32",
          "name": "",
          "type": "bytes32"
        }
      ],
      "stateMutability": "view",
      "type": "function"
    },
    {
      "inputs": [],
      "name": "MANAGER_ROLE",
      "outputs": [
        {
          "internalType": "bytes32",
          "name": "",
          "type": "bytes32"
        }
      ],
      "stateMutability": "view",
      "type": "function"
    },
    {
      "inputs": [
        {
          "internalType": "address",
          "name": "to",
          "type": "address"
        },
        {
          "internalType": "uint256",
          "name": "tokenId",
          "type": "uint256"
        }
      ],
      "name": "approve",
      "outputs": [],
      "stateMutability": "nonpayable",
      "type": "function"
    },
    {
      "inputs": [
        {
          "internalType": "address",
          "name": "owner",
          "type": "address"
        }
      ],
      "name": "balanceOf",
      "outputs": [
        {
          "internalType": "uint256",
          "name": "",
          "type": "uint256"
        }
      ],
      "stateMutability": "view",
      "type": "function"
    },
    {
      "inputs": [
        {
          "internalType": "uint256",
          "name": "tokenId",
          "type": "uint256"
        }
      ],
      "name": "getApproved",
      "outputs": [
        {
          "internalType": "address",
          "name": "",
          "type": "address"
        }
      ],
      "stateMutability": "view",
      "type": "function"
    },
    {
      "inputs": [
        {
          "internalType": "bytes32",
          "name": "role",
          "type": "bytes32"
        }
      ],
      "name": "getRoleAdmin",
      "outputs": [
        {
          "internalType": "bytes32",
          "name": "",
          "type": "bytes32"
        }
      ],
      "stateMutability": "view",
      "type": "function"
    },
    {
      "inputs": [
        {
          "internalType": "bytes32",
          "name": "role",
          "type": "bytes32"
        },
        {
          "internalType": "uint256",
          "name": "index",
          "type": "uint256"
        }
      ],
      "name": "getRoleMember",
      "outputs": [
        {
          "internalType": "address",
          "name": "",
          "type": "address"
        }
      ],
      "stateMutability": "view",
      "type": "function"
    },
    {
      "inputs": [
        {
          "internalType": "bytes32",
          "name": "role",
          "type": "bytes32"
        }
      ],
      "name": "getRoleMemberCount",
      "outputs": [
        {
          "internalType": "uint256",
          "name": "",
          "type": "uint256"
        }
      ],
      "stateMutability": "view",
      "type": "function"
    },
    {
      "inputs": [
        {
          "internalType": "bytes32",
          "name": "role",
          "type": "bytes32"
        },
        {
          "internalType": "address",
          "name": "account",
          "type": "address"
        }
      ],
      "name": "grantRole",
      "outputs": [],
      "stateMutability": "nonpayable",
      "type": "function"
    },
    {
      "inputs": [
        {
          "internalType": "bytes32",
          "name": "role",
          "type": "bytes32"
        },
        {
          "internalType": "address",
          "name": "account",
          "type": "address"
        }
      ],
      "name": "hasRole",
      "outputs": [
        {
          "internalType": "bool",
          "name": "",
          "type": "bool"
        }
      ],
      "stateMutability": "view",
      "type": "function"
    },
    {
      "inputs": [
        {
          "internalType": "address",
          "name": "owner",
          "type": "address"
        },
        {
          "internalType": "address",
          "name": "operator",
          "type": "address"
        }
      ],
      "name": "isApprovedForAll",
      "outputs": [
        {
          "internalType": "bool",
          "name": "",
          "type": "bool"
        }
      ],
      "stateMutability": "view",
      "type": "function"
    },
    {
      "inputs": [
        {
          "internalType": "string",
          "name": "_uri",
          "type": "string"
        },
        {
          "internalType": "address",
          "name": "_signer",
          "type": "address"
        },
        {
          "internalType": "bytes",
          "name": "_signature",
          "type": "bytes"
        }
      ],
      "name": "mint",
      "outputs": [
        {
          "internalType": "uint256",
          "name": "_tokenId",
          "type": "uint256"
        }
      ],
      "stateMutability": "nonpayable",
      "type": "function"
    },
    {
      "inputs": [],
      "name": "name",
      "outputs": [
        {
          "internalType": "string",
          "name": "",
          "type": "string"
        }
      ],
      "stateMutability": "view",
      "type": "function"
    },
    {
      "inputs": [
        {
          "internalType": "uint256",
          "name": "tokenId",
          "type": "uint256"
        }
      ],
      "name": "ownerOf",
      "outputs": [
        {
          "internalType": "address",
          "name": "",
          "type": "address"
        }
      ],
      "stateMutability": "view",
      "type": "function"
    },
    {
      "inputs": [
        {
          "internalType": "bytes32",
          "name": "role",
          "type": "bytes32"
        },
        {
          "internalType": "address",
          "name": "account",
          "type": "address"
        }
      ],
      "name": "renounceRole",
      "outputs": [],
      "stateMutability": "nonpayable",
      "type": "function"
    },
    {
      "inputs": [
        {
          "internalType": "bytes32",
          "name": "role",
          "type": "bytes32"
        },
        {
          "internalType": "address",
          "name": "account",
          "type": "address"
        }
      ],
      "name": "revokeRole",
      "outputs": [],
      "stateMutability": "nonpayable",
      "type": "function"
    },
    {
      "inputs": [
        {
          "internalType": "address",
          "name": "from",
          "type": "address"
        },
        {
          "internalType": "address",
          "name": "to",
          "type": "address"
        },
        {
          "internalType": "uint256",
          "name": "tokenId",
          "type": "uint256"
        }
      ],
      "name": "safeTransferFrom",
      "outputs": [],
      "stateMutability": "nonpayable",
      "type": "function"
    },
    {
      "inputs": [
        {
          "internalType": "address",
          "name": "from",
          "type": "address"
        },
        {
          "internalType": "address",
          "name": "to",
          "type": "address"
        },
        {
          "internalType": "uint256",
          "name": "tokenId",
          "type": "uint256"
        },
        {
          "internalType": "bytes",
          "name": "_data",
          "type": "bytes"
        }
      ],
      "name": "safeTransferFrom",
      "outputs": [],
      "stateMutability": "nonpayable",
      "type": "function"
    },
    {
      "inputs": [
        {
          "internalType": "address",
          "name": "operator",
          "type": "address"
        },
        {
          "internalType": "bool",
          "name": "approved",
          "type": "bool"
        }
      ],
      "name": "setApprovalForAll",
      "outputs": [],
      "stateMutability": "nonpayable",
      "type": "function"
    },
    {
      "inputs": [
        {
          "internalType": "bytes4",
          "name": "interfaceId",
          "type": "bytes4"
        }
      ],
      "name": "supportsInterface",
      "outputs": [
        {
          "internalType": "bool",
          "name": "",
          "type": "bool"
        }
      ],
      "stateMutability": "view",
      "type": "function"
    },
    {
      "inputs": [],
      "name": "symbol",
      "outputs": [
        {
          "internalType": "string",
          "name": "",
          "type": "string"
        }
      ],
      "stateMutability": "view",
      "type": "function"
    },
    {
      "inputs": [
        {
          "internalType": "uint256",
          "name": "tokenId",
          "type": "uint256"
        }
      ],
      "name": "tokenURI",
      "outputs": [
        {
          "internalType": "string",
          "name": "",
          "type": "string"
        }
      ],
      "stateMutability": "view",
      "type": "function"
    },
    {
      "inputs": [
        {
          "internalType": "address",
          "name": "from",
          "type": "address"
        },
        {
          "internalType": "address",
          "name": "to",
          "type": "address"
        },
        {
          "internalType": "uint256",
          "name": "tokenId",
          "type": "uint256"
        }
      ],
      "name": "transferFrom",
      "outputs": [],
      "stateMutability": "nonpayable",
      "type": "function"
    }
  ],
  "transactionHash": "0xb1476897ede26e966373159509be384b4452adcab466fefd974803201000d6fc",
  "args": [
    "0xE4D29ec42F4057EfF92c9124c82844b2689f9C6d"
  ],
  "solcInputHash": "620c601b0d884c8eaee46f04750ce25d",
  "bytecode": "0x60806040523480156200001157600080fd5b506040516200277d3803806200277d83398101604081905262000034916200030b565b6040805180820182526006815265105c98905c9d60d21b6020808301918252835180850190945260048452631054909560e21b9084015281519192916200007e9160009162000265565b5080516200009490600190602084019062000265565b505050620000c97f241ecf16d79d0f8dbfb92cbc07fe17840425976cf0667f022fe9877caa831b0882620000d060201b60201c565b5062000378565b620000e782826200011360201b620009b71760201c565b60008281526008602090815260409091206200010e918390620009c562000123821b17901c565b505050565b6200011f828262000143565b5050565b60006200013a836001600160a01b038416620001cf565b90505b92915050565b6200014f82826200021e565b6200011f5760008281526007602090815260408083206001600160a01b03851684529091529020805460ff191660011790556200018b62000249565b6001600160a01b0316816001600160a01b0316837f2f8788117e7eff1d82e926ec794901d17c78024a50270940304540a733656f0d60405160405180910390a45050565b6000620001dd83836200024d565b62000215575081546001818101845560008481526020808220909301849055845484825282860190935260409020919091556200013d565b5060006200013d565b60009182526007602090815260408084206001600160a01b0393909316845291905290205460ff1690565b3390565b60009081526001919091016020526040902054151590565b82805462000273906200033b565b90600052602060002090601f016020900481019282620002975760008555620002e2565b82601f10620002b257805160ff1916838001178555620002e2565b82800160010185558215620002e2579182015b82811115620002e2578251825591602001919060010190620002c5565b50620002f0929150620002f4565b5090565b5b80821115620002f05760008155600101620002f5565b6000602082840312156200031d578081fd5b81516001600160a01b038116811462000334578182fd5b9392505050565b6002810460018216806200035057607f821691505b602082108114156200037257634e487b7160e01b600052602260045260246000fd5b50919050565b6123f580620003886000396000f3fe608060405234801561001057600080fd5b506004361061014d5760003560e01c806370a08231116100c3578063b88d4fde1161007c578063b88d4fde146102b3578063c87b56dd146102c6578063ca15c873146102d9578063d547741f146102ec578063e985e9c5146102ff578063ec87621c146103125761014d565b806370a08231146102575780639010d07c1461026a57806391d148541461027d57806395d89b4114610290578063a217fddf14610298578063a22cb465146102a05761014d565b8063248a9ca311610115578063248a9ca3146101d8578063251a701a146101f85780632f2ff15d1461020b57806336568abe1461021e57806342842e0e146102315780636352211e146102445761014d565b806301ffc9a71461015257806306fdde031461017b578063081812fc14610190578063095ea7b3146101b057806323b872dd146101c5575b600080fd5b610165610160366004611945565b61031a565b6040516101729190611b18565b60405180910390f35b61018361033c565b6040516101729190611b4a565b6101a361019e3660046118ea565b6103ce565b6040516101729190611ad1565b6101c36101be3660046118c1565b61041a565b005b6101c36101d33660046117e6565b6104b2565b6101eb6101e63660046118ea565b6104ea565b6040516101729190611b23565b6101eb61020636600461197d565b6104ff565b6101c3610219366004611902565b6105de565b6101c361022c366004611902565b610600565b6101c361023f3660046117e6565b610622565b6101a36102523660046118ea565b61063d565b6101eb61026536600461179a565b610672565b6101a3610278366004611924565b6106b6565b61016561028b366004611902565b6106d7565b610183610702565b6101eb610711565b6101c36102ae366004611887565b610716565b6101c36102c1366004611821565b6107e4565b6101836102d43660046118ea565b610823565b6101eb6102e73660046118ea565b610944565b6101c36102fa366004611902565b61095b565b61016561030d3660046117b4565b610965565b6101eb610993565b6000610325826109da565b806103345750610334826109ff565b90505b919050565b60606000805461034b906122fa565b80601f0160208091040260200160405190810160405280929190818152602001828054610377906122fa565b80156103c45780601f10610399576101008083540402835291602001916103c4565b820191906000526020600020905b8154815290600101906020018083116103a757829003601f168201915b5050505050905090565b60006103d982610a3f565b6103fe5760405162461bcd60e51b81526004016103f5906120c6565b60405180910390fd5b506000908152600460205260409020546001600160a01b031690565b60006104258261063d565b9050806001600160a01b0316836001600160a01b031614156104595760405162461bcd60e51b81526004016103f5906121aa565b806001600160a01b031661046b610a5c565b6001600160a01b0316148061048757506104878161030d610a5c565b6104a35760405162461bcd60e51b81526004016103f590611e75565b6104ad8383610a60565b505050565b6104c36104bd610a5c565b82610ace565b6104df5760405162461bcd60e51b81526004016103f5906121eb565b6104ad838383610b4b565b60009081526007602052604090206001015490565b600061052b7f241ecf16d79d0f8dbfb92cbc07fe17840425976cf0667f022fe9877caa831b08846106d7565b6105475760405162461bcd60e51b81526004016103f590611fb3565b600084338560405160200161055e93929190611a30565b6040516020818303038152906040529050600061058b846105858480519060200120610c78565b90610ca8565b9050806001600160a01b0316856001600160a01b0316146105be5760405162461bcd60e51b81526004016103f590611dee565b3392506105cb8380610cf3565b6105d58387610d0d565b50509392505050565b6105e88282610d51565b60008281526008602052604090206104ad90826109c5565b61060a8282610d81565b60008281526008602052604090206104ad9082610dc3565b6104ad838383604051806020016040528060008152506107e4565b6000818152600260205260408120546001600160a01b0316806103345760405162461bcd60e51b81526004016103f590611f1c565b60006001600160a01b03821661069a5760405162461bcd60e51b81526004016103f590611ed2565b506001600160a01b031660009081526003602052604090205490565b60008281526008602052604081206106ce9083610dd8565b90505b92915050565b60009182526007602090815260408084206001600160a01b0393909316845291905290205460ff1690565b60606001805461034b906122fa565b600081565b61071e610a5c565b6001600160a01b0316826001600160a01b0316141561074f5760405162461bcd60e51b81526004016103f590611d29565b806005600061075c610a5c565b6001600160a01b03908116825260208083019390935260409182016000908120918716808252919093529120805460ff1916921515929092179091556107a0610a5c565b6001600160a01b03167f17307eab39ab6107e8899845ad3d59bd9653f200f220920489ca2b5937696c31836040516107d89190611b18565b60405180910390a35050565b6107f56107ef610a5c565b83610ace565b6108115760405162461bcd60e51b81526004016103f5906121eb565b61081d84848484610de4565b50505050565b606061082e82610a3f565b61084a5760405162461bcd60e51b81526004016103f590612075565b60008281526006602052604081208054610863906122fa565b80601f016020809104026020016040519081016040528092919081815260200182805461088f906122fa565b80156108dc5780601f106108b1576101008083540402835291602001916108dc565b820191906000526020600020905b8154815290600101906020018083116108bf57829003601f168201915b5050505050905060006108ed610e17565b905080516000141561090157509050610337565b81511561093357808260405160200161091b929190611a71565b60405160208183030381529060405292505050610337565b61093c84610e38565b949350505050565b600081815260086020526040812061033490610ebb565b61060a8282610ec6565b6001600160a01b03918216600090815260056020908152604080832093909416825291909152205460ff1690565b7f241ecf16d79d0f8dbfb92cbc07fe17840425976cf0667f022fe9877caa831b0881565b6109c18282610eee565b5050565b60006106ce836001600160a01b038416610f75565b60006001600160e01b03198216635a05180f60e01b1480610334575061033482610fbf565b60006001600160e01b031982166380ac58cd60e01b1480610a3057506001600160e01b03198216635b5e139f60e01b145b80610334575061033482610fe4565b6000908152600260205260409020546001600160a01b0316151590565b3390565b600081815260046020526040902080546001600160a01b0319166001600160a01b0384169081179091558190610a958261063d565b6001600160a01b03167f8c5be1e5ebec7d5bd14f71427d1e84f3dd0314c0f7b2291e5b200ac8c7c3b92560405160405180910390a45050565b6000610ad982610a3f565b610af55760405162461bcd60e51b81526004016103f590611da2565b6000610b008361063d565b9050806001600160a01b0316846001600160a01b03161480610b3b5750836001600160a01b0316610b30846103ce565b6001600160a01b0316145b8061093c575061093c8185610965565b826001600160a01b0316610b5e8261063d565b6001600160a01b031614610b845760405162461bcd60e51b81526004016103f590612112565b6001600160a01b038216610baa5760405162461bcd60e51b81526004016103f590611ce5565b610bb58383836104ad565b610bc0600082610a60565b6001600160a01b0383166000908152600360205260408120805460019290610be99084906122b7565b90915550506001600160a01b0382166000908152600360205260408120805460019290610c1790849061228b565b909155505060008181526002602052604080822080546001600160a01b0319166001600160a01b0386811691821790925591518493918716917fddf252ad1be2c89b69c2b068fc378daa952ba7f163c4a11628f55a4df523b3ef91a4505050565b600081604051602001610c8b9190611aa0565b604051602081830303815290604052805190602001209050919050565b60008151604114610ccb5760405162461bcd60e51b81526004016103f590611c25565b60208201516040830151606084015160001a610ce986828585610ffd565b9695505050505050565b6109c18282604051806020016040528060008152506110f3565b610d1682610a3f565b610d325760405162461bcd60e51b81526004016103f590611f65565b600082815260066020908152604090912082516104ad92840190611655565b610d65610d5d836104ea565b61028b610a5c565b6109b75760405162461bcd60e51b81526004016103f590611bd6565b610d89610a5c565b6001600160a01b0316816001600160a01b031614610db95760405162461bcd60e51b81526004016103f59061223c565b6109c18282611126565b60006106ce836001600160a01b0384166111ab565b60006106ce83836112c8565b610def848484610b4b565b610dfb84848484611321565b61081d5760405162461bcd60e51b81526004016103f590611c5c565b604080518082019091526007815266697066733a2f2f60c81b602082015290565b6060610e4382610a3f565b610e5f5760405162461bcd60e51b81526004016103f59061215b565b6000610e69610e17565b90506000815111610e895760405180602001604052806000815250610eb4565b80610e9384611439565b604051602001610ea4929190611a71565b6040516020818303038152906040525b9392505050565b600061033482611554565b610ed2610d5d836104ea565b610db95760405162461bcd60e51b81526004016103f590611e25565b610ef882826106d7565b6109c15760008281526007602090815260408083206001600160a01b03851684529091529020805460ff19166001179055610f31610a5c565b6001600160a01b0316816001600160a01b0316837f2f8788117e7eff1d82e926ec794901d17c78024a50270940304540a733656f0d60405160405180910390a45050565b6000610f818383611558565b610fb7575081546001818101845560008481526020808220909301849055845484825282860190935260409020919091556106d1565b5060006106d1565b60006001600160e01b03198216637965db0b60e01b14806103345750610334826109ff565b6001600160e01b031981166301ffc9a760e01b14919050565b60007f7fffffffffffffffffffffffffffffff5d576e7357a4501ddfe92f46681b20a082111561103f5760405162461bcd60e51b81526004016103f590611d60565b8360ff16601b148061105457508360ff16601c145b6110705760405162461bcd60e51b81526004016103f590611ffe565b6000600186868686604051600081526020016040526040516110959493929190611b2c565b6020604051602081039080840390855afa1580156110b7573d6000803e3d6000fd5b5050604051601f1901519150506001600160a01b0381166110ea5760405162461bcd60e51b81526004016103f590611b5d565b95945050505050565b6110fd8383611570565b61110a6000848484611321565b6104ad5760405162461bcd60e51b81526004016103f590611c5c565b61113082826106d7565b156109c15760008281526007602090815260408083206001600160a01b03851684529091529020805460ff19169055611167610a5c565b6001600160a01b0316816001600160a01b0316837ff6391f5c32d9c69d2a47ea670b442974b53935d1edc7fd64eb21e047a839171b60405160405180910390a45050565b600081815260018301602052604081205480156112be5760006111cf6001836122b7565b85549091506000906111e3906001906122b7565b9050600086600001828154811061120a57634e487b7160e01b600052603260045260246000fd5b906000526020600020015490508087600001848154811061123b57634e487b7160e01b600052603260045260246000fd5b60009182526020909120015561125283600161228b565b6000828152600189016020526040902055865487908061128257634e487b7160e01b600052603160045260246000fd5b600190038181906000526020600020016000905590558660010160008781526020019081526020016000206000905560019450505050506106d1565b60009150506106d1565b815460009082106112eb5760405162461bcd60e51b81526004016103f590611b94565b82600001828154811061130e57634e487b7160e01b600052603260045260246000fd5b9060005260206000200154905092915050565b6000611335846001600160a01b031661164f565b1561143157836001600160a01b031663150b7a02611351610a5c565b8786866040518563ffffffff1660e01b81526004016113739493929190611ae5565b602060405180830381600087803b15801561138d57600080fd5b505af19250505080156113bd575060408051601f3d908101601f191682019092526113ba91810190611961565b60015b611417573d8080156113eb576040519150601f19603f3d011682016040523d82523d6000602084013e6113f0565b606091505b50805161140f5760405162461bcd60e51b81526004016103f590611c5c565b805181602001fd5b6001600160e01b031916630a85bd0160e11b14905061093c565b50600161093c565b60608161145e57506040805180820190915260018152600360fc1b6020820152610337565b8160005b8115611488578061147281612335565b91506114819050600a836122a3565b9150611462565b60008167ffffffffffffffff8111156114b157634e487b7160e01b600052604160045260246000fd5b6040519080825280601f01601f1916602001820160405280156114db576020820181803683370190505b5090505b841561093c576114f06001836122b7565b91506114fd600a86612350565b61150890603061228b565b60f81b81838151811061152b57634e487b7160e01b600052603260045260246000fd5b60200101906001600160f81b031916908160001a90535061154d600a866122a3565b94506114df565b5490565b60009081526001919091016020526040902054151590565b6001600160a01b0382166115965760405162461bcd60e51b81526004016103f590612040565b61159f81610a3f565b156115bc5760405162461bcd60e51b81526004016103f590611cae565b6115c8600083836104ad565b6001600160a01b03821660009081526003602052604081208054600192906115f190849061228b565b909155505060008181526002602052604080822080546001600160a01b0319166001600160a01b03861690811790915590518392907fddf252ad1be2c89b69c2b068fc378daa952ba7f163c4a11628f55a4df523b3ef908290a45050565b3b151590565b828054611661906122fa565b90600052602060002090601f01602090048101928261168357600085556116c9565b82601f1061169c57805160ff19168380011785556116c9565b828001600101855582156116c9579182015b828111156116c95782518255916020019190600101906116ae565b506116d59291506116d9565b5090565b5b808211156116d557600081556001016116da565b600067ffffffffffffffff8084111561170957611709612390565b604051601f8501601f19908116603f0116810190828211818310171561173157611731612390565b8160405280935085815286868601111561174a57600080fd5b858560208301376000602087830101525050509392505050565b80356001600160a01b038116811461033757600080fd5b600082601f83011261178b578081fd5b6106ce838335602085016116ee565b6000602082840312156117ab578081fd5b6106ce82611764565b600080604083850312156117c6578081fd5b6117cf83611764565b91506117dd60208401611764565b90509250929050565b6000806000606084860312156117fa578081fd5b61180384611764565b925061181160208501611764565b9150604084013590509250925092565b60008060008060808587031215611836578081fd5b61183f85611764565b935061184d60208601611764565b925060408501359150606085013567ffffffffffffffff81111561186f578182fd5b61187b8782880161177b565b91505092959194509250565b60008060408385031215611899578182fd5b6118a283611764565b9150602083013580151581146118b6578182fd5b809150509250929050565b600080604083850312156118d3578182fd5b6118dc83611764565b946020939093013593505050565b6000602082840312156118fb578081fd5b5035919050565b60008060408385031215611914578182fd5b823591506117dd60208401611764565b60008060408385031215611936578182fd5b50508035926020909101359150565b600060208284031215611956578081fd5b8135610eb4816123a6565b600060208284031215611972578081fd5b8151610eb4816123a6565b600080600060608486031215611991578283fd5b833567ffffffffffffffff808211156119a8578485fd5b818601915086601f8301126119bb578485fd5b6119ca878335602085016116ee565b94506119d860208701611764565b935060408601359150808211156119ed578283fd5b506119fa8682870161177b565b9150509250925092565b60008151808452611a1c8160208601602086016122ce565b601f01601f19169290920160200192915050565b60008451611a428184602089016122ce565b6bffffffffffffffffffffffff19606095861b8116919093019081529290931b16601482015260280192915050565b60008351611a838184602088016122ce565b835190830190611a978183602088016122ce565b01949350505050565b7f19457468657265756d205369676e6564204d6573736167653a0a3332000000008152601c810191909152603c0190565b6001600160a01b0391909116815260200190565b6001600160a01b0385811682528416602082015260408101839052608060608201819052600090610ce990830184611a04565b901515815260200190565b90815260200190565b93845260ff9290921660208401526040830152606082015260800190565b6000602082526106ce6020830184611a04565b60208082526018908201527f45434453413a20696e76616c6964207369676e61747572650000000000000000604082015260600190565b60208082526022908201527f456e756d657261626c655365743a20696e646578206f7574206f6620626f756e604082015261647360f01b606082015260800190565b6020808252602f908201527f416363657373436f6e74726f6c3a2073656e646572206d75737420626520616e60408201526e0818591b5a5b881d1bc819dc985b9d608a1b606082015260800190565b6020808252601f908201527f45434453413a20696e76616c6964207369676e6174757265206c656e67746800604082015260600190565b60208082526032908201527f4552433732313a207472616e7366657220746f206e6f6e20455243373231526560408201527131b2b4bb32b91034b6b83632b6b2b73a32b960711b606082015260800190565b6020808252601c908201527f4552433732313a20746f6b656e20616c7265616479206d696e74656400000000604082015260600190565b60208082526024908201527f4552433732313a207472616e7366657220746f20746865207a65726f206164646040820152637265737360e01b606082015260800190565b60208082526019908201527f4552433732313a20617070726f766520746f2063616c6c657200000000000000604082015260600190565b60208082526022908201527f45434453413a20696e76616c6964207369676e6174757265202773272076616c604082015261756560f01b606082015260800190565b6020808252602c908201527f4552433732313a206f70657261746f7220717565727920666f72206e6f6e657860408201526b34b9ba32b73a103a37b5b2b760a11b606082015260800190565b60208082526019908201527f496e76616c6964207265636f7665726564206164647265737300000000000000604082015260600190565b60208082526030908201527f416363657373436f6e74726f6c3a2073656e646572206d75737420626520616e60408201526f2061646d696e20746f207265766f6b6560801b606082015260800190565b60208082526038908201527f4552433732313a20617070726f76652063616c6c6572206973206e6f74206f7760408201527f6e6572206e6f7220617070726f76656420666f7220616c6c0000000000000000606082015260800190565b6020808252602a908201527f4552433732313a2062616c616e636520717565727920666f7220746865207a65604082015269726f206164647265737360b01b606082015260800190565b60208082526029908201527f4552433732313a206f776e657220717565727920666f72206e6f6e657869737460408201526832b73a103a37b5b2b760b91b606082015260800190565b6020808252602e908201527f45524337323155524953746f726167653a2055524920736574206f66206e6f6e60408201526d32bc34b9ba32b73a103a37b5b2b760911b606082015260800190565b6020808252602b908201527f4f6e6c7920616363657074696e67207369676e6174757265732066726f6d204d60408201526a414e414745525f524f4c4560a81b606082015260800190565b60208082526022908201527f45434453413a20696e76616c6964207369676e6174757265202776272076616c604082015261756560f01b606082015260800190565b6020808252818101527f4552433732313a206d696e7420746f20746865207a65726f2061646472657373604082015260600190565b60208082526031908201527f45524337323155524953746f726167653a2055524920717565727920666f72206040820152703737b732bc34b9ba32b73a103a37b5b2b760791b606082015260800190565b6020808252602c908201527f4552433732313a20617070726f76656420717565727920666f72206e6f6e657860408201526b34b9ba32b73a103a37b5b2b760a11b606082015260800190565b60208082526029908201527f4552433732313a207472616e73666572206f6620746f6b656e2074686174206960408201526839903737ba1037bbb760b91b606082015260800190565b6020808252602f908201527f4552433732314d657461646174613a2055524920717565727920666f72206e6f60408201526e3732bc34b9ba32b73a103a37b5b2b760891b606082015260800190565b60208082526021908201527f4552433732313a20617070726f76616c20746f2063757272656e74206f776e656040820152603960f91b606082015260800190565b60208082526031908201527f4552433732313a207472616e736665722063616c6c6572206973206e6f74206f6040820152701ddb995c881b9bdc88185c1c1c9bdd9959607a1b606082015260800190565b6020808252602f908201527f416363657373436f6e74726f6c3a2063616e206f6e6c792072656e6f756e636560408201526e103937b632b9903337b91039b2b63360891b606082015260800190565b6000821982111561229e5761229e612364565b500190565b6000826122b2576122b261237a565b500490565b6000828210156122c9576122c9612364565b500390565b60005b838110156122e95781810151838201526020016122d1565b8381111561081d5750506000910152565b60028104600182168061230e57607f821691505b6020821081141561232f57634e487b7160e01b600052602260045260246000fd5b50919050565b600060001982141561234957612349612364565b5060010190565b60008261235f5761235f61237a565b500690565b634e487b7160e01b600052601160045260246000fd5b634e487b7160e01b600052601260045260246000fd5b634e487b7160e01b600052604160045260246000fd5b6001600160e01b0319811681146123bc57600080fd5b5056fea2646970667358221220960eb911d9d11bb9c59ac66496af46810f5df82763b46f93c7ae2e8805a3f49264736f6c63430008010033",
  "devdoc": {
    "kind": "dev",
    "methods": {
      "approve(address,uint256)": {
        "details": "See {IERC721-approve}."
      },
      "balanceOf(address)": {
        "details": "See {IERC721-balanceOf}."
      },
      "getApproved(uint256)": {
        "details": "See {IERC721-getApproved}."
      },
      "getRoleAdmin(bytes32)": {
        "details": "Returns the admin role that controls `role`. See {grantRole} and {revokeRole}. To change a role's admin, use {_setRoleAdmin}."
      },
      "getRoleMember(bytes32,uint256)": {
        "details": "Returns one of the accounts that have `role`. `index` must be a value between 0 and {getRoleMemberCount}, non-inclusive. Role bearers are not sorted in any particular way, and their ordering may change at any point. WARNING: When using {getRoleMember} and {getRoleMemberCount}, make sure you perform all queries on the same block. See the following https://forum.openzeppelin.com/t/iterating-over-elements-on-enumerableset-in-openzeppelin-contracts/2296[forum post] for more information."
      },
      "getRoleMemberCount(bytes32)": {
        "details": "Returns the number of accounts that have `role`. Can be used together with {getRoleMember} to enumerate all bearers of a role."
      },
      "grantRole(bytes32,address)": {
        "details": "Overload {grantRole} to track enumerable memberships"
      },
      "hasRole(bytes32,address)": {
        "details": "Returns `true` if `account` has been granted `role`."
      },
      "isApprovedForAll(address,address)": {
        "details": "See {IERC721-isApprovedForAll}."
      },
      "name()": {
        "details": "See {IERC721Metadata-name}."
      },
      "ownerOf(uint256)": {
        "details": "See {IERC721-ownerOf}."
      },
      "renounceRole(bytes32,address)": {
        "details": "Overload {renounceRole} to track enumerable memberships"
      },
      "revokeRole(bytes32,address)": {
        "details": "Overload {revokeRole} to track enumerable memberships"
      },
      "safeTransferFrom(address,address,uint256)": {
        "details": "See {IERC721-safeTransferFrom}."
      },
      "safeTransferFrom(address,address,uint256,bytes)": {
        "details": "See {IERC721-safeTransferFrom}."
      },
      "setApprovalForAll(address,bool)": {
        "details": "See {IERC721-setApprovalForAll}."
      },
      "symbol()": {
        "details": "See {IERC721Metadata-symbol}."
      },
      "tokenURI(uint256)": {
        "details": "See {IERC721Metadata-tokenURI}."
      },
      "transferFrom(address,address,uint256)": {
        "details": "See {IERC721-transferFrom}."
      }
    },
    "version": 1
  },
  "userdoc": {
    "kind": "user",
    "methods": {},
    "version": 1
  },
  "storageLayout": {
    "storage": [
      {
        "astId": 539,
        "contract": "contracts/ArbArt.sol:ArbArt",
        "label": "_name",
        "offset": 0,
        "slot": "0",
        "type": "t_string_storage"
      },
      {
        "astId": 541,
        "contract": "contracts/ArbArt.sol:ArbArt",
        "label": "_symbol",
        "offset": 0,
        "slot": "1",
        "type": "t_string_storage"
      },
      {
        "astId": 545,
        "contract": "contracts/ArbArt.sol:ArbArt",
        "label": "_owners",
        "offset": 0,
        "slot": "2",
        "type": "t_mapping(t_uint256,t_address)"
      },
      {
        "astId": 549,
        "contract": "contracts/ArbArt.sol:ArbArt",
        "label": "_balances",
        "offset": 0,
        "slot": "3",
        "type": "t_mapping(t_address,t_uint256)"
      },
      {
        "astId": 553,
        "contract": "contracts/ArbArt.sol:ArbArt",
        "label": "_tokenApprovals",
        "offset": 0,
        "slot": "4",
        "type": "t_mapping(t_uint256,t_address)"
      },
      {
        "astId": 559,
        "contract": "contracts/ArbArt.sol:ArbArt",
        "label": "_operatorApprovals",
        "offset": 0,
        "slot": "5",
        "type": "t_mapping(t_address,t_mapping(t_address,t_bool))"
      },
      {
        "astId": 1480,
        "contract": "contracts/ArbArt.sol:ArbArt",
        "label": "_tokenURIs",
        "offset": 0,
        "slot": "6",
        "type": "t_mapping(t_uint256,t_string_storage)"
      },
      {
        "astId": 61,
        "contract": "contracts/ArbArt.sol:ArbArt",
        "label": "_roles",
        "offset": 0,
        "slot": "7",
        "type": "t_mapping(t_bytes32,t_struct(RoleData)56_storage)"
      },
      {
        "astId": 358,
        "contract": "contracts/ArbArt.sol:ArbArt",
        "label": "_roleMembers",
        "offset": 0,
        "slot": "8",
        "type": "t_mapping(t_bytes32,t_struct(AddressSet)2635_storage)"
      }
    ],
    "types": {
      "t_address": {
        "encoding": "inplace",
        "label": "address",
        "numberOfBytes": "20"
      },
      "t_array(t_bytes32)dyn_storage": {
        "base": "t_bytes32",
        "encoding": "dynamic_array",
        "label": "bytes32[]",
        "numberOfBytes": "32"
      },
      "t_bool": {
        "encoding": "inplace",
        "label": "bool",
        "numberOfBytes": "1"
      },
      "t_bytes32": {
        "encoding": "inplace",
        "label": "bytes32",
        "numberOfBytes": "32"
      },
      "t_mapping(t_address,t_bool)": {
        "encoding": "mapping",
        "key": "t_address",
        "label": "mapping(address => bool)",
        "numberOfBytes": "32",
        "value": "t_bool"
      },
      "t_mapping(t_address,t_mapping(t_address,t_bool))": {
        "encoding": "mapping",
        "key": "t_address",
        "label": "mapping(address => mapping(address => bool))",
        "numberOfBytes": "32",
        "value": "t_mapping(t_address,t_bool)"
      },
      "t_mapping(t_address,t_uint256)": {
        "encoding": "mapping",
        "key": "t_address",
        "label": "mapping(address => uint256)",
        "numberOfBytes": "32",
        "value": "t_uint256"
      },
      "t_mapping(t_bytes32,t_struct(AddressSet)2635_storage)": {
        "encoding": "mapping",
        "key": "t_bytes32",
        "label": "mapping(bytes32 => struct EnumerableSet.AddressSet)",
        "numberOfBytes": "32",
        "value": "t_struct(AddressSet)2635_storage"
      },
      "t_mapping(t_bytes32,t_struct(RoleData)56_storage)": {
        "encoding": "mapping",
        "key": "t_bytes32",
        "label": "mapping(bytes32 => struct AccessControl.RoleData)",
        "numberOfBytes": "32",
        "value": "t_struct(RoleData)56_storage"
      },
      "t_mapping(t_bytes32,t_uint256)": {
        "encoding": "mapping",
        "key": "t_bytes32",
        "label": "mapping(bytes32 => uint256)",
        "numberOfBytes": "32",
        "value": "t_uint256"
      },
      "t_mapping(t_uint256,t_address)": {
        "encoding": "mapping",
        "key": "t_uint256",
        "label": "mapping(uint256 => address)",
        "numberOfBytes": "32",
        "value": "t_address"
      },
      "t_mapping(t_uint256,t_string_storage)": {
        "encoding": "mapping",
        "key": "t_uint256",
        "label": "mapping(uint256 => string)",
        "numberOfBytes": "32",
        "value": "t_string_storage"
      },
      "t_string_storage": {
        "encoding": "bytes",
        "label": "string",
        "numberOfBytes": "32"
      },
      "t_struct(AddressSet)2635_storage": {
        "encoding": "inplace",
        "label": "struct EnumerableSet.AddressSet",
        "members": [
          {
            "astId": 2634,
            "contract": "contracts/ArbArt.sol:ArbArt",
            "label": "_inner",
            "offset": 0,
            "slot": "0",
            "type": "t_struct(Set)2358_storage"
          }
        ],
        "numberOfBytes": "64"
      },
      "t_struct(RoleData)56_storage": {
        "encoding": "inplace",
        "label": "struct AccessControl.RoleData",
        "members": [
          {
            "astId": 53,
            "contract": "contracts/ArbArt.sol:ArbArt",
            "label": "members",
            "offset": 0,
            "slot": "0",
            "type": "t_mapping(t_address,t_bool)"
          },
          {
            "astId": 55,
            "contract": "contracts/ArbArt.sol:ArbArt",
            "label": "adminRole",
            "offset": 0,
            "slot": "1",
            "type": "t_bytes32"
          }
        ],
        "numberOfBytes": "64"
      },
      "t_struct(Set)2358_storage": {
        "encoding": "inplace",
        "label": "struct EnumerableSet.Set",
        "members": [
          {
            "astId": 2353,
            "contract": "contracts/ArbArt.sol:ArbArt",
            "label": "_values",
            "offset": 0,
            "slot": "0",
            "type": "t_array(t_bytes32)dyn_storage"
          },
          {
            "astId": 2357,
            "contract": "contracts/ArbArt.sol:ArbArt",
            "label": "_indexes",
            "offset": 0,
            "slot": "1",
            "type": "t_mapping(t_bytes32,t_uint256)"
          }
        ],
        "numberOfBytes": "64"
      },
      "t_uint256": {
        "encoding": "inplace",
        "label": "uint256",
        "numberOfBytes": "32"
      }
    }
  }
}